{
  "address": "0x47cE00De0bd8Ed8FAbd335FE1EA8283284FfeC68",
  "abi": [
    {
      "inputs": [],
      "stateMutability": "nonpayable",
      "type": "constructor"
    },
    {
      "inputs": [
        {
          "internalType": "uint256[]",
          "name": "file",
          "type": "uint256[]"
        },
        {
          "internalType": "bytes",
          "name": "data",
          "type": "bytes"
        },
        {
          "internalType": "bytes",
          "name": "",
          "type": "bytes"
        }
      ],
      "name": "postProcess",
      "outputs": [
        {
          "internalType": "bytes",
          "name": "res",
          "type": "bytes"
        }
      ],
      "stateMutability": "view",
      "type": "function"
    },
    {
      "inputs": [],
      "name": "postProcessor",
      "outputs": [
        {
          "internalType": "contract IPostProcessResolver",
          "name": "",
          "type": "address"
        }
      ],
      "stateMutability": "view",
      "type": "function"
    },
    {
      "inputs": [
        {
          "internalType": "bytes",
          "name": "",
          "type": "bytes"
        }
      ],
      "name": "preProcess",
      "outputs": [
        {
          "internalType": "bytes",
          "name": "_res",
          "type": "bytes"
        }
      ],
      "stateMutability": "pure",
      "type": "function"
    },
    {
      "inputs": [],
      "name": "preProcessor",
      "outputs": [
        {
          "internalType": "contract IPreProcessResolver",
          "name": "",
          "type": "address"
        }
      ],
      "stateMutability": "view",
      "type": "function"
    },
    {
      "inputs": [
        {
          "internalType": "uint256[][]",
          "name": "files",
          "type": "uint256[][]"
        },
        {
          "internalType": "bytes",
          "name": "data",
          "type": "bytes"
        },
        {
          "internalType": "bytes",
          "name": "",
          "type": "bytes"
        }
      ],
      "name": "process",
      "outputs": [
        {
          "internalType": "uint256[]",
          "name": "resp",
          "type": "uint256[]"
        }
      ],
      "stateMutability": "view",
      "type": "function"
    },
    {
      "inputs": [],
      "name": "processor",
      "outputs": [
        {
          "internalType": "contract IProcessResolver",
          "name": "",
          "type": "address"
        }
      ],
      "stateMutability": "view",
      "type": "function"
    },
    {
      "inputs": [
        {
          "internalType": "bytes4",
          "name": "interfaceId",
          "type": "bytes4"
        }
      ],
      "name": "supportsInterface",
      "outputs": [
        {
          "internalType": "bool",
          "name": "",
          "type": "bool"
        }
      ],
      "stateMutability": "pure",
      "type": "function"
    }
  ],
  "transactionHash": "0xa2fe1aac9c4b7f0902a9e894e6244c5ad3798800d34badaf8646c8967dff3e88",
  "args": [],
  "solcInputHash": "0af8193e5e4b5c871898e5ceb8b8a673",
  "bytecode": "0x60e060405234801561001057600080fd5b5030606081901b608081905260c081905260a0528080614e1a61004b600039600060cd015260006101660152600061011f0152614e1a6000f3fe608060405234801561001057600080fd5b506004361061006d5760003560e01c806301ffc9a7146100725780634a0ef7031461009a5780637a99b292146100c85780638a61d30414610107578063b17400661461011a578063c142c49614610141578063ce1b1d4314610161575b600080fd5b6100856100803660046146af565b610188565b60405190151581526020015b60405180910390f35b6100bb6100a83660046146d7565b5060408051602081019091526000815290565b6040516100919190614b3f565b6100ef7f000000000000000000000000000000000000000000000000000000000000000081565b6040516001600160a01b039091168152602001610091565b6100bb610115366004614664565b61020f565b6100ef7f000000000000000000000000000000000000000000000000000000000000000081565b61015461014f36600461456f565b6103c6565b6040516100919190614afb565b6100ef7f000000000000000000000000000000000000000000000000000000000000000081565b60006001600160e01b031982166240966160e41b14806101b857506001600160e01b0319821663c0bd0d3160e01b145b806101d357506001600160e01b031982166312fc4fa960e21b145b806101ee57506001600160e01b03198216638b9e1aa360e01b145b8061020957506001600160e01b031982166301ffc9a760e01b145b92915050565b606060008060008580602001905181019061022a9190614711565b925092509250600061023c6006610424565b603f8960018b5161024d9190614c57565b8151811061026b57634e487b7160e01b600052603260045260246000fd5b6020026020010151901c16905060006102846006610424565b60458a60018c516102959190614c57565b815181106102b357634e487b7160e01b600052603260045260246000fd5b6020026020010151901c1690506102cb89838361042e565b95506102d686610616565b95506040518060400160405280601d81526020017f646174613a6170706c69636174696f6e2f6a736f6e3b6261736536342c00000081525061039861031a8761078b565b610325876020610796565b610339876001600160a01b03166014610796565b6040518060400160405280601a81526020017f646174613a696d6167652f7376672b786d6c3b6261736536342c0000000000008152508b6040516020016103849594939291906147d3565b604051602081830303815290604052610616565b6040516020016103a9929190614761565b604051602081830303815290604052955050505050509392505050565b6060600080600080868060200190518101906103e2919061452a565b935093509350935060006103f589610983565b905060006104076008603f8685610ec0565b90506104168160400151611184565b9a9950505050505050505050565b60020a6000190190565b6060600061044561044085600a614c38565b61078b565b61045361044086600a614c38565b61046161044087600a614c38565b61046f61044088600a614c38565b60405160200161048294939291906149de565b60408051601f1981840301815282820190915260068252651e17b9bb339f60d11b6020830152915060006104b8878280896111cd565b90506001606060005b878110156106005760005b8881101561059157811580156104e0575080155b156104f357806104ef81614cf1565b9150505b60006105018c83858e6111cd565b90508581141561051e578461051581614cf1565b9550505061057f565b836105548761052d8886614c57565b61053890600a614c38565b61054387600a614c38565b600a61054f8b82614c38565b611241565b604051602001610565929190614761565b604051602081830303815290604052935080955060019450505b8061058981614cf1565b9150506104cc565b50816105c3856105a1868d614c57565b6105ac90600a614c38565b6105b785600a614c38565b600a61054f8982614c38565b6040516020016105d4929190614761565b6040516020818303038152906040529150600093506000925080806105f890614cf1565b9150506104c1565b508481856040516020016103a993929190614790565b606081516000141561063657505060408051602081019091526000815290565b6000604051806060016040528060408152602001614da560409139905060006003845160026106659190614bc5565b61066f9190614c02565b61067a906004614c38565b90506000610689826020614bc5565b6001600160401b038111156106ae57634e487b7160e01b600052604160045260246000fd5b6040519080825280601f01601f1916602001820160405280156106d8576020820181803683370190505b509050818152600183018586518101602084015b818310156107465760039283018051603f601282901c811687015160f890811b8552600c83901c8216880151811b6001860152600683901c8216880151811b60028601529116860151901b938201939093526004016106ec565b60038951066001811461076057600281146107715761077d565b613d3d60f01b60011983015261077d565b603d60f81b6000198301525b509398975050505050505050565b6060610209826112be565b606060006107a5836002614c38565b6107b0906002614bc5565b6001600160401b038111156107d557634e487b7160e01b600052604160045260246000fd5b6040519080825280601f01601f1916602001820160405280156107ff576020820181803683370190505b509050600360fc1b8160008151811061082857634e487b7160e01b600052603260045260246000fd5b60200101906001600160f81b031916908160001a905350600f60fb1b8160018151811061086557634e487b7160e01b600052603260045260246000fd5b60200101906001600160f81b031916908160001a9053506000610889846002614c38565b610894906001614bc5565b90505b6001811115610928576f181899199a1a9b1b9c1cb0b131b232b360811b85600f16601081106108d657634e487b7160e01b600052603260045260246000fd5b1a60f81b8282815181106108fa57634e487b7160e01b600052603260045260246000fd5b60200101906001600160f81b031916908160001a90535060049490941c9361092181614cbd565b9050610897565b50831561097c5760405162461bcd60e51b815260206004820181905260248201527f537472696e67733a20686578206c656e67746820696e73756666696369656e7460448201526064015b60405180910390fd5b9392505050565b606081516001600160401b038111156109ac57634e487b7160e01b600052604160045260246000fd5b6040519080825280602002602001820160405280156109df57816020015b60608152602001906001900390816109ca5790505b50905060005b8251811015610eba57600080610a21858481518110610a1457634e487b7160e01b600052603260045260246000fd5b60200260200101516113dc565b915091508115610a32575050610ea8565b610a3d816020611522565b634e55474714610a7a5760405162461bcd60e51b815260206004820152600860248201526704445433a50493a360c41b6044820152606401610973565b6000610a87826003611522565b90506000610a9483611762565b90506000610aa3846002611522565b610aae906001614bc5565b9050806001600160401b03811115610ad657634e487b7160e01b600052604160045260246000fd5b604051908082528060200260200182016040528015610b0f57816020015b610afc6142b4565b815260200190600190039081610af45790505b50878781518110610b3057634e487b7160e01b600052603260045260246000fd5b602002602001018190525060005b81811015610ea157610b5085856118d9565b888881518110610b7057634e487b7160e01b600052603260045260246000fd5b60200260200101518281518110610b9757634e487b7160e01b600052603260045260246000fd5b60200260200101516080018181525050610bb085611997565b888881518110610bd057634e487b7160e01b600052603260045260246000fd5b60200260200101518281518110610bf757634e487b7160e01b600052603260045260246000fd5b60200260200101516060018181525050600080610c618a8a81518110610c2d57634e487b7160e01b600052603260045260246000fd5b60200260200101518481518110610c5457634e487b7160e01b600052603260045260246000fd5b6020026020010151611a7c565b91509150610c70878383611aaf565b8a8a81518110610c9057634e487b7160e01b600052603260045260246000fd5b60200260200101518481518110610cb757634e487b7160e01b600052603260045260246000fd5b602002602001015160200181905250848a8a81518110610ce757634e487b7160e01b600052603260045260246000fd5b60200260200101518481518110610d0e57634e487b7160e01b600052603260045260246000fd5b602002602001015160000181905250600080610d778c8c81518110610d4357634e487b7160e01b600052603260045260246000fd5b60200260200101518681518110610d6a57634e487b7160e01b600052603260045260246000fd5b6020026020010151611c60565b915091506000610e2d8d8d81518110610da057634e487b7160e01b600052603260045260246000fd5b60200260200101518781518110610dc757634e487b7160e01b600052603260045260246000fd5b6020026020010151610e288f8f81518110610df257634e487b7160e01b600052603260045260246000fd5b60200260200101518981518110610e1957634e487b7160e01b600052603260045260246000fd5b60200260200101518686611c93565b611d38565b92505050610e898d8d81518110610e5457634e487b7160e01b600052603260045260246000fd5b60200260200101518781518110610e7b57634e487b7160e01b600052603260045260246000fd5b602002602001015182611d85565b50505050508080610e9990614cf1565b915050610b3e565b5050505050505b80610eb281614cf1565b9150506109e5565b50919050565b610ec86142e3565b610ed0614324565b610eda8586611dd9565b8152856001600160401b03811115610f0257634e487b7160e01b600052604160045260246000fd5b604051908082528060200260200182016040528015610f3b57816020015b610f28614344565b815260200190600190039081610f205790505b506020820152610f49614369565b610f54600287614c16565b610f5f906001614bdd565b60ff168152610f6f600287614c16565b610f7a906001614bdd565b60ff16602082015260016040820152610f91614389565b60005b888160ff161015610ff95760405180604001604052808381526020018481525084602001518260ff1681518110610fdb57634e487b7160e01b600052603260045260246000fd5b60200260200101819052508080610ff190614d0c565b915050610f94565b50825160ff8816908190528351602001526110126143b7565b61101c8889611dd9565b6040820152886001600160401b0381111561104757634e487b7160e01b600052604160045260246000fd5b60405190808252806020026020018201604052801561108057816020015b61106d614344565b8152602001906001900390816110655790505b50606082015260005b86518160ff161015611175576000878260ff16815181106110ba57634e487b7160e01b600052603260045260246000fd5b60200260200101515111156111635761113182888360ff16815181106110f057634e487b7160e01b600052603260045260246000fd5b602002602001015161112c888b8660ff168151811061111f57634e487b7160e01b600052603260045260246000fd5b6020026020010151611e67565b612031565b61113b858361262f565b61114685838a612946565b6111508583612b72565b61115982612c4f565b6111638583612c5b565b8061116d81614d0c565b915050611089565b50509151979650505050505050565b604081015160808201518151829061119e90600190614c57565b815181106111bc57634e487b7160e01b600052603260045260246000fd5b602002602001018181525050919050565b6000806111da8385614c38565b6111e49086614bc5565b90506111f1600682614d2c565b6111fc906028614c38565b86611208600684614c02565b8151811061122657634e487b7160e01b600052603260045260246000fd5b6020026020010151901c63ffffffff16915050949350505050565b606060ff861661126057506040805160208101909152600081526112b5565b61126b866004612d37565b611274866112be565b61127d866112be565b611286866112be565b61128f866112be565b6040516020016112a39594939291906148fb565b60405160208183030381529060405290505b95945050505050565b6060816112e25750506040805180820190915260018152600360fc1b602082015290565b8160005b811561130c57806112f681614cf1565b91506113059050600a83614c02565b91506112e6565b806001600160401b0381111561133257634e487b7160e01b600052604160045260246000fd5b6040519080825280601f01601f19166020018201604052801561135c576020820181803683370190505b5092505b83156113d557611371600182614c57565b905061137e600a85614d2c565b611389906030614bc5565b60f81b8382815181106113ac57634e487b7160e01b600052603260045260246000fd5b60200101906001600160f81b031916908160001a9053506113ce600a85614c02565b9350611360565b5050919050565b600061140260405180606001604052806060815260200160008152602001600081525090565b82516114115760019150915091565b8281526002602082015282516001600160401b0381111561144257634e487b7160e01b600052604160045260246000fd5b60405190808252806020026020018201604052801561146b578160200160208202803683370190505b50815260408051808201909152600c81526b0d2dce0eae85cd8cadccee8d60a31b60209091015282515b801561151c57838185516114a99190614c57565b815181106114c757634e487b7160e01b600052603260045260246000fd5b602002602001015182600001516001836114e19190614c57565b815181106114ff57634e487b7160e01b600052603260045260246000fd5b60209081029190910101528061151481614cbd565b915050611495565b50915091565b600061152d82610424565b8351805160009061154e57634e487b7160e01b600052603260045260246000fd5b602002602001015116905081836000015160008151811061157f57634e487b7160e01b600052603260045260246000fd5b6020026020010151901c83600001516000815181106115ae57634e487b7160e01b600052603260045260246000fd5b60200260200101818152505081836040018181516115cc9190614bc5565b9052506040830151608011610209576000600284602001516115ee9190614c02565b84515190915081101561175b576080846040015161160c9190614c57565b8451805160009061162d57634e487b7160e01b600052603260045260246000fd5b60209081029190910101805190911b9052600061164a6080610424565b855180518490811061166c57634e487b7160e01b600052603260045260246000fd5b602002602001015116905060808560000151838151811061169d57634e487b7160e01b600052603260045260246000fd5b60200260200101818151901c91508181525050608081901b85600001516000815181106116da57634e487b7160e01b600052603260045260246000fd5b602002602001018181511791508181525050608085604001516116fd9190614c57565b8551805160009061171e57634e487b7160e01b600052603260045260246000fd5b6020908102919091018101805190921c909152850180519061173f82614cf1565b815250506080856040018181516117569190614c57565b905250505b5092915050565b60606000611771836004611522565b61177c906001614bc5565b9050611789816001614bc5565b6001600160401b038111156117ae57634e487b7160e01b600052604160045260246000fd5b6040519080825280602002602001820160405280156117d7578160200160208202803683370190505b50915060005b818110156113d557600060206117f4866004611522565b901b17600080611805876001611522565b905080600114156118195760009150611859565b6000611826886008611522565b90506000611835896008611522565b905060006118448a6008611522565b905080600883901b601085901b171794505050505b600882901b929092179161186e876001611522565b60011461188557611880876008611522565b611888565b60ff5b909217918286611899866001614bc5565b815181106118b757634e487b7160e01b600052603260045260246000fd5b60200260200101818152505050505080806118d190614cf1565b9150506117dd565b604b81901b60006118eb846006611522565b905060006118fa856006611522565b604581901b93909317603f83901b179290506033611919866006611522565b901b9290921791603961192d866006611522565b901b9290921791601b611941866001611522565b60011461195857611953866018611522565b61195b565b60005b901b9290921791600361196f866001611522565b60011461198657611981866018611522565b611989565b60005b901b83179250505092915050565b6000806119a5836001611522565b6001146119bc576119b7836004611522565b6119bf565b60015b905060005b818110156113d5576000806119da866006611522565b905060006119e9876006611522565b905060006119f8886003611522565b90506000611a07896001611522565b90508060011415611a2357600684901b94909417821793611a30565b600683901b949094178317935b80600114611a3f576000611a42565b60805b60ff16611a5083600c614c38565b611a5a9190614bc5565b85901b9450848817975050505050508080611a7490614cf1565b9150506119c4565b600080611a896006610424565b6080840151603f1c169150611a9e6006610424565b60458460800151901c169050915091565b60606000611abe856001611522565b600114611ae057611ad0856010611522565b611adb906001614bc5565b611af6565b611aeb856008611522565b611af6906001614bc5565b90506040611b048486614c38565b611b0e9190614c02565b611b19906001614bc5565b6001600160401b03811115611b3e57634e487b7160e01b600052604160045260246000fd5b604051908082528060200260200182016040528015611b67578160200160208202803683370190505b5091506000805b82811015611c56576000611b83886002611522565b611b8e906001614bc5565b90508060041415611bb257611ba4886004611522565b611baf906004614bc5565b90505b6000611bbf896004611522565b905060005b82811015611c4057611bd7604086614d2c565b611be2906004614c38565b82901b87611bf1604088614c02565b81518110611c0f57634e487b7160e01b600052603260045260246000fd5b602090810291909101018051909117905284611c2a81614cf1565b9550508080611c3890614cf1565b915050611bc4565b5050508080611c4e90614cf1565b915050611b6e565b5050509392505050565b600080611c6d6006610424565b608084015160331c169150611c826006610424565b60398460800151901c169050915091565b600080611c9f85611a7c565b5090506000611cae8285614c38565b611cb89086614bc5565b602087015151909150611ccc604083614c02565b10611cdc5760009250505061097c565b611ce7604082614d2c565b611cf2906004614c38565b6020870151611d02604084614c02565b81518110611d2057634e487b7160e01b600052603260045260246000fd5b6020026020010151901c600f16925050509392505050565b600080600084600001518481518110611d6157634e487b7160e01b600052603260045260246000fd5b602002602001015192508263ffffffff169150602083901c600f1690509250925092565b600f811115611dc45760405162461bcd60e51b815260206004820152600b60248201526a0564552533a5345545a3a360ac1b6044820152606401610973565b60809091018051604e9290921b919091179052565b611de16142e3565b611dec600284614d40565b60ff166001148015611e0b5750611e04600283614d40565b60ff166001145b611e405760405162461bcd60e51b815260206004820152600660248201526504d4c3a433a360d41b6044820152606401610973565b611e5181604001518460ff16612e42565b60408101516102099060ff808616908516612ebe565b600080825111611ea65760405162461bcd60e51b815260206004820152600a602482015269043414c433a5056493a360b41b6044820152606401610973565b815160011415611eb857506000610209565b600060018351611ec89190614c6e565b90506000611ed66003610424565b604b85600081518110611ef957634e487b7160e01b600052603260045260246000fd5b602002602001015160800151901c1690505b60ff821615612026576000611f206018610424565b601b868560ff1681518110611f4557634e487b7160e01b600052603260045260246000fd5b602002602001015160800151901c16905060006040518060a00160405280600115158152602001611f766006610424565b601285901c1660ff168152602001611f8e6006610424565b600c85901c1660ff168152602001611fa66006610424565b600685901c1660ff168152602001611fbe6006610424565b841660ff1681525090506120018188602001518581518110611ff057634e487b7160e01b600052603260045260246000fd5b602002602001015160000151612f75565b156120125783945050505050610209565b61201d600185614c6e565b93505050611f0b565b506000949350505050565b600061203d6018610424565b601b848460ff168151811061206257634e487b7160e01b600052603260045260246000fd5b602002602001015160800151901c169050600061207f6018610424565b6003858560ff16815181106120a457634e487b7160e01b600052603260045260246000fd5b602002602001015160800151901c1690506000806120de868660ff1681518110610d6a57634e487b7160e01b600052603260045260246000fd5b9150915060008061210b888860ff1681518110610c5457634e487b7160e01b600052603260045260246000fd5b6020808c01805160ff80861690915290519083169101526040805160e081018252600191810191825292945090925081906060820161214a6006610424565b60128b901c1660ff1681526020016121626006610424565b600c8b901c1660ff16815260200161217a6006610424565b60068b901c1660ff1681526020016121926006610424565b60008b901c1660ff16815250815260200160405180606001604052808760ff1681526020018660ff168152602001600115158152508152508960200151604001819052506040518060a001604052806001151581526020016121f46006610424565b601288901c1660ff16815260200161220c6006610424565b600c88901c1660ff1681526020016122246006610424565b600688901c1660ff16815260200161223c6006610424565b60ff90881616905260208a015160a00152604080516008808252610120820190925290816020015b61226c614369565b8152602001906001900390816122645790505060208a015160600152604080516008808252610120820190925290816020015b6122a7614369565b81526020019060019003908161229f57505060208a01516080015260005b60088110156123ec5760008060006123098c8c60ff16815181106122f957634e487b7160e01b600052603260045260246000fd5b6020026020010151856000612fd8565b92509250925080156123d657828d6020015160800151858151811061233e57634e487b7160e01b600052603260045260246000fd5b60200260200101516000019060ff16908160ff1681525050818d6020015160800151858151811061237f57634e487b7160e01b600052603260045260246000fd5b60200260200101516020019060ff16908160ff168152505060018d602001516080015185815181106123c157634e487b7160e01b600052603260045260246000fd5b60209081029190910101519015156040909101525b50505080806123e490614cf1565b9150506122c5565b5060005b60088110156125175760008060006124348c8c60ff168151811061242457634e487b7160e01b600052603260045260246000fd5b6020026020010151856001612fd8565b925092509250801561250157828d6020015160600151858151811061246957634e487b7160e01b600052603260045260246000fd5b60200260200101516000019060ff16908160ff1681525050818d602001516060015185815181106124aa57634e487b7160e01b600052603260045260246000fd5b60200260200101516020019060ff16908160ff168152505060018d602001516060015185815181106124ec57634e487b7160e01b600052603260045260246000fd5b60209081029190910101519015156040909101525b505050808061250f90614cf1565b9150506123f0565b50600060a08a0181905260808a01526060890151516001600160401b0381111561255157634e487b7160e01b600052604160045260246000fd5b60405190808252806020026020018201604052801561258a57816020015b612577614344565b81526020019060019003908161256f5790505b5060608a015261259a6003610424565b604b898960ff16815181106125bf57634e487b7160e01b600052603260045260246000fd5b602002602001015160800151901c16896000019060ff16908160ff1681525050612624888860ff168151811061260557634e487b7160e01b600052603260045260246000fd5b602002602001015183838c60400151613047909392919063ffffffff16565b505050505050505050565b60008260200151826000015160ff168151811061265c57634e487b7160e01b600052603260045260246000fd5b6020026020010151905060008260200151604001519050826020015160a001516040015160ff1660001415801561269a575080516040015160ff1615155b80156126bc575081600001516040015160ff1681600001516040015160ff1611155b1561275a5780516040908101518351909101516000916126db91614c6e565b90506127056001856020015160a00151604001516126f99190614c6e565b6040860151908361311b565b80826020015160000181815161271b9190614bdd565b60ff90811690915260208087015160a001510151161590506127585780846020015160a001516020018181516127519190614bdd565b60ff169052505b505b60208084015160a00151015160ff161580159061277e575080516020015160ff1615155b80156127a0575081600001516020015160ff1681600001516020015160ff1611155b156127e5576127e56001846020015160a00151602001516127c19190614c6e565b82516020908101518551909101516127d99190614c6e565b6040860151919061311b565b602083015160a001516080015160ff161580159061280a575080516080015160ff1615155b801561282c575081600001516080015160ff1681600001516080015160ff1611155b156128c157805160809081015183519091015160009161284b91614c6e565b602085015160a0015160800151604086015191925061286b919083613217565b8082602001516020018181516128819190614bdd565b60ff908116909152602086015160a0015160600151161590506128bf5780846020015160a001516060018181516128b89190614bdd565b60ff169052505b505b602083015160a001516060015160ff16158015906128e6575080516060015160ff1615155b8015612908575081600001516060015160ff1681600001516060015160ff1611155b1561294057602083015160a0015160609081015182518201518451909201516129409261293491614c6e565b60408601519190613217565b50505050565b60008360200151836000015160ff168151811061297357634e487b7160e01b600052603260045260246000fd5b60200260200101519050600083602001516040015190506129c76040518060400160405280600b81526020016a6d69782e6665617475726560a81b815250856000015160ff16612e3e90919063ffffffff16565b612ac260405180604001604052806013815260200172616e63686f722e636f6f7264696e6174652e6160681b81525082602001516020015160ff166040518060400160405280601381526020017230b731b437b91731b7b7b93234b730ba32973160691b81525085602001516000015160ff166040518060400160405280601581526020017472656365697665722e636f6f7264696e6174652e6160581b81525087602001516020015160ff16604051806040016040528060158152602001743932b1b2b4bb32b91731b7b7b93234b730ba32973160591b81525088602001516000015160ff1661330090979695949392919063ffffffff16565b60208082015151908301515160ff918216911611612ae1576000612af7565b602080820151519083015151612af79190614c6e565b60ff90811660a08601526020808301518101518482015190910151908216911611612b23576000612b3f565b806020015160200151826020015160200151612b3f9190614c6e565b60ff166080850181905260a0850151604086015180516020909101518851612b6b94909392909161330a565b5050505050565b60005b8251612b809061334e565b8015612b945750612b94826040015161334e565b15612bf9576000612ba8846000015161335e565b90506000612bb9846040015161335e565b90508015158015612bd85750602082901c600f16602082901c600f1610155b15612bf257612bf2612bea8383613387565b86519061338d565b5050612b75565b8251612c04906133b6565b82516000606082018190526080820181905260c0820181905260a090910152612c4a82604001516000606082018190526080820181905260c0820181905260a090910152565b505050565b612c58816133db565b50565b60005b8160600151518160ff161015612c4a57600082606001518260ff1681518110612c9757634e487b7160e01b600052603260045260246000fd5b6020026020010151905080602001516040015115612d245760a083015160208201518051612cc6908390614bdd565b60ff169052506080830151602080830151018051612ce5908390614bdd565b60ff9081169091526020860151805184935090918516908110612d1857634e487b7160e01b600052603260045260246000fd5b60200260200101819052505b5080612d2f81614d0c565b915050612c5e565b60606000612d46836002614c38565b6001600160401b03811115612d6b57634e487b7160e01b600052604160045260246000fd5b6040519080825280601f01601f191660200182016040528015612d95576020820181803683370190505b5080519091505b8015612e36576f181899199a1a9b1b9c1cb0b131b232b360811b85600f1660108110612dd857634e487b7160e01b600052603260045260246000fd5b1a60f81b82612de8600184614c57565b81518110612e0657634e487b7160e01b600052603260045260246000fd5b60200101906001600160f81b031916908160001a90535060049490941c9380612e2e81614cbd565b915050612d9c565b509392505050565b5050565b6006612e4e8280614c38565b612e589190614c02565b612e63906002614bc5565b6001600160401b03811115612e8857634e487b7160e01b600052604160045260246000fd5b604051908082528060200260200182016040528015612eb1578160200160208202803683370190505b5082604001819052505050565b612ec86006610424565b821115612f055760405162461bcd60e51b815260206004820152600b60248201526a0564552533a534554573a360ac1b6044820152606401610973565b612f0f6006610424565b811115612f4c5760405162461bcd60e51b815260206004820152600b60248201526a564552533a534554573a3160a81b6044820152606401610973565b612f58600c603f613612565b6080909301805160459290921b603f9390931b9190931617179052565b6000816020015160ff16836020015160ff1611158015612fa35750816040015160ff16836040015160ff1611155b8061097c5750816060015160ff16836060015160ff161115801561097c57505060809081015191015160ff9182169116111590565b60008060008084612fea576000612fed565b60805b60ff16612ffb87600c614c38565b6130059190614bc5565b8760600151901c9050613018600c610424565b166130236006610424565b81169350600681901c92508315158061303b57508215155b91505093509350939050565b60ff81166020850152600061305b84613628565b905060005b828110156130f35760005b848110156130e05761307d8786613645565b50600061308b878385611c93565b905080156130c2576000806130a08984611d38565b92509250506130bb8a83602084901b60248a901b171761338d565b50506130cd565b6130cd88600061338d565b50806130d881614cf1565b91505061306b565b50806130eb81614cf1565b915050613060565b5060ff831685526000606086018190526080860181905260c0860181905260a0860152612b6b565b60005b835160ff168110156131f957835160ff165b8360ff1681111561318c578360ff1681101561314b5761318c565b61317a61315b60ff851683614bc5565b6040870151849061316d9085836136df565b6040890151929190613788565b8061318481614cbd565b915050613130565b50600061319a846001614bdd565b60ff1690505b6131aa8385614bdd565b60ff1681116131e6576131d4818361316d8760ff16868a604001516136df9092919063ffffffff16565b806131de81614cf1565b9150506131a0565b50806131f181614cf1565b91505061311e565b50808360000181815161320c9190614bdd565b60ff16905250505050565b60005b836020015160ff168110156132ed57602084015160ff165b8360ff16811115613280578360ff1681101561324d57613280565b61326e8261325e60ff861684614bc5565b604088015161316d9086866136df565b8061327881614cbd565b915050613232565b50600061328e846001614bdd565b60ff1690505b61329e8385614bdd565b60ff1681116132da576132c8828261316d858860ff168a604001516136df9092919063ffffffff16565b806132d281614cf1565b915050613294565b50806132e581614cf1565b91505061321a565b50808360200181815161320c9190614bdd565b5050505050505050565b60ff80851660608701819052908416608087015260c086015261332d8483614bdd565b60ff16855261333c8382614bdd565b60ff1660209095019490945250505050565b6000610209828360000151613645565b6000610209826060015160ff16836080015160ff1684604001516136df9092919063ffffffff16565b80610209565b612e3e826060015160ff16836080015160ff16838560400151613788909392919063ffffffff16565b6000806133c68360400151611a7c565b60ff9182168552166020909301929092525050565b606060008060005b846020015160800151518160ff161015612b6b576133ff614369565b8560200151608001518260ff168151811061342a57634e487b7160e01b600052603260045260246000fd5b60200260200101516040015115613552578361344581614d0c565b9450508560200151608001518260ff168151811061347357634e487b7160e01b600052603260045260246000fd5b60200260200101519050806020015186606001518360ff16815181106134a957634e487b7160e01b600052603260045260246000fd5b6020026020010151602001516000019060ff16908160ff1681525050806000015186606001518360ff16815181106134f157634e487b7160e01b600052603260045260246000fd5b6020026020010151602001516020019060ff16908160ff1681525050600186606001518360ff168151811061353657634e487b7160e01b600052603260045260246000fd5b60209081029190910181015101519015156040909101526135ff565b8560200151606001518260ff168151811061357d57634e487b7160e01b600052603260045260246000fd5b602002602001015160400151156135ff578261359881614d0c565b9350508451600014156135b5576135b286604001516137c1565b94505b6135f2868760200151606001518460ff16815181106135e457634e487b7160e01b600052603260045260246000fd5b602002602001015187613a22565b90506135ff868284613b8d565b508061360a81614d0c565b9150506133e3565b60008161361e84610424565b901b199392505050565b60006136346003610424565b604b8360800151901c169050919050565b60008260a00151156136ce576060830151613661906001614bdd565b60ff168260ff16116136be57608083015161367d906001614bdd565b60ff16836020015160ff16141561369657506000610209565b60c083015160ff166060840152608083018051906136b382614d0c565b60ff169052506136d6565b606083018051906136b382614d0c565b600160a08401525b50600192915050565b6000806136eb85611a7c565b50905060006136fa8285614c38565b6137049086614bc5565b604087015151909150613718600683614c02565b106137285760009250505061097c565b613733600682614d2c565b61373e906028614c38565b604087015161374e600684614c02565b8151811061376c57634e487b7160e01b600052603260045260246000fd5b6020026020010151901c64ffffffffff16925050509392505050565b600061379385611a7c565b50905060006137a28285614c38565b6137ac9086614bc5565b90506137b9868285613e11565b505050505050565b606060008060006137d185613ed6565b60408051600580825260c082019092529396509194509250816020015b6137f6614369565b8152602001906001900390816137ee579050509350808460008151811061382d57634e487b7160e01b600052603260045260246000fd5b60200260200101819052506040518060600160405280826000015160ff1681526020018483602001516138609190614c6e565b60ff168152602001600115158152508460018151811061389057634e487b7160e01b600052603260045260246000fd5b6020908102919091010152826138a7600282614d40565b60ff16156138bd57806138b981614d0c565b9150505b6040805160608101909152825160ff168152602081016138de600284614c16565b84602001516138ed9190614c6e565b60ff168152602001600115158152508560028151811061391d57634e487b7160e01b600052603260045260246000fd5b602090810291909101015282613934600282614d40565b60ff161561394a578061394681614d0c565b9150505b6040805160608101909152835160ff1681526020810161396b600284614c16565b856020015161397a9190614bdd565b60ff16815260200160011515815250866003815181106139aa57634e487b7160e01b600052603260045260246000fd5b60200260200101819052506040518060600160405280846000015160ff1681526020018585602001516139dd9190614bdd565b60ff1681526020016001151581525086600481518110613a0d57634e487b7160e01b600052603260045260246000fd5b60200260200101819052505050505050919050565b613a2a614369565b81836000015160ff1681518110613a5157634e487b7160e01b600052603260045260246000fd5b60209081029190910101515160ff908116825283518351849291909116908110613a8b57634e487b7160e01b600052603260045260246000fd5b60209081029190910181015181015160ff908116838301526001604084015284820151161015613ad65782602001518160200151613ac99190614c6e565b60ff166020820152613aff565b60208360200151613ae79190614c6e565b8160200151613af69190614bdd565b60ff1660208201525b805160208201516040808701510151613b2092909160ff9182169116614298565b61097c57806020015160ff1682600081518110613b4d57634e487b7160e01b600052603260045260246000fd5b60200260200101516020015160ff161115613b7d5760208101805190613b7282614d0c565b60ff16905250613aff565b60208101805190613b7282614cd4565b613b95614389565b604084015151613ba790600190614c6e565b60ff16836000015160ff16108015613bf45750613bf481602001516001613bce9190614bdd565b8451613bda9190614bdd565b602085015160408088015101519160ff9081169116614298565b15613c145760208101805190613c0982614d0c565b60ff16905250613b95565b825160ff1615801590613c4057506040810151613c32906001614bdd565b60ff16836000015160ff1610155b8015613c675750613c6781604001516001613c5b9190614bdd565b8451613bda9190614c6e565b15613c875760408101805190613c7c82614d0c565b60ff16905250613c14565b602083015160ff1615801590613cb657506060810151613ca8906001614bdd565b60ff16836020015160ff1610155b8015613cf8575082516060820151613cf89160ff1690613cd7906001614bdd565b8560200151613ce69190614c6e565b6040808801510151919060ff16614298565b15613d185760608101805190613d0d82614d0c565b60ff16905250613c87565b6001846040015160200151613d2d9190614c6e565b60ff16836020015160ff16108015613d69575082516080820151613d699160ff1690613d5a906001614bdd565b8560200151613ce69190614bdd565b15613d895760808101805190613d7e82614d0c565b60ff16905250613d18565b83606001518260ff1681518110613db057634e487b7160e01b600052603260045260246000fd5b602002602001015160200151604001516129405760405180604001604052808281526020018481525084606001518360ff1681518110613e0057634e487b7160e01b600052603260045260246000fd5b602002602001018190525050505050565b613e1c600683614c02565b8360400151511115612c4a576000613e35600684614d2c565b613e40906028614c38565b9050613e4d602882613612565b6040850151613e5d600686614c02565b81518110613e7b57634e487b7160e01b600052603260045260246000fd5b6020908102919091010180519091169052604084015182821b90613ea0600686614c02565b81518110613ebe57634e487b7160e01b600052603260045260246000fd5b60200260200101818151179150818152505050505050565b600080613ee1614369565b8351613eef90600290614c16565b60ff1681526020840151613f0590600290614c16565b60ff1660208201526001604082018190529250829150600080808480825b806141455782158015613f34575083155b9250821561400a57613f78613f4a836001614bdd565b8851613f569190614c6e565b60ff168a8960200151613f699190614c6e565b60408d0151919060ff16614298565b8015613f995750613f99613f8d836001614bdd565b8851613f569190614bdd565b8015613fcd5750613fcd613fae836001614bdd565b8851613fba9190614c6e565b60ff16898960200151613f699190614bdd565b8015613fee5750613fee613fe2836001614bdd565b8851613fba9190614bdd565b156140055781613ffd81614d0c565b92505061400a565b600193505b8561408e5760008988602001516140219190614c6e565b60ff1611801561405a5750865161405a9061403d908490614c6e565b60ff1661404b8b6001614bdd565b8960200151613f699190614c6e565b8015614072575086516140729061403d908490614bdd565b15614089578861408181614d0c565b99505061408e565b600195505b846141245760018a602001516140a49190614c6e565b60ff168888602001516140b79190614bdd565b60ff161080156140f0575086516140f0906140d3908490614c6e565b60ff166140e18a6001614bdd565b8960200151613f699190614bdd565b801561410857508651614108906140d3908490614bdd565b1561411f578761411781614d0c565b985050614124565b600194505b84801561412e5750855b80156141375750835b15614140575060015b613f23565b8760ff168960ff161461428b57600061415e898b614bdd565b614169906001614bdd565b9050600060026141798184614d40565b60ff16156141915761418c836001614bdd565b614193565b825b61419d9190614c16565b905060008b60018b60200151846141b49190614bdd565b6141be9190614c6e565b6141c89190614c6e565b9050896020015160ff168160ff1611156142305760008a60200151826141ee9190614c6e565b90506141fa818e614bdd565b9c508060ff168c60ff161161421b576142138c82614c6e565b9b508b614229565b614225818d614c6e565b9b508b5b5050614280565b6000818b602001516142429190614c6e565b90508060ff168d60ff16116142635761425b8d82614c6e565b9c508c614271565b61426d818e614c6e565b9c508c5b5061427c818d614bdd565b9b50505b60ff1660208a015250505b5050505050509193909250565b6000806142a68585856136df565b60ff16151595945050505050565b6040518060a0016040528060608152602001606081526020016060815260200160008152602001600081525090565b6040805160e081018252600080825260208201529081016143026142b4565b8152600060208201819052604082018190526060820181905260809091015290565b60405180604001604052806143376142e3565b8152602001606081525090565b6040518060400160405280614357614389565b8152602001614364614369565b905290565b604080516060810182526000808252602082018190529181019190915290565b6040805160a08101825260008082526020820181905291810182905260608101829052608081019190915290565b6040518060c00160405280600060ff1681526020016143d46143fb565b81526020016143e16142e3565b815260606020820181905260006040830181905291015290565b6040805160e0810182526000808252602082015290810161441a614344565b81526020016060815260200160608152602001614337614389565b80516001600160a01b038116811461444c57600080fd5b919050565b600082601f830112614461578081fd5b8135602061447661447183614ba2565b614b72565b80838252828201915082860187848660051b8901011115614495578586fd5b855b858110156144b357813584529284019290840190600101614497565b5090979650505050505050565b600082601f8301126144d0578081fd5b81356001600160401b038111156144e9576144e9614d8e565b6144fc601f8201601f1916602001614b72565b818152846020838601011115614510578283fd5b816020850160208301379081016020019190915292915050565b6000806000806080858703121561453f578384fd5b61454885614435565b9350602085015192506040850151915061456460608601614435565b905092959194509250565b600080600060608486031215614583578283fd5b83356001600160401b0380821115614599578485fd5b818601915086601f8301126145ac578485fd5b813560206145bc61447183614ba2565b8083825282820191508286018b848660051b89010111156145db57898afd5b895b85811015614614578135878111156145f3578b8cfd5b6146018e87838c0101614451565b85525092840192908401906001016145dd565b5090985050508701359250508082111561462c578384fd5b614638878388016144c0565b9350604086013591508082111561464d578283fd5b5061465a868287016144c0565b9150509250925092565b600080600060608486031215614678578283fd5b83356001600160401b038082111561468e578485fd5b61469a87838801614451565b9450602086013591508082111561462c578384fd5b6000602082840312156146c0578081fd5b81356001600160e01b03198116811461097c578182fd5b6000602082840312156146e8578081fd5b81356001600160401b038111156146fd578182fd5b614709848285016144c0565b949350505050565b600080600060608486031215614725578283fd5b835192506020840151915061473c60408501614435565b90509250925092565b60008151614757818560208601614c91565b9290920192915050565b60008351614773818460208801614c91565b835190830190614787818360208801614c91565b01949350505050565b600084516147a2818460208901614c91565b8451908301906147b6818360208901614c91565b84519101906147c9818360208801614c91565b0195945050505050565b683d913730b6b2911d1160b91b815265139d59d9d19560d21b60098201526c1116113a37b5b2b724b2111d1160991b600f820152855160009061481d81601c850160208b01614c91565b701116113232b9b1b934b83a34b7b7111d1160791b601c918401918201526e151a1948139d59d9da595cdd081195608a1b602d8201526d11161134ba32b6a230ba30911d1160911b603c820152865161487d81604a840160208b01614c91565b6a11161137bbb732b9111d1160a91b604a929091019182015285516148a9816055840160208a01614c91565b6148ee6148e06148da6148d46055858701016c1116101134b6b0b3b2911d101160991b8152600d0190565b89614745565b87614745565b61227d60f01b815260020190565b9998505050505050505050565b6d093c726563742066696c6c3d272360901b8152855160009061492581600e850160208b01614c91565b642720783d2760d81b600e91840191820152865161494a816013840160208b01614c91565b642720793d2760d81b601392909101918201528551614970816018840160208a01614c91565b6927206865696768743d2760b01b60189290910191820152845161499b816022840160208901614c91565b68272077696474683d2760b81b6022929091019182015283516149c581602b840160208801614c91565b6148ee602b828401016313979f0560e11b815260040190565b7101e39bb33903b34b2bba137bc1e93981018160751b815260008551614a0b816012850160208a01614c91565b600160fd1b6012918401918201528551614a2c816013840160208a01614c91565b6920272077696474683d2760b01b601392909101918201528451614a5781601d840160208901614c91565b6927206865696768743d2760b01b601d92909101918201528351614a82816027840160208801614c91565b7f2720786d6c6e733d27687474703a2f2f7777772e77332e6f72672f323030302f602792909101918201527f7376672720786d6c6e733a786c696e6b3d27687474703a2f2f7777772e77332e60478201527137b93397989c9c9c97bc3634b735939f2e3760711b60678201526079019695505050505050565b6020808252825182820181905260009190848201906040850190845b81811015614b3357835183529284019291840191600101614b17565b50909695505050505050565b6020815260008251806020840152614b5e816040850160208701614c91565b601f01601f19169190910160400192915050565b604051601f8201601f191681016001600160401b0381118282101715614b9a57614b9a614d8e565b604052919050565b60006001600160401b03821115614bbb57614bbb614d8e565b5060051b60200190565b60008219821115614bd857614bd8614d62565b500190565b600060ff821660ff84168060ff03821115614bfa57614bfa614d62565b019392505050565b600082614c1157614c11614d78565b500490565b600060ff831680614c2957614c29614d78565b8060ff84160491505092915050565b6000816000190483118215151615614c5257614c52614d62565b500290565b600082821015614c6957614c69614d62565b500390565b600060ff821660ff841680821015614c8857614c88614d62565b90039392505050565b60005b83811015614cac578181015183820152602001614c94565b838111156129405750506000910152565b600081614ccc57614ccc614d62565b506000190190565b600060ff821680614ce757614ce7614d62565b6000190192915050565b6000600019821415614d0557614d05614d62565b5060010190565b600060ff821660ff811415614d2357614d23614d62565b60010192915050565b600082614d3b57614d3b614d78565b500690565b600060ff831680614d5357614d53614d78565b8060ff84160691505092915050565b634e487b7160e01b600052601160045260246000fd5b634e487b7160e01b600052601260045260246000fd5b634e487b7160e01b600052604160045260246000fdfe4142434445464748494a4b4c4d4e4f505152535455565758595a6162636465666768696a6b6c6d6e6f707172737475767778797a303132333435363738392b2fa2646970667358221220011f01aebe2bbd379c8a93e78235ee777449061d828051fbb9bea25c50838c2864736f6c63430008040033",
  "devdoc": {
    "author": "Nugg Labs - @danny7even & @dub6ix",
    "details": "hold my margarita",
    "kind": "dev",
    "methods": {},
    "title": "DotNugg V1 - onchain encoder/decoder for dotnugg files",
    "version": 1
  },
  "userdoc": {
    "kind": "user",
    "methods": {},
    "notice": "yoU CAN'T HaVe ImAgES oN THe BlOCkcHAIn",
    "version": 1
  },
  "storageLayout": {
    "storage": [],
    "types": null
  }
}