{
  "address": "0xF7895Bc8A3C3A8B91D834b888a6BdEaE4a2fb098",
  "abi": [
    {
      "inputs": [],
      "stateMutability": "nonpayable",
      "type": "constructor"
    },
    {
      "inputs": [
        {
          "internalType": "address",
          "name": "implementer",
          "type": "address"
        },
        {
          "internalType": "uint256",
          "name": "tokenId",
          "type": "uint256"
        },
        {
          "internalType": "address",
          "name": "resolver",
          "type": "address"
        },
        {
          "internalType": "uint8",
          "name": "width",
          "type": "uint8"
        },
        {
          "internalType": "uint8",
          "name": "zoom",
          "type": "uint8"
        }
      ],
      "name": "dotnuggToBytes",
      "outputs": [
        {
          "internalType": "address",
          "name": "resolvedBy",
          "type": "address"
        },
        {
          "internalType": "bytes",
          "name": "res",
          "type": "bytes"
        }
      ],
      "stateMutability": "view",
      "type": "function"
    },
    {
      "inputs": [
        {
          "internalType": "address",
          "name": "implementer",
          "type": "address"
        },
        {
          "internalType": "uint256",
          "name": "tokenId",
          "type": "uint256"
        },
        {
          "internalType": "address",
          "name": "resolver",
          "type": "address"
        },
        {
          "internalType": "uint8",
          "name": "width",
          "type": "uint8"
        },
        {
          "internalType": "uint8",
          "name": "zoom",
          "type": "uint8"
        }
      ],
      "name": "dotnuggToMetadata",
      "outputs": [
        {
          "internalType": "address",
          "name": "resolvedBy",
          "type": "address"
        },
        {
          "components": [
            {
              "internalType": "uint256",
              "name": "version",
              "type": "uint256"
            },
            {
              "internalType": "uint256",
              "name": "renderedAt",
              "type": "uint256"
            },
            {
              "internalType": "string",
              "name": "name",
              "type": "string"
            },
            {
              "internalType": "string",
              "name": "desc",
              "type": "string"
            },
            {
              "internalType": "address",
              "name": "owner",
              "type": "address"
            },
            {
              "internalType": "uint256",
              "name": "tokenId",
              "type": "uint256"
            },
            {
              "internalType": "uint8[]",
              "name": "ids",
              "type": "uint8[]"
            },
            {
              "internalType": "uint8[]",
              "name": "xovers",
              "type": "uint8[]"
            },
            {
              "internalType": "uint8[]",
              "name": "yovers",
              "type": "uint8[]"
            },
            {
              "internalType": "string[]",
              "name": "labels",
              "type": "string[]"
            },
            {
              "internalType": "bytes",
              "name": "data",
              "type": "bytes"
            }
          ],
          "internalType": "struct IDotnuggV1Metadata.Memory",
          "name": "res",
          "type": "tuple"
        }
      ],
      "stateMutability": "view",
      "type": "function"
    },
    {
      "inputs": [
        {
          "internalType": "address",
          "name": "implementer",
          "type": "address"
        },
        {
          "internalType": "uint256",
          "name": "tokenId",
          "type": "uint256"
        },
        {
          "internalType": "address",
          "name": "resolver",
          "type": "address"
        },
        {
          "internalType": "uint8",
          "name": "width",
          "type": "uint8"
        },
        {
          "internalType": "uint8",
          "name": "zoom",
          "type": "uint8"
        }
      ],
      "name": "dotnuggToRaw",
      "outputs": [
        {
          "internalType": "address",
          "name": "resolvedBy",
          "type": "address"
        },
        {
          "internalType": "uint256[]",
          "name": "res",
          "type": "uint256[]"
        }
      ],
      "stateMutability": "view",
      "type": "function"
    },
    {
      "inputs": [
        {
          "internalType": "address",
          "name": "implementer",
          "type": "address"
        },
        {
          "internalType": "uint256",
          "name": "tokenId",
          "type": "uint256"
        },
        {
          "internalType": "address",
          "name": "resolver",
          "type": "address"
        },
        {
          "internalType": "uint8",
          "name": "width",
          "type": "uint8"
        },
        {
          "internalType": "uint8",
          "name": "zoom",
          "type": "uint8"
        }
      ],
      "name": "dotnuggToString",
      "outputs": [
        {
          "internalType": "address",
          "name": "resolvedBy",
          "type": "address"
        },
        {
          "internalType": "string",
          "name": "res",
          "type": "string"
        }
      ],
      "stateMutability": "view",
      "type": "function"
    },
    {
      "inputs": [
        {
          "internalType": "address",
          "name": "implementer",
          "type": "address"
        },
        {
          "internalType": "uint256",
          "name": "tokenId",
          "type": "uint256"
        },
        {
          "internalType": "address",
          "name": "resolver",
          "type": "address"
        },
        {
          "internalType": "uint8",
          "name": "width",
          "type": "uint8"
        },
        {
          "internalType": "uint8",
          "name": "zoom",
          "type": "uint8"
        }
      ],
      "name": "dotnuggToUri",
      "outputs": [
        {
          "internalType": "address",
          "name": "resolvedBy",
          "type": "address"
        },
        {
          "internalType": "string",
          "name": "res",
          "type": "string"
        }
      ],
      "stateMutability": "view",
      "type": "function"
    },
    {
      "inputs": [],
      "name": "lib",
      "outputs": [
        {
          "internalType": "contract DotnuggV1Lib",
          "name": "",
          "type": "address"
        }
      ],
      "stateMutability": "view",
      "type": "function"
    },
    {
      "inputs": [
        {
          "internalType": "address",
          "name": "implementer",
          "type": "address"
        },
        {
          "internalType": "uint256",
          "name": "tokenId",
          "type": "uint256"
        },
        {
          "internalType": "uint8",
          "name": "width",
          "type": "uint8"
        }
      ],
      "name": "process",
      "outputs": [
        {
          "internalType": "uint256[]",
          "name": "resp",
          "type": "uint256[]"
        },
        {
          "components": [
            {
              "internalType": "uint256",
              "name": "version",
              "type": "uint256"
            },
            {
              "internalType": "uint256",
              "name": "renderedAt",
              "type": "uint256"
            },
            {
              "internalType": "string",
              "name": "name",
              "type": "string"
            },
            {
              "internalType": "string",
              "name": "desc",
              "type": "string"
            },
            {
              "internalType": "address",
              "name": "owner",
              "type": "address"
            },
            {
              "internalType": "uint256",
              "name": "tokenId",
              "type": "uint256"
            },
            {
              "internalType": "uint8[]",
              "name": "ids",
              "type": "uint8[]"
            },
            {
              "internalType": "uint8[]",
              "name": "xovers",
              "type": "uint8[]"
            },
            {
              "internalType": "uint8[]",
              "name": "yovers",
              "type": "uint8[]"
            },
            {
              "internalType": "string[]",
              "name": "labels",
              "type": "string[]"
            },
            {
              "internalType": "bytes",
              "name": "data",
              "type": "bytes"
            }
          ],
          "internalType": "struct IDotnuggV1Metadata.Memory",
          "name": "data",
          "type": "tuple"
        }
      ],
      "stateMutability": "view",
      "type": "function"
    },
    {
      "inputs": [
        {
          "internalType": "uint256[]",
          "name": "file",
          "type": "uint256[]"
        },
        {
          "components": [
            {
              "internalType": "uint256",
              "name": "version",
              "type": "uint256"
            },
            {
              "internalType": "uint256",
              "name": "renderedAt",
              "type": "uint256"
            },
            {
              "internalType": "string",
              "name": "name",
              "type": "string"
            },
            {
              "internalType": "string",
              "name": "desc",
              "type": "string"
            },
            {
              "internalType": "address",
              "name": "owner",
              "type": "address"
            },
            {
              "internalType": "uint256",
              "name": "tokenId",
              "type": "uint256"
            },
            {
              "internalType": "uint8[]",
              "name": "ids",
              "type": "uint8[]"
            },
            {
              "internalType": "uint8[]",
              "name": "xovers",
              "type": "uint8[]"
            },
            {
              "internalType": "uint8[]",
              "name": "yovers",
              "type": "uint8[]"
            },
            {
              "internalType": "string[]",
              "name": "labels",
              "type": "string[]"
            },
            {
              "internalType": "bytes",
              "name": "data",
              "type": "bytes"
            }
          ],
          "internalType": "struct IDotnuggV1Metadata.Memory",
          "name": "data",
          "type": "tuple"
        },
        {
          "internalType": "uint8",
          "name": "",
          "type": "uint8"
        }
      ],
      "name": "resolveBytes",
      "outputs": [
        {
          "internalType": "bytes",
          "name": "res",
          "type": "bytes"
        }
      ],
      "stateMutability": "pure",
      "type": "function"
    },
    {
      "inputs": [
        {
          "internalType": "uint256[]",
          "name": "",
          "type": "uint256[]"
        },
        {
          "components": [
            {
              "internalType": "uint256",
              "name": "version",
              "type": "uint256"
            },
            {
              "internalType": "uint256",
              "name": "renderedAt",
              "type": "uint256"
            },
            {
              "internalType": "string",
              "name": "name",
              "type": "string"
            },
            {
              "internalType": "string",
              "name": "desc",
              "type": "string"
            },
            {
              "internalType": "address",
              "name": "owner",
              "type": "address"
            },
            {
              "internalType": "uint256",
              "name": "tokenId",
              "type": "uint256"
            },
            {
              "internalType": "uint8[]",
              "name": "ids",
              "type": "uint8[]"
            },
            {
              "internalType": "uint8[]",
              "name": "xovers",
              "type": "uint8[]"
            },
            {
              "internalType": "uint8[]",
              "name": "yovers",
              "type": "uint8[]"
            },
            {
              "internalType": "string[]",
              "name": "labels",
              "type": "string[]"
            },
            {
              "internalType": "bytes",
              "name": "data",
              "type": "bytes"
            }
          ],
          "internalType": "struct IDotnuggV1Metadata.Memory",
          "name": "data",
          "type": "tuple"
        },
        {
          "internalType": "uint8",
          "name": "",
          "type": "uint8"
        }
      ],
      "name": "resolveMetadata",
      "outputs": [
        {
          "components": [
            {
              "internalType": "uint256",
              "name": "version",
              "type": "uint256"
            },
            {
              "internalType": "uint256",
              "name": "renderedAt",
              "type": "uint256"
            },
            {
              "internalType": "string",
              "name": "name",
              "type": "string"
            },
            {
              "internalType": "string",
              "name": "desc",
              "type": "string"
            },
            {
              "internalType": "address",
              "name": "owner",
              "type": "address"
            },
            {
              "internalType": "uint256",
              "name": "tokenId",
              "type": "uint256"
            },
            {
              "internalType": "uint8[]",
              "name": "ids",
              "type": "uint8[]"
            },
            {
              "internalType": "uint8[]",
              "name": "xovers",
              "type": "uint8[]"
            },
            {
              "internalType": "uint8[]",
              "name": "yovers",
              "type": "uint8[]"
            },
            {
              "internalType": "string[]",
              "name": "labels",
              "type": "string[]"
            },
            {
              "internalType": "bytes",
              "name": "data",
              "type": "bytes"
            }
          ],
          "internalType": "struct IDotnuggV1Metadata.Memory",
          "name": "res",
          "type": "tuple"
        }
      ],
      "stateMutability": "pure",
      "type": "function"
    },
    {
      "inputs": [
        {
          "internalType": "uint256[]",
          "name": "file",
          "type": "uint256[]"
        },
        {
          "components": [
            {
              "internalType": "uint256",
              "name": "version",
              "type": "uint256"
            },
            {
              "internalType": "uint256",
              "name": "renderedAt",
              "type": "uint256"
            },
            {
              "internalType": "string",
              "name": "name",
              "type": "string"
            },
            {
              "internalType": "string",
              "name": "desc",
              "type": "string"
            },
            {
              "internalType": "address",
              "name": "owner",
              "type": "address"
            },
            {
              "internalType": "uint256",
              "name": "tokenId",
              "type": "uint256"
            },
            {
              "internalType": "uint8[]",
              "name": "ids",
              "type": "uint8[]"
            },
            {
              "internalType": "uint8[]",
              "name": "xovers",
              "type": "uint8[]"
            },
            {
              "internalType": "uint8[]",
              "name": "yovers",
              "type": "uint8[]"
            },
            {
              "internalType": "string[]",
              "name": "labels",
              "type": "string[]"
            },
            {
              "internalType": "bytes",
              "name": "data",
              "type": "bytes"
            }
          ],
          "internalType": "struct IDotnuggV1Metadata.Memory",
          "name": "",
          "type": "tuple"
        },
        {
          "internalType": "uint8",
          "name": "",
          "type": "uint8"
        }
      ],
      "name": "resolveRaw",
      "outputs": [
        {
          "internalType": "uint256[]",
          "name": "res",
          "type": "uint256[]"
        }
      ],
      "stateMutability": "pure",
      "type": "function"
    },
    {
      "inputs": [
        {
          "internalType": "uint256[]",
          "name": "file",
          "type": "uint256[]"
        },
        {
          "components": [
            {
              "internalType": "uint256",
              "name": "version",
              "type": "uint256"
            },
            {
              "internalType": "uint256",
              "name": "renderedAt",
              "type": "uint256"
            },
            {
              "internalType": "string",
              "name": "name",
              "type": "string"
            },
            {
              "internalType": "string",
              "name": "desc",
              "type": "string"
            },
            {
              "internalType": "address",
              "name": "owner",
              "type": "address"
            },
            {
              "internalType": "uint256",
              "name": "tokenId",
              "type": "uint256"
            },
            {
              "internalType": "uint8[]",
              "name": "ids",
              "type": "uint8[]"
            },
            {
              "internalType": "uint8[]",
              "name": "xovers",
              "type": "uint8[]"
            },
            {
              "internalType": "uint8[]",
              "name": "yovers",
              "type": "uint8[]"
            },
            {
              "internalType": "string[]",
              "name": "labels",
              "type": "string[]"
            },
            {
              "internalType": "bytes",
              "name": "data",
              "type": "bytes"
            }
          ],
          "internalType": "struct IDotnuggV1Metadata.Memory",
          "name": "data",
          "type": "tuple"
        },
        {
          "internalType": "uint8",
          "name": "zoom",
          "type": "uint8"
        }
      ],
      "name": "resolveString",
      "outputs": [
        {
          "internalType": "string",
          "name": "",
          "type": "string"
        }
      ],
      "stateMutability": "view",
      "type": "function"
    },
    {
      "inputs": [
        {
          "internalType": "uint256[]",
          "name": "file",
          "type": "uint256[]"
        },
        {
          "components": [
            {
              "internalType": "uint256",
              "name": "version",
              "type": "uint256"
            },
            {
              "internalType": "uint256",
              "name": "renderedAt",
              "type": "uint256"
            },
            {
              "internalType": "string",
              "name": "name",
              "type": "string"
            },
            {
              "internalType": "string",
              "name": "desc",
              "type": "string"
            },
            {
              "internalType": "address",
              "name": "owner",
              "type": "address"
            },
            {
              "internalType": "uint256",
              "name": "tokenId",
              "type": "uint256"
            },
            {
              "internalType": "uint8[]",
              "name": "ids",
              "type": "uint8[]"
            },
            {
              "internalType": "uint8[]",
              "name": "xovers",
              "type": "uint8[]"
            },
            {
              "internalType": "uint8[]",
              "name": "yovers",
              "type": "uint8[]"
            },
            {
              "internalType": "string[]",
              "name": "labels",
              "type": "string[]"
            },
            {
              "internalType": "bytes",
              "name": "data",
              "type": "bytes"
            }
          ],
          "internalType": "struct IDotnuggV1Metadata.Memory",
          "name": "data",
          "type": "tuple"
        },
        {
          "internalType": "uint8",
          "name": "zoom",
          "type": "uint8"
        }
      ],
      "name": "resolveUri",
      "outputs": [
        {
          "internalType": "string",
          "name": "res",
          "type": "string"
        }
      ],
      "stateMutability": "view",
      "type": "function"
    },
    {
      "inputs": [
        {
          "internalType": "uint8",
          "name": "feature",
          "type": "uint8"
        },
        {
          "internalType": "uint256[][]",
          "name": "data",
          "type": "uint256[][]"
        }
      ],
      "name": "store",
      "outputs": [
        {
          "internalType": "uint8",
          "name": "res",
          "type": "uint8"
        }
      ],
      "stateMutability": "nonpayable",
      "type": "function"
    },
    {
      "inputs": [
        {
          "internalType": "address",
          "name": "implementer",
          "type": "address"
        },
        {
          "internalType": "uint8",
          "name": "feature",
          "type": "uint8"
        }
      ],
      "name": "stored",
      "outputs": [
        {
          "internalType": "uint8",
          "name": "res",
          "type": "uint8"
        }
      ],
      "stateMutability": "view",
      "type": "function"
    },
    {
      "inputs": [
        {
          "internalType": "uint256[][][]",
          "name": "data",
          "type": "uint256[][][]"
        }
      ],
      "name": "unsafeBulkStore",
      "outputs": [],
      "stateMutability": "nonpayable",
      "type": "function"
    }
  ],
  "transactionHash": "0xc595838a83a1ab15aa25fb71409409de37c32138ea95c3ff123b2c5d3d92ba20",
  "args": [],
  "solcInputHash": "05aac4474395b61051595723eeab4104",
  "bytecode": "0x60806040523480156200001157600080fd5b50604051620000209062000064565b604051809103906000f0801580156200003d573d6000803e3d6000fd5b50600280546001600160a01b0319166001600160a01b039290921691909117905562000072565b6157388062002c6783390190565b612be580620000826000396000f3fe608060405234801561001057600080fd5b50600436106100f55760003560e01c80639280123011610097578063b17995c711610066578063b17995c714610260578063d17c777f14610281578063db41f7cf146102a1578063e8fb95df146102ea57600080fd5b806392801230146101c55780639cd7d0071461020a5780639dc42d591461022b578063acb4e9a41461023e57600080fd5b80634796cd78116100d35780634796cd781461015c578063597bf3dd1461017d5780635edd57e31461019d57806387ae7031146101b057600080fd5b8063084050f5146100fa57806311c16aa314610124578063191adaf814610149575b600080fd5b61010d61010836600461181b565b6102fd565b60405161011b9291906118fd565b60405180910390f35b610137610132366004611978565b610455565b60405160ff909116815260200161011b565b61010d61015736600461181b565b6105d4565b61016f61016a3660046119cd565b61070a565b60405161011b929190611bd9565b61019061018b366004611fbc565b610929565b60405161011b9190612085565b61010d6101ab36600461181b565b610c26565b6101c36101be36600461209f565b610d5c565b005b6002546101e59073ffffffffffffffffffffffffffffffffffffffff1681565b60405173ffffffffffffffffffffffffffffffffffffffff909116815260200161011b565b61021d61021836600461181b565b610dae565b60405161011b9291906120e1565b610190610239366004611fbc565b610edf565b61025361024c366004611fbc565b5090919050565b60405161011b9190612110565b61027361026e36600461181b565b610fd0565b60405161011b929190612123565b61029461028f366004611fbc565b611173565b60405161011b9190612152565b6101376102af366004612165565b73ffffffffffffffffffffffffffffffffffffffff91909116600090815260016020908152604080832060ff94851684529091529020541690565b6101906102f8366004611fbc565b6111ee565b6000606060008061030f89898861070a565b909250905073ffffffffffffffffffffffffffffffffffffffff871615610438576040517f597bf3dd00000000000000000000000000000000000000000000000000000000815273ffffffffffffffffffffffffffffffffffffffff88169063597bf3dd9061038690859085908a9060040161219e565b60006040518083038186803b15801561039e57600080fd5b505afa9250505080156103f157506040513d6000823e601f3d9081017fffffffffffffffffffffffffffffffffffffffffffffffffffffffffffffffe01682016040526103ee919081019061221c565b60015b61042b573d80801561041f576040519150601f19603f3d011682016040523d82523d6000602084013e610424565b606091505b5050610438565b879450925061044b915050565b30610444838388610929565b9350935050505b9550959350505050565b6000806104618361121b565b905060008160ff16116104d5576040517f08c379a000000000000000000000000000000000000000000000000000000000815260206004820152600360248201527f463a30000000000000000000000000000000000000000000000000000000000060448201526064015b60405180910390fd5b600061050185856040516020016104ed9291906122a0565b60405160208183030381529060405261122f565b3360008181526020818152604080832060ff808d168086529184528285208054600181810183559187528587200180547fffffffffffffffffffffff0000000000000000000000000000000000000000001673ffffffffffffffffffffffffffffffffffffffff8a1674ff000000000000000000000000000000000000000060a08e901b161717905595855294835281842090845290915281208054939450859390926105b0918591166123a8565b92506101000a81548160ff021916908360ff16021790555081925050509392505050565b600060606000806105e689898861070a565b909250905073ffffffffffffffffffffffffffffffffffffffff8716156106fe576040517f9dc42d5900000000000000000000000000000000000000000000000000000000815273ffffffffffffffffffffffffffffffffffffffff881690639dc42d599061065d90859085908a9060040161219e565b60006040518083038186803b15801561067557600080fd5b505afa9250505080156106c857506040513d6000823e601f3d9081017fffffffffffffffffffffffffffffffffffffffffffffffffffffffffffffffe01682016040526106c5919081019061221c565b60015b61042b573d8080156106f6576040519150601f19603f3d011682016040523d82523d6000602084013e6106fb565b606091505b50505b30610444838388610edf565b606061077f60405180610160016040528060008152602001600081526020016060815260200160608152602001600073ffffffffffffffffffffffffffffffffffffffff1681526020016000815260200160608152602001606081526020016060815260200160608152602001606081525090565b6040517f5e983d4f0000000000000000000000000000000000000000000000000000000081526004810185905273ffffffffffffffffffffffffffffffffffffffff861690635e983d4f9060240160006040518083038186803b1580156107e557600080fd5b505afa1580156107f9573d6000803e3d6000fd5b505050506040513d6000823e601f3d9081017fffffffffffffffffffffffffffffffffffffffffffffffffffffffffffffffe016820160405261083f91908101906124bc565b90506000610851868360c0015161130a565b6002546040517fda7233db00000000000000000000000000000000000000000000000000000000815291925073ffffffffffffffffffffffffffffffffffffffff169063da7233db906108ac90849086908990600401612639565b60006040518083038186803b1580156108c457600080fd5b505afa1580156108d8573d6000803e3d6000fd5b505050506040513d6000823e601f3d9081017fffffffffffffffffffffffffffffffffffffffffffffffffffffffffffffffe016820160405261091e9190810190612759565b925050935093915050565b60025460408084015160608581015192517fa2b493be000000000000000000000000000000000000000000000000000000008152909373ffffffffffffffffffffffffffffffffffffffff16926330375a35929184906346eceb3a90829063a2b493be9061099f908c908e908d9060040161278e565b60006040518083038186803b1580156109b757600080fd5b505afa1580156109cb573d6000803e3d6000fd5b505050506040513d6000823e601f3d9081017fffffffffffffffffffffffffffffffffffffffffffffffffffffffffffffffe0168201604052610a11919081019061221c565b6040518263ffffffff1660e01b8152600401610a2d9190612085565b60006040518083038186803b158015610a4557600080fd5b505afa158015610a59573d6000803e3d6000fd5b505050506040513d6000823e601f3d9081017fffffffffffffffffffffffffffffffffffffffffffffffffffffffffffffffe0168201604052610a9f919081019061221c565b60025460a08901516040517f4a7c7e4600000000000000000000000000000000000000000000000000000000815273ffffffffffffffffffffffffffffffffffffffff90921691634a7c7e4691610afc9160040190815260200190565b60006040518083038186803b158015610b1457600080fd5b505afa158015610b28573d6000803e3d6000fd5b505050506040513d6000823e601f3d9081017fffffffffffffffffffffffffffffffffffffffffffffffffffffffffffffffe0168201604052610b6e919081019061221c565b604051602001610b8194939291906127b3565b6040516020818303038152906040526040518263ffffffff1660e01b8152600401610bac9190612085565b60006040518083038186803b158015610bc457600080fd5b505afa158015610bd8573d6000803e3d6000fd5b505050506040513d6000823e601f3d9081017fffffffffffffffffffffffffffffffffffffffffffffffffffffffffffffffe0168201604052610c1e919081019061221c565b949350505050565b60006060600080610c3889898861070a565b909250905073ffffffffffffffffffffffffffffffffffffffff871615610d50576040517fe8fb95df00000000000000000000000000000000000000000000000000000000815273ffffffffffffffffffffffffffffffffffffffff88169063e8fb95df90610caf90859085908a9060040161219e565b60006040518083038186803b158015610cc757600080fd5b505afa925050508015610d1a57506040513d6000823e601f3d9081017fffffffffffffffffffffffffffffffffffffffffffffffffffffffffffffffe0168201604052610d17919081019061221c565b60015b61042b573d808015610d48576040519150601f19603f3d011682016040523d82523d6000602084013e610d4d565b606091505b50505b306104448383886111ee565b60005b60088160ff161015610da957610d968184848460ff16818110610d8457610d846128dc565b9050602002810190610132919061290b565b5080610da181612973565b915050610d5f565b505050565b60006060600080610dc089898861070a565b909250905073ffffffffffffffffffffffffffffffffffffffff871615610ed8576040517facb4e9a400000000000000000000000000000000000000000000000000000000815273ffffffffffffffffffffffffffffffffffffffff88169063acb4e9a490610e3790859085908a9060040161219e565b60006040518083038186803b158015610e4f57600080fd5b505afa925050508015610ea257506040513d6000823e601f3d9081017fffffffffffffffffffffffffffffffffffffffffffffffffffffffffffffffe0168201604052610e9f9190810190612759565b60015b61042b573d808015610ed0576040519150601f19603f3d011682016040523d82523d6000602084013e610ed5565b606091505b50505b3082610444565b6002546040517fa2b493be00000000000000000000000000000000000000000000000000000000815260609173ffffffffffffffffffffffffffffffffffffffff16906346eceb3a90829063a2b493be90610f429088908a90899060040161278e565b60006040518083038186803b158015610f5a57600080fd5b505afa158015610f6e573d6000803e3d6000fd5b505050506040513d6000823e601f3d9081017fffffffffffffffffffffffffffffffffffffffffffffffffffffffffffffffe0168201604052610fb4919081019061221c565b6040518263ffffffff1660e01b8152600401610bac9190612085565b600061104560405180610160016040528060008152602001600081526020016060815260200160608152602001600073ffffffffffffffffffffffffffffffffffffffff1681526020016000815260200160608152602001606081526020016060815260200160608152602001606081525090565b60008061105389898861070a565b909250905073ffffffffffffffffffffffffffffffffffffffff87161561116b576040517fd17c777f00000000000000000000000000000000000000000000000000000000815273ffffffffffffffffffffffffffffffffffffffff88169063d17c777f906110ca90859085908a9060040161219e565b60006040518083038186803b1580156110e257600080fd5b505afa92505050801561113557506040513d6000823e601f3d9081017fffffffffffffffffffffffffffffffffffffffffffffffffffffffffffffffe016820160405261113291908101906124bc565b60015b61042b573d808015611163576040519150601f19603f3d011682016040523d82523d6000602084013e611168565b606091505b50505b306104448383885b6111e660405180610160016040528060008152602001600081526020016060815260200160608152602001600073ffffffffffffffffffffffffffffffffffffffff1681526020016000815260200160608152602001606081526020016060815260200160608152602001606081525090565b509092915050565b60608383604051602001611203929190611bd9565b60405160208183030381529060405290509392505050565b600060ff82111561122b57600080fd5b5090565b600080826040516020016112439190612993565b6040516020818303038152906040529050600081518260405160200161126a9291906129b9565b60405160208183030381529060405290508051602082016000f0925073ffffffffffffffffffffffffffffffffffffffff8316611303576040517f08c379a000000000000000000000000000000000000000000000000000000000815260206004820152601160248201527f4445504c4f594d454e545f4641494c454400000000000000000000000000000060448201526064016104cc565b5050919050565b6060815167ffffffffffffffff81111561132657611326611c07565b60405190808252806020026020018201604052801561135957816020015b60608152602001906001900390816113445790505b50905060005b82518160ff16101561142357828160ff1681518110611380576113806128dc565b602002602001015160ff16600014156113c9576040805160008152602081019091528251839060ff84169081106113b9576113b96128dc565b6020026020010181905250611411565b6113f08482858460ff16815181106113e3576113e36128dc565b602002602001015161142a565b828260ff1681518110611405576114056128dc565b60200260200101819052505b8061141b81612973565b91505061135f565b5092915050565b606060ff8216611496576040517f08c379a000000000000000000000000000000000000000000000000000000000815260206004820152600360248201527f463a31000000000000000000000000000000000000000000000000000000000060448201526064016104cc565b816114a081612a50565b73ffffffffffffffffffffffffffffffffffffffff8616600090815260016020908152604080832060ff808a168552925290912054919450908116915083168111611547576040517f08c379a000000000000000000000000000000000000000000000000000000000815260206004820152600360248201527f463a32000000000000000000000000000000000000000000000000000000000060448201526064016104cc565b73ffffffffffffffffffffffffffffffffffffffff851660009081526020818152604080832060ff881684528252808320805482518185028101850190935280835291929091908301828280156115d557602002820191906000526020600020905b815474ffffffffffffffffffffffffffffffffffffffffff1681526001909101906020018083116115a9575b50505050509050600080600080600090505b845181101561169157600060a0868381518110611606576116066128dc565b602002602001015174ffffffffffffffffffffffffffffffffffffffffff16901c90508860ff16818461163991906123a8565b60ff16111561167257858281518110611654576116546128dc565b60200260200101519450828961166a9190612a8b565b935050611691565b61167c81846123a8565b9250508061168981612aae565b9150506115e7565b5073ffffffffffffffffffffffffffffffffffffffff831661170f576040517f08c379a000000000000000000000000000000000000000000000000000000000815260206004820152600360248201527f463a33000000000000000000000000000000000000000000000000000000000060448201526064016104cc565b61171883611755565b80602001905181019061172b9190612ae7565b8260ff168151811061173f5761173f6128dc565b6020026020010151955050505050509392505050565b606061178382600161177e8173ffffffffffffffffffffffffffffffffffffffff84163b612b98565b611789565b92915050565b60408051603f838501017fffffffffffffffffffffffffffffffffffffffffffffffffffffffffffffffe0168101909152818152818360208301863c9392505050565b73ffffffffffffffffffffffffffffffffffffffff811681146117ee57600080fd5b50565b80356117fc816117cc565b919050565b60ff811681146117ee57600080fd5b80356117fc81611801565b600080600080600060a0868803121561183357600080fd5b853561183e816117cc565b9450602086013593506040860135611855816117cc565b9250606086013561186581611801565b9150608086013561187581611801565b809150509295509295909350565b60005b8381101561189e578181015183820152602001611886565b838111156118ad576000848401525b50505050565b600081518084526118cb816020860160208601611883565b601f017fffffffffffffffffffffffffffffffffffffffffffffffffffffffffffffffe0169290920160200192915050565b73ffffffffffffffffffffffffffffffffffffffff83168152604060208201526000610c1e60408301846118b3565b60008083601f84011261193e57600080fd5b50813567ffffffffffffffff81111561195657600080fd5b6020830191508360208260051b850101111561197157600080fd5b9250929050565b60008060006040848603121561198d57600080fd5b833561199881611801565b9250602084013567ffffffffffffffff8111156119b457600080fd5b6119c08682870161192c565b9497909650939450505050565b6000806000606084860312156119e257600080fd5b83356119ed816117cc565b9250602084013591506040840135611a0481611801565b809150509250925092565b600081518084526020808501945080840160005b83811015611a3f57815187529582019590820190600101611a23565b509495945050505050565b600081518084526020808501945080840160005b83811015611a3f57815160ff1687529582019590820190600101611a5e565b600081518084526020808501808196508360051b8101915082860160005b85811015611ac5578284038952611ab38483516118b3565b98850198935090840190600101611a9b565b5091979650505050505050565b600061016082518452602083015160208501526040830151816040860152611afc828601826118b3565b91505060608301518482036060860152611b1682826118b3565b9150506080830151611b40608086018273ffffffffffffffffffffffffffffffffffffffff169052565b5060a083015160a085015260c083015184820360c0860152611b628282611a4a565b91505060e083015184820360e0860152611b7c8282611a4a565b9150506101008084015185830382870152611b978382611a4a565b925050506101208084015185830382870152611bb38382611a7d565b925050506101408084015185830382870152611bcf83826118b3565b9695505050505050565b604081526000611bec6040830185611a0f565b8281036020840152611bfe8185611ad2565b95945050505050565b7f4e487b7100000000000000000000000000000000000000000000000000000000600052604160045260246000fd5b604051610160810167ffffffffffffffff81118282101715611c5a57611c5a611c07565b60405290565b604051601f82017fffffffffffffffffffffffffffffffffffffffffffffffffffffffffffffffe016810167ffffffffffffffff81118282101715611ca757611ca7611c07565b604052919050565b600067ffffffffffffffff821115611cc957611cc9611c07565b5060051b60200190565b600067ffffffffffffffff821115611ced57611ced611c07565b50601f017fffffffffffffffffffffffffffffffffffffffffffffffffffffffffffffffe01660200190565b600082601f830112611d2a57600080fd5b8135611d3d611d3882611cd3565b611c60565b818152846020838601011115611d5257600080fd5b816020850160208301376000918101602001919091529392505050565b600082601f830112611d8057600080fd5b81356020611d90611d3883611caf565b82815260059290921b84018101918181019086841115611daf57600080fd5b8286015b84811015611dd3578035611dc681611801565b8352918301918301611db3565b509695505050505050565b600082601f830112611def57600080fd5b81356020611dff611d3883611caf565b82815260059290921b84018101918181019086841115611e1e57600080fd5b8286015b84811015611dd357803567ffffffffffffffff811115611e425760008081fd5b611e508986838b0101611d19565b845250918301918301611e22565b60006101608284031215611e7157600080fd5b611e79611c36565b90508135815260208201356020820152604082013567ffffffffffffffff80821115611ea457600080fd5b611eb085838601611d19565b60408401526060840135915080821115611ec957600080fd5b611ed585838601611d19565b6060840152611ee6608085016117f1565b608084015260a084013560a084015260c0840135915080821115611f0957600080fd5b611f1585838601611d6f565b60c084015260e0840135915080821115611f2e57600080fd5b611f3a85838601611d6f565b60e084015261010091508184013581811115611f5557600080fd5b611f6186828701611d6f565b838501525061012091508184013581811115611f7c57600080fd5b611f8886828701611dde565b838501525061014091508184013581811115611fa357600080fd5b611faf86828701611d19565b8385015250505092915050565b600080600060608486031215611fd157600080fd5b833567ffffffffffffffff80821115611fe957600080fd5b818601915086601f830112611ffd57600080fd5b8135602061200d611d3883611caf565b82815260059290921b8401810191818101908a84111561202c57600080fd5b948201945b8386101561204a57853582529482019490820190612031565b9750508701359250508082111561206057600080fd5b5061206d86828701611e5e565b92505061207c60408501611810565b90509250925092565b60208152600061209860208301846118b3565b9392505050565b600080602083850312156120b257600080fd5b823567ffffffffffffffff8111156120c957600080fd5b6120d58582860161192c565b90969095509350505050565b73ffffffffffffffffffffffffffffffffffffffff83168152604060208201526000610c1e6040830184611a0f565b6020815260006120986020830184611a0f565b73ffffffffffffffffffffffffffffffffffffffff83168152604060208201526000610c1e6040830184611ad2565b6020815260006120986020830184611ad2565b6000806040838503121561217857600080fd5b8235612183816117cc565b9150602083013561219381611801565b809150509250929050565b6060815260006121b16060830186611a0f565b82810360208401526121c38186611ad2565b91505060ff83166040830152949350505050565b600082601f8301126121e857600080fd5b81516121f6611d3882611cd3565b81815284602083860101111561220b57600080fd5b610c1e826020830160208701611883565b60006020828403121561222e57600080fd5b815167ffffffffffffffff81111561224557600080fd5b610c1e848285016121d7565b81835260007f07ffffffffffffffffffffffffffffffffffffffffffffffffffffffffffffff83111561228357600080fd5b8260051b8083602087013760009401602001938452509192915050565b6020808252818101839052600090600560408085019086831b86010187855b8881101561236b577fffffffffffffffffffffffffffffffffffffffffffffffffffffffffffffffc088840301845281357fffffffffffffffffffffffffffffffffffffffffffffffffffffffffffffffe18b360301811261232057600080fd5b8a01803567ffffffffffffffff81111561233957600080fd5b80871b36038c131561234a57600080fd5b61235785828a8501612251565b9588019594505050908501906001016122bf565b509098975050505050505050565b7f4e487b7100000000000000000000000000000000000000000000000000000000600052601160045260246000fd5b600060ff821660ff84168060ff038211156123c5576123c5612379565b019392505050565b80516117fc816117cc565b600082601f8301126123e957600080fd5b815160206123f9611d3883611caf565b82815260059290921b8401810191818101908684111561241857600080fd5b8286015b84811015611dd357805161242f81611801565b835291830191830161241c565b600082601f83011261244d57600080fd5b8151602061245d611d3883611caf565b82815260059290921b8401810191818101908684111561247c57600080fd5b8286015b84811015611dd357805167ffffffffffffffff8111156124a05760008081fd5b6124ae8986838b01016121d7565b845250918301918301612480565b6000602082840312156124ce57600080fd5b815167ffffffffffffffff808211156124e657600080fd5b9083019061016082860312156124fb57600080fd5b612503611c36565b825181526020830151602082015260408301518281111561252357600080fd5b61252f878286016121d7565b60408301525060608301518281111561254757600080fd5b612553878286016121d7565b606083015250612565608084016123cd565b608082015260a083015160a082015260c08301518281111561258657600080fd5b612592878286016123d8565b60c08301525060e0830151828111156125aa57600080fd5b6125b6878286016123d8565b60e08301525061010080840151838111156125d057600080fd5b6125dc888287016123d8565b82840152505061012080840151838111156125f657600080fd5b6126028882870161243c565b828401525050610140808401518381111561261c57600080fd5b612628888287016121d7565b918301919091525095945050505050565b6000606082016060835280865180835260808501915060808160051b860101925060208089016000805b848110156126d5578887037fffffffffffffffffffffffffffffffffffffffffffffffffffffffffffffff80018652825180518089529085019085890190845b818110156126bf578351835292870192918701916001016126a3565b5090985050509483019491830191600101612663565b505050858403818701525050506126ec8186611ad2565b915050610c1e604083018460ff169052565b600082601f83011261270f57600080fd5b8151602061271f611d3883611caf565b82815260059290921b8401810191818101908684111561273e57600080fd5b8286015b84811015611dd35780518352918301918301612742565b60006020828403121561276b57600080fd5b815167ffffffffffffffff81111561278257600080fd5b610c1e848285016126fe565b6060815260006127a16060830186611ad2565b82810360208401526121c38186611a0f565b7f7b226e616d65223a2200000000000000000000000000000000000000000000008152600085516127eb816009850160208a01611883565b7f222c226465736372697074696f6e223a22000000000000000000000000000000600991840191820152855161282881601a840160208a01611883565b7f222c2022696d616765223a202200000000000000000000000000000000000000601a92909101918201528451612866816027840160208901611883565b7f222c22746f6b656e4964223a22000000000000000000000000000000000000006027929091019182015283516128a4816034840160208801611883565b7f227d000000000000000000000000000000000000000000000000000000000000603492909101918201526036019695505050505050565b7f4e487b7100000000000000000000000000000000000000000000000000000000600052603260045260246000fd5b60008083357fffffffffffffffffffffffffffffffffffffffffffffffffffffffffffffffe184360301811261294057600080fd5b83018035915067ffffffffffffffff82111561295b57600080fd5b6020019150600581901b360382131561197157600080fd5b600060ff821660ff81141561298a5761298a612379565b60010192915050565b60008152600082516129ac816001850160208701611883565b9190910160010192915050565b7f630000000000000000000000000000000000000000000000000000000000000081527fffffffff000000000000000000000000000000000000000000000000000000008360e01b1660018201527f80600e6000396000f30000000000000000000000000000000000000000000000600582015260008251612a4281600e850160208701611883565b91909101600e019392505050565b600060ff821680612a6357612a63612379565b7fffffffffffffffffffffffffffffffffffffffffffffffffffffffffffffffff0192915050565b600060ff821660ff841680821015612aa557612aa5612379565b90039392505050565b60007fffffffffffffffffffffffffffffffffffffffffffffffffffffffffffffffff821415612ae057612ae0612379565b5060010190565b60006020808385031215612afa57600080fd5b825167ffffffffffffffff80821115612b1257600080fd5b818501915085601f830112612b2657600080fd5b8151612b34611d3882611caf565b81815260059190911b83018401908481019088831115612b5357600080fd5b8585015b83811015612b8b57805185811115612b6f5760008081fd5b612b7d8b89838a01016126fe565b845250918601918601612b57565b5098975050505050505050565b600082821015612baa57612baa612379565b50039056fea2646970667358221220137c797b32942ebcbe8ef48b0666c95662ac03cb241d66208da504e94ebb12ab64736f6c63430008090033608060405234801561001057600080fd5b5061571780620000216000396000f3fe608060405234801561001057600080fd5b50600436106100d45760003560e01c80637be2ae0311610081578063d8674cb71161005b578063d8674cb7146101a7578063da7233db146101c7578063daa68c21146101da57600080fd5b80637be2ae031461016e578063a2b493be14610181578063d60bad601461019457600080fd5b8063577de07c116100b2578063577de07c146101285780635fc6b8fd1461013b57806377d0adb11461015b57600080fd5b806330375a35146100d957806346eceb3a146101025780634a7c7e4614610115575b600080fd5b6100ec6100e73660046146d7565b6101ed565b6040516100f9919061478a565b60405180910390f35b6100ec6101103660046146d7565b610255565b6100ec61012336600461479d565b610296565b6100ec6101363660046146d7565b6102a7565b61014e610149366004614845565b6102ba565b6040516100f9919061487a565b61014e6101693660046148be565b61041b565b6100ec61017c366004614914565b61057e565b6100ec61018f366004614ba4565b610594565b6100ec6101a23660046146d7565b610621565b6101ba6101b5366004614c8f565b610662565b6040516100f99190614d52565b61014e6101d5366004614e85565b6109f0565b6100ec6101e83660046146d7565b610b3d565b60606040518060400160405280601d81526020017f646174613a6170706c69636174696f6e2f6a736f6e3b6261736536342c00000081525061022e83610b3d565b60405160200161023f929190614efd565b6040516020818303038152906040529050919050565b60606040518060400160405280601a81526020017f646174613a696d6167652f7376672b786d6c3b6261736536342c00000000000081525061022e83610b3d565b60606102a182610b48565b92915050565b60608160405160200161023f9190614f2c565b606060f082600184516102cd9190614fc6565b815181106102dd576102dd614fdd565b6020026020010151901c67ffffffffffffffff8111156102ff576102ff6145a1565b604051908082528060200260200182016040528015610328578160200160208202803683370190505b5090506000805b835181101561041457600084828151811061034c5761034c614fdd565b6020026020010151600f16905080600f141561038e576004858361036f8161500c565b94508151811061038157610381614fdd565b6020026020010151901c90505b60005b818110156103b957836103a38161500c565b94505080806103b19061500c565b915050610391565b5060048583815181106103ce576103ce614fdd565b6020026020010151901c8484806103e49061500c565b9550815181106103f6576103f6614fdd565b6020908102919091010152508061040c8161500c565b91505061032f565b5050919050565b606060008060005b85838151811061043557610435614fdd565b602002602001015160001415610457578061044f8161500c565b9150506104e1565b600e81111561049457600f600482901b1786836104738161500c565b94508151811061048557610485614fdd565b60209081029190910101525060005b8060048785815181106104a9576104a9614fdd565b6020026020010151901b178683806104c09061500c565b9450815181106104d2576104d2614fdd565b60209081029190910101525060005b85516104ec8461500c565b9350831061042357600e81111561053157600f600482901b1786836105108161500c565b94508151811061052257610522614fdd565b60209081029190910101525060005b60f0865160016105419190615045565b600487901b8317911b1786836105568161500c565b94508151811061056857610568614fdd565b6020908102919091010152508452509192915050565b606061058d838360ff16610b53565b9392505050565b606061059f836102ba565b92506000603f8085600187516105b59190614fc6565b815181106105c5576105c5614fdd565b6020908102919091010151901c1690506000603f604586600188516105ea9190614fc6565b815181106105fa576105fa614fdd565b6020026020010151901c169050610617868684848860ff16610d96565b9695505050505050565b60606040518060400160405280601a81526020017f646174613a696d6167652f646f746e7567673b6261736536342c00000000000081525061022e83610b3d565b6060835167ffffffffffffffff81111561067e5761067e6145a1565b6040519080825280602002602001820160405280156106b157816020015b606081526020019060019003908161069c5790505b50905060005b84518110156109e8576000806106e58784815181106106d8576106d8614fdd565b6020026020010151610fa8565b9150915081156106f65750506109d6565b6107018160206110a1565b634206900114610772576040517f08c379a000000000000000000000000000000000000000000000000000000000815260206004820152600860248201527f4445433a50493a3000000000000000000000000000000000000000000000000060448201526064015b60405180910390fd5b600061077f8260036110a1565b9050600061078e8360086110a1565b9050600061079d84838561129b565b905060006107ac8560026110a1565b6107b7906001615045565b90508067ffffffffffffffff8111156107d2576107d26145a1565b60405190808252806020026020018201604052801561083557816020015b6108226040518060a0016040528060608152602001606081526020016060815260200160008152602001600081525090565b8152602001906001900390816107f05790505b5088888151811061084857610848614fdd565b602002602001018190525060005b818110156109ce5761086a86868d8d611400565b89898151811061087c5761087c614fdd565b6020026020010151828151811061089557610895614fdd565b602002602001015160800181815250506108ae86611581565b8989815181106108c0576108c0614fdd565b602002602001015182815181106108d9576108d9614fdd565b602002602001015160600181815250506000806109388b8b8151811061090157610901614fdd565b6020026020010151848151811061091a5761091a614fdd565b602002602001015160800151603f81811c81169260459290921c1690565b91509150610947888383611666565b8b8b8151811061095957610959614fdd565b6020026020010151848151811061097257610972614fdd565b602002602001015160200181905250848b8b8151811061099457610994614fdd565b602002602001015184815181106109ad576109ad614fdd565b602090810291909101015152508190506109c68161500c565b915050610856565b505050505050505b806109e08161500c565b9150506106b7565b509392505050565b8151606090600114610a5e576040517f08c379a000000000000000000000000000000000000000000000000000000000815260206004820152600360248201527f56317300000000000000000000000000000000000000000000000000000000006044820152606401610769565b60408260ff1611158015610a75575060048260ff16115b610adb576040517f08c379a000000000000000000000000000000000000000000000000000000000815260206004820152600760248201527f56313a53495a45000000000000000000000000000000000000000000000000006044820152606401610769565b610ae660028361508c565b60ff16610afb5781610af7816150ae565b9250505b6000610b11858560e00151866101000151610662565b90506000610b21600885846117fc565b905061061781604001516040015182604001516080015161041b565b60606102a182611b36565b60606102a182611d11565b60606000610b628360026150e9565b610b6d906002615045565b67ffffffffffffffff811115610b8557610b856145a1565b6040519080825280601f01601f191660200182016040528015610baf576020820181803683370190505b5090507f300000000000000000000000000000000000000000000000000000000000000081600081518110610be657610be6614fdd565b60200101907effffffffffffffffffffffffffffffffffffffffffffffffffffffffffffff1916908160001a9053507f780000000000000000000000000000000000000000000000000000000000000081600181518110610c4957610c49614fdd565b60200101907effffffffffffffffffffffffffffffffffffffffffffffffffffffffffffff1916908160001a9053506000610c858460026150e9565b610c90906001615045565b90505b6001811115610d2d577f303132333435363738396162636465660000000000000000000000000000000085600f1660108110610cd157610cd1614fdd565b1a60f81b828281518110610ce757610ce7614fdd565b60200101907effffffffffffffffffffffffffffffffffffffffffffffffffffffffffffff1916908160001a90535060049490941c93610d2681615126565b9050610c93565b50831561058d576040517f08c379a000000000000000000000000000000000000000000000000000000000815260206004820181905260248201527f537472696e67733a20686578206c656e67746820696e73756666696369656e746044820152606401610769565b606081610da257600191505b6000610db18660008088611e41565b506040805181815261082081018252919250600191600091816020015b604080518082019091526060815260006020820152815260200190600190039081610dce57905050905060005b86811015610eca5760005b88811015610e995781158015610e1a575080155b15610e2d5780610e298161500c565b9150505b6000610e3b8b83858d611e41565b509050610e4786611ed2565b610e5082611ed2565b1415610e695784610e608161500c565b95505050610e87565b610e808487610e788886614fc6565b86898d611ef0565b9450600193505b80610e918161500c565b915050610e06565b50610eb18285610ea9868c614fc6565b84878b611ef0565b6000935083925080610ec28161500c565b915050610dfb565b50606060015b8251811015610f5857828181518110610eeb57610eeb614fdd565b60200260200101516020015160001415610f0457610f58565b81838281518110610f1757610f17614fdd565b602002602001015160000151604051602001610f3492919061515b565b60405160208183030381529060405291508080610f509061500c565b915050610ed0565b506000610f6e610f6988603f6150e9565b610b48565b90508081828385604051602001610f899594939291906151b2565b6040516020818303038152906040529550505050505095945050505050565b6000610fce60405180606001604052806060815260200160008152602001600081525090565b8251610fdd5760019150915091565b82815260026020820152825167ffffffffffffffff811115611001576110016145a1565b60405190808252806020026020018201604052801561102a578160200160208202803683370190505b50815282515b801561109b57838185516110449190614fc6565b8151811061105457611054614fdd565b6020026020010151826000015160018361106e9190614fc6565b8151811061107e5761107e614fdd565b60209081029190910101528061109381615126565b915050611030565b50915091565b60006001821b7fffffffffffffffffffffffffffffffffffffffffffffffffffffffffffffffff01835180516000906110dc576110dc614fdd565b60200260200101511690508160ff16836000015160008151811061110257611102614fdd565b6020026020010151901c836000015160008151811061112357611123614fdd565b6020026020010181815250508160ff16836040018181516111449190615045565b90525060408301516080116102a15760006002846020015161116691906153d1565b84515190915081101561129457608084604001516111849190614fc6565b8451805160009061119757611197614fdd565b60209081029190910101805190911b905260006fffffffffffffffffffffffffffffffff85518051849081106111cf576111cf614fdd565b60200260200101511690506080856000015183815181106111f2576111f2614fdd565b60200260200101818151901c91508181525050608081901b856000015160008151811061122157611221614fdd565b602002602001018181511791508181525050608085604001516112449190614fc6565b8551805160009061125757611257614fdd565b6020908102919091018101805190921c90915285018051906112788261500c565b8152505060808560400181815161128f9190614fc6565b905250505b5092915050565b606060006112aa8560046110a1565b6112b5906001615045565b90506112c2816001615045565b67ffffffffffffffff8111156112da576112da6145a1565b604051908082528060200260200182016040528015611303578160200160208202803683370190505b50915060005b818110156113f757600061131e8760046110a1565b905060008061132e8960016110a1565b905080600114156113425760009150611382565b600061134f8a60086110a1565b9050600061135e8b60086110a1565b9050600061136d8c60086110a1565b905080600883901b601085901b171794505050505b600061138f8a60016110a1565b6001146113a6576113a18a60086110a1565b6113a9565b60ff5b90506113b883828b878c612030565b876113c4876001615045565b815181106113d4576113d4614fdd565b6020026020010181815250505050505080806113ef9061500c565b915050611309565b50509392505050565b604b83901b60006114128660066110a1565b905060006114218760066110a1565b604581901b93909317603f83901b1792905060006114408860066110a1565b9050600061144f8960066110a1565b905086516008148015611463575085516008145b80156114b3575086888151811061147c5761147c614fdd565b602002602001015160ff1660001415806114b357508588815181106114a3576114a3614fdd565b602002602001015160ff16600014155b156115075760398689815181106114cc576114cc614fdd565b602002602001015160ff16901b8517945060338789815181106114f1576114f1614fdd565b602002602001015160ff16901b8517945061151a565b603382901b85179450603981901b851794505b601b6115278a60016110a1565b60011461153e576115398a60186110a1565b611541565b60005b901b949094179360036115558a60016110a1565b60011461156c576115678a60186110a1565b61156f565b60005b901b8517945050505050949350505050565b60008061158f8360016110a1565b6001146115a6576115a18360046110a1565b6115a9565b60015b905060005b81811015610414576000806115c48660066110a1565b905060006115d38760066110a1565b905060006115e28860036110a1565b905060006115f18960016110a1565b9050806001141561160d57600684901b9490941782179361161a565b600683901b949094178317935b8060011461162957600061162c565b60805b60ff1661163a83600c6150e9565b6116449190615045565b85901b945084881797505050505050808061165e9061500c565b9150506115ae565b606060006116758560016110a1565b600114611697576116878560106110a1565b611692906001615045565b6116ad565b6116a28560086110a1565b6116ad906001615045565b905060406116bb84866150e9565b6116c591906153d1565b6116d0906001615045565b67ffffffffffffffff8111156116e8576116e86145a1565b604051908082528060200260200182016040528015611711578160200160208202803683370190505b5091506000805b828110156117f257600061172d8860026110a1565b611738906001615045565b9050806004141561175c5761174e8860046110a1565b611759906004615045565b90505b60006117698960046110a1565b905060005b828110156117dc576117816040866153e5565b61178c9060046150e9565b82901b8761179b6040886153d1565b815181106117ab576117ab614fdd565b6020908102919091010180519091179052846117c68161500c565b95505080806117d49061500c565b91505061176e565b50505080806117ea9061500c565b915050611718565b5050509392505050565b611804614418565b61180c61448b565b611816848561208f565b81528467ffffffffffffffff811115611831576118316145a1565b6040519080825280602002602001820160405280156118ba57816020015b6118a76040805160e0810182526000918101828152606082018390526080820183905260a0820183905260c0820192909252908190815260408051606081018252600080825260208281018290529282015291015290565b81526020019060019003908161184f5790505b5060208201526040805160608101909152600090806118da6002886153f9565b6118e590600161541b565b60ff1681526020016118f86002886153f9565b61190390600161541b565b60ff16815260016020918201526040805160a081018252600080825292810183905290810182905260608101829052608081018290529192505b878160ff1610156119945760405180604001604052808381526020018481525084602001518260ff168151811061197657611976614fdd565b6020026020010181905250808061198c90615440565b91505061193d565b50825160ff8716908190528351602001526119ad6144ab565b6119b7878861208f565b60408201528767ffffffffffffffff8111156119d5576119d56145a1565b604051908082528060200260200182016040528015611a5e57816020015b611a4b6040805160e0810182526000918101828152606082018390526080820183905260a0820183905260c0820192909252908190815260408051606081018252600080825260208281018290529282015291015290565b8152602001906001900390816119f35790505b50606082015260005b86518160ff161015611b28576000878260ff1681518110611a8a57611a8a614fdd565b6020026020010151511115611b1657611ae582888360ff1681518110611ab257611ab2614fdd565b6020026020010151611ae0888b8660ff1681518110611ad357611ad3614fdd565b602002602001015161214e565b6121d6565b611aef858361277a565b611af98583612a83565b611b038583612b81565b611b0c82612c67565b611b168583612c73565b80611b2081615440565b915050611a67565b505091519695505050505050565b6060815160001415611b5657505060408051602081019091526000815290565b60006040518060600160405280604081526020016156a26040913990506000600384516002611b859190615045565b611b8f91906153d1565b611b9a9060046150e9565b90506000611ba9826020615045565b67ffffffffffffffff811115611bc157611bc16145a1565b6040519080825280601f01601f191660200182016040528015611beb576020820181803683370190505b509050818152600183018586518101602084015b81831015611c595760039283018051603f601282901c811687015160f890811b8552600c83901c8216880151811b6001860152600683901c8216880151811b60028601529116860151901b93820193909352600401611bff565b600389510660018114611c735760028114611cbd57611d03565b7f3d3d0000000000000000000000000000000000000000000000000000000000007ffffffffffffffffffffffffffffffffffffffffffffffffffffffffffffffffe830152611d03565b7f3d000000000000000000000000000000000000000000000000000000000000007fffffffffffffffffffffffffffffffffffffffffffffffffffffffffffffffff8301525b509398975050505050505050565b606081611d5157505060408051808201909152600181527f3000000000000000000000000000000000000000000000000000000000000000602082015290565b8160005b8115611d7b5780611d658161500c565b9150611d749050600a836153d1565b9150611d55565b8067ffffffffffffffff811115611d9457611d946145a1565b6040519080825280601f01601f191660200182016040528015611dbe576020820181803683370190505b5092505b831561041457611dd3600182614fc6565b9050611de0600a856153e5565b611deb906030615045565b60f81b838281518110611e0057611e00614fdd565b60200101907effffffffffffffffffffffffffffffffffffffffffffffffffffffffffffff1916908160001a905350611e3a600a856153d1565b9350611dc2565b60008080611e4f84866150e9565b611e599087615045565b8751909150611e696006836153d1565b10611e7b576000809250925050611ec9565b611e866006826153e5565b611e9190602a6150e9565b87611e9d6006846153d1565b81518110611ead57611ead614fdd565b6020908102919091010151901c91506503ffffffffff82169250505b94509492505050565b6000611edd82612d38565b600583901b63ffffff0016179050919050565b84611efa57612028565b6000611f07878784612d46565b9050868181518110611f1b57611f1b614fdd565b602002602001015160000151611f368387610f6991906150e9565b611f43610f6985886150e9565b611f50610f6986886150e9565b604051602001611f639493929190615460565b604051602081830303815290604052878281518110611f8457611f84614fdd565b602090810291909101015152600182111561202657868181518110611fab57611fab614fdd565b602002602001015160000151611fc083610b48565b611fcd610f6985896150e9565b611fe585611fdb818a6150e9565b610f699190615045565b604051602001611ff89493929190615536565b60405160208183030381529060405287828151811061201957612019614fdd565b6020908102919091010151525b505b505050505050565b6000602761203d83612eea565b60ff16901b17602361204e84612efe565b60ff16901b17601b61205f85612f0e565b60ff16901b81179050600386901b8117905061208561207d86612f0e565b60ff16612f1e565b1795945050505050565b612097614418565b6120a260028461508c565b60ff1660011480156120c157506120ba60028361508c565b60ff166001145b612127576040517f08c379a000000000000000000000000000000000000000000000000000000000815260206004820152600660248201527f4d4c3a433a3000000000000000000000000000000000000000000000000000006044820152606401610769565b61213881604001518460ff16612f3e565b60408101516102a19060ff808616908516612fad565b600081516001146121bb576040517f08c379a000000000000000000000000000000000000000000000000000000000815260206004820152600a60248201527f43414c433a5056493a30000000000000000000000000000000000000000000006044820152606401610769565b8151600114156121cd575060006102a1565b50600092915050565b600062ffffff601b848460ff16815181106121f3576121f3614fdd565b602090810291909101015160800151901c169050600062ffffff6003858560ff168151811061222457612224614fdd565b602002602001015160800151901c169050600080612271868660ff168151811061225057612250614fdd565b602002602001015160800151603381901c603f9081169260399290921c1690565b91509150600080612290888860ff168151811061091a5761091a614fdd565b60208b8101805160ff85811690915290519083169101526040805160e0810182526001918101918252929450909250819060608201603f60128b901c1660ff168152602001603f600c8b901c1660ff168152602001603f60068b901c1660ff168152602001603f60ff908b1681169091529082526040805160608101825288831681529187166020838101919091526001838301819052938101929092528c820151810193909352825160a081019093529082528101603f601288901c1660ff168152602001603f600c88901c1660ff168152602001603f600688901c1660ff168152602001603f60ff90881616905260208a015160a00152604080516008808252610120820190925290816020015b60408051606081018252600080825260208083018290529282015282527fffffffffffffffffffffffffffffffffffffffffffffffffffffffffffffffff9092019101816123a05790505060208a015160600152604080516008808252610120820190925290816020015b60408051606081018252600080825260208083018290529282015282527fffffffffffffffffffffffffffffffffffffffffffffffffffffffffffffffff90920191018161240b57505060208a01516080015260005b60088110156125505760008060006124978c8c60ff168151811061248757612487614fdd565b60200260200101518560006130c1565b925092509250801561253a57828d602001516080015185815181106124be576124be614fdd565b60200260200101516000019060ff16908160ff1681525050818d602001516080015185815181106124f1576124f1614fdd565b60200260200101516020019060ff16908160ff168152505060018d6020015160800151858151811061252557612525614fdd565b60209081029190910101519015156040909101525b50505080806125489061500c565b915050612461565b5060005b600881101561264357600080600061258a8c8c60ff168151811061257a5761257a614fdd565b60200260200101518560016130c1565b925092509250801561262d57828d602001516060015185815181106125b1576125b1614fdd565b60200260200101516000019060ff16908160ff1681525050818d602001516060015185815181106125e4576125e4614fdd565b60200260200101516020019060ff16908160ff168152505060018d6020015160600151858151811061261857612618614fdd565b60209081029190910101519015156040909101525b505050808061263b9061500c565b915050612554565b50600060a08a0181905260808a015260608901515167ffffffffffffffff811115612670576126706145a1565b6040519080825280602002602001820160405280156126f957816020015b6126e66040805160e0810182526000918101828152606082018390526080820183905260a0820183905260c0820192909252908190815260408051606081018252600080825260208281018290529282015291015290565b81526020019060019003908161268e5790505b5060608a01526007604b898960ff168151811061271857612718614fdd565b602002602001015160800151901c16896000019060ff16908160ff168152505061276f888860ff168151811061275057612750614fdd565b602002602001015183838c60400151613121909392919063ffffffff16565b505050505050505050565b60008260200151826000015160ff168151811061279957612799614fdd565b6020026020010151905060008260200151604001519050826020015160a001516040015160ff166000141580156127d7575080516040015160ff1615155b80156127f9575081600001516040015160ff1681600001516040015160ff1611155b15612897578051604090810151835190910151600091612818916155fe565b90506128426001856020015160a001516040015161283691906155fe565b604086015190836131d9565b808260200151600001818151612858919061541b565b60ff90811690915260208087015160a001510151161590506128955780846020015160a0015160200181815161288e919061541b565b60ff169052505b505b60208084015160a00151015160ff16158015906128bb575080516020015160ff1615155b80156128dd575081600001516020015160ff1681600001516020015160ff1611155b15612922576129226001846020015160a00151602001516128fe91906155fe565b825160209081015185519091015161291691906155fe565b604086015191906131d9565b602083015160a001516080015160ff1615801590612947575080516080015160ff1615155b8015612969575081600001516080015160ff1681600001516080015160ff1611155b156129fe578051608090810151835190910151600091612988916155fe565b602085015160a001516080015160408601519192506129a89190836132d5565b8082602001516020018181516129be919061541b565b60ff908116909152602086015160a0015160600151161590506129fc5780846020015160a001516060018181516129f5919061541b565b60ff169052505b505b602083015160a001516060015160ff1615801590612a23575080516060015160ff1615155b8015612a45575081600001516060015160ff1681600001516060015160ff1611155b15612a7d57602083015160a001516060908101518251820151845190920151612a7d92612a71916155fe565b604086015191906132d5565b50505050565b60008260200151826000015160ff1681518110612aa257612aa2614fdd565b602002602001015190506000826020015160400151905080602001516000015160ff1682602001516000015160ff1611612add576000612af3565b602080820151519083015151612af391906155fe565b60ff90811660a08501526020808301518101518482015190910151908216911611612b1f576000612b3b565b806020015160200151826020015160200151612b3b91906155fe565b60ff16608084015260a08301805190612b5382615440565b60ff1690525060a08301516080840151604085015180516020909101518751612a7d949093909290916133be565b8151612b8c90613402565b8015612ba05750612ba08160400151613402565b15612bfc576000612bb48360000151613412565b90506000612bc58360400151613412565b90508015158015612be45750602382901c600f16602382901c600f1610155b15612bf557612bf58185519061343b565b5050612b81565b8151604081015160800151603f81811c8116835260459190911c1660209091015281516000606082018190526080820181905260c0820181905260a090910152612c6381604001516000606082018190526080820181905260c0820181905260a090910152565b5050565b612c7081613464565b50565b60005b8160600151518160ff161015612d3357600082606001518260ff1681518110612ca157612ca1614fdd565b6020026020010151905080602001516040015115612d205760a083015160208201518051612cd090839061541b565b60ff169052506080830151602080830151018051612cef90839061541b565b60ff9081169091526020860151805184935090918516908110612d1457612d14614fdd565b60200260200101819052505b5080612d2b81615440565b915050612c76565b505050565b60006102a160078316613653565b6000612d5183611ed2565b925082612d605750600061058d565b80612d6a8161500c565b9150505b8351811015612dde57838181518110612d8957612d89614fdd565b60200260200101516020015160001415612da257612dde565b82848281518110612db557612db5614fdd565b6020026020010151602001511415612dcc5761058d565b80612dd68161500c565b915050612d6e565b82848281518110612df157612df1614fdd565b6020026020010151602001818152505060018211612e44576040518060400160405280600f81526020017f3c70617468207374726f6b653d22230000000000000000000000000000000000815250612e7b565b6040518060400160405280600d81526020017f3c706174682066696c6c3d2223000000000000000000000000000000000000008152505b8360ff1660ff14612e9657612e9184600461367f565b612ea5565b612ea5600885901c600361367f565b604051602001612eb6929190615621565b604051602081830303815290604052848281518110612ed757612ed7614fdd565b6020908102919091010151529392505050565b60006007821115612efa57600080fd5b5090565b6000600f821115612efa57600080fd5b600060ff821115612efa57600080fd5b60006024612f2b83612f0e565b612f3591906153f9565b60ff1692915050565b6006612f4a82806150e9565b612f5491906153d1565b612f5f906002615045565b67ffffffffffffffff811115612f7757612f776145a1565b604051908082528060200260200182016040528015612fa0578160200160208202803683370190505b5082604001819052505050565b603f821115613018576040517f08c379a000000000000000000000000000000000000000000000000000000000815260206004820152600b60248201527f564552533a534554573a300000000000000000000000000000000000000000006044820152606401610769565b603f811115613083576040517f08c379a000000000000000000000000000000000000000000000000000000000815260206004820152600b60248201527f564552533a534554573a310000000000000000000000000000000000000000006044820152606401610769565b7ffffffffffffffffffffffffffffffffffffffffffffff8007fffffffffffffff6080909301805160459290921b603f9390931b9190931617179052565b600080600080846130d35760006130d6565b60805b60ff166130e487600c6150e9565b6130ee9190615045565b6060880151901c9050610fff16603f81169350600681901c92508315158061311557508215155b91505093509350939050565b60ff8116602085015260005b818110156131b15760005b8381101561319e5761314a868561377a565b506000613158868385613814565b9050801561318057600061316c87836138a9565b5050905061317a888261343b565b5061318b565b61318b87600061343b565b50806131968161500c565b915050613138565b50806131a98161500c565b91505061312d565b5060ff821684526000606085018190526080850181905260c0850181905260a0850152612a7d565b60005b835160ff168110156132b757835160ff165b8360ff1681111561324a578360ff168110156132095761324a565b61323861321960ff851683615045565b6040870151849061322b9085836138eb565b6040890151929190613915565b8061324281615126565b9150506131ee565b50600061325884600161541b565b60ff1690505b613268838561541b565b60ff1681116132a457613292818361322b8760ff16868a604001516138eb9092919063ffffffff16565b8061329c8161500c565b91505061325e565b50806132af8161500c565b9150506131dc565b5080836000018181516132ca919061541b565b60ff16905250505050565b60005b836020015160ff168110156133ab57602084015160ff165b8360ff1681111561333e578360ff1681101561330b5761333e565b61332c8261331c60ff861684615045565b604088015161322b9086866138eb565b8061333681615126565b9150506132f0565b50600061334c84600161541b565b60ff1690505b61335c838561541b565b60ff16811161339857613386828261322b858860ff168a604001516138eb9092919063ffffffff16565b806133908161500c565b915050613352565b50806133a38161500c565b9150506132d8565b5080836020018181516132ca919061541b565b60ff80851660608701819052908416608087015260c08601526133e1848361541b565b60ff1685526133f0838261541b565b60ff1660209095019490945250505050565b60006102a182836000015161377a565b60006102a1826060015160ff16836080015160ff1684604001516138eb9092919063ffffffff16565b612c63826060015160ff16836080015160ff16838560400151613915909392919063ffffffff16565b606060008060005b846020015160800151518160ff16101561364c576040805160608101825260008082526020808301829052928201529086015160800151805160ff84169081106134b8576134b8614fdd565b602002602001015160400151156135a857836134d381615440565b9450508560200151608001518260ff16815181106134f3576134f3614fdd565b60200260200101519050806020015186606001518360ff168151811061351b5761351b614fdd565b6020026020010151602001516000019060ff16908160ff1681525050806000015186606001518360ff168151811061355557613555614fdd565b6020026020010151602001516020019060ff16908160ff1681525050600186606001518360ff168151811061358c5761358c614fdd565b6020908102919091018101510151901515604090910152613639565b8560200151606001518260ff16815181106135c5576135c5614fdd565b6020026020010151604001511561363957826135e081615440565b9350508451600014156135fd576135fa8660400151613943565b94505b61362c868760200151606001518460ff168151811061361e5761361e614fdd565b602002602001015187613b8e565b9050613639868284613ce4565b508061364481615440565b91505061346c565b5050505050565b60008160071415613666575060ff919050565b61366f82612eea565b612f35906024615678565b919050565b6060600061368e8360026150e9565b67ffffffffffffffff8111156136a6576136a66145a1565b6040519080825280601f01601f1916602001820160405280156136d0576020820181803683370190505b5080519091505b80156109e8577f303132333435363738396162636465660000000000000000000000000000000085600f166010811061371257613712614fdd565b1a60f81b82613722600184614fc6565b8151811061373257613732614fdd565b60200101907effffffffffffffffffffffffffffffffffffffffffffffffffffffffffffff1916908160001a90535060049490941c938061377281615126565b9150506136d7565b60008260a001511561380357606083015161379690600161541b565b60ff168260ff16116137f35760808301516137b290600161541b565b60ff16836020015160ff1614156137cb575060006102a1565b60c083015160ff166060840152608083018051906137e882615440565b60ff1690525061380b565b606083018051906137e882615440565b600160a08401525b50600192915050565b6080830151600090603f90811c168161382d82856150e9565b6138379086615045565b60208701515190915061384b6040836153d1565b1061385b5760009250505061058d565b6138666040826153e5565b6138719060046150e9565b60208701516138816040846153d1565b8151811061389157613891614fdd565b6020026020010151901c600f16925050509392505050565b6000806000846000015184815181106138c4576138c4614fdd565b602002602001015192506138d783611ed2565b9150602383901c600f165b90509250925092565b60808301516040840151600091603f90811c169061390b90858584611e41565b5095945050505050565b6080840151603f90811c16600061392c82856150e9565b6139369086615045565b9050612028868285613f70565b6060600080600061395385614027565b60408051600580825260c082019092529396509194509250816020015b60408051606081018252600080825260208083018290529282015282527fffffffffffffffffffffffffffffffffffffffffffffffffffffffffffffffff90920191018161397057905050935080846000815181106139d1576139d1614fdd565b60200260200101819052506040518060600160405280826000015160ff168152602001848360200151613a0491906155fe565b60ff1681526020016001151581525084600181518110613a2657613a26614fdd565b602090810291909101015282613a3d60028261508c565b60ff1615613a535780613a4f81615440565b9150505b6040805160608101909152825160ff16815260208101613a746002846153f9565b8460200151613a8391906155fe565b60ff1681526020016001151581525085600281518110613aa557613aa5614fdd565b602090810291909101015282613abc60028261508c565b60ff1615613ad25780613ace81615440565b9150505b6040805160608101909152835160ff16815260208101613af36002846153f9565b8560200151613b02919061541b565b60ff1681526020016001151581525086600381518110613b2457613b24614fdd565b60200260200101819052506040518060600160405280846000015160ff168152602001858560200151613b57919061541b565b60ff1681526020016001151581525086600481518110613b7957613b79614fdd565b60200260200101819052505050505050919050565b604080516060810182526000808252602082018190529181019190915281836000015160ff1681518110613bc457613bc4614fdd565b60209081029190910101515160ff908116825283518351849291909116908110613bf057613bf0614fdd565b60209081029190910181015181015160ff908116838301526001604084015284820151161015613c3b5782602001518160200151613c2e91906155fe565b60ff166020820152613c64565b60208360200151613c4c91906155fe565b8160200151613c5b919061541b565b60ff1660208201525b805160208201516040808701510151613c8592909160ff91821691166143fc565b61058d57806020015160ff1682600081518110613ca457613ca4614fdd565b60200260200101516020015160ff161115613cd45760208101805190613cc982615440565b60ff16905250613c64565b60208101805190613cc9826150ae565b6040805160a0810182526000808252602082018190529181018290526060810182905260808101919091525b604084015151613d22906001906155fe565b60ff16836000015160ff16108015613d6f5750613d6f81602001516001613d49919061541b565b8451613d55919061541b565b602085015160408088015101519160ff90811691166143fc565b15613d8f5760208101805190613d8482615440565b60ff16905250613d10565b825160ff1615801590613dbb57506040810151613dad90600161541b565b60ff16836000015160ff1610155b8015613de25750613de281604001516001613dd6919061541b565b8451613d5591906155fe565b15613e025760408101805190613df782615440565b60ff16905250613d8f565b602083015160ff1615801590613e3157506060810151613e2390600161541b565b60ff16836020015160ff1610155b8015613e73575082516060820151613e739160ff1690613e5290600161541b565b8560200151613e6191906155fe565b6040808801510151919060ff166143fc565b15613e935760608101805190613e8882615440565b60ff16905250613e02565b6001846040015160200151613ea891906155fe565b60ff16836020015160ff16108015613ee4575082516080820151613ee49160ff1690613ed590600161541b565b8560200151613e61919061541b565b15613f045760808101805190613ef982615440565b60ff16905250613e93565b83606001518260ff1681518110613f1d57613f1d614fdd565b60200260200101516020015160400151612a7d5760405180604001604052808281526020018481525084606001518360ff1681518110613f5f57613f5f614fdd565b602002602001018190525050505050565b613f7b6006836153d1565b8360400151511115612d33576000613fa7613f976006856153e5565b613fa290602a6150e9565b612f0e565b90506503ffffffffff60ff82161b196040850151613fc66006866153d1565b81518110613fd657613fd6614fdd565b6020908102919091010180519091169052604084015160ff821683901b90613fff6006866153d1565b8151811061400f5761400f614fdd565b60200260200101818151179150818152505050505050565b6040805160608101825260008082526020820181905291810182905281908351614053906002906153f9565b60ff1681526020840151614069906002906153f9565b60ff1660208201526001604082018190529250829150600080808480825b806142a95782158015614098575083155b9250821561416e576140dc6140ae83600161541b565b88516140ba91906155fe565b60ff168a89602001516140cd91906155fe565b60408d0151919060ff166143fc565b80156140fd57506140fd6140f183600161541b565b88516140ba919061541b565b8015614131575061413161411283600161541b565b885161411e91906155fe565b60ff168989602001516140cd919061541b565b8015614152575061415261414683600161541b565b885161411e919061541b565b15614169578161416181615440565b92505061416e565b600193505b856141f257600089886020015161418591906155fe565b60ff161180156141be575086516141be906141a19084906155fe565b60ff166141af8b600161541b565b89602001516140cd91906155fe565b80156141d6575086516141d6906141a190849061541b565b156141ed57886141e581615440565b9950506141f2565b600195505b846142885760018a6020015161420891906155fe565b60ff1688886020015161421b919061541b565b60ff1610801561425457508651614254906142379084906155fe565b60ff166142458a600161541b565b89602001516140cd919061541b565b801561426c5750865161426c9061423790849061541b565b15614283578761427b81615440565b985050614288565b600194505b8480156142925750855b801561429b5750835b156142a4575060015b614087565b8760ff168960ff16146143ef5760006142c2898b61541b565b6142cd90600161541b565b9050600060026142dd818461508c565b60ff16156142f5576142f083600161541b565b6142f7565b825b61430191906153f9565b905060008b60018b6020015184614318919061541b565b61432291906155fe565b61432c91906155fe565b9050896020015160ff168160ff1611156143945760008a602001518261435291906155fe565b905061435e818e61541b565b9c508060ff168c60ff161161437f576143778c826155fe565b9b508b61438d565b614389818d6155fe565b9b508b5b50506143e4565b6000818b602001516143a691906155fe565b90508060ff168d60ff16116143c7576143bf8d826155fe565b9c508c6143d5565b6143d1818e6155fe565b9c508c5b506143e0818d61541b565b9b50505b60ff1660208a015250505b5050505050509193909250565b60008061440a8585856138eb565b600716151595945050505050565b6040518060e00160405280600060ff168152602001600060ff1681526020016144696040518060a0016040528060608152602001606081526020016060815260200160008152602001600081525090565b8152600060208201819052604082018190526060820181905260809091015290565b604051806040016040528061449e614418565b8152602001606081525090565b6040518060c00160405280600060ff1681526020016144c86144ef565b81526020016144d5614418565b815260606020820181905260006040830181905291015290565b6040805160e0810182526000808252602082015290810161455e6040805160e0810182526000918101828152606082018390526080820183905260a0820183905260c0820192909252908190815260408051606081018252600080825260208281018290529282015291015290565b8152606060208083018290526040808401839052805160a0810182526000808252928101839052908101829052808301829052608081019190915291019061449e565b7f4e487b7100000000000000000000000000000000000000000000000000000000600052604160045260246000fd5b604051610160810167ffffffffffffffff811182821017156145f4576145f46145a1565b60405290565b604051601f82017fffffffffffffffffffffffffffffffffffffffffffffffffffffffffffffffe016810167ffffffffffffffff81118282101715614641576146416145a1565b604052919050565b600082601f83011261465a57600080fd5b813567ffffffffffffffff811115614674576146746145a1565b6146a560207fffffffffffffffffffffffffffffffffffffffffffffffffffffffffffffffe0601f840116016145fa565b8181528460208386010111156146ba57600080fd5b816020850160208301376000918101602001919091529392505050565b6000602082840312156146e957600080fd5b813567ffffffffffffffff81111561470057600080fd5b61470c84828501614649565b949350505050565b60005b8381101561472f578181015183820152602001614717565b83811115612a7d5750506000910152565b60008151808452614758816020860160208601614714565b601f017fffffffffffffffffffffffffffffffffffffffffffffffffffffffffffffffe0169290920160200192915050565b60208152600061058d6020830184614740565b6000602082840312156147af57600080fd5b5035919050565b600067ffffffffffffffff8211156147d0576147d06145a1565b5060051b60200190565b600082601f8301126147eb57600080fd5b813560206148006147fb836147b6565b6145fa565b82815260059290921b8401810191818101908684111561481f57600080fd5b8286015b8481101561483a5780358352918301918301614823565b509695505050505050565b60006020828403121561485757600080fd5b813567ffffffffffffffff81111561486e57600080fd5b61470c848285016147da565b6020808252825182820181905260009190848201906040850190845b818110156148b257835183529284019291840191600101614896565b50909695505050505050565b600080604083850312156148d157600080fd5b823567ffffffffffffffff8111156148e857600080fd5b6148f4858286016147da565b95602094909401359450505050565b803560ff8116811461367a57600080fd5b6000806040838503121561492757600080fd5b8235915061493760208401614903565b90509250929050565b803573ffffffffffffffffffffffffffffffffffffffff8116811461367a57600080fd5b600082601f83011261497557600080fd5b813560206149856147fb836147b6565b82815260059290921b840181019181810190868411156149a457600080fd5b8286015b8481101561483a576149b981614903565b83529183019183016149a8565b600082601f8301126149d757600080fd5b813560206149e76147fb836147b6565b82815260059290921b84018101918181019086841115614a0657600080fd5b8286015b8481101561483a57803567ffffffffffffffff811115614a2a5760008081fd5b614a388986838b0101614649565b845250918301918301614a0a565b60006101608284031215614a5957600080fd5b614a616145d0565b90508135815260208201356020820152604082013567ffffffffffffffff80821115614a8c57600080fd5b614a9885838601614649565b60408401526060840135915080821115614ab157600080fd5b614abd85838601614649565b6060840152614ace60808501614940565b608084015260a084013560a084015260c0840135915080821115614af157600080fd5b614afd85838601614964565b60c084015260e0840135915080821115614b1657600080fd5b614b2285838601614964565b60e084015261010091508184013581811115614b3d57600080fd5b614b4986828701614964565b838501525061012091508184013581811115614b6457600080fd5b614b70868287016149c6565b838501525061014091508184013581811115614b8b57600080fd5b614b9786828701614649565b8385015250505092915050565b600080600060608486031215614bb957600080fd5b833567ffffffffffffffff80821115614bd157600080fd5b614bdd87838801614a46565b94506020860135915080821115614bf357600080fd5b50614c00868287016147da565b9250506138e260408501614903565b600082601f830112614c2057600080fd5b81356020614c306147fb836147b6565b82815260059290921b84018101918181019086841115614c4f57600080fd5b8286015b8481101561483a57803567ffffffffffffffff811115614c735760008081fd5b614c818986838b01016147da565b845250918301918301614c53565b600080600060608486031215614ca457600080fd5b833567ffffffffffffffff80821115614cbc57600080fd5b614cc887838801614c0f565b94506020860135915080821115614cde57600080fd5b614cea87838801614964565b93506040860135915080821115614d0057600080fd5b50614d0d86828701614964565b9150509250925092565b600081518084526020808501945080840160005b83811015614d4757815187529582019590820190600101614d2b565b509495945050505050565b60006020808301818452808551808352604092508286019150828160051b87010184880160005b83811015614e77578883037fffffffffffffffffffffffffffffffffffffffffffffffffffffffffffffffc0018552815180518085529088019088850190600581901b86018a0160005b82811015614e61577fffffffffffffffffffffffffffffffffffffffffffffffffffffffffffffffe0888303018452845160a08151818552614e0782860182614d17565b9150508d8201518482038f860152614e1f8282614d17565b9150508c8201518482038e860152614e378282614d17565b6060848101519087015260809384015193909501929092525050938b0193928b0192600101614dc3565b50978a0197955050509187019150600101614d79565b509098975050505050505050565b600080600060608486031215614e9a57600080fd5b833567ffffffffffffffff80821115614eb257600080fd5b614ebe87838801614c0f565b94506020860135915080821115614ed457600080fd5b50614c0086828701614a46565b60008151614ef3818560208601614714565b9290920192915050565b60008351614f0f818460208801614714565b835190830190614f23818360208801614714565b01949350505050565b7f646174613a696d6167652f7376672b786d6c3b636861727365743d5554462d3881527f2c00000000000000000000000000000000000000000000000000000000000000602082015260008251614f8a816021850160208701614714565b9190910160210192915050565b7f4e487b7100000000000000000000000000000000000000000000000000000000600052601160045260246000fd5b600082821015614fd857614fd8614f97565b500390565b7f4e487b7100000000000000000000000000000000000000000000000000000000600052603260045260246000fd5b60007fffffffffffffffffffffffffffffffffffffffffffffffffffffffffffffffff82141561503e5761503e614f97565b5060010190565b6000821982111561505857615058614f97565b500190565b7f4e487b7100000000000000000000000000000000000000000000000000000000600052601260045260246000fd5b600060ff83168061509f5761509f61505d565b8060ff84160691505092915050565b600060ff8216806150c1576150c1614f97565b7fffffffffffffffffffffffffffffffffffffffffffffffffffffffffffffffff0192915050565b6000817fffffffffffffffffffffffffffffffffffffffffffffffffffffffffffffffff048311821515161561512157615121614f97565b500290565b60008161513557615135614f97565b507fffffffffffffffffffffffffffffffffffffffffffffffffffffffffffffffff0190565b6000835161516d818460208801614714565b835190830190615181818360208801614714565b7f222f3e00000000000000000000000000000000000000000000000000000000009101908152600301949350505050565b7f3c3f786d6c2076657273696f6e3d22312e302220656e636f64696e673d22757481527f662d38223f3e3c7376672076696577626f783d22302030200000000000000000602082015260008651615210816038850160208b01614714565b7f2000000000000000000000000000000000000000000000000000000000000000603891840191820152865161524d816039840160208b01614714565b7f22206865696768743d220000000000000000000000000000000000000000000060399290910191820152855161528b816043840160208a01614714565b7f222077696474683d2200000000000000000000000000000000000000000000006043929091019182015284516152c981604c840160208901614714565b7f222076657273696f6e3d22312e3222206261736550726f66696c653d2274696e604c92909101918201527f792220786d6c6e733d22687474703a2f2f7777772e77332e6f72672f32303030606c8201527f2f7376672220786d6c6e733a786c696e6b3d22687474703a2f2f7777772e7733608c8201527f2e6f72672f313939392f786c696e6b22206f766572666c6f773d22766973696260ac8201527f6c652220786d6c3a73706163653d227072657365727665223e0000000000000060cc8201526153c561539c60e5830186614ee1565b7f3c2f7376673e0000000000000000000000000000000000000000000000000000815260060190565b98975050505050505050565b6000826153e0576153e061505d565b500490565b6000826153f4576153f461505d565b500690565b600060ff83168061540c5761540c61505d565b8060ff84160491505092915050565b600060ff821660ff84168060ff0382111561543857615438614f97565b019392505050565b600060ff821660ff81141561545757615457614f97565b60010192915050565b60008551615472818460208a01614714565b7f4d0000000000000000000000000000000000000000000000000000000000000090830190815285516154ac816001840160208a01614714565b7f20000000000000000000000000000000000000000000000000000000000000006001929091019182015284516154ea816002840160208901614714565b7f6800000000000000000000000000000000000000000000000000000000000000600292909101918201528351615528816003840160208801614714565b016003019695505050505050565b60008551615548818460208a01614714565b7f76000000000000000000000000000000000000000000000000000000000000009083019081528551615582816001840160208a01614714565b7f4c000000000000000000000000000000000000000000000000000000000000006001929091019182015284516155c0816002840160208901614714565b7f2000000000000000000000000000000000000000000000000000000000000000600292909101918201528351615528816003840160208801614714565b600060ff821660ff84168082101561561857615618614f97565b90039392505050565b60008351615633818460208801614714565b835190830190615647818360208801614714565b7f2220643d220000000000000000000000000000000000000000000000000000009101908152600501949350505050565b600060ff821660ff84168160ff048111821515161561569957615699614f97565b02939250505056fe4142434445464748494a4b4c4d4e4f505152535455565758595a6162636465666768696a6b6c6d6e6f707172737475767778797a303132333435363738392b2fa26469706673582212208d5dcdb1360a5ba1693ed0da1a102da8eb5fe2e9c99a216395d372c44c8c798764736f6c63430008090033",
  "devdoc": {
    "author": "nugg.xyz - danny7even & dub6ix",
    "details": "hold my margarita",
    "kind": "dev",
    "methods": {},
    "title": "dotnugg V1 - onchain encoder/decoder protocol for dotnugg files",
    "version": 1
  },
  "userdoc": {
    "kind": "user",
    "methods": {},
    "notice": "yoU CAN'T HaVe ImAgES oN THe BlOCkcHAIn",
    "version": 1
  },
  "storageLayout": {
    "storage": [
      {
        "astId": 9379,
        "contract": "src/DotnuggV1.sol:DotnuggV1",
        "label": "sstore2Pointers",
        "offset": 0,
        "slot": "0",
        "type": "t_mapping(t_address,t_mapping(t_uint8,t_array(t_uint168)dyn_storage))"
      },
      {
        "astId": 9385,
        "contract": "src/DotnuggV1.sol:DotnuggV1",
        "label": "featureLengths",
        "offset": 0,
        "slot": "1",
        "type": "t_mapping(t_address,t_mapping(t_uint8,t_uint8))"
      },
      {
        "astId": 1702,
        "contract": "src/DotnuggV1.sol:DotnuggV1",
        "label": "lib",
        "offset": 0,
        "slot": "2",
        "type": "t_contract(DotnuggV1Lib)9356"
      }
    ],
    "types": {
      "t_address": {
        "encoding": "inplace",
        "label": "address",
        "numberOfBytes": "20"
      },
      "t_array(t_uint168)dyn_storage": {
        "base": "t_uint168",
        "encoding": "dynamic_array",
        "label": "uint168[]",
        "numberOfBytes": "32"
      },
      "t_contract(DotnuggV1Lib)9356": {
        "encoding": "inplace",
        "label": "contract DotnuggV1Lib",
        "numberOfBytes": "20"
      },
      "t_mapping(t_address,t_mapping(t_uint8,t_array(t_uint168)dyn_storage))": {
        "encoding": "mapping",
        "key": "t_address",
        "label": "mapping(address => mapping(uint8 => uint168[]))",
        "numberOfBytes": "32",
        "value": "t_mapping(t_uint8,t_array(t_uint168)dyn_storage)"
      },
      "t_mapping(t_address,t_mapping(t_uint8,t_uint8))": {
        "encoding": "mapping",
        "key": "t_address",
        "label": "mapping(address => mapping(uint8 => uint8))",
        "numberOfBytes": "32",
        "value": "t_mapping(t_uint8,t_uint8)"
      },
      "t_mapping(t_uint8,t_array(t_uint168)dyn_storage)": {
        "encoding": "mapping",
        "key": "t_uint8",
        "label": "mapping(uint8 => uint168[])",
        "numberOfBytes": "32",
        "value": "t_array(t_uint168)dyn_storage"
      },
      "t_mapping(t_uint8,t_uint8)": {
        "encoding": "mapping",
        "key": "t_uint8",
        "label": "mapping(uint8 => uint8)",
        "numberOfBytes": "32",
        "value": "t_uint8"
      },
      "t_uint168": {
        "encoding": "inplace",
        "label": "uint168",
        "numberOfBytes": "21"
      },
      "t_uint8": {
        "encoding": "inplace",
        "label": "uint8",
        "numberOfBytes": "1"
      }
    }
  }
}