{
  "address": "0xed544dcDA2d612FcEC0Ca4c15569e3dC0b05626E",
  "abi": [
    {
      "inputs": [],
      "stateMutability": "nonpayable",
      "type": "constructor"
    },
    {
      "inputs": [
        {
          "internalType": "address",
          "name": "implementer",
          "type": "address"
        },
        {
          "internalType": "uint256",
          "name": "tokenId",
          "type": "uint256"
        },
        {
          "internalType": "address",
          "name": "resolver",
          "type": "address"
        },
        {
          "internalType": "uint8",
          "name": "width",
          "type": "uint8"
        },
        {
          "internalType": "uint8",
          "name": "zoom",
          "type": "uint8"
        }
      ],
      "name": "dotnuggToBytes",
      "outputs": [
        {
          "internalType": "address",
          "name": "resolvedBy",
          "type": "address"
        },
        {
          "internalType": "bytes",
          "name": "res",
          "type": "bytes"
        }
      ],
      "stateMutability": "view",
      "type": "function"
    },
    {
      "inputs": [
        {
          "internalType": "address",
          "name": "implementer",
          "type": "address"
        },
        {
          "internalType": "uint256",
          "name": "tokenId",
          "type": "uint256"
        },
        {
          "internalType": "address",
          "name": "resolver",
          "type": "address"
        },
        {
          "internalType": "uint8",
          "name": "width",
          "type": "uint8"
        },
        {
          "internalType": "uint8",
          "name": "zoom",
          "type": "uint8"
        }
      ],
      "name": "dotnuggToData",
      "outputs": [
        {
          "internalType": "address",
          "name": "resolvedBy",
          "type": "address"
        },
        {
          "components": [
            {
              "internalType": "uint256",
              "name": "version",
              "type": "uint256"
            },
            {
              "internalType": "uint256",
              "name": "renderedAt",
              "type": "uint256"
            },
            {
              "internalType": "string",
              "name": "name",
              "type": "string"
            },
            {
              "internalType": "string",
              "name": "desc",
              "type": "string"
            },
            {
              "internalType": "address",
              "name": "owner",
              "type": "address"
            },
            {
              "internalType": "uint256",
              "name": "tokenId",
              "type": "uint256"
            },
            {
              "internalType": "uint256",
              "name": "proof",
              "type": "uint256"
            },
            {
              "internalType": "uint8[]",
              "name": "ids",
              "type": "uint8[]"
            },
            {
              "internalType": "uint8[]",
              "name": "extras",
              "type": "uint8[]"
            },
            {
              "internalType": "uint8[]",
              "name": "xovers",
              "type": "uint8[]"
            },
            {
              "internalType": "uint8[]",
              "name": "yovers",
              "type": "uint8[]"
            }
          ],
          "internalType": "struct IDotnuggV1Data.Data",
          "name": "res",
          "type": "tuple"
        }
      ],
      "stateMutability": "view",
      "type": "function"
    },
    {
      "inputs": [
        {
          "internalType": "address",
          "name": "implementer",
          "type": "address"
        },
        {
          "internalType": "uint256",
          "name": "tokenId",
          "type": "uint256"
        },
        {
          "internalType": "address",
          "name": "resolver",
          "type": "address"
        },
        {
          "internalType": "uint8",
          "name": "width",
          "type": "uint8"
        },
        {
          "internalType": "uint8",
          "name": "zoom",
          "type": "uint8"
        }
      ],
      "name": "dotnuggToRaw",
      "outputs": [
        {
          "internalType": "address",
          "name": "resolvedBy",
          "type": "address"
        },
        {
          "internalType": "uint256[]",
          "name": "res",
          "type": "uint256[]"
        }
      ],
      "stateMutability": "view",
      "type": "function"
    },
    {
      "inputs": [
        {
          "internalType": "address",
          "name": "implementer",
          "type": "address"
        },
        {
          "internalType": "uint256",
          "name": "tokenId",
          "type": "uint256"
        },
        {
          "internalType": "address",
          "name": "resolver",
          "type": "address"
        },
        {
          "internalType": "uint8",
          "name": "width",
          "type": "uint8"
        },
        {
          "internalType": "uint8",
          "name": "zoom",
          "type": "uint8"
        }
      ],
      "name": "dotnuggToString",
      "outputs": [
        {
          "internalType": "address",
          "name": "resolvedBy",
          "type": "address"
        },
        {
          "internalType": "string",
          "name": "res",
          "type": "string"
        }
      ],
      "stateMutability": "view",
      "type": "function"
    },
    {
      "inputs": [
        {
          "internalType": "address",
          "name": "implementer",
          "type": "address"
        },
        {
          "internalType": "uint256",
          "name": "tokenId",
          "type": "uint256"
        },
        {
          "internalType": "address",
          "name": "resolver",
          "type": "address"
        },
        {
          "internalType": "uint8",
          "name": "width",
          "type": "uint8"
        },
        {
          "internalType": "uint8",
          "name": "zoom",
          "type": "uint8"
        }
      ],
      "name": "dotnuggToUri",
      "outputs": [
        {
          "internalType": "address",
          "name": "resolvedBy",
          "type": "address"
        },
        {
          "internalType": "string",
          "name": "res",
          "type": "string"
        }
      ],
      "stateMutability": "view",
      "type": "function"
    },
    {
      "inputs": [],
      "name": "lib",
      "outputs": [
        {
          "internalType": "contract DotnuggV1Lib",
          "name": "",
          "type": "address"
        }
      ],
      "stateMutability": "view",
      "type": "function"
    },
    {
      "inputs": [
        {
          "internalType": "address",
          "name": "implementer",
          "type": "address"
        },
        {
          "internalType": "uint256",
          "name": "tokenId",
          "type": "uint256"
        },
        {
          "internalType": "uint8",
          "name": "width",
          "type": "uint8"
        }
      ],
      "name": "process",
      "outputs": [
        {
          "internalType": "uint256[]",
          "name": "resp",
          "type": "uint256[]"
        },
        {
          "components": [
            {
              "internalType": "uint256",
              "name": "version",
              "type": "uint256"
            },
            {
              "internalType": "uint256",
              "name": "renderedAt",
              "type": "uint256"
            },
            {
              "internalType": "string",
              "name": "name",
              "type": "string"
            },
            {
              "internalType": "string",
              "name": "desc",
              "type": "string"
            },
            {
              "internalType": "address",
              "name": "owner",
              "type": "address"
            },
            {
              "internalType": "uint256",
              "name": "tokenId",
              "type": "uint256"
            },
            {
              "internalType": "uint256",
              "name": "proof",
              "type": "uint256"
            },
            {
              "internalType": "uint8[]",
              "name": "ids",
              "type": "uint8[]"
            },
            {
              "internalType": "uint8[]",
              "name": "extras",
              "type": "uint8[]"
            },
            {
              "internalType": "uint8[]",
              "name": "xovers",
              "type": "uint8[]"
            },
            {
              "internalType": "uint8[]",
              "name": "yovers",
              "type": "uint8[]"
            }
          ],
          "internalType": "struct IDotnuggV1Data.Data",
          "name": "dat",
          "type": "tuple"
        }
      ],
      "stateMutability": "view",
      "type": "function"
    },
    {
      "inputs": [
        {
          "internalType": "uint256[][]",
          "name": "files",
          "type": "uint256[][]"
        },
        {
          "components": [
            {
              "internalType": "uint256",
              "name": "version",
              "type": "uint256"
            },
            {
              "internalType": "uint256",
              "name": "renderedAt",
              "type": "uint256"
            },
            {
              "internalType": "string",
              "name": "name",
              "type": "string"
            },
            {
              "internalType": "string",
              "name": "desc",
              "type": "string"
            },
            {
              "internalType": "address",
              "name": "owner",
              "type": "address"
            },
            {
              "internalType": "uint256",
              "name": "tokenId",
              "type": "uint256"
            },
            {
              "internalType": "uint256",
              "name": "proof",
              "type": "uint256"
            },
            {
              "internalType": "uint8[]",
              "name": "ids",
              "type": "uint8[]"
            },
            {
              "internalType": "uint8[]",
              "name": "extras",
              "type": "uint8[]"
            },
            {
              "internalType": "uint8[]",
              "name": "xovers",
              "type": "uint8[]"
            },
            {
              "internalType": "uint8[]",
              "name": "yovers",
              "type": "uint8[]"
            }
          ],
          "internalType": "struct IDotnuggV1Data.Data",
          "name": "data",
          "type": "tuple"
        },
        {
          "internalType": "uint8",
          "name": "width",
          "type": "uint8"
        }
      ],
      "name": "processCore",
      "outputs": [
        {
          "internalType": "uint256[]",
          "name": "resp",
          "type": "uint256[]"
        }
      ],
      "stateMutability": "view",
      "type": "function"
    },
    {
      "inputs": [
        {
          "internalType": "uint256[]",
          "name": "file",
          "type": "uint256[]"
        },
        {
          "components": [
            {
              "internalType": "uint256",
              "name": "version",
              "type": "uint256"
            },
            {
              "internalType": "uint256",
              "name": "renderedAt",
              "type": "uint256"
            },
            {
              "internalType": "string",
              "name": "name",
              "type": "string"
            },
            {
              "internalType": "string",
              "name": "desc",
              "type": "string"
            },
            {
              "internalType": "address",
              "name": "owner",
              "type": "address"
            },
            {
              "internalType": "uint256",
              "name": "tokenId",
              "type": "uint256"
            },
            {
              "internalType": "uint256",
              "name": "proof",
              "type": "uint256"
            },
            {
              "internalType": "uint8[]",
              "name": "ids",
              "type": "uint8[]"
            },
            {
              "internalType": "uint8[]",
              "name": "extras",
              "type": "uint8[]"
            },
            {
              "internalType": "uint8[]",
              "name": "xovers",
              "type": "uint8[]"
            },
            {
              "internalType": "uint8[]",
              "name": "yovers",
              "type": "uint8[]"
            }
          ],
          "internalType": "struct IDotnuggV1Data.Data",
          "name": "data",
          "type": "tuple"
        },
        {
          "internalType": "uint8",
          "name": "",
          "type": "uint8"
        }
      ],
      "name": "resolveBytes",
      "outputs": [
        {
          "internalType": "bytes",
          "name": "res",
          "type": "bytes"
        }
      ],
      "stateMutability": "pure",
      "type": "function"
    },
    {
      "inputs": [
        {
          "internalType": "uint256[]",
          "name": "",
          "type": "uint256[]"
        },
        {
          "components": [
            {
              "internalType": "uint256",
              "name": "version",
              "type": "uint256"
            },
            {
              "internalType": "uint256",
              "name": "renderedAt",
              "type": "uint256"
            },
            {
              "internalType": "string",
              "name": "name",
              "type": "string"
            },
            {
              "internalType": "string",
              "name": "desc",
              "type": "string"
            },
            {
              "internalType": "address",
              "name": "owner",
              "type": "address"
            },
            {
              "internalType": "uint256",
              "name": "tokenId",
              "type": "uint256"
            },
            {
              "internalType": "uint256",
              "name": "proof",
              "type": "uint256"
            },
            {
              "internalType": "uint8[]",
              "name": "ids",
              "type": "uint8[]"
            },
            {
              "internalType": "uint8[]",
              "name": "extras",
              "type": "uint8[]"
            },
            {
              "internalType": "uint8[]",
              "name": "xovers",
              "type": "uint8[]"
            },
            {
              "internalType": "uint8[]",
              "name": "yovers",
              "type": "uint8[]"
            }
          ],
          "internalType": "struct IDotnuggV1Data.Data",
          "name": "data",
          "type": "tuple"
        },
        {
          "internalType": "uint8",
          "name": "",
          "type": "uint8"
        }
      ],
      "name": "resolveData",
      "outputs": [
        {
          "components": [
            {
              "internalType": "uint256",
              "name": "version",
              "type": "uint256"
            },
            {
              "internalType": "uint256",
              "name": "renderedAt",
              "type": "uint256"
            },
            {
              "internalType": "string",
              "name": "name",
              "type": "string"
            },
            {
              "internalType": "string",
              "name": "desc",
              "type": "string"
            },
            {
              "internalType": "address",
              "name": "owner",
              "type": "address"
            },
            {
              "internalType": "uint256",
              "name": "tokenId",
              "type": "uint256"
            },
            {
              "internalType": "uint256",
              "name": "proof",
              "type": "uint256"
            },
            {
              "internalType": "uint8[]",
              "name": "ids",
              "type": "uint8[]"
            },
            {
              "internalType": "uint8[]",
              "name": "extras",
              "type": "uint8[]"
            },
            {
              "internalType": "uint8[]",
              "name": "xovers",
              "type": "uint8[]"
            },
            {
              "internalType": "uint8[]",
              "name": "yovers",
              "type": "uint8[]"
            }
          ],
          "internalType": "struct IDotnuggV1Data.Data",
          "name": "res",
          "type": "tuple"
        }
      ],
      "stateMutability": "pure",
      "type": "function"
    },
    {
      "inputs": [
        {
          "internalType": "uint256[]",
          "name": "file",
          "type": "uint256[]"
        },
        {
          "components": [
            {
              "internalType": "uint256",
              "name": "version",
              "type": "uint256"
            },
            {
              "internalType": "uint256",
              "name": "renderedAt",
              "type": "uint256"
            },
            {
              "internalType": "string",
              "name": "name",
              "type": "string"
            },
            {
              "internalType": "string",
              "name": "desc",
              "type": "string"
            },
            {
              "internalType": "address",
              "name": "owner",
              "type": "address"
            },
            {
              "internalType": "uint256",
              "name": "tokenId",
              "type": "uint256"
            },
            {
              "internalType": "uint256",
              "name": "proof",
              "type": "uint256"
            },
            {
              "internalType": "uint8[]",
              "name": "ids",
              "type": "uint8[]"
            },
            {
              "internalType": "uint8[]",
              "name": "extras",
              "type": "uint8[]"
            },
            {
              "internalType": "uint8[]",
              "name": "xovers",
              "type": "uint8[]"
            },
            {
              "internalType": "uint8[]",
              "name": "yovers",
              "type": "uint8[]"
            }
          ],
          "internalType": "struct IDotnuggV1Data.Data",
          "name": "",
          "type": "tuple"
        },
        {
          "internalType": "uint8",
          "name": "",
          "type": "uint8"
        }
      ],
      "name": "resolveRaw",
      "outputs": [
        {
          "internalType": "uint256[]",
          "name": "res",
          "type": "uint256[]"
        }
      ],
      "stateMutability": "pure",
      "type": "function"
    },
    {
      "inputs": [
        {
          "internalType": "uint256[]",
          "name": "file",
          "type": "uint256[]"
        },
        {
          "components": [
            {
              "internalType": "uint256",
              "name": "version",
              "type": "uint256"
            },
            {
              "internalType": "uint256",
              "name": "renderedAt",
              "type": "uint256"
            },
            {
              "internalType": "string",
              "name": "name",
              "type": "string"
            },
            {
              "internalType": "string",
              "name": "desc",
              "type": "string"
            },
            {
              "internalType": "address",
              "name": "owner",
              "type": "address"
            },
            {
              "internalType": "uint256",
              "name": "tokenId",
              "type": "uint256"
            },
            {
              "internalType": "uint256",
              "name": "proof",
              "type": "uint256"
            },
            {
              "internalType": "uint8[]",
              "name": "ids",
              "type": "uint8[]"
            },
            {
              "internalType": "uint8[]",
              "name": "extras",
              "type": "uint8[]"
            },
            {
              "internalType": "uint8[]",
              "name": "xovers",
              "type": "uint8[]"
            },
            {
              "internalType": "uint8[]",
              "name": "yovers",
              "type": "uint8[]"
            }
          ],
          "internalType": "struct IDotnuggV1Data.Data",
          "name": "",
          "type": "tuple"
        },
        {
          "internalType": "uint8",
          "name": "zoom",
          "type": "uint8"
        }
      ],
      "name": "resolveString",
      "outputs": [
        {
          "internalType": "string",
          "name": "",
          "type": "string"
        }
      ],
      "stateMutability": "view",
      "type": "function"
    },
    {
      "inputs": [
        {
          "internalType": "uint256[]",
          "name": "file",
          "type": "uint256[]"
        },
        {
          "components": [
            {
              "internalType": "uint256",
              "name": "version",
              "type": "uint256"
            },
            {
              "internalType": "uint256",
              "name": "renderedAt",
              "type": "uint256"
            },
            {
              "internalType": "string",
              "name": "name",
              "type": "string"
            },
            {
              "internalType": "string",
              "name": "desc",
              "type": "string"
            },
            {
              "internalType": "address",
              "name": "owner",
              "type": "address"
            },
            {
              "internalType": "uint256",
              "name": "tokenId",
              "type": "uint256"
            },
            {
              "internalType": "uint256",
              "name": "proof",
              "type": "uint256"
            },
            {
              "internalType": "uint8[]",
              "name": "ids",
              "type": "uint8[]"
            },
            {
              "internalType": "uint8[]",
              "name": "extras",
              "type": "uint8[]"
            },
            {
              "internalType": "uint8[]",
              "name": "xovers",
              "type": "uint8[]"
            },
            {
              "internalType": "uint8[]",
              "name": "yovers",
              "type": "uint8[]"
            }
          ],
          "internalType": "struct IDotnuggV1Data.Data",
          "name": "data",
          "type": "tuple"
        },
        {
          "internalType": "uint8",
          "name": "zoom",
          "type": "uint8"
        }
      ],
      "name": "resolveUri",
      "outputs": [
        {
          "internalType": "string",
          "name": "res",
          "type": "string"
        }
      ],
      "stateMutability": "view",
      "type": "function"
    },
    {
      "inputs": [
        {
          "internalType": "uint8",
          "name": "feature",
          "type": "uint8"
        },
        {
          "internalType": "uint256[][]",
          "name": "data",
          "type": "uint256[][]"
        }
      ],
      "name": "storeFiles",
      "outputs": [
        {
          "internalType": "uint8",
          "name": "res",
          "type": "uint8"
        }
      ],
      "stateMutability": "nonpayable",
      "type": "function"
    },
    {
      "inputs": [
        {
          "internalType": "address",
          "name": "implementer",
          "type": "address"
        },
        {
          "internalType": "uint8",
          "name": "feature",
          "type": "uint8"
        }
      ],
      "name": "totalStoredFiles",
      "outputs": [
        {
          "internalType": "uint8",
          "name": "res",
          "type": "uint8"
        }
      ],
      "stateMutability": "view",
      "type": "function"
    }
  ],
  "transactionHash": "0xfcc74576d9139aca5bed8db7d3732a21c86b9c29bfdc337591515cebd8af1d96",
  "args": [],
  "solcInputHash": "4785b702f98a3902e5692d61b28e1b0a",
  "bytecode": "0x60806040523480156200001157600080fd5b50604051620000209062000064565b604051809103906000f0801580156200003d573d6000803e3d6000fd5b50600280546001600160a01b0319166001600160a01b039290921691909117905562000072565b6153658062002d4683390190565b612cc480620000826000396000f3fe608060405234801561001057600080fd5b50600436106100f55760003560e01c80635edd57e311610097578063beca7d9711610066578063beca7d971461025a578063d7e938321461027a578063e60bf69b146102d5578063f72e5c74146102e857600080fd5b80635edd57e3146101c05780636b380df4146101d357806392801230146101f45780639cd7d0071461023957600080fd5b80632b4383b3116100d35780632b4383b3146101575780634796cd7814610177578063581ee1d6146101985780635af8901b146101ad57600080fd5b8063084050f5146100fa5780630decbeec14610124578063191adaf814610144575b600080fd5b61010d6101083660046119a1565b6102fb565b60405161011b929190611a83565b60405180910390f35b610137610132366004611e27565b610453565b60405161011b9190611e9f565b61010d6101523660046119a1565b61052e565b61016a610165366004611eb2565b610664565b60405161011b9190611fd1565b61018a610185366004611fe4565b610739565b60405161011b929190612145565b61016a6101a6366004611e27565b5090919050565b6101376101bb366004611e27565b61089f565b61010d6101ce3660046119a1565b610d6c565b6101e66101e13660046119a1565b610ea2565b60405161011b929190612173565b6002546102149073ffffffffffffffffffffffffffffffffffffffff1681565b60405173ffffffffffffffffffffffffffffffffffffffff909116815260200161011b565b61024c6102473660046119a1565b611049565b60405161011b9291906121a2565b61026d610268366004611e27565b61117a565b60405161011b91906121d1565b6102c36102883660046121e4565b73ffffffffffffffffffffffffffffffffffffffff91909116600090815260016020908152604080832060ff94851684529091529020541690565b60405160ff909116815260200161011b565b6101376102e3366004611e27565b6111f5565b6102c36102f636600461221d565b611222565b6000606060008061030d898988610739565b909250905073ffffffffffffffffffffffffffffffffffffffff871615610436576040517f5af8901b00000000000000000000000000000000000000000000000000000000815273ffffffffffffffffffffffffffffffffffffffff881690635af8901b9061038490859085908a906004016122a5565b60006040518083038186803b15801561039c57600080fd5b505afa9250505080156103ef57506040513d6000823e601f3d9081017fffffffffffffffffffffffffffffffffffffffffffffffffffffffffffffffe01682016040526103ec919081019061232e565b60015b610429573d80801561041d576040519150601f19603f3d011682016040523d82523d6000602084013e610422565b606091505b5050610436565b8794509250610449915050565b3061044283838861089f565b9350935050505b9550959350505050565b6002546040517f7d1419d200000000000000000000000000000000000000000000000000000000815260609160009173ffffffffffffffffffffffffffffffffffffffff90911690637d1419d2906104b19088908790600401612363565b60006040518083038186803b1580156104c957600080fd5b505afa1580156104dd573d6000803e3d6000fd5b505050506040513d6000823e601f3d9081017fffffffffffffffffffffffffffffffffffffffffffffffffffffffffffffffe01682016040526105239190810190612388565b9150505b9392505050565b60006060600080610540898988610739565b909250905073ffffffffffffffffffffffffffffffffffffffff871615610658576040517f0decbeec00000000000000000000000000000000000000000000000000000000815273ffffffffffffffffffffffffffffffffffffffff881690630decbeec906105b790859085908a906004016122a5565b60006040518083038186803b1580156105cf57600080fd5b505afa92505050801561062257506040513d6000823e601f3d9081017fffffffffffffffffffffffffffffffffffffffffffffffffffffffffffffffe016820160405261061f919081019061232e565b60015b610429573d808015610650576040519150601f19603f3d011682016040523d82523d6000602084013e610655565b606091505b50505b30610442838388610453565b6002546040517f2b4383b300000000000000000000000000000000000000000000000000000000815260609173ffffffffffffffffffffffffffffffffffffffff1690632b4383b3906106bf908790879087906004016123d1565b60006040518083038186803b1580156106d757600080fd5b505afa1580156106eb573d6000803e3d6000fd5b505050506040513d6000823e601f3d9081017fffffffffffffffffffffffffffffffffffffffffffffffffffffffffffffffe016820160405261073191908101906124b7565b949350505050565b60606107ae60405180610160016040528060008152602001600081526020016060815260200160608152602001600073ffffffffffffffffffffffffffffffffffffffff1681526020016000815260200160008152602001606081526020016060815260200160608152602001606081525090565b6040517f5e983d4f0000000000000000000000000000000000000000000000000000000081526004810185905260009073ffffffffffffffffffffffffffffffffffffffff871690635e983d4f9060240160006040518083038186803b15801561081757600080fd5b505afa15801561082b573d6000803e3d6000fd5b505050506040513d6000823e601f3d9081017fffffffffffffffffffffffffffffffffffffffffffffffffffffffffffffffe0168201604052610871919081019061255b565b90506000610883878360e001516113a1565b9050819250610893818387610664565b93505050935093915050565b60025460408084015160608581015192517f7d1419d2000000000000000000000000000000000000000000000000000000008152909373ffffffffffffffffffffffffffffffffffffffff16926330375a3592918490637d1419d29061090b908b908a90600401612363565b60006040518083038186803b15801561092357600080fd5b505afa158015610937573d6000803e3d6000fd5b505050506040513d6000823e601f3d9081017fffffffffffffffffffffffffffffffffffffffffffffffffffffffffffffffe016820160405261097d9190810190612388565b60025488516040517f4a7c7e4600000000000000000000000000000000000000000000000000000000815273ffffffffffffffffffffffffffffffffffffffff90921691634a7c7e46916109d79160040190815260200190565b60006040518083038186803b1580156109ef57600080fd5b505afa158015610a03573d6000803e3d6000fd5b505050506040513d6000823e601f3d9081017fffffffffffffffffffffffffffffffffffffffffffffffffffffffffffffffe0168201604052610a49919081019061232e565b60025460a08a01516040517f4a7c7e4600000000000000000000000000000000000000000000000000000000815273ffffffffffffffffffffffffffffffffffffffff90921691634a7c7e4691610aa69160040190815260200190565b60006040518083038186803b158015610abe57600080fd5b505afa158015610ad2573d6000803e3d6000fd5b505050506040513d6000823e601f3d9081017fffffffffffffffffffffffffffffffffffffffffffffffffffffffffffffffe0168201604052610b18919081019061232e565b60025460c08b01516040517f7be2ae0300000000000000000000000000000000000000000000000000000000815260048101919091526020602482015273ffffffffffffffffffffffffffffffffffffffff90911690637be2ae039060440160006040518083038186803b158015610b8f57600080fd5b505afa158015610ba3573d6000803e3d6000fd5b505050506040513d6000823e601f3d9081017fffffffffffffffffffffffffffffffffffffffffffffffffffffffffffffffe0168201604052610be9919081019061232e565b60025460808c01516040517f7be2ae0300000000000000000000000000000000000000000000000000000000815273ffffffffffffffffffffffffffffffffffffffff918216600482015260146024820152911690637be2ae039060440160006040518083038186803b158015610c5f57600080fd5b505afa158015610c73573d6000803e3d6000fd5b505050506040513d6000823e601f3d9081017fffffffffffffffffffffffffffffffffffffffffffffffffffffffffffffffe0168201604052610cb9919081019061232e565b604051602001610ccf97969594939291906126da565b6040516020818303038152906040526040518263ffffffff1660e01b8152600401610cfa9190611e9f565b60006040518083038186803b158015610d1257600080fd5b505afa158015610d26573d6000803e3d6000fd5b505050506040513d6000823e601f3d9081017fffffffffffffffffffffffffffffffffffffffffffffffffffffffffffffffe01682016040526107319190810190612388565b60006060600080610d7e898988610739565b909250905073ffffffffffffffffffffffffffffffffffffffff871615610e96576040517fe60bf69b00000000000000000000000000000000000000000000000000000000815273ffffffffffffffffffffffffffffffffffffffff88169063e60bf69b90610df590859085908a906004016122a5565b60006040518083038186803b158015610e0d57600080fd5b505afa925050508015610e6057506040513d6000823e601f3d9081017fffffffffffffffffffffffffffffffffffffffffffffffffffffffffffffffe0168201604052610e5d9190810190612388565b60015b610429573d808015610e8e576040519150601f19603f3d011682016040523d82523d6000602084013e610e93565b606091505b50505b306104428383886111f5565b6000610f1760405180610160016040528060008152602001600081526020016060815260200160608152602001600073ffffffffffffffffffffffffffffffffffffffff1681526020016000815260200160008152602001606081526020016060815260200160608152602001606081525090565b600080610f25898988610739565b909250905073ffffffffffffffffffffffffffffffffffffffff87161561103d576040517fbeca7d9700000000000000000000000000000000000000000000000000000000815273ffffffffffffffffffffffffffffffffffffffff88169063beca7d9790610f9c90859085908a906004016122a5565b60006040518083038186803b158015610fb457600080fd5b505afa92505050801561100757506040513d6000823e601f3d9081017fffffffffffffffffffffffffffffffffffffffffffffffffffffffffffffffe0168201604052611004919081019061255b565b60015b610429573d808015611035576040519150601f19603f3d011682016040523d82523d6000602084013e61103a565b606091505b50505b3061044283838861117a565b6000606060008061105b898988610739565b909250905073ffffffffffffffffffffffffffffffffffffffff871615611173576040517f581ee1d600000000000000000000000000000000000000000000000000000000815273ffffffffffffffffffffffffffffffffffffffff88169063581ee1d6906110d290859085908a906004016122a5565b60006040518083038186803b1580156110ea57600080fd5b505afa92505050801561113d57506040513d6000823e601f3d9081017fffffffffffffffffffffffffffffffffffffffffffffffffffffffffffffffe016820160405261113a91908101906124b7565b60015b610429573d80801561116b576040519150601f19603f3d011682016040523d82523d6000602084013e611170565b606091505b50505b3082610442565b6111ed60405180610160016040528060008152602001600081526020016060815260200160608152602001600073ffffffffffffffffffffffffffffffffffffffff1681526020016000815260200160008152602001606081526020016060815260200160608152602001606081525090565b509092915050565b6060838360405160200161120a929190612145565b60405160208183030381529060405290509392505050565b60008061122e836114c1565b905060008160ff16116112a2576040517f08c379a000000000000000000000000000000000000000000000000000000000815260206004820152600360248201527f463a30000000000000000000000000000000000000000000000000000000000060448201526064015b60405180910390fd5b60006112ce85856040516020016112ba9291906128f6565b6040516020818303038152906040526114d5565b3360008181526020818152604080832060ff808d168086529184528285208054600181810183559187528587200180547fffffffffffffffffffffff0000000000000000000000000000000000000000001673ffffffffffffffffffffffffffffffffffffffff8a1674ff000000000000000000000000000000000000000060a08e901b1617179055958552948352818420908452909152812080549394508593909261137d918591166129fe565b92506101000a81548160ff021916908360ff16021790555081925050509392505050565b6060815167ffffffffffffffff8111156113bd576113bd611ab2565b6040519080825280602002602001820160405280156113f057816020015b60608152602001906001900390816113db5790505b50905060005b82518160ff1610156114ba57828160ff168151811061141757611417612a23565b602002602001015160ff1660001415611460576040805160008152602081019091528251839060ff841690811061145057611450612a23565b60200260200101819052506114a8565b6114878482858460ff168151811061147a5761147a612a23565b60200260200101516115b0565b828260ff168151811061149c5761149c612a23565b60200260200101819052505b806114b281612a52565b9150506113f6565b5092915050565b600060ff8211156114d157600080fd5b5090565b600080826040516020016114e99190612a72565b60405160208183030381529060405290506000815182604051602001611510929190612a98565b60405160208183030381529060405290508051602082016000f0925073ffffffffffffffffffffffffffffffffffffffff83166115a9576040517f08c379a000000000000000000000000000000000000000000000000000000000815260206004820152601160248201527f4445504c4f594d454e545f4641494c45440000000000000000000000000000006044820152606401611299565b5050919050565b606060ff821661161c576040517f08c379a000000000000000000000000000000000000000000000000000000000815260206004820152600360248201527f463a3100000000000000000000000000000000000000000000000000000000006044820152606401611299565b8161162681612b2f565b73ffffffffffffffffffffffffffffffffffffffff8616600090815260016020908152604080832060ff808a1685529252909120549194509081169150831681116116cd576040517f08c379a000000000000000000000000000000000000000000000000000000000815260206004820152600360248201527f463a3200000000000000000000000000000000000000000000000000000000006044820152606401611299565b73ffffffffffffffffffffffffffffffffffffffff851660009081526020818152604080832060ff8816845282528083208054825181850281018501909352808352919290919083018282801561175b57602002820191906000526020600020905b815474ffffffffffffffffffffffffffffffffffffffffff16815260019091019060200180831161172f575b50505050509050600080600080600090505b845181101561181757600060a086838151811061178c5761178c612a23565b602002602001015174ffffffffffffffffffffffffffffffffffffffffff16901c90508860ff1681846117bf91906129fe565b60ff1611156117f8578582815181106117da576117da612a23565b6020026020010151945082896117f09190612b6a565b935050611817565b61180281846129fe565b9250508061180f81612b8d565b91505061176d565b5073ffffffffffffffffffffffffffffffffffffffff8316611895576040517f08c379a000000000000000000000000000000000000000000000000000000000815260206004820152600360248201527f463a3300000000000000000000000000000000000000000000000000000000006044820152606401611299565b61189e836118db565b8060200190518101906118b19190612bc6565b8260ff16815181106118c5576118c5612a23565b6020026020010151955050505050509392505050565b60606119098260016119048173ffffffffffffffffffffffffffffffffffffffff84163b612c77565b61190f565b92915050565b60408051603f838501017fffffffffffffffffffffffffffffffffffffffffffffffffffffffffffffffe0168101909152818152818360208301863c9392505050565b73ffffffffffffffffffffffffffffffffffffffff8116811461197457600080fd5b50565b803561198281611952565b919050565b60ff8116811461197457600080fd5b803561198281611987565b600080600080600060a086880312156119b957600080fd5b85356119c481611952565b94506020860135935060408601356119db81611952565b925060608601356119eb81611987565b915060808601356119fb81611987565b809150509295509295909350565b60005b83811015611a24578181015183820152602001611a0c565b83811115611a33576000848401525b50505050565b60008151808452611a51816020860160208601611a09565b601f017fffffffffffffffffffffffffffffffffffffffffffffffffffffffffffffffe0169290920160200192915050565b73ffffffffffffffffffffffffffffffffffffffff831681526040602082015260006107316040830184611a39565b7f4e487b7100000000000000000000000000000000000000000000000000000000600052604160045260246000fd5b604051610160810167ffffffffffffffff81118282101715611b0557611b05611ab2565b60405290565b604051601f82017fffffffffffffffffffffffffffffffffffffffffffffffffffffffffffffffe016810167ffffffffffffffff81118282101715611b5257611b52611ab2565b604052919050565b600067ffffffffffffffff821115611b7457611b74611ab2565b5060051b60200190565b600082601f830112611b8f57600080fd5b81356020611ba4611b9f83611b5a565b611b0b565b82815260059290921b84018101918181019086841115611bc357600080fd5b8286015b84811015611bde5780358352918301918301611bc7565b509695505050505050565b600067ffffffffffffffff821115611c0357611c03611ab2565b50601f017fffffffffffffffffffffffffffffffffffffffffffffffffffffffffffffffe01660200190565b600082601f830112611c4057600080fd5b8135611c4e611b9f82611be9565b818152846020838601011115611c6357600080fd5b816020850160208301376000918101602001919091529392505050565b600082601f830112611c9157600080fd5b81356020611ca1611b9f83611b5a565b82815260059290921b84018101918181019086841115611cc057600080fd5b8286015b84811015611bde578035611cd781611987565b8352918301918301611cc4565b60006101608284031215611cf757600080fd5b611cff611ae1565b90508135815260208201356020820152604082013567ffffffffffffffff80821115611d2a57600080fd5b611d3685838601611c2f565b60408401526060840135915080821115611d4f57600080fd5b611d5b85838601611c2f565b6060840152611d6c60808501611977565b608084015260a084013560a084015260c084013560c084015260e0840135915080821115611d9957600080fd5b611da585838601611c80565b60e084015261010091508184013581811115611dc057600080fd5b611dcc86828701611c80565b838501525061012091508184013581811115611de757600080fd5b611df386828701611c80565b838501525061014091508184013581811115611e0e57600080fd5b611e1a86828701611c80565b8385015250505092915050565b600080600060608486031215611e3c57600080fd5b833567ffffffffffffffff80821115611e5457600080fd5b611e6087838801611b7e565b94506020860135915080821115611e7657600080fd5b50611e8386828701611ce4565b9250506040840135611e9481611987565b809150509250925092565b6020815260006105276020830184611a39565b600080600060608486031215611ec757600080fd5b833567ffffffffffffffff80821115611edf57600080fd5b818601915086601f830112611ef357600080fd5b81356020611f03611b9f83611b5a565b82815260059290921b8401810191818101908a841115611f2257600080fd5b8286015b84811015611f5a57803586811115611f3e5760008081fd5b611f4c8d86838b0101611b7e565b845250918301918301611f26565b5097505087013592505080821115611f7157600080fd5b50611f7e86828701611ce4565b925050611f8d60408501611996565b90509250925092565b600081518084526020808501945080840160005b83811015611fc657815187529582019590820190600101611faa565b509495945050505050565b6020815260006105276020830184611f96565b600080600060608486031215611ff957600080fd5b833561200481611952565b9250602084013591506040840135611e9481611987565b600081518084526020808501945080840160005b83811015611fc657815160ff168752958201959082019060010161202f565b60006101608251845260208301516020850152604083015181604086015261207882860182611a39565b915050606083015184820360608601526120928282611a39565b91505060808301516120bc608086018273ffffffffffffffffffffffffffffffffffffffff169052565b5060a083015160a085015260c083015160c085015260e083015184820360e08601526120e8828261201b565b9150506101008084015185830382870152612103838261201b565b92505050610120808401518583038287015261211f838261201b565b92505050610140808401518583038287015261213b838261201b565b9695505050505050565b6040815260006121586040830185611f96565b828103602084015261216a818561204e565b95945050505050565b73ffffffffffffffffffffffffffffffffffffffff83168152604060208201526000610731604083018461204e565b73ffffffffffffffffffffffffffffffffffffffff831681526040602082015260006107316040830184611f96565b602081526000610527602083018461204e565b600080604083850312156121f757600080fd5b823561220281611952565b9150602083013561221281611987565b809150509250929050565b60008060006040848603121561223257600080fd5b833561223d81611987565b9250602084013567ffffffffffffffff8082111561225a57600080fd5b818601915086601f83011261226e57600080fd5b81358181111561227d57600080fd5b8760208260051b850101111561229257600080fd5b6020830194508093505050509250925092565b6060815260006122b86060830186611f96565b82810360208401526122ca818661204e565b91505060ff83166040830152949350505050565b60006122ec611b9f84611be9565b905082815283838301111561230057600080fd5b610527836020830184611a09565b600082601f83011261231f57600080fd5b610527838351602085016122de565b60006020828403121561234057600080fd5b815167ffffffffffffffff81111561235757600080fd5b6107318482850161230e565b6040815260006123766040830185611f96565b905060ff831660208301529392505050565b60006020828403121561239a57600080fd5b815167ffffffffffffffff8111156123b157600080fd5b8201601f810184136123c257600080fd5b610731848251602084016122de565b6000606082016060835280865180835260808501915060808160051b8601019250602080890160005b83811015612446577fffffffffffffffffffffffffffffffffffffffffffffffffffffffffffffff80888703018552612434868351611f96565b955093820193908201906001016123fa565b5050858403818701525050506122ca818661204e565b600082601f83011261246d57600080fd5b8151602061247d611b9f83611b5a565b82815260059290921b8401810191818101908684111561249c57600080fd5b8286015b84811015611bde57805183529183019183016124a0565b6000602082840312156124c957600080fd5b815167ffffffffffffffff8111156124e057600080fd5b6107318482850161245c565b805161198281611952565b600082601f83011261250857600080fd5b81516020612518611b9f83611b5a565b82815260059290921b8401810191818101908684111561253757600080fd5b8286015b84811015611bde57805161254e81611987565b835291830191830161253b565b60006020828403121561256d57600080fd5b815167ffffffffffffffff8082111561258557600080fd5b90830190610160828603121561259a57600080fd5b6125a2611ae1565b82518152602083015160208201526040830151828111156125c257600080fd5b6125ce8782860161230e565b6040830152506060830151828111156125e657600080fd5b6125f28782860161230e565b606083015250612604608084016124ec565b608082015260a083015160a082015260c083015160c082015260e08301518281111561262f57600080fd5b61263b878286016124f7565b60e083015250610100808401518381111561265557600080fd5b612661888287016124f7565b828401525050610120808401518381111561267b57600080fd5b612687888287016124f7565b82840152505061014080840151838111156126a157600080fd5b6126ad888287016124f7565b918301919091525095945050505050565b600081516126d0818560208601611a09565b9290920192915050565b7f7b226e616d65223a220000000000000000000000000000000000000000000000815260008851612712816009850160208d01611a09565b7f222c226465736372697074696f6e223a22000000000000000000000000000000600991840191820152885161274f81601a840160208d01611a09565b7f222c2022696d616765223a202200000000000000000000000000000000000000601a9290910191820152875161278d816027840160208c01611a09565b7f222c22446f746e75676756657273696f6e223a220000000000000000000000006027929091019182015286516127cb81603b840160208b01611a09565b7f222c22746f6b656e4964223a2200000000000000000000000000000000000000603b929091019182015261289961287061286a61284161283b612812604887018c6126be565b7f222c2270726f6f66223a220000000000000000000000000000000000000000008152600b0190565b896126be565b7f222c226f776e6572223a220000000000000000000000000000000000000000008152600b0190565b866126be565b7f227d000000000000000000000000000000000000000000000000000000000000815260020190565b9a9950505050505050505050565b81835260007f07ffffffffffffffffffffffffffffffffffffffffffffffffffffffffffffff8311156128d957600080fd5b8260051b8083602087013760009401602001938452509192915050565b6020808252818101839052600090600560408085019086831b86010187855b888110156129c1577fffffffffffffffffffffffffffffffffffffffffffffffffffffffffffffffc088840301845281357fffffffffffffffffffffffffffffffffffffffffffffffffffffffffffffffe18b360301811261297657600080fd5b8a01803567ffffffffffffffff81111561298f57600080fd5b80871b36038c13156129a057600080fd5b6129ad85828a85016128a7565b958801959450505090850190600101612915565b509098975050505050505050565b7f4e487b7100000000000000000000000000000000000000000000000000000000600052601160045260246000fd5b600060ff821660ff84168060ff03821115612a1b57612a1b6129cf565b019392505050565b7f4e487b7100000000000000000000000000000000000000000000000000000000600052603260045260246000fd5b600060ff821660ff811415612a6957612a696129cf565b60010192915050565b6000815260008251612a8b816001850160208701611a09565b9190910160010192915050565b7f630000000000000000000000000000000000000000000000000000000000000081527fffffffff000000000000000000000000000000000000000000000000000000008360e01b1660018201527f80600e6000396000f30000000000000000000000000000000000000000000000600582015260008251612b2181600e850160208701611a09565b91909101600e019392505050565b600060ff821680612b4257612b426129cf565b7fffffffffffffffffffffffffffffffffffffffffffffffffffffffffffffffff0192915050565b600060ff821660ff841680821015612b8457612b846129cf565b90039392505050565b60007fffffffffffffffffffffffffffffffffffffffffffffffffffffffffffffffff821415612bbf57612bbf6129cf565b5060010190565b60006020808385031215612bd957600080fd5b825167ffffffffffffffff80821115612bf157600080fd5b818501915085601f830112612c0557600080fd5b8151612c13611b9f82611b5a565b81815260059190911b83018401908481019088831115612c3257600080fd5b8585015b83811015612c6a57805185811115612c4e5760008081fd5b612c5c8b89838a010161245c565b845250918601918601612c36565b5098975050505050505050565b600082821015612c8957612c896129cf565b50039056fea2646970667358221220d5be59a3dac16f420f76f9d376219c61fa570ad5d57513f2bc14dcd8fa35918964736f6c63430008090033608060405234801561001057600080fd5b50615345806100206000396000f3fe608060405234801561001057600080fd5b50600436106100be5760003560e01c806377d0adb1116100765780637d1419d21161005b5780637d1419d21461016b578063d60bad601461017e578063daa68c211461019157600080fd5b806377d0adb1146101455780637be2ae031461015857600080fd5b806346eceb3a116100a757806346eceb3a1461010c5780634a7c7e461461011f5780635fc6b8fd1461013257600080fd5b80632b4383b3146100c357806330375a35146100ec575b600080fd5b6100d66100d13660046149e6565b6101a4565b6040516100e39190614ac1565b60405180910390f35b6100ff6100fa366004614b05565b610301565b6040516100e39190614bc4565b6100ff61011a366004614b05565b610369565b6100ff61012d366004614bd7565b6103aa565b6100d6610140366004614bf0565b6103bb565b6100d6610153366004614c25565b61051c565b6100ff610166366004614c6a565b61067f565b6100ff610179366004614c96565b610695565b6100ff61018c366004614b05565b610728565b6100ff61019f366004614b05565b610765565b8151606090600114610217576040517f08c379a000000000000000000000000000000000000000000000000000000000815260206004820152600360248201527f563173000000000000000000000000000000000000000000000000000000000060448201526064015b60405180910390fd5b60408260ff161115801561022e575060048260ff16115b610294576040517f08c379a000000000000000000000000000000000000000000000000000000000815260206004820152600760248201527f56313a53495a4500000000000000000000000000000000000000000000000000604482015260640161020e565b61029f600283614d0a565b60ff166102b457816102b081614d5b565b9250505b60006102cb85856101200151866101400151610770565b905060006102db60088584610af9565b90506102f781604001516040015182604001516080015161051c565b9695505050505050565b60606040518060400160405280601d81526020017f646174613a6170706c69636174696f6e2f6a736f6e3b6261736536342c00000081525061034283610765565b604051602001610353929190614d96565b6040516020818303038152906040529050919050565b60606040518060400160405280601a81526020017f646174613a696d6167652f7376672b786d6c3b6261736536342c00000000000081525061034283610765565b60606103b582610e47565b92915050565b606060f082600184516103ce9190614dc5565b815181106103de576103de614ddc565b6020026020010151901c67ffffffffffffffff8111156104005761040061463f565b604051908082528060200260200182016040528015610429578160200160208202803683370190505b5090506000805b835181101561051557600084828151811061044d5761044d614ddc565b6020026020010151600f16905080600f141561048f576004858361047081614e0b565b94508151811061048257610482614ddc565b6020026020010151901c90505b60005b818110156104ba57836104a481614e0b565b94505080806104b290614e0b565b915050610492565b5060048583815181106104cf576104cf614ddc565b6020026020010151901c8484806104e590614e0b565b9550815181106104f7576104f7614ddc565b6020908102919091010152508061050d81614e0b565b915050610430565b5050919050565b606060008060005b85838151811061053657610536614ddc565b602002602001015160001415610558578061055081614e0b565b9150506105e2565b600e81111561059557600f600482901b17868361057481614e0b565b94508151811061058657610586614ddc565b60209081029190910101525060005b8060048785815181106105aa576105aa614ddc565b6020026020010151901b178683806105c190614e0b565b9450815181106105d3576105d3614ddc565b60209081029190910101525060005b85516105ed84614e0b565b9350831061052457600e81111561063257600f600482901b17868361061181614e0b565b94508151811061062357610623614ddc565b60209081029190910101525060005b60f0865160016106429190614e44565b600487901b8317911b17868361065781614e0b565b94508151811061066957610669614ddc565b6020908102919091010152508452509192915050565b606061068e838360ff16610e52565b9392505050565b60606106a0836103bb565b92506000603f8085600187516106b69190614dc5565b815181106106c6576106c6614ddc565b6020908102919091010151901c1690506000603f604586600188516106eb9190614dc5565b815181106106fb576106fb614ddc565b6020026020010151901c16905061071485838387611095565b925061071f83610369565b95945050505050565b60606040518060400160405280601a81526020017f646174613a696d6167652f646f746e7567673b6261736536342c000000000000815250610342835b60606103b582611314565b6060835167ffffffffffffffff81111561078c5761078c61463f565b6040519080825280602002602001820160405280156107bf57816020015b60608152602001906001900390816107aa5790505b50905060005b8451811015610af1576000806107f38784815181106107e6576107e6614ddc565b60200260200101516114ef565b915091508115610804575050610adf565b61080f8160206115e8565b63420690011461087b576040517f08c379a000000000000000000000000000000000000000000000000000000000815260206004820152600860248201527f4445433a50493a30000000000000000000000000000000000000000000000000604482015260640161020e565b60006108888260036115e8565b905060006108978360086115e8565b905060006108a68483856117e2565b905060006108b58560026115e8565b6108c0906001614e44565b90508067ffffffffffffffff8111156108db576108db61463f565b60405190808252806020026020018201604052801561093e57816020015b61092b6040518060a0016040528060608152602001606081526020016060815260200160008152602001600081525090565b8152602001906001900390816108f95790505b5088888151811061095157610951614ddc565b602002602001018190525060005b81811015610ad75761097386868d8d611947565b89898151811061098557610985614ddc565b6020026020010151828151811061099e5761099e614ddc565b602002602001015160800181815250506109b786611ac8565b8989815181106109c9576109c9614ddc565b602002602001015182815181106109e2576109e2614ddc565b60200260200101516060018181525050600080610a418b8b81518110610a0a57610a0a614ddc565b60200260200101518481518110610a2357610a23614ddc565b602002602001015160800151603f81811c81169260459290921c1690565b91509150610a50888383611bad565b8b8b81518110610a6257610a62614ddc565b60200260200101518481518110610a7b57610a7b614ddc565b602002602001015160200181905250848b8b81518110610a9d57610a9d614ddc565b60200260200101518481518110610ab657610ab6614ddc565b60209081029190910101515250819050610acf81614e0b565b91505061095f565b505050505050505b80610ae981614e0b565b9150506107c5565b509392505050565b610b016144b6565b610b09614529565b610b138485611d43565b81528467ffffffffffffffff811115610b2e57610b2e61463f565b604051908082528060200260200182016040528015610bb757816020015b610ba46040805160e0810182526000918101828152606082018390526080820183905260a0820183905260c0820192909252908190815260408051606081018252600080825260208281018290529282015291015290565b815260200190600190039081610b4c5790505b5060208083019190915260408051606081018252600080825292810183905290810191909152610be8600286614e5c565b610bf3906001614e7e565b60ff168152610c03600286614e5c565b610c0e906001614e7e565b60ff166020828101919091526001604080840191909152805160a08101825260008082529281018390529081018290526060810182905260808101829052905b878160ff161015610ca55760405180604001604052808381526020018481525084602001518260ff1681518110610c8757610c87614ddc565b60200260200101819052508080610c9d90614ea3565b915050610c4e565b50825160ff871690819052835160200152610cbe614549565b610cc88788611d43565b60408201528767ffffffffffffffff811115610ce657610ce661463f565b604051908082528060200260200182016040528015610d6f57816020015b610d5c6040805160e0810182526000918101828152606082018390526080820183905260a0820183905260c0820192909252908190815260408051606081018252600080825260208281018290529282015291015290565b815260200190600190039081610d045790505b50606082015260005b86518160ff161015610e39576000878260ff1681518110610d9b57610d9b614ddc565b6020026020010151511115610e2757610df682888360ff1681518110610dc357610dc3614ddc565b6020026020010151610df1888b8660ff1681518110610de457610de4614ddc565b6020026020010151611e02565b611fce565b610e008583612572565b610e0a858361287b565b610e14858361295f565b610e1d82612a4e565b610e278583612a5a565b80610e3181614ea3565b915050610d78565b505091519695505050505050565b60606103b582612b1f565b60606000610e61836002614ec3565b610e6c906002614e44565b67ffffffffffffffff811115610e8457610e8461463f565b6040519080825280601f01601f191660200182016040528015610eae576020820181803683370190505b5090507f300000000000000000000000000000000000000000000000000000000000000081600081518110610ee557610ee5614ddc565b60200101907effffffffffffffffffffffffffffffffffffffffffffffffffffffffffffff1916908160001a9053507f780000000000000000000000000000000000000000000000000000000000000081600181518110610f4857610f48614ddc565b60200101907effffffffffffffffffffffffffffffffffffffffffffffffffffffffffffff1916908160001a9053506000610f84846002614ec3565b610f8f906001614e44565b90505b600181111561102c577f303132333435363738396162636465660000000000000000000000000000000085600f1660108110610fd057610fd0614ddc565b1a60f81b828281518110610fe657610fe6614ddc565b60200101907effffffffffffffffffffffffffffffffffffffffffffffffffffffffffffff1916908160001a90535060049490941c9361102581614f00565b9050610f92565b50831561068e576040517f08c379a000000000000000000000000000000000000000000000000000000000815260206004820181905260248201527f537472696e67733a20686578206c656e67746820696e73756666696369656e74604482015260640161020e565b606060006110ae6110a98660ff8616614ec3565b610e47565b6110be6110a98760ff8716614ec3565b6110ce6110a98860ff8816614ec3565b6110de6110a98960ff8916614ec3565b6040516020016110f19493929190614f35565b604080517fffffffffffffffffffffffffffffffffffffffffffffffffffffffffffffffe0818403018152828201909152600682527f3c2f7376673e000000000000000000000000000000000000000000000000000060208301529150600061116461115f8983808b612c4f565b612cd5565b90506001606060005b888110156112e05760005b8981101561125b578115801561118c575080155b1561119f578061119b81614e0b565b9150505b60006111ad8d83858f612c4f565b9050856111b982612cd5565b14156111d257846111c981614e0b565b95505050611249565b8361121e8760ff8d166111e58987614dc5565b6111ef9190614ec3565b6111fc60ff8f1688614ec3565b6112078f60016150aa565b60ff168f60ff168b6112199190614ec3565b612cf3565b60405160200161122f929190614d96565b604051602081830303815290604052935080955060019450505b8061125381614e0b565b915050611178565b50816112a38560ff8b1661126f878f614dc5565b6112799190614ec3565b61128660ff8d1686614ec3565b6112918d60016150aa565b60ff168d60ff16896112199190614ec3565b6040516020016112b4929190614d96565b6040516020818303038152906040529150600093506000925080806112d890614e0b565b91505061116d565b508481856040516020016112f6939291906150d3565b60405160208183030381529060405295505050505050949350505050565b606081516000141561133457505060408051602081019091526000815290565b60006040518060600160405280604081526020016152d060409139905060006003845160026113639190614e44565b61136d9190615116565b611378906004614ec3565b90506000611387826020614e44565b67ffffffffffffffff81111561139f5761139f61463f565b6040519080825280601f01601f1916602001820160405280156113c9576020820181803683370190505b509050818152600183018586518101602084015b818310156114375760039283018051603f601282901c811687015160f890811b8552600c83901c8216880151811b6001860152600683901c8216880151811b60028601529116860151901b938201939093526004016113dd565b600389510660018114611451576002811461149b576114e1565b7f3d3d0000000000000000000000000000000000000000000000000000000000007ffffffffffffffffffffffffffffffffffffffffffffffffffffffffffffffffe8301526114e1565b7f3d000000000000000000000000000000000000000000000000000000000000007fffffffffffffffffffffffffffffffffffffffffffffffffffffffffffffffff8301525b509398975050505050505050565b600061151560405180606001604052806060815260200160008152602001600081525090565b82516115245760019150915091565b82815260026020820152825167ffffffffffffffff8111156115485761154861463f565b604051908082528060200260200182016040528015611571578160200160208202803683370190505b50815282515b80156115e2578381855161158b9190614dc5565b8151811061159b5761159b614ddc565b602002602001015182600001516001836115b59190614dc5565b815181106115c5576115c5614ddc565b6020908102919091010152806115da81614f00565b915050611577565b50915091565b60006001821b7fffffffffffffffffffffffffffffffffffffffffffffffffffffffffffffffff018351805160009061162357611623614ddc565b60200260200101511690508160ff16836000015160008151811061164957611649614ddc565b6020026020010151901c836000015160008151811061166a5761166a614ddc565b6020026020010181815250508160ff168360400181815161168b9190614e44565b90525060408301516080116103b5576000600284602001516116ad9190615116565b8451519091508110156117db57608084604001516116cb9190614dc5565b845180516000906116de576116de614ddc565b60209081029190910101805190911b905260006fffffffffffffffffffffffffffffffff855180518490811061171657611716614ddc565b602002602001015116905060808560000151838151811061173957611739614ddc565b60200260200101818151901c91508181525050608081901b856000015160008151811061176857611768614ddc565b6020026020010181815117915081815250506080856040015161178b9190614dc5565b8551805160009061179e5761179e614ddc565b6020908102919091018101805190921c90915285018051906117bf82614e0b565b815250506080856040018181516117d69190614dc5565b905250505b5092915050565b606060006117f18560046115e8565b6117fc906001614e44565b9050611809816001614e44565b67ffffffffffffffff8111156118215761182161463f565b60405190808252806020026020018201604052801561184a578160200160208202803683370190505b50915060005b8181101561193e5760006118658760046115e8565b90506000806118758960016115e8565b9050806001141561188957600091506118c9565b60006118968a60086115e8565b905060006118a58b60086115e8565b905060006118b48c60086115e8565b905080600883901b601085901b171794505050505b60006118d68a60016115e8565b6001146118ed576118e88a60086115e8565b6118f0565b60ff5b90506118ff83828b878c612d78565b8761190b876001614e44565b8151811061191b5761191b614ddc565b60200260200101818152505050505050808061193690614e0b565b915050611850565b50509392505050565b604b83901b60006119598660066115e8565b905060006119688760066115e8565b604581901b93909317603f83901b1792905060006119878860066115e8565b905060006119968960066115e8565b9050865160081480156119aa575085516008145b80156119fa57508688815181106119c3576119c3614ddc565b602002602001015160ff1660001415806119fa57508588815181106119ea576119ea614ddc565b602002602001015160ff16600014155b15611a4e576039868981518110611a1357611a13614ddc565b602002602001015160ff16901b851794506033878981518110611a3857611a38614ddc565b602002602001015160ff16901b85179450611a61565b603382901b85179450603981901b851794505b601b611a6e8a60016115e8565b600114611a8557611a808a60186115e8565b611a88565b60005b901b94909417936003611a9c8a60016115e8565b600114611ab357611aae8a60186115e8565b611ab6565b60005b901b8517945050505050949350505050565b600080611ad68360016115e8565b600114611aed57611ae88360046115e8565b611af0565b60015b905060005b8181101561051557600080611b0b8660066115e8565b90506000611b1a8760066115e8565b90506000611b298860036115e8565b90506000611b388960016115e8565b90508060011415611b5457600684901b94909417821793611b61565b600683901b949094178317935b80600114611b70576000611b73565b60805b60ff16611b8183600c614ec3565b611b8b9190614e44565b85901b9450848817975050505050508080611ba590614e0b565b915050611af5565b60606000611bbc8560016115e8565b600114611bde57611bce8560106115e8565b611bd9906001614e44565b611bf4565b611be98560086115e8565b611bf4906001614e44565b90506040611c028486614ec3565b611c0c9190615116565b611c17906001614e44565b67ffffffffffffffff811115611c2f57611c2f61463f565b604051908082528060200260200182016040528015611c58578160200160208202803683370190505b5091506000805b82811015611d39576000611c748860026115e8565b611c7f906001614e44565b90508060041415611ca357611c958860046115e8565b611ca0906004614e44565b90505b6000611cb08960046115e8565b905060005b82811015611d2357611cc860408661512a565b611cd3906004614ec3565b82901b87611ce2604088615116565b81518110611cf257611cf2614ddc565b602090810291909101018051909117905284611d0d81614e0b565b9550508080611d1b90614e0b565b915050611cb5565b5050508080611d3190614e0b565b915050611c5f565b5050509392505050565b611d4b6144b6565b611d56600284614d0a565b60ff166001148015611d755750611d6e600283614d0a565b60ff166001145b611ddb576040517f08c379a000000000000000000000000000000000000000000000000000000000815260206004820152600660248201527f4d4c3a433a300000000000000000000000000000000000000000000000000000604482015260640161020e565b611dec81604001518460ff16612dd7565b60408101516103b59060ff808616908516612e46565b600080825111611e6e576040517f08c379a000000000000000000000000000000000000000000000000000000000815260206004820152600a60248201527f43414c433a5056493a3000000000000000000000000000000000000000000000604482015260640161020e565b815160011415611e80575060006103b5565b600060018351611e90919061513e565b905060006007604b85600081518110611eab57611eab614ddc565b602002602001015160800151901c1690505b60ff821615611fc357600062ffffff601b868560ff1681518110611ee357611ee3614ddc565b602002602001015160800151901c16905060006040518060a00160405280600115158152602001611f3960067fffffffffffffffffffffffffffffffffffffffffffffffffffffffffffffffff600190911b0190565b601285901c1660ff168152602001603f600c85901c1660ff168152602001603f600685901c1660ff168152602001603f841660ff168152509050611f9e8188602001518581518110611f8d57611f8d614ddc565b602002602001015160000151612f5a565b15611faf57839450505050506103b5565b611fba60018561513e565b93505050611ebd565b506000949350505050565b600062ffffff601b848460ff1681518110611feb57611feb614ddc565b602090810291909101015160800151901c169050600062ffffff6003858560ff168151811061201c5761201c614ddc565b602002602001015160800151901c169050600080612069868660ff168151811061204857612048614ddc565b602002602001015160800151603381901c603f9081169260399290921c1690565b91509150600080612088888860ff1681518110610a2357610a23614ddc565b60208b8101805160ff85811690915290519083169101526040805160e0810182526001918101918252929450909250819060608201603f60128b901c1660ff168152602001603f600c8b901c1660ff168152602001603f60068b901c1660ff168152602001603f60ff908b1681169091529082526040805160608101825288831681529187166020838101919091526001838301819052938101929092528c820151810193909352825160a081019093529082528101603f601288901c1660ff168152602001603f600c88901c1660ff168152602001603f600688901c1660ff168152602001603f60ff90881616905260208a015160a00152604080516008808252610120820190925290816020015b60408051606081018252600080825260208083018290529282015282527fffffffffffffffffffffffffffffffffffffffffffffffffffffffffffffffff9092019101816121985790505060208a015160600152604080516008808252610120820190925290816020015b60408051606081018252600080825260208083018290529282015282527fffffffffffffffffffffffffffffffffffffffffffffffffffffffffffffffff90920191018161220357505060208a01516080015260005b600881101561234857600080600061228f8c8c60ff168151811061227f5761227f614ddc565b6020026020010151856000612fbd565b925092509250801561233257828d602001516080015185815181106122b6576122b6614ddc565b60200260200101516000019060ff16908160ff1681525050818d602001516080015185815181106122e9576122e9614ddc565b60200260200101516020019060ff16908160ff168152505060018d6020015160800151858151811061231d5761231d614ddc565b60209081029190910101519015156040909101525b505050808061234090614e0b565b915050612259565b5060005b600881101561243b5760008060006123828c8c60ff168151811061237257612372614ddc565b6020026020010151856001612fbd565b925092509250801561242557828d602001516060015185815181106123a9576123a9614ddc565b60200260200101516000019060ff16908160ff1681525050818d602001516060015185815181106123dc576123dc614ddc565b60200260200101516020019060ff16908160ff168152505060018d6020015160600151858151811061241057612410614ddc565b60209081029190910101519015156040909101525b505050808061243390614e0b565b91505061234c565b50600060a08a0181905260808a015260608901515167ffffffffffffffff8111156124685761246861463f565b6040519080825280602002602001820160405280156124f157816020015b6124de6040805160e0810182526000918101828152606082018390526080820183905260a0820183905260c0820192909252908190815260408051606081018252600080825260208281018290529282015291015290565b8152602001906001900390816124865790505b5060608a01526007604b898960ff168151811061251057612510614ddc565b602002602001015160800151901c16896000019060ff16908160ff1681525050612567888860ff168151811061254857612548614ddc565b602002602001015183838c6040015161301d909392919063ffffffff16565b505050505050505050565b60008260200151826000015160ff168151811061259157612591614ddc565b6020026020010151905060008260200151604001519050826020015160a001516040015160ff166000141580156125cf575080516040015160ff1615155b80156125f1575081600001516040015160ff1681600001516040015160ff1611155b1561268f5780516040908101518351909101516000916126109161513e565b905061263a6001856020015160a001516040015161262e919061513e565b604086015190836130d5565b8082602001516000018181516126509190614e7e565b60ff90811690915260208087015160a0015101511615905061268d5780846020015160a001516020018181516126869190614e7e565b60ff169052505b505b60208084015160a00151015160ff16158015906126b3575080516020015160ff1615155b80156126d5575081600001516020015160ff1681600001516020015160ff1611155b1561271a5761271a6001846020015160a00151602001516126f6919061513e565b825160209081015185519091015161270e919061513e565b604086015191906130d5565b602083015160a001516080015160ff161580159061273f575080516080015160ff1615155b8015612761575081600001516080015160ff1681600001516080015160ff1611155b156127f65780516080908101518351909101516000916127809161513e565b602085015160a001516080015160408601519192506127a09190836131d1565b8082602001516020018181516127b69190614e7e565b60ff908116909152602086015160a0015160600151161590506127f45780846020015160a001516060018181516127ed9190614e7e565b60ff169052505b505b602083015160a001516060015160ff161580159061281b575080516060015160ff1615155b801561283d575081600001516060015160ff1681600001516060015160ff1611155b1561287557602083015160a001516060908101518251820151845190920151612875926128699161513e565b604086015191906131d1565b50505050565b60008260200151826000015160ff168151811061289a5761289a614ddc565b602002602001015190506000826020015160400151905080602001516000015160ff1682602001516000015160ff16116128d55760006128eb565b6020808201515190830151516128eb919061513e565b60ff90811660a08501526020808301518101518482015190910151908216911611612917576000612933565b806020015160200151826020015160200151612933919061513e565b60ff166080840181905260a08401516040850151805160209091015187516128759490939290916132ba565b815161296a906132fe565b801561297e575061297e81604001516132fe565b156129e3576000612992836000015161330e565b905060006129a3836040015161330e565b905080151580156129c25750602382901c600f16602382901c600f1610155b156129dc576129dc6129d48383613337565b855190613479565b505061295f565b8151604081015160800151603f81811c8116835260459190911c1660209091015281516000606082018190526080820181905260c0820181905260a090910152612a4a81604001516000606082018190526080820181905260c0820181905260a090910152565b5050565b612a57816134a2565b50565b60005b8160600151518160ff161015612b1a57600082606001518260ff1681518110612a8857612a88614ddc565b6020026020010151905080602001516040015115612b075760a083015160208201518051612ab7908390614e7e565b60ff169052506080830151602080830151018051612ad6908390614e7e565b60ff9081169091526020860151805184935090918516908110612afb57612afb614ddc565b60200260200101819052505b5080612b1281614ea3565b915050612a5d565b505050565b606081612b5f57505060408051808201909152600181527f3000000000000000000000000000000000000000000000000000000000000000602082015290565b8160005b8115612b895780612b7381614e0b565b9150612b829050600a83615116565b9150612b63565b8067ffffffffffffffff811115612ba257612ba261463f565b6040519080825280601f01601f191660200182016040528015612bcc576020820181803683370190505b5092505b831561051557612be1600182614dc5565b9050612bee600a8561512a565b612bf9906030614e44565b60f81b838281518110612c0e57612c0e614ddc565b60200101907effffffffffffffffffffffffffffffffffffffffffffffffffffffffffffff1916908160001a905350612c48600a85615116565b9350612bd0565b600080612c5c8385614ec3565b612c669086614e44565b8651909150612c76600683615116565b10612c85576000915050612ccd565b6503ffffffffff612c9760068361512a565b612ca290602a614ec3565b87612cae600685615116565b81518110612cbe57612cbe614ddc565b6020026020010151901c169150505b949350505050565b6000612ce082613691565b600583901b63ffffff0016179050919050565b606060ff8616612d12575060408051602081019091526000815261071f565b612d266004612d2088612cd5565b9061369f565b612d2f86610e47565b612d3886610e47565b612d4186610e47565b612d4a86610e47565b604051602001612d5e959493929190615161565b604051602081830303815290604052905095945050505050565b60006027612d858361379a565b60ff16901b176023612d96846137ae565b60ff16901b17601b612da7856137be565b60ff16901b81179050600386901b81179050612dcd612dc5866137be565b60ff166137ce565b1795945050505050565b6006612de38280614ec3565b612ded9190615116565b612df8906002614e44565b67ffffffffffffffff811115612e1057612e1061463f565b604051908082528060200260200182016040528015612e39578160200160208202803683370190505b5082604001819052505050565b603f821115612eb1576040517f08c379a000000000000000000000000000000000000000000000000000000000815260206004820152600b60248201527f564552533a534554573a30000000000000000000000000000000000000000000604482015260640161020e565b603f811115612f1c576040517f08c379a000000000000000000000000000000000000000000000000000000000815260206004820152600b60248201527f564552533a534554573a31000000000000000000000000000000000000000000604482015260640161020e565b7ffffffffffffffffffffffffffffffffffffffffffffff8007fffffffffffffff6080909301805160459290921b603f9390931b9190931617179052565b6000816020015160ff16836020015160ff1611158015612f885750816040015160ff16836040015160ff1611155b8061068e5750816060015160ff16836060015160ff161115801561068e57505060809081015191015160ff9182169116111590565b60008060008084612fcf576000612fd2565b60805b60ff16612fe087600c614ec3565b612fea9190614e44565b6060880151901c9050610fff16603f81169350600681901c92508315158061301157508215155b91505093509350939050565b60ff8116602085015260005b818110156130ad5760005b8381101561309a5761304686856137ee565b506000613054868385613888565b9050801561307c576000613068878361391d565b505090506130768882613479565b50613087565b613087876000613479565b508061309281614e0b565b915050613034565b50806130a581614e0b565b915050613029565b5060ff821684526000606085018190526080850181905260c0850181905260a0850152612875565b60005b835160ff168110156131b357835160ff165b8360ff16811115613146578360ff1681101561310557613146565b61313461311560ff851683614e44565b6040870151849061312790858361395f565b604089015192919061397f565b8061313e81614f00565b9150506130ea565b506000613154846001614e7e565b60ff1690505b6131648385614e7e565b60ff1681116131a05761318e81836131278760ff16868a6040015161395f9092919063ffffffff16565b8061319881614e0b565b91505061315a565b50806131ab81614e0b565b9150506130d8565b5080836000018181516131c69190614e7e565b60ff16905250505050565b60005b836020015160ff168110156132a757602084015160ff165b8360ff1681111561323a578360ff168110156132075761323a565b6132288261321860ff861684614e44565b604088015161312790868661395f565b8061323281614f00565b9150506131ec565b506000613248846001614e7e565b60ff1690505b6132588385614e7e565b60ff168111613294576132828282613127858860ff168a6040015161395f9092919063ffffffff16565b8061328c81614e0b565b91505061324e565b508061329f81614e0b565b9150506131d4565b5080836020018181516131c69190614e7e565b60ff80851660608701819052908416608087015260c08601526132dd8483614e7e565b60ff1685526132ec8382614e7e565b60ff1660209095019490945250505050565b60006103b58283600001516137ee565b60006103b5826060015160ff16836080015160ff16846040015161395f9092919063ffffffff16565b600061334282613691565b60ff1480613356575061335483613691565b155b156133625750806103b5565b601360ff61336f84613691565b6133809060ff601387901c16614ec3565b61338985613691565b6133949060ff614dc5565b6133a59060ff601389901c16614ec3565b6133af9190614e44565b6133b99190615116565b901b17600b60ff6133c984613691565b6133da9060ff600b87901c16614ec3565b6133e385613691565b6133ee9060ff614dc5565b6133ff9060ff600b89901c16614ec3565b6134099190614e44565b6134139190615116565b901b17600360ff61342384613691565b6134349060ff600387901c16614ec3565b61343d85613691565b6134489060ff614dc5565b6134599060ff600389901c16614ec3565b6134639190614e44565b61346d9190615116565b901b1760071792915050565b612a4a826060015160ff16836080015160ff1683856040015161397f909392919063ffffffff16565b606060008060005b846020015160800151518160ff16101561368a576040805160608101825260008082526020808301829052928201529086015160800151805160ff84169081106134f6576134f6614ddc565b602002602001015160400151156135e6578361351181614ea3565b9450508560200151608001518260ff168151811061353157613531614ddc565b60200260200101519050806020015186606001518360ff168151811061355957613559614ddc565b6020026020010151602001516000019060ff16908160ff1681525050806000015186606001518360ff168151811061359357613593614ddc565b6020026020010151602001516020019060ff16908160ff1681525050600186606001518360ff16815181106135ca576135ca614ddc565b6020908102919091018101510151901515604090910152613677565b8560200151606001518260ff168151811061360357613603614ddc565b60200260200101516040015115613677578261361e81614ea3565b93505084516000141561363b5761363886604001516139b5565b94505b61366a868760200151606001518460ff168151811061365c5761365c614ddc565b602002602001015187613c00565b9050613677868284613d56565b508061368281614ea3565b9150506134aa565b5050505050565b60006103b560078316613fe2565b606060006136ae836002614ec3565b67ffffffffffffffff8111156136c6576136c661463f565b6040519080825280601f01601f1916602001820160405280156136f0576020820181803683370190505b5080519091505b8015610af1577f303132333435363738396162636465660000000000000000000000000000000085600f166010811061373257613732614ddc565b1a60f81b82613742600184614dc5565b8151811061375257613752614ddc565b60200101907effffffffffffffffffffffffffffffffffffffffffffffffffffffffffffff1916908160001a90535060049490941c938061379281614f00565b9150506136f7565b600060078211156137aa57600080fd5b5090565b6000600f8211156137aa57600080fd5b600060ff8211156137aa57600080fd5b600060246137db836137be565b6137e59190614e5c565b60ff1692915050565b60008260a001511561387757606083015161380a906001614e7e565b60ff168260ff1611613867576080830151613826906001614e7e565b60ff16836020015160ff16141561383f575060006103b5565b60c083015160ff1660608401526080830180519061385c82614ea3565b60ff1690525061387f565b6060830180519061385c82614ea3565b600160a08401525b50600192915050565b6080830151600090603f90811c16816138a18285614ec3565b6138ab9086614e44565b6020870151519091506138bf604083615116565b106138cf5760009250505061068e565b6138da60408261512a565b6138e5906004614ec3565b60208701516138f5604084615116565b8151811061390557613905614ddc565b6020026020010151901c600f16925050509392505050565b60008060008460000151848151811061393857613938614ddc565b6020026020010151925061394b83612cd5565b9150602383901c600f165b90509250925092565b60808301516040840151600091603f90811c169061071f90858584612c4f565b6080840151603f90811c1660006139968285614ec3565b6139a09086614e44565b90506139ad86828561400e565b505050505050565b606060008060006139c5856140c5565b60408051600580825260c082019092529396509194509250816020015b60408051606081018252600080825260208083018290529282015282527fffffffffffffffffffffffffffffffffffffffffffffffffffffffffffffffff9092019101816139e25790505093508084600081518110613a4357613a43614ddc565b60200260200101819052506040518060600160405280826000015160ff168152602001848360200151613a76919061513e565b60ff1681526020016001151581525084600181518110613a9857613a98614ddc565b602090810291909101015282613aaf600282614d0a565b60ff1615613ac55780613ac181614ea3565b9150505b6040805160608101909152825160ff16815260208101613ae6600284614e5c565b8460200151613af5919061513e565b60ff1681526020016001151581525085600281518110613b1757613b17614ddc565b602090810291909101015282613b2e600282614d0a565b60ff1615613b445780613b4081614ea3565b9150505b6040805160608101909152835160ff16815260208101613b65600284614e5c565b8560200151613b749190614e7e565b60ff1681526020016001151581525086600381518110613b9657613b96614ddc565b60200260200101819052506040518060600160405280846000015160ff168152602001858560200151613bc99190614e7e565b60ff1681526020016001151581525086600481518110613beb57613beb614ddc565b60200260200101819052505050505050919050565b604080516060810182526000808252602082018190529181019190915281836000015160ff1681518110613c3657613c36614ddc565b60209081029190910101515160ff908116825283518351849291909116908110613c6257613c62614ddc565b60209081029190910181015181015160ff908116838301526001604084015284820151161015613cad5782602001518160200151613ca0919061513e565b60ff166020820152613cd6565b60208360200151613cbe919061513e565b8160200151613ccd9190614e7e565b60ff1660208201525b805160208201516040808701510151613cf792909160ff918216911661449a565b61068e57806020015160ff1682600081518110613d1657613d16614ddc565b60200260200101516020015160ff161115613d465760208101805190613d3b82614ea3565b60ff16905250613cd6565b60208101805190613d3b82614d5b565b6040805160a0810182526000808252602082018190529181018290526060810182905260808101919091525b604084015151613d949060019061513e565b60ff16836000015160ff16108015613de15750613de181602001516001613dbb9190614e7e565b8451613dc79190614e7e565b602085015160408088015101519160ff908116911661449a565b15613e015760208101805190613df682614ea3565b60ff16905250613d82565b825160ff1615801590613e2d57506040810151613e1f906001614e7e565b60ff16836000015160ff1610155b8015613e545750613e5481604001516001613e489190614e7e565b8451613dc7919061513e565b15613e745760408101805190613e6982614ea3565b60ff16905250613e01565b602083015160ff1615801590613ea357506060810151613e95906001614e7e565b60ff16836020015160ff1610155b8015613ee5575082516060820151613ee59160ff1690613ec4906001614e7e565b8560200151613ed3919061513e565b6040808801510151919060ff1661449a565b15613f055760608101805190613efa82614ea3565b60ff16905250613e74565b6001846040015160200151613f1a919061513e565b60ff16836020015160ff16108015613f56575082516080820151613f569160ff1690613f47906001614e7e565b8560200151613ed39190614e7e565b15613f765760808101805190613f6b82614ea3565b60ff16905250613f05565b83606001518260ff1681518110613f8f57613f8f614ddc565b602002602001015160200151604001516128755760405180604001604052808281526020018481525084606001518360ff1681518110613fd157613fd1614ddc565b602002602001018190525050505050565b60008160071415613ff5575060ff919050565b613ffe8261379a565b6137e59060246150aa565b919050565b614019600683615116565b8360400151511115612b1a57600061404561403560068561512a565b61404090602a614ec3565b6137be565b90506503ffffffffff60ff82161b196040850151614064600686615116565b8151811061407457614074614ddc565b6020908102919091010180519091169052604084015160ff821683901b9061409d600686615116565b815181106140ad576140ad614ddc565b60200260200101818151179150818152505050505050565b60408051606081018252600080825260208201819052918101829052819083516140f190600290614e5c565b60ff168152602084015161410790600290614e5c565b60ff1660208201526001604082018190529250829150600080808480825b806143475782158015614136575083155b9250821561420c5761417a61414c836001614e7e565b8851614158919061513e565b60ff168a896020015161416b919061513e565b60408d0151919060ff1661449a565b801561419b575061419b61418f836001614e7e565b88516141589190614e7e565b80156141cf57506141cf6141b0836001614e7e565b88516141bc919061513e565b60ff1689896020015161416b9190614e7e565b80156141f057506141f06141e4836001614e7e565b88516141bc9190614e7e565b1561420757816141ff81614ea3565b92505061420c565b600193505b85614290576000898860200151614223919061513e565b60ff1611801561425c5750865161425c9061423f90849061513e565b60ff1661424d8b6001614e7e565b896020015161416b919061513e565b8015614274575086516142749061423f908490614e7e565b1561428b578861428381614ea3565b995050614290565b600195505b846143265760018a602001516142a6919061513e565b60ff168888602001516142b99190614e7e565b60ff161080156142f2575086516142f2906142d590849061513e565b60ff166142e38a6001614e7e565b896020015161416b9190614e7e565b801561430a5750865161430a906142d5908490614e7e565b15614321578761431981614ea3565b985050614326565b600194505b8480156143305750855b80156143395750835b15614342575060015b614125565b8760ff168960ff161461448d576000614360898b614e7e565b61436b906001614e7e565b90506000600261437b8184614d0a565b60ff16156143935761438e836001614e7e565b614395565b825b61439f9190614e5c565b905060008b60018b60200151846143b69190614e7e565b6143c0919061513e565b6143ca919061513e565b9050896020015160ff168160ff1611156144325760008a60200151826143f0919061513e565b90506143fc818e614e7e565b9c508060ff168c60ff161161441d576144158c8261513e565b9b508b61442b565b614427818d61513e565b9b508b5b5050614482565b6000818b60200151614444919061513e565b90508060ff168d60ff16116144655761445d8d8261513e565b9c508c614473565b61446f818e61513e565b9c508c5b5061447e818d614e7e565b9b50505b60ff1660208a015250505b5050505050509193909250565b6000806144a885858561395f565b600716151595945050505050565b6040518060e00160405280600060ff168152602001600060ff1681526020016145076040518060a0016040528060608152602001606081526020016060815260200160008152602001600081525090565b8152600060208201819052604082018190526060820181905260809091015290565b604051806040016040528061453c6144b6565b8152602001606081525090565b6040518060c00160405280600060ff16815260200161456661458d565b81526020016145736144b6565b815260606020820181905260006040830181905291015290565b6040805160e081018252600080825260208201529081016145fc6040805160e0810182526000918101828152606082018390526080820183905260a0820183905260c0820192909252908190815260408051606081018252600080825260208281018290529282015291015290565b8152606060208083018290526040808401839052805160a0810182526000808252928101839052908101829052808301829052608081019190915291019061453c565b7f4e487b7100000000000000000000000000000000000000000000000000000000600052604160045260246000fd5b604051610160810167ffffffffffffffff811182821017156146925761469261463f565b60405290565b604051601f82017fffffffffffffffffffffffffffffffffffffffffffffffffffffffffffffffe016810167ffffffffffffffff811182821017156146df576146df61463f565b604052919050565b600067ffffffffffffffff8211156147015761470161463f565b5060051b60200190565b600082601f83011261471c57600080fd5b8135602061473161472c836146e7565b614698565b82815260059290921b8401810191818101908684111561475057600080fd5b8286015b8481101561476b5780358352918301918301614754565b509695505050505050565b600067ffffffffffffffff8311156147905761479061463f565b6147c160207fffffffffffffffffffffffffffffffffffffffffffffffffffffffffffffffe0601f86011601614698565b90508281528383830111156147d557600080fd5b828260208301376000602084830101529392505050565b600082601f8301126147fd57600080fd5b61068e83833560208501614776565b803573ffffffffffffffffffffffffffffffffffffffff8116811461400957600080fd5b803560ff8116811461400957600080fd5b600082601f83011261485257600080fd5b8135602061486261472c836146e7565b82815260059290921b8401810191818101908684111561488157600080fd5b8286015b8481101561476b5761489681614830565b8352918301918301614885565b600061016082840312156148b657600080fd5b6148be61466e565b90508135815260208201356020820152604082013567ffffffffffffffff808211156148e957600080fd5b6148f5858386016147ec565b6040840152606084013591508082111561490e57600080fd5b61491a858386016147ec565b606084015261492b6080850161480c565b608084015260a084013560a084015260c084013560c084015260e084013591508082111561495857600080fd5b61496485838601614841565b60e08401526101009150818401358181111561497f57600080fd5b61498b86828701614841565b8385015250610120915081840135818111156149a657600080fd5b6149b286828701614841565b8385015250610140915081840135818111156149cd57600080fd5b6149d986828701614841565b8385015250505092915050565b6000806000606084860312156149fb57600080fd5b833567ffffffffffffffff80821115614a1357600080fd5b818601915086601f830112614a2757600080fd5b81356020614a3761472c836146e7565b82815260059290921b8401810191818101908a841115614a5657600080fd5b8286015b84811015614a8e57803586811115614a725760008081fd5b614a808d86838b010161470b565b845250918301918301614a5a565b5097505087013592505080821115614aa557600080fd5b50614ab2868287016148a3565b92505061395660408501614830565b6020808252825182820181905260009190848201906040850190845b81811015614af957835183529284019291840191600101614add565b50909695505050505050565b600060208284031215614b1757600080fd5b813567ffffffffffffffff811115614b2e57600080fd5b8201601f81018413614b3f57600080fd5b612ccd84823560208401614776565b60005b83811015614b69578181015183820152602001614b51565b838111156128755750506000910152565b60008151808452614b92816020860160208601614b4e565b601f017fffffffffffffffffffffffffffffffffffffffffffffffffffffffffffffffe0169290920160200192915050565b60208152600061068e6020830184614b7a565b600060208284031215614be957600080fd5b5035919050565b600060208284031215614c0257600080fd5b813567ffffffffffffffff811115614c1957600080fd5b612ccd8482850161470b565b60008060408385031215614c3857600080fd5b823567ffffffffffffffff811115614c4f57600080fd5b614c5b8582860161470b565b95602094909401359450505050565b60008060408385031215614c7d57600080fd5b82359150614c8d60208401614830565b90509250929050565b60008060408385031215614ca957600080fd5b823567ffffffffffffffff811115614cc057600080fd5b614ccc8582860161470b565b925050614c8d60208401614830565b7f4e487b7100000000000000000000000000000000000000000000000000000000600052601260045260246000fd5b600060ff831680614d1d57614d1d614cdb565b8060ff84160691505092915050565b7f4e487b7100000000000000000000000000000000000000000000000000000000600052601160045260246000fd5b600060ff821680614d6e57614d6e614d2c565b7fffffffffffffffffffffffffffffffffffffffffffffffffffffffffffffffff0192915050565b60008351614da8818460208801614b4e565b835190830190614dbc818360208801614b4e565b01949350505050565b600082821015614dd757614dd7614d2c565b500390565b7f4e487b7100000000000000000000000000000000000000000000000000000000600052603260045260246000fd5b60007fffffffffffffffffffffffffffffffffffffffffffffffffffffffffffffffff821415614e3d57614e3d614d2c565b5060010190565b60008219821115614e5757614e57614d2c565b500190565b600060ff831680614e6f57614e6f614cdb565b8060ff84160491505092915050565b600060ff821660ff84168060ff03821115614e9b57614e9b614d2c565b019392505050565b600060ff821660ff811415614eba57614eba614d2c565b60010192915050565b6000817fffffffffffffffffffffffffffffffffffffffffffffffffffffffffffffffff0483118215151615614efb57614efb614d2c565b500290565b600081614f0f57614f0f614d2c565b507fffffffffffffffffffffffffffffffffffffffffffffffffffffffffffffffff0190565b7f3c73766720426f783d2730203020000000000000000000000000000000000000815260008551614f6d81600e850160208a01614b4e565b7f2000000000000000000000000000000000000000000000000000000000000000600e918401918201528551614faa81600f840160208a01614b4e565b7f272077696474683d270000000000000000000000000000000000000000000000600f92909101918201528451614fe8816018840160208901614b4e565b7f27206865696768743d2700000000000000000000000000000000000000000000601892909101918201528351615026816022840160208801614b4e565b7f2720786d6c6e733d27687474703a2f2f7777772e77332e6f72672f323030302f602292909101918201527f7376672720786d6c6e733a786c696e6b3d27687474703a2f2f7777772e77332e60428201527f6f72672f313939392f786c696e6b273e0000000000000000000000000000000060628201526072019695505050505050565b600060ff821660ff84168160ff04811182151516156150cb576150cb614d2c565b029392505050565b600084516150e5818460208901614b4e565b8451908301906150f9818360208901614b4e565b845191019061510c818360208801614b4e565b0195945050505050565b60008261512557615125614cdb565b500490565b60008261513957615139614cdb565b500690565b600060ff821660ff84168082101561515857615158614d2c565b90039392505050565b7f3c726563742066696c6c3d27230000000000000000000000000000000000000081526000865161519981600d850160208b01614b4e565b7f2720783d27000000000000000000000000000000000000000000000000000000600d9184019182015286516151d6816012840160208b01614b4e565b7f2720793d27000000000000000000000000000000000000000000000000000000601292909101918201528551615214816017840160208a01614b4e565b7f27206865696768743d2700000000000000000000000000000000000000000000601792909101918201528451615252816021840160208901614b4e565b7f272077696474683d27000000000000000000000000000000000000000000000060219290910191820152835161529081602a840160208801614b4e565b6152c2602a828401017f272f3e0000000000000000000000000000000000000000000000000000000000815260030190565b999850505050505050505056fe4142434445464748494a4b4c4d4e4f505152535455565758595a6162636465666768696a6b6c6d6e6f707172737475767778797a303132333435363738392b2fa26469706673582212206cc244d4ff231105de532c0b948c277632a7d5bc355e1ce94d546beacbb8abab64736f6c63430008090033",
  "devdoc": {
    "author": "nugg.xyz - danny7even & dub6ix",
    "details": "hold my margarita",
    "kind": "dev",
    "methods": {},
    "title": "dotnugg Processor V1 - onchain encoder/decoder protocol for dotnugg files",
    "version": 1
  },
  "userdoc": {
    "kind": "user",
    "methods": {},
    "notice": "yoU CAN'T HaVe ImAgES oN THe BlOCkcHAIn",
    "version": 1
  },
  "storageLayout": {
    "storage": [
      {
        "astId": 11317,
        "contract": "src/DotnuggV1Processor.sol:DotnuggV1Processor",
        "label": "sstore2Pointers",
        "offset": 0,
        "slot": "0",
        "type": "t_mapping(t_address,t_mapping(t_uint8,t_array(t_uint168)dyn_storage))"
      },
      {
        "astId": 11323,
        "contract": "src/DotnuggV1Processor.sol:DotnuggV1Processor",
        "label": "featureLengths",
        "offset": 0,
        "slot": "1",
        "type": "t_mapping(t_address,t_mapping(t_uint8,t_uint8))"
      },
      {
        "astId": 2621,
        "contract": "src/DotnuggV1Processor.sol:DotnuggV1Processor",
        "label": "lib",
        "offset": 0,
        "slot": "2",
        "type": "t_contract(DotnuggV1Lib)2599"
      }
    ],
    "types": {
      "t_address": {
        "encoding": "inplace",
        "label": "address",
        "numberOfBytes": "20"
      },
      "t_array(t_uint168)dyn_storage": {
        "base": "t_uint168",
        "encoding": "dynamic_array",
        "label": "uint168[]",
        "numberOfBytes": "32"
      },
      "t_contract(DotnuggV1Lib)2599": {
        "encoding": "inplace",
        "label": "contract DotnuggV1Lib",
        "numberOfBytes": "20"
      },
      "t_mapping(t_address,t_mapping(t_uint8,t_array(t_uint168)dyn_storage))": {
        "encoding": "mapping",
        "key": "t_address",
        "label": "mapping(address => mapping(uint8 => uint168[]))",
        "numberOfBytes": "32",
        "value": "t_mapping(t_uint8,t_array(t_uint168)dyn_storage)"
      },
      "t_mapping(t_address,t_mapping(t_uint8,t_uint8))": {
        "encoding": "mapping",
        "key": "t_address",
        "label": "mapping(address => mapping(uint8 => uint8))",
        "numberOfBytes": "32",
        "value": "t_mapping(t_uint8,t_uint8)"
      },
      "t_mapping(t_uint8,t_array(t_uint168)dyn_storage)": {
        "encoding": "mapping",
        "key": "t_uint8",
        "label": "mapping(uint8 => uint168[])",
        "numberOfBytes": "32",
        "value": "t_array(t_uint168)dyn_storage"
      },
      "t_mapping(t_uint8,t_uint8)": {
        "encoding": "mapping",
        "key": "t_uint8",
        "label": "mapping(uint8 => uint8)",
        "numberOfBytes": "32",
        "value": "t_uint8"
      },
      "t_uint168": {
        "encoding": "inplace",
        "label": "uint168",
        "numberOfBytes": "21"
      },
      "t_uint8": {
        "encoding": "inplace",
        "label": "uint8",
        "numberOfBytes": "1"
      }
    }
  }
}