{
  "address": "0xd11F88Ae7C7A35a932b23c1E684bC02747425bF9",
  "abi": [
    {
      "inputs": [],
      "stateMutability": "nonpayable",
      "type": "constructor"
    },
    {
      "inputs": [
        {
          "internalType": "address",
          "name": "implementer",
          "type": "address"
        },
        {
          "internalType": "uint256",
          "name": "tokenId",
          "type": "uint256"
        },
        {
          "internalType": "address",
          "name": "resolver",
          "type": "address"
        },
        {
          "internalType": "uint8",
          "name": "width",
          "type": "uint8"
        },
        {
          "internalType": "uint8",
          "name": "zoom",
          "type": "uint8"
        }
      ],
      "name": "dotnuggToBytes",
      "outputs": [
        {
          "internalType": "address",
          "name": "resolvedBy",
          "type": "address"
        },
        {
          "internalType": "bytes",
          "name": "res",
          "type": "bytes"
        }
      ],
      "stateMutability": "view",
      "type": "function"
    },
    {
      "inputs": [
        {
          "internalType": "address",
          "name": "implementer",
          "type": "address"
        },
        {
          "internalType": "uint256",
          "name": "tokenId",
          "type": "uint256"
        },
        {
          "internalType": "address",
          "name": "resolver",
          "type": "address"
        },
        {
          "internalType": "uint8",
          "name": "width",
          "type": "uint8"
        },
        {
          "internalType": "uint8",
          "name": "zoom",
          "type": "uint8"
        }
      ],
      "name": "dotnuggToMetadata",
      "outputs": [
        {
          "internalType": "address",
          "name": "resolvedBy",
          "type": "address"
        },
        {
          "components": [
            {
              "internalType": "uint256",
              "name": "version",
              "type": "uint256"
            },
            {
              "internalType": "uint256",
              "name": "renderedAt",
              "type": "uint256"
            },
            {
              "internalType": "string",
              "name": "name",
              "type": "string"
            },
            {
              "internalType": "string",
              "name": "desc",
              "type": "string"
            },
            {
              "internalType": "address",
              "name": "owner",
              "type": "address"
            },
            {
              "internalType": "uint256",
              "name": "tokenId",
              "type": "uint256"
            },
            {
              "internalType": "uint8[]",
              "name": "ids",
              "type": "uint8[]"
            },
            {
              "internalType": "uint8[]",
              "name": "xovers",
              "type": "uint8[]"
            },
            {
              "internalType": "uint8[]",
              "name": "yovers",
              "type": "uint8[]"
            },
            {
              "internalType": "string[]",
              "name": "labels",
              "type": "string[]"
            },
            {
              "internalType": "bytes",
              "name": "data",
              "type": "bytes"
            }
          ],
          "internalType": "struct IDotnuggV1Metadata.Memory",
          "name": "res",
          "type": "tuple"
        }
      ],
      "stateMutability": "view",
      "type": "function"
    },
    {
      "inputs": [
        {
          "internalType": "address",
          "name": "implementer",
          "type": "address"
        },
        {
          "internalType": "uint256",
          "name": "tokenId",
          "type": "uint256"
        },
        {
          "internalType": "address",
          "name": "resolver",
          "type": "address"
        },
        {
          "internalType": "uint8",
          "name": "width",
          "type": "uint8"
        },
        {
          "internalType": "uint8",
          "name": "zoom",
          "type": "uint8"
        }
      ],
      "name": "dotnuggToRaw",
      "outputs": [
        {
          "internalType": "address",
          "name": "resolvedBy",
          "type": "address"
        },
        {
          "internalType": "uint256[]",
          "name": "res",
          "type": "uint256[]"
        }
      ],
      "stateMutability": "view",
      "type": "function"
    },
    {
      "inputs": [
        {
          "internalType": "address",
          "name": "implementer",
          "type": "address"
        },
        {
          "internalType": "uint256",
          "name": "tokenId",
          "type": "uint256"
        },
        {
          "internalType": "address",
          "name": "resolver",
          "type": "address"
        },
        {
          "internalType": "uint8",
          "name": "width",
          "type": "uint8"
        },
        {
          "internalType": "uint8",
          "name": "zoom",
          "type": "uint8"
        }
      ],
      "name": "dotnuggToString",
      "outputs": [
        {
          "internalType": "address",
          "name": "resolvedBy",
          "type": "address"
        },
        {
          "internalType": "string",
          "name": "res",
          "type": "string"
        }
      ],
      "stateMutability": "view",
      "type": "function"
    },
    {
      "inputs": [
        {
          "internalType": "address",
          "name": "implementer",
          "type": "address"
        },
        {
          "internalType": "uint256",
          "name": "tokenId",
          "type": "uint256"
        },
        {
          "internalType": "address",
          "name": "resolver",
          "type": "address"
        },
        {
          "internalType": "uint8",
          "name": "width",
          "type": "uint8"
        },
        {
          "internalType": "uint8",
          "name": "zoom",
          "type": "uint8"
        }
      ],
      "name": "dotnuggToUri",
      "outputs": [
        {
          "internalType": "address",
          "name": "resolvedBy",
          "type": "address"
        },
        {
          "internalType": "string",
          "name": "res",
          "type": "string"
        }
      ],
      "stateMutability": "view",
      "type": "function"
    },
    {
      "inputs": [],
      "name": "lib",
      "outputs": [
        {
          "internalType": "contract DotnuggV1Lib",
          "name": "",
          "type": "address"
        }
      ],
      "stateMutability": "view",
      "type": "function"
    },
    {
      "inputs": [
        {
          "internalType": "address",
          "name": "implementer",
          "type": "address"
        },
        {
          "internalType": "uint256",
          "name": "tokenId",
          "type": "uint256"
        },
        {
          "internalType": "uint8",
          "name": "width",
          "type": "uint8"
        }
      ],
      "name": "process",
      "outputs": [
        {
          "internalType": "uint256[]",
          "name": "resp",
          "type": "uint256[]"
        },
        {
          "components": [
            {
              "internalType": "uint256",
              "name": "version",
              "type": "uint256"
            },
            {
              "internalType": "uint256",
              "name": "renderedAt",
              "type": "uint256"
            },
            {
              "internalType": "string",
              "name": "name",
              "type": "string"
            },
            {
              "internalType": "string",
              "name": "desc",
              "type": "string"
            },
            {
              "internalType": "address",
              "name": "owner",
              "type": "address"
            },
            {
              "internalType": "uint256",
              "name": "tokenId",
              "type": "uint256"
            },
            {
              "internalType": "uint8[]",
              "name": "ids",
              "type": "uint8[]"
            },
            {
              "internalType": "uint8[]",
              "name": "xovers",
              "type": "uint8[]"
            },
            {
              "internalType": "uint8[]",
              "name": "yovers",
              "type": "uint8[]"
            },
            {
              "internalType": "string[]",
              "name": "labels",
              "type": "string[]"
            },
            {
              "internalType": "bytes",
              "name": "data",
              "type": "bytes"
            }
          ],
          "internalType": "struct IDotnuggV1Metadata.Memory",
          "name": "data",
          "type": "tuple"
        }
      ],
      "stateMutability": "view",
      "type": "function"
    },
    {
      "inputs": [
        {
          "internalType": "uint256[]",
          "name": "file",
          "type": "uint256[]"
        },
        {
          "components": [
            {
              "internalType": "uint256",
              "name": "version",
              "type": "uint256"
            },
            {
              "internalType": "uint256",
              "name": "renderedAt",
              "type": "uint256"
            },
            {
              "internalType": "string",
              "name": "name",
              "type": "string"
            },
            {
              "internalType": "string",
              "name": "desc",
              "type": "string"
            },
            {
              "internalType": "address",
              "name": "owner",
              "type": "address"
            },
            {
              "internalType": "uint256",
              "name": "tokenId",
              "type": "uint256"
            },
            {
              "internalType": "uint8[]",
              "name": "ids",
              "type": "uint8[]"
            },
            {
              "internalType": "uint8[]",
              "name": "xovers",
              "type": "uint8[]"
            },
            {
              "internalType": "uint8[]",
              "name": "yovers",
              "type": "uint8[]"
            },
            {
              "internalType": "string[]",
              "name": "labels",
              "type": "string[]"
            },
            {
              "internalType": "bytes",
              "name": "data",
              "type": "bytes"
            }
          ],
          "internalType": "struct IDotnuggV1Metadata.Memory",
          "name": "data",
          "type": "tuple"
        },
        {
          "internalType": "uint8",
          "name": "",
          "type": "uint8"
        }
      ],
      "name": "resolveBytes",
      "outputs": [
        {
          "internalType": "bytes",
          "name": "res",
          "type": "bytes"
        }
      ],
      "stateMutability": "pure",
      "type": "function"
    },
    {
      "inputs": [
        {
          "internalType": "uint256[]",
          "name": "",
          "type": "uint256[]"
        },
        {
          "components": [
            {
              "internalType": "uint256",
              "name": "version",
              "type": "uint256"
            },
            {
              "internalType": "uint256",
              "name": "renderedAt",
              "type": "uint256"
            },
            {
              "internalType": "string",
              "name": "name",
              "type": "string"
            },
            {
              "internalType": "string",
              "name": "desc",
              "type": "string"
            },
            {
              "internalType": "address",
              "name": "owner",
              "type": "address"
            },
            {
              "internalType": "uint256",
              "name": "tokenId",
              "type": "uint256"
            },
            {
              "internalType": "uint8[]",
              "name": "ids",
              "type": "uint8[]"
            },
            {
              "internalType": "uint8[]",
              "name": "xovers",
              "type": "uint8[]"
            },
            {
              "internalType": "uint8[]",
              "name": "yovers",
              "type": "uint8[]"
            },
            {
              "internalType": "string[]",
              "name": "labels",
              "type": "string[]"
            },
            {
              "internalType": "bytes",
              "name": "data",
              "type": "bytes"
            }
          ],
          "internalType": "struct IDotnuggV1Metadata.Memory",
          "name": "data",
          "type": "tuple"
        },
        {
          "internalType": "uint8",
          "name": "",
          "type": "uint8"
        }
      ],
      "name": "resolveMetadata",
      "outputs": [
        {
          "components": [
            {
              "internalType": "uint256",
              "name": "version",
              "type": "uint256"
            },
            {
              "internalType": "uint256",
              "name": "renderedAt",
              "type": "uint256"
            },
            {
              "internalType": "string",
              "name": "name",
              "type": "string"
            },
            {
              "internalType": "string",
              "name": "desc",
              "type": "string"
            },
            {
              "internalType": "address",
              "name": "owner",
              "type": "address"
            },
            {
              "internalType": "uint256",
              "name": "tokenId",
              "type": "uint256"
            },
            {
              "internalType": "uint8[]",
              "name": "ids",
              "type": "uint8[]"
            },
            {
              "internalType": "uint8[]",
              "name": "xovers",
              "type": "uint8[]"
            },
            {
              "internalType": "uint8[]",
              "name": "yovers",
              "type": "uint8[]"
            },
            {
              "internalType": "string[]",
              "name": "labels",
              "type": "string[]"
            },
            {
              "internalType": "bytes",
              "name": "data",
              "type": "bytes"
            }
          ],
          "internalType": "struct IDotnuggV1Metadata.Memory",
          "name": "res",
          "type": "tuple"
        }
      ],
      "stateMutability": "pure",
      "type": "function"
    },
    {
      "inputs": [
        {
          "internalType": "uint256[]",
          "name": "file",
          "type": "uint256[]"
        },
        {
          "components": [
            {
              "internalType": "uint256",
              "name": "version",
              "type": "uint256"
            },
            {
              "internalType": "uint256",
              "name": "renderedAt",
              "type": "uint256"
            },
            {
              "internalType": "string",
              "name": "name",
              "type": "string"
            },
            {
              "internalType": "string",
              "name": "desc",
              "type": "string"
            },
            {
              "internalType": "address",
              "name": "owner",
              "type": "address"
            },
            {
              "internalType": "uint256",
              "name": "tokenId",
              "type": "uint256"
            },
            {
              "internalType": "uint8[]",
              "name": "ids",
              "type": "uint8[]"
            },
            {
              "internalType": "uint8[]",
              "name": "xovers",
              "type": "uint8[]"
            },
            {
              "internalType": "uint8[]",
              "name": "yovers",
              "type": "uint8[]"
            },
            {
              "internalType": "string[]",
              "name": "labels",
              "type": "string[]"
            },
            {
              "internalType": "bytes",
              "name": "data",
              "type": "bytes"
            }
          ],
          "internalType": "struct IDotnuggV1Metadata.Memory",
          "name": "",
          "type": "tuple"
        },
        {
          "internalType": "uint8",
          "name": "",
          "type": "uint8"
        }
      ],
      "name": "resolveRaw",
      "outputs": [
        {
          "internalType": "uint256[]",
          "name": "res",
          "type": "uint256[]"
        }
      ],
      "stateMutability": "pure",
      "type": "function"
    },
    {
      "inputs": [
        {
          "internalType": "uint256[]",
          "name": "file",
          "type": "uint256[]"
        },
        {
          "components": [
            {
              "internalType": "uint256",
              "name": "version",
              "type": "uint256"
            },
            {
              "internalType": "uint256",
              "name": "renderedAt",
              "type": "uint256"
            },
            {
              "internalType": "string",
              "name": "name",
              "type": "string"
            },
            {
              "internalType": "string",
              "name": "desc",
              "type": "string"
            },
            {
              "internalType": "address",
              "name": "owner",
              "type": "address"
            },
            {
              "internalType": "uint256",
              "name": "tokenId",
              "type": "uint256"
            },
            {
              "internalType": "uint8[]",
              "name": "ids",
              "type": "uint8[]"
            },
            {
              "internalType": "uint8[]",
              "name": "xovers",
              "type": "uint8[]"
            },
            {
              "internalType": "uint8[]",
              "name": "yovers",
              "type": "uint8[]"
            },
            {
              "internalType": "string[]",
              "name": "labels",
              "type": "string[]"
            },
            {
              "internalType": "bytes",
              "name": "data",
              "type": "bytes"
            }
          ],
          "internalType": "struct IDotnuggV1Metadata.Memory",
          "name": "data",
          "type": "tuple"
        },
        {
          "internalType": "uint8",
          "name": "zoom",
          "type": "uint8"
        }
      ],
      "name": "resolveString",
      "outputs": [
        {
          "internalType": "string",
          "name": "",
          "type": "string"
        }
      ],
      "stateMutability": "view",
      "type": "function"
    },
    {
      "inputs": [
        {
          "internalType": "uint256[]",
          "name": "file",
          "type": "uint256[]"
        },
        {
          "components": [
            {
              "internalType": "uint256",
              "name": "version",
              "type": "uint256"
            },
            {
              "internalType": "uint256",
              "name": "renderedAt",
              "type": "uint256"
            },
            {
              "internalType": "string",
              "name": "name",
              "type": "string"
            },
            {
              "internalType": "string",
              "name": "desc",
              "type": "string"
            },
            {
              "internalType": "address",
              "name": "owner",
              "type": "address"
            },
            {
              "internalType": "uint256",
              "name": "tokenId",
              "type": "uint256"
            },
            {
              "internalType": "uint8[]",
              "name": "ids",
              "type": "uint8[]"
            },
            {
              "internalType": "uint8[]",
              "name": "xovers",
              "type": "uint8[]"
            },
            {
              "internalType": "uint8[]",
              "name": "yovers",
              "type": "uint8[]"
            },
            {
              "internalType": "string[]",
              "name": "labels",
              "type": "string[]"
            },
            {
              "internalType": "bytes",
              "name": "data",
              "type": "bytes"
            }
          ],
          "internalType": "struct IDotnuggV1Metadata.Memory",
          "name": "data",
          "type": "tuple"
        },
        {
          "internalType": "uint8",
          "name": "zoom",
          "type": "uint8"
        }
      ],
      "name": "resolveUri",
      "outputs": [
        {
          "internalType": "string",
          "name": "res",
          "type": "string"
        }
      ],
      "stateMutability": "view",
      "type": "function"
    },
    {
      "inputs": [
        {
          "internalType": "uint8",
          "name": "feature",
          "type": "uint8"
        },
        {
          "internalType": "uint256[][]",
          "name": "data",
          "type": "uint256[][]"
        }
      ],
      "name": "store",
      "outputs": [
        {
          "internalType": "uint8",
          "name": "res",
          "type": "uint8"
        }
      ],
      "stateMutability": "nonpayable",
      "type": "function"
    },
    {
      "inputs": [
        {
          "internalType": "address",
          "name": "implementer",
          "type": "address"
        },
        {
          "internalType": "uint8",
          "name": "feature",
          "type": "uint8"
        }
      ],
      "name": "stored",
      "outputs": [
        {
          "internalType": "uint8",
          "name": "res",
          "type": "uint8"
        }
      ],
      "stateMutability": "view",
      "type": "function"
    },
    {
      "inputs": [
        {
          "internalType": "uint256[][][]",
          "name": "data",
          "type": "uint256[][][]"
        }
      ],
      "name": "unsafeBulkStore",
      "outputs": [],
      "stateMutability": "nonpayable",
      "type": "function"
    }
  ],
  "transactionHash": "0x06c4c6d5bf0d5aeca9200460501d2a7e93089946a9ace051b8397a19e50dc6c9",
  "args": [],
  "solcInputHash": "aac2e0ca23372d9672fcc32381fa6e9d",
  "bytecode": "0x60806040523480156200001157600080fd5b50604051620000209062000064565b604051809103906000f0801580156200003d573d6000803e3d6000fd5b50600280546001600160a01b0319166001600160a01b039290921691909117905562000072565b6159b18062002d1183390190565b612c8f80620000826000396000f3fe608060405234801561001057600080fd5b50600436106100f55760003560e01c80639280123011610097578063b17995c711610066578063b17995c714610260578063d17c777f14610281578063db41f7cf146102a1578063e8fb95df146102ea57600080fd5b806392801230146101c55780639cd7d0071461020a5780639dc42d591461022b578063acb4e9a41461023e57600080fd5b80634796cd78116100d35780634796cd781461015c578063597bf3dd1461017d5780635edd57e31461019d57806387ae7031146101b057600080fd5b8063084050f5146100fa57806311c16aa314610124578063191adaf814610149575b600080fd5b61010d6101083660046118ce565b6102fd565b60405161011b9291906119b0565b60405180910390f35b610137610132366004611a2b565b610455565b60405160ff909116815260200161011b565b61010d6101573660046118ce565b6105d4565b61016f61016a366004611a80565b61070a565b60405161011b929190611c8c565b61019061018b366004612066565b610929565b60405161011b919061212f565b61010d6101ab3660046118ce565b610c26565b6101c36101be366004612149565b610d5c565b005b6002546101e59073ffffffffffffffffffffffffffffffffffffffff1681565b60405173ffffffffffffffffffffffffffffffffffffffff909116815260200161011b565b61021d6102183660046118ce565b610dae565b60405161011b92919061218b565b610190610239366004612066565b610edf565b61025361024c366004612066565b5090919050565b60405161011b91906121ba565b61027361026e3660046118ce565b611083565b60405161011b9291906121cd565b61029461028f366004612066565b611226565b60405161011b91906121fc565b6101376102af36600461220f565b73ffffffffffffffffffffffffffffffffffffffff91909116600090815260016020908152604080832060ff94851684529091529020541690565b6101906102f8366004612066565b6112a1565b6000606060008061030f89898861070a565b909250905073ffffffffffffffffffffffffffffffffffffffff871615610438576040517f597bf3dd00000000000000000000000000000000000000000000000000000000815273ffffffffffffffffffffffffffffffffffffffff88169063597bf3dd9061038690859085908a90600401612248565b60006040518083038186803b15801561039e57600080fd5b505afa9250505080156103f157506040513d6000823e601f3d9081017fffffffffffffffffffffffffffffffffffffffffffffffffffffffffffffffe01682016040526103ee91908101906122c6565b60015b61042b573d80801561041f576040519150601f19603f3d011682016040523d82523d6000602084013e610424565b606091505b5050610438565b879450925061044b915050565b30610444838388610929565b9350935050505b9550959350505050565b600080610461836112ce565b905060008160ff16116104d5576040517f08c379a000000000000000000000000000000000000000000000000000000000815260206004820152600360248201527f463a30000000000000000000000000000000000000000000000000000000000060448201526064015b60405180910390fd5b600061050185856040516020016104ed92919061234a565b6040516020818303038152906040526112e2565b3360008181526020818152604080832060ff808d168086529184528285208054600181810183559187528587200180547fffffffffffffffffffffff0000000000000000000000000000000000000000001673ffffffffffffffffffffffffffffffffffffffff8a1674ff000000000000000000000000000000000000000060a08e901b161717905595855294835281842090845290915281208054939450859390926105b091859116612452565b92506101000a81548160ff021916908360ff16021790555081925050509392505050565b600060606000806105e689898861070a565b909250905073ffffffffffffffffffffffffffffffffffffffff8716156106fe576040517f9dc42d5900000000000000000000000000000000000000000000000000000000815273ffffffffffffffffffffffffffffffffffffffff881690639dc42d599061065d90859085908a90600401612248565b60006040518083038186803b15801561067557600080fd5b505afa9250505080156106c857506040513d6000823e601f3d9081017fffffffffffffffffffffffffffffffffffffffffffffffffffffffffffffffe01682016040526106c591908101906122c6565b60015b61042b573d8080156106f6576040519150601f19603f3d011682016040523d82523d6000602084013e6106fb565b606091505b50505b30610444838388610edf565b606061077f60405180610160016040528060008152602001600081526020016060815260200160608152602001600073ffffffffffffffffffffffffffffffffffffffff1681526020016000815260200160608152602001606081526020016060815260200160608152602001606081525090565b6040517f5e983d4f0000000000000000000000000000000000000000000000000000000081526004810185905273ffffffffffffffffffffffffffffffffffffffff861690635e983d4f9060240160006040518083038186803b1580156107e557600080fd5b505afa1580156107f9573d6000803e3d6000fd5b505050506040513d6000823e601f3d9081017fffffffffffffffffffffffffffffffffffffffffffffffffffffffffffffffe016820160405261083f9190810190612566565b90506000610851868360c001516113bd565b6002546040517fda7233db00000000000000000000000000000000000000000000000000000000815291925073ffffffffffffffffffffffffffffffffffffffff169063da7233db906108ac908490869089906004016126e3565b60006040518083038186803b1580156108c457600080fd5b505afa1580156108d8573d6000803e3d6000fd5b505050506040513d6000823e601f3d9081017fffffffffffffffffffffffffffffffffffffffffffffffffffffffffffffffe016820160405261091e9190810190612803565b925050935093915050565b60025460408084015160608581015192517fa2b493be000000000000000000000000000000000000000000000000000000008152909373ffffffffffffffffffffffffffffffffffffffff16926330375a359291849063577de07c90829063a2b493be9061099f908c908e908d90600401612838565b60006040518083038186803b1580156109b757600080fd5b505afa1580156109cb573d6000803e3d6000fd5b505050506040513d6000823e601f3d9081017fffffffffffffffffffffffffffffffffffffffffffffffffffffffffffffffe0168201604052610a1191908101906122c6565b6040518263ffffffff1660e01b8152600401610a2d919061212f565b60006040518083038186803b158015610a4557600080fd5b505afa158015610a59573d6000803e3d6000fd5b505050506040513d6000823e601f3d9081017fffffffffffffffffffffffffffffffffffffffffffffffffffffffffffffffe0168201604052610a9f91908101906122c6565b60025460a08901516040517f4a7c7e4600000000000000000000000000000000000000000000000000000000815273ffffffffffffffffffffffffffffffffffffffff90921691634a7c7e4691610afc9160040190815260200190565b60006040518083038186803b158015610b1457600080fd5b505afa158015610b28573d6000803e3d6000fd5b505050506040513d6000823e601f3d9081017fffffffffffffffffffffffffffffffffffffffffffffffffffffffffffffffe0168201604052610b6e91908101906122c6565b604051602001610b81949392919061285d565b6040516020818303038152906040526040518263ffffffff1660e01b8152600401610bac919061212f565b60006040518083038186803b158015610bc457600080fd5b505afa158015610bd8573d6000803e3d6000fd5b505050506040513d6000823e601f3d9081017fffffffffffffffffffffffffffffffffffffffffffffffffffffffffffffffe0168201604052610c1e91908101906122c6565b949350505050565b60006060600080610c3889898861070a565b909250905073ffffffffffffffffffffffffffffffffffffffff871615610d50576040517fe8fb95df00000000000000000000000000000000000000000000000000000000815273ffffffffffffffffffffffffffffffffffffffff88169063e8fb95df90610caf90859085908a90600401612248565b60006040518083038186803b158015610cc757600080fd5b505afa925050508015610d1a57506040513d6000823e601f3d9081017fffffffffffffffffffffffffffffffffffffffffffffffffffffffffffffffe0168201604052610d1791908101906122c6565b60015b61042b573d808015610d48576040519150601f19603f3d011682016040523d82523d6000602084013e610d4d565b606091505b50505b306104448383886112a1565b60005b60088160ff161015610da957610d968184848460ff16818110610d8457610d84612986565b905060200281019061013291906129b5565b5080610da181612a1d565b915050610d5f565b505050565b60006060600080610dc089898861070a565b909250905073ffffffffffffffffffffffffffffffffffffffff871615610ed8576040517facb4e9a400000000000000000000000000000000000000000000000000000000815273ffffffffffffffffffffffffffffffffffffffff88169063acb4e9a490610e3790859085908a90600401612248565b60006040518083038186803b158015610e4f57600080fd5b505afa925050508015610ea257506040513d6000823e601f3d9081017fffffffffffffffffffffffffffffffffffffffffffffffffffffffffffffffe0168201604052610e9f9190810190612803565b60015b61042b573d808015610ed0576040519150601f19603f3d011682016040523d82523d6000602084013e610ed5565b606091505b50505b3082610444565b6002546040517fa2b493be00000000000000000000000000000000000000000000000000000000815260609160009173ffffffffffffffffffffffffffffffffffffffff9091169063a2b493be90610f3f90879089908890600401612838565b60006040518083038186803b158015610f5757600080fd5b505afa158015610f6b573d6000803e3d6000fd5b505050506040513d6000823e601f3d9081017fffffffffffffffffffffffffffffffffffffffffffffffffffffffffffffffe0168201604052610fb191908101906122c6565b6002546040517f577de07c00000000000000000000000000000000000000000000000000000000815291925073ffffffffffffffffffffffffffffffffffffffff169063577de07c9061100890849060040161212f565b60006040518083038186803b15801561102057600080fd5b505afa158015611034573d6000803e3d6000fd5b505050506040513d6000823e601f3d9081017fffffffffffffffffffffffffffffffffffffffffffffffffffffffffffffffe016820160405261107a91908101906122c6565b95945050505050565b60006110f860405180610160016040528060008152602001600081526020016060815260200160608152602001600073ffffffffffffffffffffffffffffffffffffffff1681526020016000815260200160608152602001606081526020016060815260200160608152602001606081525090565b60008061110689898861070a565b909250905073ffffffffffffffffffffffffffffffffffffffff87161561121e576040517fd17c777f00000000000000000000000000000000000000000000000000000000815273ffffffffffffffffffffffffffffffffffffffff88169063d17c777f9061117d90859085908a90600401612248565b60006040518083038186803b15801561119557600080fd5b505afa9250505080156111e857506040513d6000823e601f3d9081017fffffffffffffffffffffffffffffffffffffffffffffffffffffffffffffffe01682016040526111e59190810190612566565b60015b61042b573d808015611216576040519150601f19603f3d011682016040523d82523d6000602084013e61121b565b606091505b50505b306104448383885b61129960405180610160016040528060008152602001600081526020016060815260200160608152602001600073ffffffffffffffffffffffffffffffffffffffff1681526020016000815260200160608152602001606081526020016060815260200160608152602001606081525090565b509092915050565b606083836040516020016112b6929190611c8c565b60405160208183030381529060405290509392505050565b600060ff8211156112de57600080fd5b5090565b600080826040516020016112f69190612a3d565b6040516020818303038152906040529050600081518260405160200161131d929190612a63565b60405160208183030381529060405290508051602082016000f0925073ffffffffffffffffffffffffffffffffffffffff83166113b6576040517f08c379a000000000000000000000000000000000000000000000000000000000815260206004820152601160248201527f4445504c4f594d454e545f4641494c454400000000000000000000000000000060448201526064016104cc565b5050919050565b6060815167ffffffffffffffff8111156113d9576113d9611cb1565b60405190808252806020026020018201604052801561140c57816020015b60608152602001906001900390816113f75790505b50905060005b82518160ff1610156114d657828160ff168151811061143357611433612986565b602002602001015160ff166000141561147c576040805160008152602081019091528251839060ff841690811061146c5761146c612986565b60200260200101819052506114c4565b6114a38482858460ff168151811061149657611496612986565b60200260200101516114dd565b828260ff16815181106114b8576114b8612986565b60200260200101819052505b806114ce81612a1d565b915050611412565b5092915050565b606060ff8216611549576040517f08c379a000000000000000000000000000000000000000000000000000000000815260206004820152600360248201527f463a31000000000000000000000000000000000000000000000000000000000060448201526064016104cc565b8161155381612afa565b73ffffffffffffffffffffffffffffffffffffffff8616600090815260016020908152604080832060ff808a1685529252909120549194509081169150831681116115fa576040517f08c379a000000000000000000000000000000000000000000000000000000000815260206004820152600360248201527f463a32000000000000000000000000000000000000000000000000000000000060448201526064016104cc565b73ffffffffffffffffffffffffffffffffffffffff851660009081526020818152604080832060ff8816845282528083208054825181850281018501909352808352919290919083018282801561168857602002820191906000526020600020905b815474ffffffffffffffffffffffffffffffffffffffffff16815260019091019060200180831161165c575b50505050509050600080600080600090505b845181101561174457600060a08683815181106116b9576116b9612986565b602002602001015174ffffffffffffffffffffffffffffffffffffffffff16901c90508860ff1681846116ec9190612452565b60ff1611156117255785828151811061170757611707612986565b60200260200101519450828961171d9190612b35565b935050611744565b61172f8184612452565b9250508061173c81612b58565b91505061169a565b5073ffffffffffffffffffffffffffffffffffffffff83166117c2576040517f08c379a000000000000000000000000000000000000000000000000000000000815260206004820152600360248201527f463a33000000000000000000000000000000000000000000000000000000000060448201526064016104cc565b6117cb83611808565b8060200190518101906117de9190612b91565b8260ff16815181106117f2576117f2612986565b6020026020010151955050505050509392505050565b60606118368260016118318173ffffffffffffffffffffffffffffffffffffffff84163b612c42565b61183c565b92915050565b60408051603f838501017fffffffffffffffffffffffffffffffffffffffffffffffffffffffffffffffe0168101909152818152818360208301863c9392505050565b73ffffffffffffffffffffffffffffffffffffffff811681146118a157600080fd5b50565b80356118af8161187f565b919050565b60ff811681146118a157600080fd5b80356118af816118b4565b600080600080600060a086880312156118e657600080fd5b85356118f18161187f565b94506020860135935060408601356119088161187f565b92506060860135611918816118b4565b91506080860135611928816118b4565b809150509295509295909350565b60005b83811015611951578181015183820152602001611939565b83811115611960576000848401525b50505050565b6000815180845261197e816020860160208601611936565b601f017fffffffffffffffffffffffffffffffffffffffffffffffffffffffffffffffe0169290920160200192915050565b73ffffffffffffffffffffffffffffffffffffffff83168152604060208201526000610c1e6040830184611966565b60008083601f8401126119f157600080fd5b50813567ffffffffffffffff811115611a0957600080fd5b6020830191508360208260051b8501011115611a2457600080fd5b9250929050565b600080600060408486031215611a4057600080fd5b8335611a4b816118b4565b9250602084013567ffffffffffffffff811115611a6757600080fd5b611a73868287016119df565b9497909650939450505050565b600080600060608486031215611a9557600080fd5b8335611aa08161187f565b9250602084013591506040840135611ab7816118b4565b809150509250925092565b600081518084526020808501945080840160005b83811015611af257815187529582019590820190600101611ad6565b509495945050505050565b600081518084526020808501945080840160005b83811015611af257815160ff1687529582019590820190600101611b11565b600081518084526020808501808196508360051b8101915082860160005b85811015611b78578284038952611b66848351611966565b98850198935090840190600101611b4e565b5091979650505050505050565b600061016082518452602083015160208501526040830151816040860152611baf82860182611966565b91505060608301518482036060860152611bc98282611966565b9150506080830151611bf3608086018273ffffffffffffffffffffffffffffffffffffffff169052565b5060a083015160a085015260c083015184820360c0860152611c158282611afd565b91505060e083015184820360e0860152611c2f8282611afd565b9150506101008084015185830382870152611c4a8382611afd565b925050506101208084015185830382870152611c668382611b30565b925050506101408084015185830382870152611c828382611966565b9695505050505050565b604081526000611c9f6040830185611ac2565b828103602084015261107a8185611b85565b7f4e487b7100000000000000000000000000000000000000000000000000000000600052604160045260246000fd5b604051610160810167ffffffffffffffff81118282101715611d0457611d04611cb1565b60405290565b604051601f82017fffffffffffffffffffffffffffffffffffffffffffffffffffffffffffffffe016810167ffffffffffffffff81118282101715611d5157611d51611cb1565b604052919050565b600067ffffffffffffffff821115611d7357611d73611cb1565b5060051b60200190565b600067ffffffffffffffff821115611d9757611d97611cb1565b50601f017fffffffffffffffffffffffffffffffffffffffffffffffffffffffffffffffe01660200190565b600082601f830112611dd457600080fd5b8135611de7611de282611d7d565b611d0a565b818152846020838601011115611dfc57600080fd5b816020850160208301376000918101602001919091529392505050565b600082601f830112611e2a57600080fd5b81356020611e3a611de283611d59565b82815260059290921b84018101918181019086841115611e5957600080fd5b8286015b84811015611e7d578035611e70816118b4565b8352918301918301611e5d565b509695505050505050565b600082601f830112611e9957600080fd5b81356020611ea9611de283611d59565b82815260059290921b84018101918181019086841115611ec857600080fd5b8286015b84811015611e7d57803567ffffffffffffffff811115611eec5760008081fd5b611efa8986838b0101611dc3565b845250918301918301611ecc565b60006101608284031215611f1b57600080fd5b611f23611ce0565b90508135815260208201356020820152604082013567ffffffffffffffff80821115611f4e57600080fd5b611f5a85838601611dc3565b60408401526060840135915080821115611f7357600080fd5b611f7f85838601611dc3565b6060840152611f90608085016118a4565b608084015260a084013560a084015260c0840135915080821115611fb357600080fd5b611fbf85838601611e19565b60c084015260e0840135915080821115611fd857600080fd5b611fe485838601611e19565b60e084015261010091508184013581811115611fff57600080fd5b61200b86828701611e19565b83850152506101209150818401358181111561202657600080fd5b61203286828701611e88565b83850152506101409150818401358181111561204d57600080fd5b61205986828701611dc3565b8385015250505092915050565b60008060006060848603121561207b57600080fd5b833567ffffffffffffffff8082111561209357600080fd5b818601915086601f8301126120a757600080fd5b813560206120b7611de283611d59565b82815260059290921b8401810191818101908a8411156120d657600080fd5b948201945b838610156120f4578535825294820194908201906120db565b9750508701359250508082111561210a57600080fd5b5061211786828701611f08565b925050612126604085016118c3565b90509250925092565b6020815260006121426020830184611966565b9392505050565b6000806020838503121561215c57600080fd5b823567ffffffffffffffff81111561217357600080fd5b61217f858286016119df565b90969095509350505050565b73ffffffffffffffffffffffffffffffffffffffff83168152604060208201526000610c1e6040830184611ac2565b6020815260006121426020830184611ac2565b73ffffffffffffffffffffffffffffffffffffffff83168152604060208201526000610c1e6040830184611b85565b6020815260006121426020830184611b85565b6000806040838503121561222257600080fd5b823561222d8161187f565b9150602083013561223d816118b4565b809150509250929050565b60608152600061225b6060830186611ac2565b828103602084015261226d8186611b85565b91505060ff83166040830152949350505050565b600082601f83011261229257600080fd5b81516122a0611de282611d7d565b8181528460208386010111156122b557600080fd5b610c1e826020830160208701611936565b6000602082840312156122d857600080fd5b815167ffffffffffffffff8111156122ef57600080fd5b610c1e84828501612281565b81835260007f07ffffffffffffffffffffffffffffffffffffffffffffffffffffffffffffff83111561232d57600080fd5b8260051b8083602087013760009401602001938452509192915050565b6020808252818101839052600090600560408085019086831b86010187855b88811015612415577fffffffffffffffffffffffffffffffffffffffffffffffffffffffffffffffc088840301845281357fffffffffffffffffffffffffffffffffffffffffffffffffffffffffffffffe18b36030181126123ca57600080fd5b8a01803567ffffffffffffffff8111156123e357600080fd5b80871b36038c13156123f457600080fd5b61240185828a85016122fb565b958801959450505090850190600101612369565b509098975050505050505050565b7f4e487b7100000000000000000000000000000000000000000000000000000000600052601160045260246000fd5b600060ff821660ff84168060ff0382111561246f5761246f612423565b019392505050565b80516118af8161187f565b600082601f83011261249357600080fd5b815160206124a3611de283611d59565b82815260059290921b840181019181810190868411156124c257600080fd5b8286015b84811015611e7d5780516124d9816118b4565b83529183019183016124c6565b600082601f8301126124f757600080fd5b81516020612507611de283611d59565b82815260059290921b8401810191818101908684111561252657600080fd5b8286015b84811015611e7d57805167ffffffffffffffff81111561254a5760008081fd5b6125588986838b0101612281565b84525091830191830161252a565b60006020828403121561257857600080fd5b815167ffffffffffffffff8082111561259057600080fd5b9083019061016082860312156125a557600080fd5b6125ad611ce0565b82518152602083015160208201526040830151828111156125cd57600080fd5b6125d987828601612281565b6040830152506060830151828111156125f157600080fd5b6125fd87828601612281565b60608301525061260f60808401612477565b608082015260a083015160a082015260c08301518281111561263057600080fd5b61263c87828601612482565b60c08301525060e08301518281111561265457600080fd5b61266087828601612482565b60e083015250610100808401518381111561267a57600080fd5b61268688828701612482565b82840152505061012080840151838111156126a057600080fd5b6126ac888287016124e6565b82840152505061014080840151838111156126c657600080fd5b6126d288828701612281565b918301919091525095945050505050565b6000606082016060835280865180835260808501915060808160051b860101925060208089016000805b8481101561277f578887037fffffffffffffffffffffffffffffffffffffffffffffffffffffffffffffff80018652825180518089529085019085890190845b818110156127695783518352928701929187019160010161274d565b509098505050948301949183019160010161270d565b505050858403818701525050506127968186611b85565b915050610c1e604083018460ff169052565b600082601f8301126127b957600080fd5b815160206127c9611de283611d59565b82815260059290921b840181019181810190868411156127e857600080fd5b8286015b84811015611e7d57805183529183019183016127ec565b60006020828403121561281557600080fd5b815167ffffffffffffffff81111561282c57600080fd5b610c1e848285016127a8565b60608152600061284b6060830186611b85565b828103602084015261226d8186611ac2565b7f7b226e616d65223a220000000000000000000000000000000000000000000000815260008551612895816009850160208a01611936565b7f222c226465736372697074696f6e223a2200000000000000000000000000000060099184019182015285516128d281601a840160208a01611936565b7f222c2022696d616765223a202200000000000000000000000000000000000000601a92909101918201528451612910816027840160208901611936565b7f222c22746f6b656e4964223a220000000000000000000000000000000000000060279290910191820152835161294e816034840160208801611936565b7f227d000000000000000000000000000000000000000000000000000000000000603492909101918201526036019695505050505050565b7f4e487b7100000000000000000000000000000000000000000000000000000000600052603260045260246000fd5b60008083357fffffffffffffffffffffffffffffffffffffffffffffffffffffffffffffffe18436030181126129ea57600080fd5b83018035915067ffffffffffffffff821115612a0557600080fd5b6020019150600581901b3603821315611a2457600080fd5b600060ff821660ff811415612a3457612a34612423565b60010192915050565b6000815260008251612a56816001850160208701611936565b9190910160010192915050565b7f630000000000000000000000000000000000000000000000000000000000000081527fffffffff000000000000000000000000000000000000000000000000000000008360e01b1660018201527f80600e6000396000f30000000000000000000000000000000000000000000000600582015260008251612aec81600e850160208701611936565b91909101600e019392505050565b600060ff821680612b0d57612b0d612423565b7fffffffffffffffffffffffffffffffffffffffffffffffffffffffffffffffff0192915050565b600060ff821660ff841680821015612b4f57612b4f612423565b90039392505050565b60007fffffffffffffffffffffffffffffffffffffffffffffffffffffffffffffffff821415612b8a57612b8a612423565b5060010190565b60006020808385031215612ba457600080fd5b825167ffffffffffffffff80821115612bbc57600080fd5b818501915085601f830112612bd057600080fd5b8151612bde611de282611d59565b81815260059190911b83018401908481019088831115612bfd57600080fd5b8585015b83811015612c3557805185811115612c195760008081fd5b612c278b89838a01016127a8565b845250918601918601612c01565b5098975050505050505050565b600082821015612c5457612c54612423565b50039056fea2646970667358221220bea8f919b01fe803213668ef9a0d656ad45d042c4d75cf0144292c7a6c818cab64736f6c63430008090033608060405234801561001057600080fd5b5061599080620000216000396000f3fe608060405234801561001057600080fd5b50600436106100d45760003560e01c80637be2ae0311610081578063d8674cb71161005b578063d8674cb7146101a7578063da7233db146101c7578063daa68c21146101da57600080fd5b80637be2ae031461016e578063a2b493be14610181578063d60bad601461019457600080fd5b8063577de07c116100b2578063577de07c146101285780635fc6b8fd1461013b57806377d0adb11461015b57600080fd5b806330375a35146100d957806346eceb3a146101025780634a7c7e4614610115575b600080fd5b6100ec6100e73660046147fd565b6101ed565b6040516100f991906148b0565b60405180910390f35b6100ec6101103660046147fd565b610255565b6100ec6101233660046148c3565b610296565b6100ec6101363660046147fd565b6102a7565b61014e61014936600461496b565b6102ba565b6040516100f991906149a0565b61014e6101693660046149e4565b61041b565b6100ec61017c366004614a3a565b61057e565b6100ec61018f366004614cca565b610594565b6100ec6101a23660046147fd565b61061e565b6101ba6101b5366004614db5565b61065f565b6040516100f99190614e78565b61014e6101d5366004614fab565b6109ed565b6100ec6101e83660046147fd565b610b3a565b60606040518060400160405280601d81526020017f646174613a6170706c69636174696f6e2f6a736f6e3b6261736536342c00000081525061022e83610b3a565b60405160200161023f929190615007565b6040516020818303038152906040529050919050565b60606040518060400160405280601a81526020017f646174613a696d6167652f7376672b786d6c3b6261736536342c00000000000081525061022e83610b3a565b60606102a182610b45565b92915050565b60608160405160200161023f9190615036565b606060f082600184516102cd91906150d0565b815181106102dd576102dd6150e7565b6020026020010151901c67ffffffffffffffff8111156102ff576102ff6146c7565b604051908082528060200260200182016040528015610328578160200160208202803683370190505b5090506000805b835181101561041457600084828151811061034c5761034c6150e7565b6020026020010151600f16905080600f141561038e576004858361036f81615116565b945081518110610381576103816150e7565b6020026020010151901c90505b60005b818110156103b957836103a381615116565b94505080806103b190615116565b915050610391565b5060048583815181106103ce576103ce6150e7565b6020026020010151901c8484806103e490615116565b9550815181106103f6576103f66150e7565b6020908102919091010152508061040c81615116565b91505061032f565b5050919050565b606060008060005b858381518110610435576104356150e7565b602002602001015160001415610457578061044f81615116565b9150506104e1565b600e81111561049457600f600482901b17868361047381615116565b945081518110610485576104856150e7565b60209081029190910101525060005b8060048785815181106104a9576104a96150e7565b6020026020010151901b178683806104c090615116565b9450815181106104d2576104d26150e7565b60209081029190910101525060005b85516104ec84615116565b9350831061042357600e81111561053157600f600482901b17868361051081615116565b945081518110610522576105226150e7565b60209081029190910101525060005b60f086516001610541919061514f565b600487901b8317911b17868361055681615116565b945081518110610568576105686150e7565b6020908102919091010152508452509192915050565b606061058d838360ff16610b50565b9392505050565b606061059f836102ba565b92506000603f8085600187516105b591906150d0565b815181106105c5576105c56150e7565b6020908102919091010151901c1690506000603f604586600188516105ea91906150d0565b815181106105fa576105fa6150e7565b6020026020010151901c1690506106148686848488610d93565b9695505050505050565b60606040518060400160405280601a81526020017f646174613a696d6167652f646f746e7567673b6261736536342c00000000000081525061022e83610b3a565b6060835167ffffffffffffffff81111561067b5761067b6146c7565b6040519080825280602002602001820160405280156106ae57816020015b60608152602001906001900390816106995790505b50905060005b84518110156109e5576000806106e28784815181106106d5576106d56150e7565b602002602001015161101f565b9150915081156106f35750506109d3565b6106fe816020611118565b63420690011461076f576040517f08c379a000000000000000000000000000000000000000000000000000000000815260206004820152600860248201527f4445433a50493a3000000000000000000000000000000000000000000000000060448201526064015b60405180910390fd5b600061077c826003611118565b9050600061078b836008611118565b9050600061079a848385611312565b905060006107a9856002611118565b6107b490600161514f565b90508067ffffffffffffffff8111156107cf576107cf6146c7565b60405190808252806020026020018201604052801561083257816020015b61081f6040518060a0016040528060608152602001606081526020016060815260200160008152602001600081525090565b8152602001906001900390816107ed5790505b50888881518110610845576108456150e7565b602002602001018190525060005b818110156109cb5761086786868d8d611477565b898981518110610879576108796150e7565b60200260200101518281518110610892576108926150e7565b602002602001015160800181815250506108ab866115f8565b8989815181106108bd576108bd6150e7565b602002602001015182815181106108d6576108d66150e7565b602002602001015160600181815250506000806109358b8b815181106108fe576108fe6150e7565b60200260200101518481518110610917576109176150e7565b602002602001015160800151603f81811c81169260459290921c1690565b915091506109448883836116dd565b8b8b81518110610956576109566150e7565b6020026020010151848151811061096f5761096f6150e7565b602002602001015160200181905250848b8b81518110610991576109916150e7565b602002602001015184815181106109aa576109aa6150e7565b602090810291909101015152508190506109c381615116565b915050610853565b505050505050505b806109dd81615116565b9150506106b4565b509392505050565b8151606090600114610a5b576040517f08c379a000000000000000000000000000000000000000000000000000000000815260206004820152600360248201527f56317300000000000000000000000000000000000000000000000000000000006044820152606401610766565b60408260ff1611158015610a72575060048260ff16115b610ad8576040517f08c379a000000000000000000000000000000000000000000000000000000000815260206004820152600760248201527f56313a53495a45000000000000000000000000000000000000000000000000006044820152606401610766565b610ae3600283615196565b60ff16610af85781610af4816151b8565b9250505b6000610b0e858560e0015186610100015161065f565b90506000610b1e60088584611873565b905061061481604001516040015182604001516080015161041b565b60606102a182611bad565b60606102a182611d88565b60606000610b5f8360026151f3565b610b6a90600261514f565b67ffffffffffffffff811115610b8257610b826146c7565b6040519080825280601f01601f191660200182016040528015610bac576020820181803683370190505b5090507f300000000000000000000000000000000000000000000000000000000000000081600081518110610be357610be36150e7565b60200101907effffffffffffffffffffffffffffffffffffffffffffffffffffffffffffff1916908160001a9053507f780000000000000000000000000000000000000000000000000000000000000081600181518110610c4657610c466150e7565b60200101907effffffffffffffffffffffffffffffffffffffffffffffffffffffffffffff1916908160001a9053506000610c828460026151f3565b610c8d90600161514f565b90505b6001811115610d2a577f303132333435363738396162636465660000000000000000000000000000000085600f1660108110610cce57610cce6150e7565b1a60f81b828281518110610ce457610ce46150e7565b60200101907effffffffffffffffffffffffffffffffffffffffffffffffffffffffffffff1916908160001a90535060049490941c93610d2381615230565b9050610c90565b50831561058d576040517f08c379a000000000000000000000000000000000000000000000000000000000815260206004820181905260248201527f537472696e67733a20686578206c656e67746820696e73756666696369656e746044820152606401610766565b60606000610dac610da78660ff86166151f3565b610b45565b610dbc610da78760ff87166151f3565b610dcc610da78860ff88166151f3565b610ddc610da78960ff89166151f3565b604051602001610def9493929190615265565b604080517fffffffffffffffffffffffffffffffffffffffffffffffffffffffffffffffe0818403018152828201909152600682527f3c2f7376673e0000000000000000000000000000000000000000000000000000602083015291506000610e5a8882808a611eb8565b5090506001606060005b88811015610fe05760005b8a811015610f5b5781158015610e83575080155b15610e965780610e9281615116565b9150505b6000610ea48d83858f611eb8565b509050610eb086611f49565b610eb982611f49565b1415610ed25784610ec981615116565b95505050610f49565b83610f1e8760ff8d16610ee589876150d0565b610eef91906151f3565b610efc60ff8f16886151f3565b610f078f60016153da565b60ff168f60ff168b610f1991906151f3565b611f67565b604051602001610f2f929190615007565b604051602081830303815290604052935080955060019450505b80610f5381615116565b915050610e6f565b5081610fa38560ff8b16610f6f878f6150d0565b610f7991906151f3565b610f8660ff8d16866151f3565b610f918d60016153da565b60ff168d60ff1689610f1991906151f3565b604051602001610fb4929190615007565b604051602081830303815290604052915060009350600092508080610fd890615116565b915050610e64565b508481610fec8d611ff2565b866040516020016110009493929190615403565b6040516020818303038152906040529550505050505095945050505050565b600061104560405180606001604052806060815260200160008152602001600081525090565b82516110545760019150915091565b82815260026020820152825167ffffffffffffffff811115611078576110786146c7565b6040519080825280602002602001820160405280156110a1578160200160208202803683370190505b50815282515b801561111257838185516110bb91906150d0565b815181106110cb576110cb6150e7565b602002602001015182600001516001836110e591906150d0565b815181106110f5576110f56150e7565b60209081029190910101528061110a81615230565b9150506110a7565b50915091565b60006001821b7fffffffffffffffffffffffffffffffffffffffffffffffffffffffffffffffff0183518051600090611153576111536150e7565b60200260200101511690508160ff168360000151600081518110611179576111796150e7565b6020026020010151901c836000015160008151811061119a5761119a6150e7565b6020026020010181815250508160ff16836040018181516111bb919061514f565b90525060408301516080116102a1576000600284602001516111dd919061545a565b84515190915081101561130b57608084604001516111fb91906150d0565b8451805160009061120e5761120e6150e7565b60209081029190910101805190911b905260006fffffffffffffffffffffffffffffffff8551805184908110611246576112466150e7565b6020026020010151169050608085600001518381518110611269576112696150e7565b60200260200101818151901c91508181525050608081901b8560000151600081518110611298576112986150e7565b602002602001018181511791508181525050608085604001516112bb91906150d0565b855180516000906112ce576112ce6150e7565b6020908102919091018101805190921c90915285018051906112ef82615116565b8152505060808560400181815161130691906150d0565b905250505b5092915050565b60606000611321856004611118565b61132c90600161514f565b905061133981600161514f565b67ffffffffffffffff811115611351576113516146c7565b60405190808252806020026020018201604052801561137a578160200160208202803683370190505b50915060005b8181101561146e576000611395876004611118565b90506000806113a5896001611118565b905080600114156113b957600091506113f9565b60006113c68a6008611118565b905060006113d58b6008611118565b905060006113e48c6008611118565b905080600883901b601085901b171794505050505b60006114068a6001611118565b60011461141d576114188a6008611118565b611420565b60ff5b905061142f83828b878c612288565b8761143b87600161514f565b8151811061144b5761144b6150e7565b60200260200101818152505050505050808061146690615116565b915050611380565b50509392505050565b604b83901b6000611489866006611118565b90506000611498876006611118565b604581901b93909317603f83901b1792905060006114b7886006611118565b905060006114c6896006611118565b9050865160081480156114da575085516008145b801561152a57508688815181106114f3576114f36150e7565b602002602001015160ff16600014158061152a575085888151811061151a5761151a6150e7565b602002602001015160ff16600014155b1561157e576039868981518110611543576115436150e7565b602002602001015160ff16901b851794506033878981518110611568576115686150e7565b602002602001015160ff16901b85179450611591565b603382901b85179450603981901b851794505b601b61159e8a6001611118565b6001146115b5576115b08a6018611118565b6115b8565b60005b901b949094179360036115cc8a6001611118565b6001146115e3576115de8a6018611118565b6115e6565b60005b901b8517945050505050949350505050565b600080611606836001611118565b60011461161d57611618836004611118565b611620565b60015b905060005b818110156104145760008061163b866006611118565b9050600061164a876006611118565b90506000611659886003611118565b90506000611668896001611118565b9050806001141561168457600684901b94909417821793611691565b600683901b949094178317935b806001146116a05760006116a3565b60805b60ff166116b183600c6151f3565b6116bb919061514f565b85901b94508488179750505050505080806116d590615116565b915050611625565b606060006116ec856001611118565b60011461170e576116fe856010611118565b61170990600161514f565b611724565b611719856008611118565b61172490600161514f565b9050604061173284866151f3565b61173c919061545a565b61174790600161514f565b67ffffffffffffffff81111561175f5761175f6146c7565b604051908082528060200260200182016040528015611788578160200160208202803683370190505b5091506000805b828110156118695760006117a4886002611118565b6117af90600161514f565b905080600414156117d3576117c5886004611118565b6117d090600461514f565b90505b60006117e0896004611118565b905060005b82811015611853576117f860408661546e565b6118039060046151f3565b82901b8761181260408861545a565b81518110611822576118226150e7565b60209081029190910101805190911790528461183d81615116565b955050808061184b90615116565b9150506117e5565b505050808061186190615116565b91505061178f565b5050509392505050565b61187b61453e565b6118836145b1565b61188d84856122e7565b81528467ffffffffffffffff8111156118a8576118a86146c7565b60405190808252806020026020018201604052801561193157816020015b61191e6040805160e0810182526000918101828152606082018390526080820183905260a0820183905260c0820192909252908190815260408051606081018252600080825260208281018290529282015291015290565b8152602001906001900390816118c65790505b506020820152604080516060810190915260009080611951600288615482565b61195c9060016154a4565b60ff16815260200161196f600288615482565b61197a9060016154a4565b60ff16815260016020918201526040805160a081018252600080825292810183905290810182905260608101829052608081018290529192505b878160ff161015611a0b5760405180604001604052808381526020018481525084602001518260ff16815181106119ed576119ed6150e7565b60200260200101819052508080611a03906154c9565b9150506119b4565b50825160ff871690819052835160200152611a246145d1565b611a2e87886122e7565b60408201528767ffffffffffffffff811115611a4c57611a4c6146c7565b604051908082528060200260200182016040528015611ad557816020015b611ac26040805160e0810182526000918101828152606082018390526080820183905260a0820183905260c0820192909252908190815260408051606081018252600080825260208281018290529282015291015290565b815260200190600190039081611a6a5790505b50606082015260005b86518160ff161015611b9f576000878260ff1681518110611b0157611b016150e7565b6020026020010151511115611b8d57611b5c82888360ff1681518110611b2957611b296150e7565b6020026020010151611b57888b8660ff1681518110611b4a57611b4a6150e7565b60200260200101516123a6565b61242e565b611b6685836129d2565b611b708583612cdb565b611b7a8583612dd9565b611b8382612ebf565b611b8d8583612ecb565b80611b97816154c9565b915050611ade565b505091519695505050505050565b6060815160001415611bcd57505060408051602081019091526000815290565b600060405180606001604052806040815260200161591b6040913990506000600384516002611bfc919061514f565b611c06919061545a565b611c119060046151f3565b90506000611c2082602061514f565b67ffffffffffffffff811115611c3857611c386146c7565b6040519080825280601f01601f191660200182016040528015611c62576020820181803683370190505b509050818152600183018586518101602084015b81831015611cd05760039283018051603f601282901c811687015160f890811b8552600c83901c8216880151811b6001860152600683901c8216880151811b60028601529116860151901b93820193909352600401611c76565b600389510660018114611cea5760028114611d3457611d7a565b7f3d3d0000000000000000000000000000000000000000000000000000000000007ffffffffffffffffffffffffffffffffffffffffffffffffffffffffffffffffe830152611d7a565b7f3d000000000000000000000000000000000000000000000000000000000000007fffffffffffffffffffffffffffffffffffffffffffffffffffffffffffffffff8301525b509398975050505050505050565b606081611dc857505060408051808201909152600181527f3000000000000000000000000000000000000000000000000000000000000000602082015290565b8160005b8115611df25780611ddc81615116565b9150611deb9050600a8361545a565b9150611dcc565b8067ffffffffffffffff811115611e0b57611e0b6146c7565b6040519080825280601f01601f191660200182016040528015611e35576020820181803683370190505b5092505b831561041457611e4a6001826150d0565b9050611e57600a8561546e565b611e6290603061514f565b60f81b838281518110611e7757611e776150e7565b60200101907effffffffffffffffffffffffffffffffffffffffffffffffffffffffffffff1916908160001a905350611eb1600a8561545a565b9350611e39565b60008080611ec684866151f3565b611ed0908761514f565b8751909150611ee060068361545a565b10611ef2576000809250925050611f40565b611efd60068261546e565b611f0890602a6151f3565b87611f1460068461545a565b81518110611f2457611f246150e7565b6020908102919091010151901c91506503ffffffffff82169250505b94509492505050565b6000611f5482612f90565b600583901b63ffffff0016179050919050565b6060611f7286612f90565b611f8b5750604080516020810190915260008152611fe9565b611f9f6004611f9988611f49565b90612f9e565b611fa886610b45565b611fb186610b45565b611fba86610b45565b611fc386610b45565b604051602001611fd79594939291906154e9565b60405160208183030381529060405290505b95945050505050565b606061203b602d60006040518060400160405280600481526020017f6e616d65000000000000000000000000000000000000000000000000000000008152508560400151613099565b612082604b60006040518060400160405280600b81526020017f6465736372697074696f6e0000000000000000000000000000000000000000008152508660600151613099565b6120d1606960006040518060400160405280600281526020017f69640000000000000000000000000000000000000000000000000000000000008152506120cc8860a00151610b45565b613099565b612131608760006040518060400160405280600581526020017f6f776e65720000000000000000000000000000000000000000000000000000008152506120cc896080015173ffffffffffffffffffffffffffffffffffffffff166130e0565b61218360a560006040518060400160405280600581526020017f6974656d7300000000000000000000000000000000000000000000000000000081525060405180602001604052806000815250613099565b604051602001612197959493929190615657565b604051602081830303815290604052905060005b60088110156122765760008360c0015182815181106121cc576121cc6150e7565b602002602001015160ff16111561226457816122416121ec83601e6151f3565b6121f79060c361514f565b60148661012001518581518110612210576122106150e7565b60200260200101516120cc8860c001518781518110612231576122316150e7565b602002602001015160ff16610b45565b604051602001612252929190615007565b60405160208183030381529060405291505b8061226e81615116565b9150506121ab565b508060405160200161023f919061573b565b6000602761229583613103565b60ff16901b1760236122a684613117565b60ff16901b17601b6122b785613127565b60ff16901b81179050600386901b811790506122dd6122d586613127565b60ff16613137565b1795945050505050565b6122ef61453e565b6122fa600284615196565b60ff1660011480156123195750612312600283615196565b60ff166001145b61237f576040517f08c379a000000000000000000000000000000000000000000000000000000000815260206004820152600660248201527f4d4c3a433a3000000000000000000000000000000000000000000000000000006044820152606401610766565b61239081604001518460ff16613157565b60408101516102a19060ff8086169085166131c6565b60008151600114612413576040517f08c379a000000000000000000000000000000000000000000000000000000000815260206004820152600a60248201527f43414c433a5056493a30000000000000000000000000000000000000000000006044820152606401610766565b815160011415612425575060006102a1565b50600092915050565b600062ffffff601b848460ff168151811061244b5761244b6150e7565b602090810291909101015160800151901c169050600062ffffff6003858560ff168151811061247c5761247c6150e7565b602002602001015160800151901c1690506000806124c9868660ff16815181106124a8576124a86150e7565b602002602001015160800151603381901c603f9081169260399290921c1690565b915091506000806124e8888860ff1681518110610917576109176150e7565b60208b8101805160ff85811690915290519083169101526040805160e0810182526001918101918252929450909250819060608201603f60128b901c1660ff168152602001603f600c8b901c1660ff168152602001603f60068b901c1660ff168152602001603f60ff908b1681169091529082526040805160608101825288831681529187166020838101919091526001838301819052938101929092528c820151810193909352825160a081019093529082528101603f601288901c1660ff168152602001603f600c88901c1660ff168152602001603f600688901c1660ff168152602001603f60ff90881616905260208a015160a00152604080516008808252610120820190925290816020015b60408051606081018252600080825260208083018290529282015282527fffffffffffffffffffffffffffffffffffffffffffffffffffffffffffffffff9092019101816125f85790505060208a015160600152604080516008808252610120820190925290816020015b60408051606081018252600080825260208083018290529282015282527fffffffffffffffffffffffffffffffffffffffffffffffffffffffffffffffff90920191018161266357505060208a01516080015260005b60088110156127a85760008060006126ef8c8c60ff16815181106126df576126df6150e7565b60200260200101518560006132da565b925092509250801561279257828d60200151608001518581518110612716576127166150e7565b60200260200101516000019060ff16908160ff1681525050818d60200151608001518581518110612749576127496150e7565b60200260200101516020019060ff16908160ff168152505060018d6020015160800151858151811061277d5761277d6150e7565b60209081029190910101519015156040909101525b50505080806127a090615116565b9150506126b9565b5060005b600881101561289b5760008060006127e28c8c60ff16815181106127d2576127d26150e7565b60200260200101518560016132da565b925092509250801561288557828d60200151606001518581518110612809576128096150e7565b60200260200101516000019060ff16908160ff1681525050818d6020015160600151858151811061283c5761283c6150e7565b60200260200101516020019060ff16908160ff168152505060018d60200151606001518581518110612870576128706150e7565b60209081029190910101519015156040909101525b505050808061289390615116565b9150506127ac565b50600060a08a0181905260808a015260608901515167ffffffffffffffff8111156128c8576128c86146c7565b60405190808252806020026020018201604052801561295157816020015b61293e6040805160e0810182526000918101828152606082018390526080820183905260a0820183905260c0820192909252908190815260408051606081018252600080825260208281018290529282015291015290565b8152602001906001900390816128e65790505b5060608a01526007604b898960ff1681518110612970576129706150e7565b602002602001015160800151901c16896000019060ff16908160ff16815250506129c7888860ff16815181106129a8576129a86150e7565b602002602001015183838c6040015161333a909392919063ffffffff16565b505050505050505050565b60008260200151826000015160ff16815181106129f1576129f16150e7565b6020026020010151905060008260200151604001519050826020015160a001516040015160ff16600014158015612a2f575080516040015160ff1615155b8015612a51575081600001516040015160ff1681600001516040015160ff1611155b15612aef578051604090810151835190910151600091612a709161577c565b9050612a9a6001856020015160a0015160400151612a8e919061577c565b604086015190836133f2565b808260200151600001818151612ab091906154a4565b60ff90811690915260208087015160a00151015116159050612aed5780846020015160a00151602001818151612ae691906154a4565b60ff169052505b505b60208084015160a00151015160ff1615801590612b13575080516020015160ff1615155b8015612b35575081600001516020015160ff1681600001516020015160ff1611155b15612b7a57612b7a6001846020015160a0015160200151612b56919061577c565b8251602090810151855190910151612b6e919061577c565b604086015191906133f2565b602083015160a001516080015160ff1615801590612b9f575080516080015160ff1615155b8015612bc1575081600001516080015160ff1681600001516080015160ff1611155b15612c56578051608090810151835190910151600091612be09161577c565b602085015160a00151608001516040860151919250612c009190836134ee565b808260200151602001818151612c1691906154a4565b60ff908116909152602086015160a001516060015116159050612c545780846020015160a00151606001818151612c4d91906154a4565b60ff169052505b505b602083015160a001516060015160ff1615801590612c7b575080516060015160ff1615155b8015612c9d575081600001516060015160ff1681600001516060015160ff1611155b15612cd557602083015160a001516060908101518251820151845190920151612cd592612cc99161577c565b604086015191906134ee565b50505050565b60008260200151826000015160ff1681518110612cfa57612cfa6150e7565b602002602001015190506000826020015160400151905080602001516000015160ff1682602001516000015160ff1611612d35576000612d4b565b602080820151519083015151612d4b919061577c565b60ff90811660a08501526020808301518101518482015190910151908216911611612d77576000612d93565b806020015160200151826020015160200151612d93919061577c565b60ff16608084015260a08301805190612dab826154c9565b60ff1690525060a08301516080840151604085015180516020909101518751612cd5949093909290916135d7565b8151612de49061361b565b8015612df85750612df8816040015161361b565b15612e54576000612e0c836000015161362b565b90506000612e1d836040015161362b565b90508015158015612e3c5750602382901c600f16602382901c600f1610155b15612e4d57612e4d81855190613654565b5050612dd9565b8151604081015160800151603f81811c8116835260459190911c1660209091015281516000606082018190526080820181905260c0820181905260a090910152612ebb81604001516000606082018190526080820181905260c0820181905260a090910152565b5050565b612ec88161367d565b50565b60005b8160600151518160ff161015612f8b57600082606001518260ff1681518110612ef957612ef96150e7565b6020026020010151905080602001516040015115612f785760a083015160208201518051612f289083906154a4565b60ff169052506080830151602080830151018051612f479083906154a4565b60ff9081169091526020860151805184935090918516908110612f6c57612f6c6150e7565b60200260200101819052505b5080612f83816154c9565b915050612ece565b505050565b60006102a16007831661386c565b60606000612fad8360026151f3565b67ffffffffffffffff811115612fc557612fc56146c7565b6040519080825280601f01601f191660200182016040528015612fef576020820181803683370190505b5080519091505b80156109e5577f303132333435363738396162636465660000000000000000000000000000000085600f1660108110613031576130316150e7565b1a60f81b826130416001846150d0565b81518110613051576130516150e7565b60200101907effffffffffffffffffffffffffffffffffffffffffffffffffffffffffffff1916908160001a90535060049490941c938061309181615230565b915050612ff6565b60606130a9610da785600a61514f565b6130b286610b45565b84846040516020016130c7949392919061579f565b6040516020818303038152906040529050949350505050565b60606102a18273ffffffffffffffffffffffffffffffffffffffff166014610b50565b6000600782111561311357600080fd5b5090565b6000600f82111561311357600080fd5b600060ff82111561311357600080fd5b6000602461314483613127565b61314e9190615482565b60ff1692915050565b600661316382806151f3565b61316d919061545a565b61317890600261514f565b67ffffffffffffffff811115613190576131906146c7565b6040519080825280602002602001820160405280156131b9578160200160208202803683370190505b5082604001819052505050565b603f821115613231576040517f08c379a000000000000000000000000000000000000000000000000000000000815260206004820152600b60248201527f564552533a534554573a300000000000000000000000000000000000000000006044820152606401610766565b603f81111561329c576040517f08c379a000000000000000000000000000000000000000000000000000000000815260206004820152600b60248201527f564552533a534554573a310000000000000000000000000000000000000000006044820152606401610766565b7ffffffffffffffffffffffffffffffffffffffffffffff8007fffffffffffffff6080909301805160459290921b603f9390931b9190931617179052565b600080600080846132ec5760006132ef565b60805b60ff166132fd87600c6151f3565b613307919061514f565b6060880151901c9050610fff16603f81169350600681901c92508315158061332e57508215155b91505093509350939050565b60ff8116602085015260005b818110156133ca5760005b838110156133b7576133638685613898565b506000613371868385613932565b9050801561339957600061338587836139c7565b505090506133938882613654565b506133a4565b6133a4876000613654565b50806133af81615116565b915050613351565b50806133c281615116565b915050613346565b5060ff821684526000606085018190526080850181905260c0850181905260a0850152612cd5565b60005b835160ff168110156134d057835160ff165b8360ff16811115613463578360ff1681101561342257613463565b61345161343260ff85168361514f565b60408701518490613444908583613a09565b6040890151929190613a33565b8061345b81615230565b915050613407565b5060006134718460016154a4565b60ff1690505b61348183856154a4565b60ff1681116134bd576134ab81836134448760ff16868a60400151613a099092919063ffffffff16565b806134b581615116565b915050613477565b50806134c881615116565b9150506133f5565b5080836000018181516134e391906154a4565b60ff16905250505050565b60005b836020015160ff168110156135c457602084015160ff165b8360ff16811115613557578360ff1681101561352457613557565b6135458261353560ff86168461514f565b6040880151613444908686613a09565b8061354f81615230565b915050613509565b5060006135658460016154a4565b60ff1690505b61357583856154a4565b60ff1681116135b15761359f8282613444858860ff168a60400151613a099092919063ffffffff16565b806135a981615116565b91505061356b565b50806135bc81615116565b9150506134f1565b5080836020018181516134e391906154a4565b60ff80851660608701819052908416608087015260c08601526135fa84836154a4565b60ff16855261360983826154a4565b60ff1660209095019490945250505050565b60006102a1828360000151613898565b60006102a1826060015160ff16836080015160ff168460400151613a099092919063ffffffff16565b612ebb826060015160ff16836080015160ff16838560400151613a33909392919063ffffffff16565b606060008060005b846020015160800151518160ff161015613865576040805160608101825260008082526020808301829052928201529086015160800151805160ff84169081106136d1576136d16150e7565b602002602001015160400151156137c157836136ec816154c9565b9450508560200151608001518260ff168151811061370c5761370c6150e7565b60200260200101519050806020015186606001518360ff1681518110613734576137346150e7565b6020026020010151602001516000019060ff16908160ff1681525050806000015186606001518360ff168151811061376e5761376e6150e7565b6020026020010151602001516020019060ff16908160ff1681525050600186606001518360ff16815181106137a5576137a56150e7565b6020908102919091018101510151901515604090910152613852565b8560200151606001518260ff16815181106137de576137de6150e7565b6020026020010151604001511561385257826137f9816154c9565b935050845160001415613816576138138660400151613a69565b94505b613845868760200151606001518460ff1681518110613837576138376150e7565b602002602001015187613cb4565b9050613852868284613e0a565b508061385d816154c9565b915050613685565b5050505050565b6000816007141561387f575060ff919050565b61388882613103565b61314e9060246153da565b919050565b60008260a00151156139215760608301516138b49060016154a4565b60ff168260ff16116139115760808301516138d09060016154a4565b60ff16836020015160ff1614156138e9575060006102a1565b60c083015160ff16606084015260808301805190613906826154c9565b60ff16905250613929565b60608301805190613906826154c9565b600160a08401525b50600192915050565b6080830151600090603f90811c168161394b82856151f3565b613955908661514f565b60208701515190915061396960408361545a565b106139795760009250505061058d565b61398460408261546e565b61398f9060046151f3565b602087015161399f60408461545a565b815181106139af576139af6150e7565b6020026020010151901c600f16925050509392505050565b6000806000846000015184815181106139e2576139e26150e7565b602002602001015192506139f583611f49565b9150602383901c600f165b90509250925092565b60808301516040840151600091603f90811c1690613a2990858584611eb8565b5095945050505050565b6080840151603f90811c166000613a4a82856151f3565b613a54908661514f565b9050613a61868285614096565b505050505050565b60606000806000613a798561414d565b60408051600580825260c082019092529396509194509250816020015b60408051606081018252600080825260208083018290529282015282527fffffffffffffffffffffffffffffffffffffffffffffffffffffffffffffffff909201910181613a965790505093508084600081518110613af757613af76150e7565b60200260200101819052506040518060600160405280826000015160ff168152602001848360200151613b2a919061577c565b60ff1681526020016001151581525084600181518110613b4c57613b4c6150e7565b602090810291909101015282613b63600282615196565b60ff1615613b795780613b75816154c9565b9150505b6040805160608101909152825160ff16815260208101613b9a600284615482565b8460200151613ba9919061577c565b60ff1681526020016001151581525085600281518110613bcb57613bcb6150e7565b602090810291909101015282613be2600282615196565b60ff1615613bf85780613bf4816154c9565b9150505b6040805160608101909152835160ff16815260208101613c19600284615482565b8560200151613c2891906154a4565b60ff1681526020016001151581525086600381518110613c4a57613c4a6150e7565b60200260200101819052506040518060600160405280846000015160ff168152602001858560200151613c7d91906154a4565b60ff1681526020016001151581525086600481518110613c9f57613c9f6150e7565b60200260200101819052505050505050919050565b604080516060810182526000808252602082018190529181019190915281836000015160ff1681518110613cea57613cea6150e7565b60209081029190910101515160ff908116825283518351849291909116908110613d1657613d166150e7565b60209081029190910181015181015160ff908116838301526001604084015284820151161015613d615782602001518160200151613d54919061577c565b60ff166020820152613d8a565b60208360200151613d72919061577c565b8160200151613d8191906154a4565b60ff1660208201525b805160208201516040808701510151613dab92909160ff9182169116614522565b61058d57806020015160ff1682600081518110613dca57613dca6150e7565b60200260200101516020015160ff161115613dfa5760208101805190613def826154c9565b60ff16905250613d8a565b60208101805190613def826151b8565b6040805160a0810182526000808252602082018190529181018290526060810182905260808101919091525b604084015151613e489060019061577c565b60ff16836000015160ff16108015613e955750613e9581602001516001613e6f91906154a4565b8451613e7b91906154a4565b602085015160408088015101519160ff9081169116614522565b15613eb55760208101805190613eaa826154c9565b60ff16905250613e36565b825160ff1615801590613ee157506040810151613ed39060016154a4565b60ff16836000015160ff1610155b8015613f085750613f0881604001516001613efc91906154a4565b8451613e7b919061577c565b15613f285760408101805190613f1d826154c9565b60ff16905250613eb5565b602083015160ff1615801590613f5757506060810151613f499060016154a4565b60ff16836020015160ff1610155b8015613f99575082516060820151613f999160ff1690613f789060016154a4565b8560200151613f87919061577c565b6040808801510151919060ff16614522565b15613fb95760608101805190613fae826154c9565b60ff16905250613f28565b6001846040015160200151613fce919061577c565b60ff16836020015160ff1610801561400a57508251608082015161400a9160ff1690613ffb9060016154a4565b8560200151613f8791906154a4565b1561402a576080810180519061401f826154c9565b60ff16905250613fb9565b83606001518260ff1681518110614043576140436150e7565b60200260200101516020015160400151612cd55760405180604001604052808281526020018481525084606001518360ff1681518110614085576140856150e7565b602002602001018190525050505050565b6140a160068361545a565b8360400151511115612f8b5760006140cd6140bd60068561546e565b6140c890602a6151f3565b613127565b90506503ffffffffff60ff82161b1960408501516140ec60068661545a565b815181106140fc576140fc6150e7565b6020908102919091010180519091169052604084015160ff821683901b9061412560068661545a565b81518110614135576141356150e7565b60200260200101818151179150818152505050505050565b604080516060810182526000808252602082018190529181018290528190835161417990600290615482565b60ff168152602084015161418f90600290615482565b60ff1660208201526001604082018190529250829150600080808480825b806143cf57821580156141be575083155b92508215614294576142026141d48360016154a4565b88516141e0919061577c565b60ff168a89602001516141f3919061577c565b60408d0151919060ff16614522565b801561422357506142236142178360016154a4565b88516141e091906154a4565b801561425757506142576142388360016154a4565b8851614244919061577c565b60ff168989602001516141f391906154a4565b8015614278575061427861426c8360016154a4565b885161424491906154a4565b1561428f5781614287816154c9565b925050614294565b600193505b856143185760008988602001516142ab919061577c565b60ff161180156142e4575086516142e4906142c790849061577c565b60ff166142d58b60016154a4565b89602001516141f3919061577c565b80156142fc575086516142fc906142c79084906154a4565b15614313578861430b816154c9565b995050614318565b600195505b846143ae5760018a6020015161432e919061577c565b60ff1688886020015161434191906154a4565b60ff1610801561437a5750865161437a9061435d90849061577c565b60ff1661436b8a60016154a4565b89602001516141f391906154a4565b8015614392575086516143929061435d9084906154a4565b156143a957876143a1816154c9565b9850506143ae565b600194505b8480156143b85750855b80156143c15750835b156143ca575060015b6141ad565b8760ff168960ff16146145155760006143e8898b6154a4565b6143f39060016154a4565b9050600060026144038184615196565b60ff161561441b576144168360016154a4565b61441d565b825b6144279190615482565b905060008b60018b602001518461443e91906154a4565b614448919061577c565b614452919061577c565b9050896020015160ff168160ff1611156144ba5760008a6020015182614478919061577c565b9050614484818e6154a4565b9c508060ff168c60ff16116144a55761449d8c8261577c565b9b508b6144b3565b6144af818d61577c565b9b508b5b505061450a565b6000818b602001516144cc919061577c565b90508060ff168d60ff16116144ed576144e58d8261577c565b9c508c6144fb565b6144f7818e61577c565b9c508c5b50614506818d6154a4565b9b50505b60ff1660208a015250505b5050505050509193909250565b600080614530858585613a09565b600716151595945050505050565b6040518060e00160405280600060ff168152602001600060ff16815260200161458f6040518060a0016040528060608152602001606081526020016060815260200160008152602001600081525090565b8152600060208201819052604082018190526060820181905260809091015290565b60405180604001604052806145c461453e565b8152602001606081525090565b6040518060c00160405280600060ff1681526020016145ee614615565b81526020016145fb61453e565b815260606020820181905260006040830181905291015290565b6040805160e081018252600080825260208201529081016146846040805160e0810182526000918101828152606082018390526080820183905260a0820183905260c0820192909252908190815260408051606081018252600080825260208281018290529282015291015290565b8152606060208083018290526040808401839052805160a081018252600080825292810183905290810182905280830182905260808101919091529101906145c4565b7f4e487b7100000000000000000000000000000000000000000000000000000000600052604160045260246000fd5b604051610160810167ffffffffffffffff8111828210171561471a5761471a6146c7565b60405290565b604051601f82017fffffffffffffffffffffffffffffffffffffffffffffffffffffffffffffffe016810167ffffffffffffffff81118282101715614767576147676146c7565b604052919050565b600082601f83011261478057600080fd5b813567ffffffffffffffff81111561479a5761479a6146c7565b6147cb60207fffffffffffffffffffffffffffffffffffffffffffffffffffffffffffffffe0601f84011601614720565b8181528460208386010111156147e057600080fd5b816020850160208301376000918101602001919091529392505050565b60006020828403121561480f57600080fd5b813567ffffffffffffffff81111561482657600080fd5b6148328482850161476f565b949350505050565b60005b8381101561485557818101518382015260200161483d565b83811115612cd55750506000910152565b6000815180845261487e81602086016020860161483a565b601f017fffffffffffffffffffffffffffffffffffffffffffffffffffffffffffffffe0169290920160200192915050565b60208152600061058d6020830184614866565b6000602082840312156148d557600080fd5b5035919050565b600067ffffffffffffffff8211156148f6576148f66146c7565b5060051b60200190565b600082601f83011261491157600080fd5b81356020614926614921836148dc565b614720565b82815260059290921b8401810191818101908684111561494557600080fd5b8286015b848110156149605780358352918301918301614949565b509695505050505050565b60006020828403121561497d57600080fd5b813567ffffffffffffffff81111561499457600080fd5b61483284828501614900565b6020808252825182820181905260009190848201906040850190845b818110156149d8578351835292840192918401916001016149bc565b50909695505050505050565b600080604083850312156149f757600080fd5b823567ffffffffffffffff811115614a0e57600080fd5b614a1a85828601614900565b95602094909401359450505050565b803560ff8116811461389357600080fd5b60008060408385031215614a4d57600080fd5b82359150614a5d60208401614a29565b90509250929050565b803573ffffffffffffffffffffffffffffffffffffffff8116811461389357600080fd5b600082601f830112614a9b57600080fd5b81356020614aab614921836148dc565b82815260059290921b84018101918181019086841115614aca57600080fd5b8286015b8481101561496057614adf81614a29565b8352918301918301614ace565b600082601f830112614afd57600080fd5b81356020614b0d614921836148dc565b82815260059290921b84018101918181019086841115614b2c57600080fd5b8286015b8481101561496057803567ffffffffffffffff811115614b505760008081fd5b614b5e8986838b010161476f565b845250918301918301614b30565b60006101608284031215614b7f57600080fd5b614b876146f6565b90508135815260208201356020820152604082013567ffffffffffffffff80821115614bb257600080fd5b614bbe8583860161476f565b60408401526060840135915080821115614bd757600080fd5b614be38583860161476f565b6060840152614bf460808501614a66565b608084015260a084013560a084015260c0840135915080821115614c1757600080fd5b614c2385838601614a8a565b60c084015260e0840135915080821115614c3c57600080fd5b614c4885838601614a8a565b60e084015261010091508184013581811115614c6357600080fd5b614c6f86828701614a8a565b838501525061012091508184013581811115614c8a57600080fd5b614c9686828701614aec565b838501525061014091508184013581811115614cb157600080fd5b614cbd8682870161476f565b8385015250505092915050565b600080600060608486031215614cdf57600080fd5b833567ffffffffffffffff80821115614cf757600080fd5b614d0387838801614b6c565b94506020860135915080821115614d1957600080fd5b50614d2686828701614900565b925050613a0060408501614a29565b600082601f830112614d4657600080fd5b81356020614d56614921836148dc565b82815260059290921b84018101918181019086841115614d7557600080fd5b8286015b8481101561496057803567ffffffffffffffff811115614d995760008081fd5b614da78986838b0101614900565b845250918301918301614d79565b600080600060608486031215614dca57600080fd5b833567ffffffffffffffff80821115614de257600080fd5b614dee87838801614d35565b94506020860135915080821115614e0457600080fd5b614e1087838801614a8a565b93506040860135915080821115614e2657600080fd5b50614e3386828701614a8a565b9150509250925092565b600081518084526020808501945080840160005b83811015614e6d57815187529582019590820190600101614e51565b509495945050505050565b60006020808301818452808551808352604092508286019150828160051b87010184880160005b83811015614f9d578883037fffffffffffffffffffffffffffffffffffffffffffffffffffffffffffffffc0018552815180518085529088019088850190600581901b86018a0160005b82811015614f87577fffffffffffffffffffffffffffffffffffffffffffffffffffffffffffffffe0888303018452845160a08151818552614f2d82860182614e3d565b9150508d8201518482038f860152614f458282614e3d565b9150508c8201518482038e860152614f5d8282614e3d565b6060848101519087015260809384015193909501929092525050938b0193928b0192600101614ee9565b50978a0197955050509187019150600101614e9f565b509098975050505050505050565b600080600060608486031215614fc057600080fd5b833567ffffffffffffffff80821115614fd857600080fd5b614fe487838801614d35565b94506020860135915080821115614ffa57600080fd5b50614d2686828701614b6c565b6000835161501981846020880161483a565b83519083019061502d81836020880161483a565b01949350505050565b7f646174613a696d6167652f7376672b786d6c3b636861727365743d5554462d3881527f2c0000000000000000000000000000000000000000000000000000000000000060208201526000825161509481602185016020870161483a565b9190910160210192915050565b7f4e487b7100000000000000000000000000000000000000000000000000000000600052601160045260246000fd5b6000828210156150e2576150e26150a1565b500390565b7f4e487b7100000000000000000000000000000000000000000000000000000000600052603260045260246000fd5b60007fffffffffffffffffffffffffffffffffffffffffffffffffffffffffffffffff821415615148576151486150a1565b5060010190565b60008219821115615162576151626150a1565b500190565b7f4e487b7100000000000000000000000000000000000000000000000000000000600052601260045260246000fd5b600060ff8316806151a9576151a9615167565b8060ff84160691505092915050565b600060ff8216806151cb576151cb6150a1565b7fffffffffffffffffffffffffffffffffffffffffffffffffffffffffffffffff0192915050565b6000817fffffffffffffffffffffffffffffffffffffffffffffffffffffffffffffffff048311821515161561522b5761522b6150a1565b500290565b60008161523f5761523f6150a1565b507fffffffffffffffffffffffffffffffffffffffffffffffffffffffffffffffff0190565b7f3c73766720426f783d273020302000000000000000000000000000000000000081526000855161529d81600e850160208a0161483a565b7f2000000000000000000000000000000000000000000000000000000000000000600e9184019182015285516152da81600f840160208a0161483a565b7f272077696474683d270000000000000000000000000000000000000000000000600f9290910191820152845161531881601884016020890161483a565b7f27206865696768743d270000000000000000000000000000000000000000000060189290910191820152835161535681602284016020880161483a565b7f2720786d6c6e733d27687474703a2f2f7777772e77332e6f72672f323030302f602292909101918201527f7376672720786d6c6e733a786c696e6b3d27687474703a2f2f7777772e77332e60428201527f6f72672f313939392f786c696e6b273e0000000000000000000000000000000060628201526072019695505050505050565b600060ff821660ff84168160ff04811182151516156153fb576153fb6150a1565b029392505050565b60008551615415818460208a0161483a565b855190830190615429818360208a0161483a565b855191019061543c81836020890161483a565b845191019061544f81836020880161483a565b019695505050505050565b60008261546957615469615167565b500490565b60008261547d5761547d615167565b500690565b600060ff83168061549557615495615167565b8060ff84160491505092915050565b600060ff821660ff84168060ff038211156154c1576154c16150a1565b019392505050565b600060ff821660ff8114156154e0576154e06150a1565b60010192915050565b7f3c726563742066696c6c3d27230000000000000000000000000000000000000081526000865161552181600d850160208b0161483a565b7f2720783d27000000000000000000000000000000000000000000000000000000600d91840191820152865161555e816012840160208b0161483a565b7f2720793d2700000000000000000000000000000000000000000000000000000060129290910191820152855161559c816017840160208a0161483a565b7f27206865696768743d27000000000000000000000000000000000000000000006017929091019182015284516155da81602184016020890161483a565b7f272077696474683d27000000000000000000000000000000000000000000000060219290910191820152835161561881602a84016020880161483a565b61564a602a828401017f272f3e0000000000000000000000000000000000000000000000000000000000815260030190565b9998505050505050505050565b7f3c7465787420783d2231302220793d2232302220666f6e742d66616d696c793d8152600060207f226d6f6e6f73706163652220666f6e742d73697a653d22323070782220737479818401527f6c653d2266696c6c3a626c61636b3b223e4d657461646174613a0000000000006040840152605a88516156dc81838701858d0161483a565b8851908501906156f181848401868d0161483a565b885191019061570581848401868c0161483a565b875191019061571981848401868b0161483a565b865191019061572d81848401868a0161483a565b010198975050505050505050565b6000825161574d81846020870161483a565b7f3c2f746578743e00000000000000000000000000000000000000000000000000920191825250600701919050565b600060ff821660ff841680821015615796576157966150a1565b90039392505050565b7f3c747370616e20783d22000000000000000000000000000000000000000000008152600085516157d781600a850160208a0161483a565b7f2220793d22000000000000000000000000000000000000000000000000000000600a91840191820152855161581481600f840160208a0161483a565b7f223e000000000000000000000000000000000000000000000000000000000000600f92909101918201527f3c747370616e207374796c653d22666f6e742d7765696768743a626f6c643b2260118201527f3e000000000000000000000000000000000000000000000000000000000000006031820152845161589e81603284016020890161483a565b7f3a3c2f747370616e3e20000000000000000000000000000000000000000000006032929091019182015283516158dc81603c84016020880161483a565b61590e603c828401017f3c2f747370616e3e000000000000000000000000000000000000000000000000815260080190565b9897505050505050505056fe4142434445464748494a4b4c4d4e4f505152535455565758595a6162636465666768696a6b6c6d6e6f707172737475767778797a303132333435363738392b2fa26469706673582212204eea5b8fdfd7a4d135b825e8217eca41f2f1a74b4aaf4027cdd4392125d1b17f64736f6c63430008090033",
  "devdoc": {
    "author": "nugg.xyz - danny7even & dub6ix",
    "details": "hold my margarita",
    "kind": "dev",
    "methods": {},
    "title": "dotnugg V1 - onchain encoder/decoder protocol for dotnugg files",
    "version": 1
  },
  "userdoc": {
    "kind": "user",
    "methods": {},
    "notice": "yoU CAN'T HaVe ImAgES oN THe BlOCkcHAIn",
    "version": 1
  },
  "storageLayout": {
    "storage": [
      {
        "astId": 9332,
        "contract": "src/DotnuggV1.sol:DotnuggV1",
        "label": "sstore2Pointers",
        "offset": 0,
        "slot": "0",
        "type": "t_mapping(t_address,t_mapping(t_uint8,t_array(t_uint168)dyn_storage))"
      },
      {
        "astId": 9338,
        "contract": "src/DotnuggV1.sol:DotnuggV1",
        "label": "featureLengths",
        "offset": 0,
        "slot": "1",
        "type": "t_mapping(t_address,t_mapping(t_uint8,t_uint8))"
      },
      {
        "astId": 1702,
        "contract": "src/DotnuggV1.sol:DotnuggV1",
        "label": "lib",
        "offset": 0,
        "slot": "2",
        "type": "t_contract(DotnuggV1Lib)9309"
      }
    ],
    "types": {
      "t_address": {
        "encoding": "inplace",
        "label": "address",
        "numberOfBytes": "20"
      },
      "t_array(t_uint168)dyn_storage": {
        "base": "t_uint168",
        "encoding": "dynamic_array",
        "label": "uint168[]",
        "numberOfBytes": "32"
      },
      "t_contract(DotnuggV1Lib)9309": {
        "encoding": "inplace",
        "label": "contract DotnuggV1Lib",
        "numberOfBytes": "20"
      },
      "t_mapping(t_address,t_mapping(t_uint8,t_array(t_uint168)dyn_storage))": {
        "encoding": "mapping",
        "key": "t_address",
        "label": "mapping(address => mapping(uint8 => uint168[]))",
        "numberOfBytes": "32",
        "value": "t_mapping(t_uint8,t_array(t_uint168)dyn_storage)"
      },
      "t_mapping(t_address,t_mapping(t_uint8,t_uint8))": {
        "encoding": "mapping",
        "key": "t_address",
        "label": "mapping(address => mapping(uint8 => uint8))",
        "numberOfBytes": "32",
        "value": "t_mapping(t_uint8,t_uint8)"
      },
      "t_mapping(t_uint8,t_array(t_uint168)dyn_storage)": {
        "encoding": "mapping",
        "key": "t_uint8",
        "label": "mapping(uint8 => uint168[])",
        "numberOfBytes": "32",
        "value": "t_array(t_uint168)dyn_storage"
      },
      "t_mapping(t_uint8,t_uint8)": {
        "encoding": "mapping",
        "key": "t_uint8",
        "label": "mapping(uint8 => uint8)",
        "numberOfBytes": "32",
        "value": "t_uint8"
      },
      "t_uint168": {
        "encoding": "inplace",
        "label": "uint168",
        "numberOfBytes": "21"
      },
      "t_uint8": {
        "encoding": "inplace",
        "label": "uint8",
        "numberOfBytes": "1"
      }
    }
  }
}