{
  "address": "0x0c865E650E2B5598AFFA09fB9D505635b0b8E007",
  "abi": [
    {
      "inputs": [
        {
          "internalType": "address",
          "name": "implementer",
          "type": "address"
        },
        {
          "internalType": "uint256",
          "name": "tokenId",
          "type": "uint256"
        },
        {
          "internalType": "address",
          "name": "resolver",
          "type": "address"
        },
        {
          "internalType": "uint8",
          "name": "width",
          "type": "uint8"
        },
        {
          "internalType": "uint8",
          "name": "zoom",
          "type": "uint8"
        }
      ],
      "name": "dotnuggToBytes",
      "outputs": [
        {
          "internalType": "bytes",
          "name": "res",
          "type": "bytes"
        }
      ],
      "stateMutability": "view",
      "type": "function"
    },
    {
      "inputs": [
        {
          "internalType": "address",
          "name": "implementer",
          "type": "address"
        },
        {
          "internalType": "uint256",
          "name": "tokenId",
          "type": "uint256"
        },
        {
          "internalType": "address",
          "name": "resolver",
          "type": "address"
        },
        {
          "internalType": "uint8",
          "name": "width",
          "type": "uint8"
        },
        {
          "internalType": "uint8",
          "name": "zoom",
          "type": "uint8"
        }
      ],
      "name": "dotnuggToData",
      "outputs": [
        {
          "components": [
            {
              "internalType": "uint256",
              "name": "version",
              "type": "uint256"
            },
            {
              "internalType": "uint256",
              "name": "renderedAt",
              "type": "uint256"
            },
            {
              "internalType": "string",
              "name": "name",
              "type": "string"
            },
            {
              "internalType": "string",
              "name": "desc",
              "type": "string"
            },
            {
              "internalType": "address",
              "name": "owner",
              "type": "address"
            },
            {
              "internalType": "uint256",
              "name": "tokenId",
              "type": "uint256"
            },
            {
              "internalType": "uint256",
              "name": "proof",
              "type": "uint256"
            },
            {
              "internalType": "uint8[]",
              "name": "ids",
              "type": "uint8[]"
            },
            {
              "internalType": "uint8[]",
              "name": "extras",
              "type": "uint8[]"
            },
            {
              "internalType": "uint8[]",
              "name": "xovers",
              "type": "uint8[]"
            },
            {
              "internalType": "uint8[]",
              "name": "yovers",
              "type": "uint8[]"
            }
          ],
          "internalType": "struct IDotnuggV1Data.Data",
          "name": "res",
          "type": "tuple"
        }
      ],
      "stateMutability": "view",
      "type": "function"
    },
    {
      "inputs": [
        {
          "internalType": "address",
          "name": "implementer",
          "type": "address"
        },
        {
          "internalType": "uint256",
          "name": "tokenId",
          "type": "uint256"
        },
        {
          "internalType": "address",
          "name": "resolver",
          "type": "address"
        },
        {
          "internalType": "uint8",
          "name": "width",
          "type": "uint8"
        },
        {
          "internalType": "uint8",
          "name": "zoom",
          "type": "uint8"
        }
      ],
      "name": "dotnuggToRaw",
      "outputs": [
        {
          "internalType": "uint256[]",
          "name": "res",
          "type": "uint256[]"
        }
      ],
      "stateMutability": "view",
      "type": "function"
    },
    {
      "inputs": [
        {
          "internalType": "address",
          "name": "implementer",
          "type": "address"
        },
        {
          "internalType": "uint256",
          "name": "tokenId",
          "type": "uint256"
        },
        {
          "internalType": "address",
          "name": "resolver",
          "type": "address"
        },
        {
          "internalType": "uint8",
          "name": "width",
          "type": "uint8"
        },
        {
          "internalType": "uint8",
          "name": "zoom",
          "type": "uint8"
        }
      ],
      "name": "dotnuggToString",
      "outputs": [
        {
          "internalType": "string",
          "name": "res",
          "type": "string"
        }
      ],
      "stateMutability": "view",
      "type": "function"
    },
    {
      "inputs": [
        {
          "internalType": "address",
          "name": "implementer",
          "type": "address"
        },
        {
          "internalType": "uint256",
          "name": "tokenId",
          "type": "uint256"
        },
        {
          "internalType": "uint8",
          "name": "width",
          "type": "uint8"
        }
      ],
      "name": "process",
      "outputs": [
        {
          "internalType": "uint256[]",
          "name": "resp",
          "type": "uint256[]"
        },
        {
          "components": [
            {
              "internalType": "uint256",
              "name": "version",
              "type": "uint256"
            },
            {
              "internalType": "uint256",
              "name": "renderedAt",
              "type": "uint256"
            },
            {
              "internalType": "string",
              "name": "name",
              "type": "string"
            },
            {
              "internalType": "string",
              "name": "desc",
              "type": "string"
            },
            {
              "internalType": "address",
              "name": "owner",
              "type": "address"
            },
            {
              "internalType": "uint256",
              "name": "tokenId",
              "type": "uint256"
            },
            {
              "internalType": "uint256",
              "name": "proof",
              "type": "uint256"
            },
            {
              "internalType": "uint8[]",
              "name": "ids",
              "type": "uint8[]"
            },
            {
              "internalType": "uint8[]",
              "name": "extras",
              "type": "uint8[]"
            },
            {
              "internalType": "uint8[]",
              "name": "xovers",
              "type": "uint8[]"
            },
            {
              "internalType": "uint8[]",
              "name": "yovers",
              "type": "uint8[]"
            }
          ],
          "internalType": "struct IDotnuggV1Data.Data",
          "name": "dat",
          "type": "tuple"
        }
      ],
      "stateMutability": "view",
      "type": "function"
    },
    {
      "inputs": [
        {
          "internalType": "uint256[][]",
          "name": "files",
          "type": "uint256[][]"
        },
        {
          "components": [
            {
              "internalType": "uint256",
              "name": "version",
              "type": "uint256"
            },
            {
              "internalType": "uint256",
              "name": "renderedAt",
              "type": "uint256"
            },
            {
              "internalType": "string",
              "name": "name",
              "type": "string"
            },
            {
              "internalType": "string",
              "name": "desc",
              "type": "string"
            },
            {
              "internalType": "address",
              "name": "owner",
              "type": "address"
            },
            {
              "internalType": "uint256",
              "name": "tokenId",
              "type": "uint256"
            },
            {
              "internalType": "uint256",
              "name": "proof",
              "type": "uint256"
            },
            {
              "internalType": "uint8[]",
              "name": "ids",
              "type": "uint8[]"
            },
            {
              "internalType": "uint8[]",
              "name": "extras",
              "type": "uint8[]"
            },
            {
              "internalType": "uint8[]",
              "name": "xovers",
              "type": "uint8[]"
            },
            {
              "internalType": "uint8[]",
              "name": "yovers",
              "type": "uint8[]"
            }
          ],
          "internalType": "struct IDotnuggV1Data.Data",
          "name": "data",
          "type": "tuple"
        },
        {
          "internalType": "uint8",
          "name": "width",
          "type": "uint8"
        }
      ],
      "name": "processCore",
      "outputs": [
        {
          "internalType": "uint256[]",
          "name": "resp",
          "type": "uint256[]"
        }
      ],
      "stateMutability": "view",
      "type": "function"
    },
    {
      "inputs": [
        {
          "internalType": "uint256[]",
          "name": "file",
          "type": "uint256[]"
        },
        {
          "components": [
            {
              "internalType": "uint256",
              "name": "version",
              "type": "uint256"
            },
            {
              "internalType": "uint256",
              "name": "renderedAt",
              "type": "uint256"
            },
            {
              "internalType": "string",
              "name": "name",
              "type": "string"
            },
            {
              "internalType": "string",
              "name": "desc",
              "type": "string"
            },
            {
              "internalType": "address",
              "name": "owner",
              "type": "address"
            },
            {
              "internalType": "uint256",
              "name": "tokenId",
              "type": "uint256"
            },
            {
              "internalType": "uint256",
              "name": "proof",
              "type": "uint256"
            },
            {
              "internalType": "uint8[]",
              "name": "ids",
              "type": "uint8[]"
            },
            {
              "internalType": "uint8[]",
              "name": "extras",
              "type": "uint8[]"
            },
            {
              "internalType": "uint8[]",
              "name": "xovers",
              "type": "uint8[]"
            },
            {
              "internalType": "uint8[]",
              "name": "yovers",
              "type": "uint8[]"
            }
          ],
          "internalType": "struct IDotnuggV1Data.Data",
          "name": "data",
          "type": "tuple"
        },
        {
          "internalType": "uint8",
          "name": "",
          "type": "uint8"
        }
      ],
      "name": "resolveBytes",
      "outputs": [
        {
          "internalType": "bytes",
          "name": "res",
          "type": "bytes"
        }
      ],
      "stateMutability": "pure",
      "type": "function"
    },
    {
      "inputs": [
        {
          "internalType": "uint256[]",
          "name": "",
          "type": "uint256[]"
        },
        {
          "components": [
            {
              "internalType": "uint256",
              "name": "version",
              "type": "uint256"
            },
            {
              "internalType": "uint256",
              "name": "renderedAt",
              "type": "uint256"
            },
            {
              "internalType": "string",
              "name": "name",
              "type": "string"
            },
            {
              "internalType": "string",
              "name": "desc",
              "type": "string"
            },
            {
              "internalType": "address",
              "name": "owner",
              "type": "address"
            },
            {
              "internalType": "uint256",
              "name": "tokenId",
              "type": "uint256"
            },
            {
              "internalType": "uint256",
              "name": "proof",
              "type": "uint256"
            },
            {
              "internalType": "uint8[]",
              "name": "ids",
              "type": "uint8[]"
            },
            {
              "internalType": "uint8[]",
              "name": "extras",
              "type": "uint8[]"
            },
            {
              "internalType": "uint8[]",
              "name": "xovers",
              "type": "uint8[]"
            },
            {
              "internalType": "uint8[]",
              "name": "yovers",
              "type": "uint8[]"
            }
          ],
          "internalType": "struct IDotnuggV1Data.Data",
          "name": "data",
          "type": "tuple"
        },
        {
          "internalType": "uint8",
          "name": "",
          "type": "uint8"
        }
      ],
      "name": "resolveData",
      "outputs": [
        {
          "components": [
            {
              "internalType": "uint256",
              "name": "version",
              "type": "uint256"
            },
            {
              "internalType": "uint256",
              "name": "renderedAt",
              "type": "uint256"
            },
            {
              "internalType": "string",
              "name": "name",
              "type": "string"
            },
            {
              "internalType": "string",
              "name": "desc",
              "type": "string"
            },
            {
              "internalType": "address",
              "name": "owner",
              "type": "address"
            },
            {
              "internalType": "uint256",
              "name": "tokenId",
              "type": "uint256"
            },
            {
              "internalType": "uint256",
              "name": "proof",
              "type": "uint256"
            },
            {
              "internalType": "uint8[]",
              "name": "ids",
              "type": "uint8[]"
            },
            {
              "internalType": "uint8[]",
              "name": "extras",
              "type": "uint8[]"
            },
            {
              "internalType": "uint8[]",
              "name": "xovers",
              "type": "uint8[]"
            },
            {
              "internalType": "uint8[]",
              "name": "yovers",
              "type": "uint8[]"
            }
          ],
          "internalType": "struct IDotnuggV1Data.Data",
          "name": "res",
          "type": "tuple"
        }
      ],
      "stateMutability": "pure",
      "type": "function"
    },
    {
      "inputs": [
        {
          "internalType": "uint256[]",
          "name": "file",
          "type": "uint256[]"
        },
        {
          "components": [
            {
              "internalType": "uint256",
              "name": "version",
              "type": "uint256"
            },
            {
              "internalType": "uint256",
              "name": "renderedAt",
              "type": "uint256"
            },
            {
              "internalType": "string",
              "name": "name",
              "type": "string"
            },
            {
              "internalType": "string",
              "name": "desc",
              "type": "string"
            },
            {
              "internalType": "address",
              "name": "owner",
              "type": "address"
            },
            {
              "internalType": "uint256",
              "name": "tokenId",
              "type": "uint256"
            },
            {
              "internalType": "uint256",
              "name": "proof",
              "type": "uint256"
            },
            {
              "internalType": "uint8[]",
              "name": "ids",
              "type": "uint8[]"
            },
            {
              "internalType": "uint8[]",
              "name": "extras",
              "type": "uint8[]"
            },
            {
              "internalType": "uint8[]",
              "name": "xovers",
              "type": "uint8[]"
            },
            {
              "internalType": "uint8[]",
              "name": "yovers",
              "type": "uint8[]"
            }
          ],
          "internalType": "struct IDotnuggV1Data.Data",
          "name": "",
          "type": "tuple"
        },
        {
          "internalType": "uint8",
          "name": "",
          "type": "uint8"
        }
      ],
      "name": "resolveRaw",
      "outputs": [
        {
          "internalType": "uint256[]",
          "name": "res",
          "type": "uint256[]"
        }
      ],
      "stateMutability": "pure",
      "type": "function"
    },
    {
      "inputs": [
        {
          "internalType": "uint256[]",
          "name": "file",
          "type": "uint256[]"
        },
        {
          "components": [
            {
              "internalType": "uint256",
              "name": "version",
              "type": "uint256"
            },
            {
              "internalType": "uint256",
              "name": "renderedAt",
              "type": "uint256"
            },
            {
              "internalType": "string",
              "name": "name",
              "type": "string"
            },
            {
              "internalType": "string",
              "name": "desc",
              "type": "string"
            },
            {
              "internalType": "address",
              "name": "owner",
              "type": "address"
            },
            {
              "internalType": "uint256",
              "name": "tokenId",
              "type": "uint256"
            },
            {
              "internalType": "uint256",
              "name": "proof",
              "type": "uint256"
            },
            {
              "internalType": "uint8[]",
              "name": "ids",
              "type": "uint8[]"
            },
            {
              "internalType": "uint8[]",
              "name": "extras",
              "type": "uint8[]"
            },
            {
              "internalType": "uint8[]",
              "name": "xovers",
              "type": "uint8[]"
            },
            {
              "internalType": "uint8[]",
              "name": "yovers",
              "type": "uint8[]"
            }
          ],
          "internalType": "struct IDotnuggV1Data.Data",
          "name": "data",
          "type": "tuple"
        },
        {
          "internalType": "uint8",
          "name": "zoom",
          "type": "uint8"
        }
      ],
      "name": "resolveString",
      "outputs": [
        {
          "internalType": "string",
          "name": "",
          "type": "string"
        }
      ],
      "stateMutability": "view",
      "type": "function"
    },
    {
      "inputs": [
        {
          "internalType": "uint8",
          "name": "feature",
          "type": "uint8"
        },
        {
          "internalType": "uint256[][]",
          "name": "data",
          "type": "uint256[][]"
        }
      ],
      "name": "storeFiles",
      "outputs": [
        {
          "internalType": "uint8",
          "name": "res",
          "type": "uint8"
        }
      ],
      "stateMutability": "nonpayable",
      "type": "function"
    },
    {
      "inputs": [
        {
          "internalType": "address",
          "name": "implementer",
          "type": "address"
        },
        {
          "internalType": "uint8",
          "name": "feature",
          "type": "uint8"
        }
      ],
      "name": "totalStoredFiles",
      "outputs": [
        {
          "internalType": "uint8",
          "name": "res",
          "type": "uint8"
        }
      ],
      "stateMutability": "view",
      "type": "function"
    }
  ],
  "transactionHash": "0x2c5e7dbd362935ab68653c3eb4c7118e3a77b5d3a5dde8fd3793c4445d8d055d",
  "args": [],
  "solcInputHash": "d7de6b3da1b0b2f6ff65f633f11e2703",
  "bytecode": "0x608060405234801561001057600080fd5b506157e780620000216000396000f3fe608060405234801561001057600080fd5b50600436106100a45760003560e01c80630decbeec146100a9578063191adaf8146100d25780632b4383b3146100e55780634796cd7814610105578063581ee1d6146101265780635edd57e31461013b5780636b380df41461014e5780639cd7d0071461016e578063beca7d9714610181578063d7e9383214610194578063e60bf69b146101b9578063f72e5c74146101cc575b600080fd5b6100bc6100b73660046149e0565b6101df565b6040516100c99190614aaf565b60405180910390f35b6100bc6100e0366004614ac2565b610366565b6100f86100f3366004614b2a565b61040b565b6040516100c99190614c3f565b610118610113366004614c52565b6104f6565b6040516100c9929190614d9c565b6100f86101343660046149e0565b5090919050565b6100bc610149366004614ac2565b6105ad565b61016161015c366004614ac2565b610646565b6040516100c99190614dca565b6100f861017c366004614ac2565b6106e5565b61016161018f3660046149e0565b6107a3565b6101a76101a2366004614ddd565b6107b3565b60405160ff90911681526020016100c9565b6100bc6101c73660046149e0565b6107e3565b6101a76101da366004614e16565b610810565b606060006101ed6006610920565b603f86600188516101fe9190614eb3565b8151811061020e5761020e614eca565b6020026020010151901c16905060006102276006610920565b604587600189516102389190614eb3565b8151811061024857610248614eca565b6020026020010151901c16905060006040518060400160405280601d81526020017f646174613a6170706c69636174696f6e2f6a736f6e3b6261736536342c000000815250610338876040015188606001516040518060400160405280601a81526020017919185d184e9a5b5859d94bdcdd99cade1b5b0ed8985cd94d8d0b60321b8152506102da8b6000015161092b565b6102e78c60a0015161092b565b6102f68d60c001516020610936565b61030e8e608001516001600160a01b03166014610936565b6040516020016103249796959493929190614efc565b604051602081830303815290604052610ad1565b604051602001610349929190615042565b60408051601f1981840301815291905293505050505b9392505050565b60606000806103768888876104f6565b60405163037b2fbb60e21b815291935091506001600160a01b03871690630decbeec906103ab90859085908990600401615071565b60006040518083038186803b1580156103c357600080fd5b505afa1580156103d7573d6000803e3d6000fd5b505050506040513d6000823e601f3d908101601f191682016040526103ff91908101906150fa565b98975050505050505050565b81516060906001146104495760405162461bcd60e51b8152602060048201526002602482015261563160f01b60448201526064015b60405180910390fd5b60408260ff1611158015610460575060048260ff16115b6104965760405162461bcd60e51b815260206004820152600760248201526656313a53495a4560c81b6044820152606401610440565b6104a160028361514c565b60ff166104b657816104b28161516e565b9250505b60006104cd85856101200151866101400151610c38565b905060006104dd60088584610f55565b90506104ec81604001516111c3565b9695505050505050565b60606105006144a7565b604051635e983d4f60e01b8152600481018590526000906001600160a01b03871690635e983d4f9060240160006040518083038186803b15801561054357600080fd5b505afa158015610557573d6000803e3d6000fd5b505050506040513d6000823e601f3d908101601f1916820160405261057f91908101906151fa565b90506000610591878360e00151611369565b90508192506105a181838761040b565b93505050935093915050565b60606000806105bd8888876104f6565b60405163e60bf69b60e01b815291935091506001600160a01b0387169063e60bf69b906105f290859085908990600401615071565b60006040518083038186803b15801561060a57600080fd5b505afa15801561061e573d6000803e3d6000fd5b505050506040513d6000823e601f3d908101601f191682016040526103ff919081019061535c565b61064e6144a7565b60008061065c8888876104f6565b60405163beca7d9760e01b815291935091506001600160a01b0387169063beca7d979061069190859085908990600401615071565b60006040518083038186803b1580156106a957600080fd5b505afa1580156106bd573d6000803e3d6000fd5b505050506040513d6000823e601f3d908101601f191682016040526103ff91908101906151fa565b60606000806106f58888876104f6565b90925090506001600160a01b0386161561079457604051632c0f70eb60e11b81526001600160a01b0387169063581ee1d69061073990869085908990600401615071565b60006040518083038186803b15801561075157600080fd5b505afa158015610765573d6000803e3d6000fd5b505050506040513d6000823e601f3d908101601f1916820160405261078d91908101906153ff565b9250610798565b8192505b505095945050505050565b6107ab6144a7565b509092915050565b6001600160a01b038216600090815260016020908152604080832060ff8086168552925290912054165b92915050565b606083836040516020016107f8929190614d9c565b60405160208183030381529060405290509392505050565b60008061081c83611488565b905060008160ff16116108575760405162461bcd60e51b81526020600482015260036024820152620463a360ec1b6044820152606401610440565b6000610883858560405160200161086f929190615469565b60405160208183030381529060405261149c565b3360008181526020818152604080832060ff808d168086529184528285208054600181810183559187528587200180546001600160a81b0319166001600160a01b038a1660ff60a01b60a08e901b161717905595855294835281842090845290915281208054939450859390926108fc91859116615506565b92506101000a81548160ff021916908360ff16021790555081925050509392505050565b6001901b6000190190565b60606107dd82611544565b6060600061094583600261552b565b61095090600261554a565b6001600160401b038111156109675761096761468b565b6040519080825280601f01601f191660200182016040528015610991576020820181803683370190505b509050600360fc1b816000815181106109ac576109ac614eca565b60200101906001600160f81b031916908160001a905350600f60fb1b816001815181106109db576109db614eca565b60200101906001600160f81b031916908160001a90535060006109ff84600261552b565b610a0a90600161554a565b90505b6001811115610a82576f181899199a1a9b1b9c1cb0b131b232b360811b85600f1660108110610a3e57610a3e614eca565b1a60f81b828281518110610a5457610a54614eca565b60200101906001600160f81b031916908160001a90535060049490941c93610a7b81615562565b9050610a0d565b50831561035f5760405162461bcd60e51b815260206004820181905260248201527f537472696e67733a20686578206c656e67746820696e73756666696369656e746044820152606401610440565b6060815160001415610af157505060408051602081019091526000815290565b60006040518060600160405280604081526020016157726040913990506000600384516002610b20919061554a565b610b2a9190615579565b610b3590600461552b565b90506000610b4482602061554a565b6001600160401b03811115610b5b57610b5b61468b565b6040519080825280601f01601f191660200182016040528015610b85576020820181803683370190505b509050818152600183018586518101602084015b81831015610bf35760039283018051603f601282901c811687015160f890811b8552600c83901c8216880151811b6001860152600683901c8216880151811b60028601529116860151901b93820193909352600401610b99565b600389510660018114610c0d5760028114610c1e57610c2a565b613d3d60f01b600119830152610c2a565b603d60f81b6000198301525b509398975050505050505050565b606083516001600160401b03811115610c5357610c5361468b565b604051908082528060200260200182016040528015610c8657816020015b6060815260200190600190039081610c715790505b50905060005b8451811015610f4d57600080610cba878481518110610cad57610cad614eca565b602002602001015161163f565b915091508115610ccb575050610f3b565b610cd6816020611737565b634206900114610d135760405162461bcd60e51b815260206004820152600860248201526704445433a50493a360c41b6044820152606401610440565b6000610d20826003611737565b90506000610d2f836008611737565b90506000610d3e84838561190c565b90506000610d4d856002611737565b610d5890600161554a565b9050806001600160401b03811115610d7257610d7261468b565b604051908082528060200260200182016040528015610dab57816020015b610d9861450a565b815260200190600190039081610d905790505b50888881518110610dbe57610dbe614eca565b602002602001018190525060005b81811015610f3357610de086868d8d611a90565b898981518110610df257610df2614eca565b60200260200101518281518110610e0b57610e0b614eca565b60200260200101516080018181525050610e2486611c11565b898981518110610e3657610e36614eca565b60200260200101518281518110610e4f57610e4f614eca565b60200260200101516060018181525050600080610e9d8b8b81518110610e7757610e77614eca565b60200260200101518481518110610e9057610e90614eca565b6020026020010151611cf6565b91509150610eac888383611d29565b8b8b81518110610ebe57610ebe614eca565b60200260200101518481518110610ed757610ed7614eca565b602002602001015160200181905250848b8b81518110610ef957610ef9614eca565b60200260200101518481518110610f1257610f12614eca565b60209081029190910101515250819050610f2b8161558d565b915050610dcc565b505050505050505b80610f458161558d565b915050610c8c565b509392505050565b610f5d614539565b610f6561457a565b610f6f8485611ebe565b8152846001600160401b03811115610f8957610f8961468b565b604051908082528060200260200182016040528015610fc257816020015b610faf61459a565b815260200190600190039081610fa75790505b506020820152610fd06145bf565b610fdb6002866155a8565b610fe6906001615506565b60ff168152610ff66002866155a8565b611001906001615506565b60ff166020820152600160408201526110186145df565b60005b878160ff1610156110725760405180604001604052808381526020018481525084602001518260ff168151811061105457611054614eca565b6020026020010181905250808061106a906155ca565b91505061101b565b50825160ff87169081905283516020015261108b61460d565b6110958788611ebe565b6040820152876001600160401b038111156110b2576110b261468b565b6040519080825280602002602001820160405280156110eb57816020015b6110d861459a565b8152602001906001900390816110d05790505b50606082015260005b86518160ff1610156111b5576000878260ff168151811061111757611117614eca565b60200260200101515111156111a35761117282888360ff168151811061113f5761113f614eca565b602002602001015161116d888b8660ff168151811061116057611160614eca565b6020026020010151611f4c565b6120ec565b61117c8583612625565b611186858361292e565b6111908583612a12565b61119982612abd565b6111a38583612ac9565b806111ad816155ca565b9150506110f4565b505091519695505050505050565b60608160400151516001600160401b038111156111e2576111e261468b565b60405190808252806020026020018201604052801561120b578160200160208202803683370190505b50905060008060005b8460400151838151811061122a5761122a614eca565b60200260200101516000141561124c57806112448161558d565b9150506112da565b600e81111561128957600f600482901b1784836112688161558d565b94508151811061127a5761127a614eca565b60209081029190910101525060005b806004866040015185815181106112a2576112a2614eca565b6020026020010151901b178483806112b99061558d565b9450815181106112cb576112cb614eca565b60209081029190910101525060005b6040850151516112e98461558d565b9350831061121457600e81111561132e57600f600482901b17848361130d8161558d565b94508151811061131f5761131f614eca565b60209081029190910101525060005b608085015160041b811784836113438161558d565b94508151811061135557611355614eca565b602090810291909101015250825250919050565b606081516001600160401b038111156113845761138461468b565b6040519080825280602002602001820160405280156113b757816020015b60608152602001906001900390816113a25790505b50905060005b82518160ff16101561148157828160ff16815181106113de576113de614eca565b602002602001015160ff1660001415611427576040805160008152602081019091528251839060ff841690811061141757611417614eca565b602002602001018190525061146f565b61144e8482858460ff168151811061144157611441614eca565b6020026020010151612b8e565b828260ff168151811061146357611463614eca565b60200260200101819052505b80611479816155ca565b9150506113bd565b5092915050565b600060ff82111561149857600080fd5b5090565b600080826040516020016114b091906155ea565b604051602081830303815290604052905060008151826040516020016114d7929190615610565b60405160208183030381529060405290508051602082016000f092506001600160a01b03831661153d5760405162461bcd60e51b81526020600482015260116024820152701111541313d65351539517d19052531151607a1b6044820152606401610440565b5050919050565b6060816115685750506040805180820190915260018152600360fc1b602082015290565b8160005b8115611592578061157c8161558d565b915061158b9050600a83615579565b915061156c565b806001600160401b038111156115aa576115aa61468b565b6040519080825280601f01601f1916602001820160405280156115d4576020820181803683370190505b5092505b831561153d576115e9600182614eb3565b90506115f6600a85615661565b61160190603061554a565b60f81b83828151811061161657611616614eca565b60200101906001600160f81b031916908160001a905350611638600a85615579565b93506115d8565b600061166560405180606001604052806060815260200160008152602001600081525090565b82516116745760019150915091565b8281526002602082015282516001600160401b038111156116975761169761468b565b6040519080825280602002602001820160405280156116c0578160200160208202803683370190505b50815282515b801561173157838185516116da9190614eb3565b815181106116ea576116ea614eca565b602002602001015182600001516001836117049190614eb3565b8151811061171457611714614eca565b60209081029190910101528061172981615562565b9150506116c6565b50915091565b600061174282610920565b8351805160009061175557611755614eca565b60200260200101511690508160ff16836000015160008151811061177b5761177b614eca565b6020026020010151901c836000015160008151811061179c5761179c614eca565b6020026020010181815250508160ff16836040018181516117bd919061554a565b90525060408301516080116107dd576000600284602001516117df9190615579565b84515190915081101561148157608084604001516117fd9190614eb3565b8451805160009061181057611810614eca565b60209081029190910101805190911b9052600061182d6080610920565b855180518490811061184157611841614eca565b602002602001015116905060808560000151838151811061186457611864614eca565b60200260200101818151901c91508181525050608081901b856000015160008151811061189357611893614eca565b602002602001018181511791508181525050608085604001516118b69190614eb3565b855180516000906118c9576118c9614eca565b6020908102919091018101805190921c90915285018051906118ea8261558d565b815250506080856040018181516119019190614eb3565b905250505092915050565b6060600061191b856004611737565b61192690600161554a565b905061193381600161554a565b6001600160401b0381111561194a5761194a61468b565b604051908082528060200260200182016040528015611973578160200160208202803683370190505b50915060005b81811015611a6757600061198e876004611737565b905060008061199e896001611737565b905080600114156119b257600091506119f2565b60006119bf8a6008611737565b905060006119ce8b6008611737565b905060006119dd8c6008611737565b905080600883901b601085901b171794505050505b60006119ff8a6001611737565b600114611a1657611a118a6008611737565b611a19565b60ff5b9050611a2883828b878c612dda565b87611a3487600161554a565b81518110611a4457611a44614eca565b602002602001018181525050505050508080611a5f9061558d565b915050611979565b50610f4d8260405180604001604052806006815260200165706978656c7360d01b815250612e39565b604b83901b6000611aa2866006611737565b90506000611ab1876006611737565b604581901b93909317603f83901b179290506000611ad0886006611737565b90506000611adf896006611737565b905086516008148015611af3575085516008145b8015611b435750868881518110611b0c57611b0c614eca565b602002602001015160ff166000141580611b435750858881518110611b3357611b33614eca565b602002602001015160ff16600014155b15611b97576039868981518110611b5c57611b5c614eca565b602002602001015160ff16901b851794506033878981518110611b8157611b81614eca565b602002602001015160ff16901b85179450611baa565b603382901b85179450603981901b851794505b601b611bb78a6001611737565b600114611bce57611bc98a6018611737565b611bd1565b60005b901b94909417936003611be58a6001611737565b600114611bfc57611bf78a6018611737565b611bff565b60005b901b8517945050505050949350505050565b600080611c1f836001611737565b600114611c3657611c31836004611737565b611c39565b60015b905060005b8181101561153d57600080611c54866006611737565b90506000611c63876006611737565b90506000611c72886003611737565b90506000611c81896001611737565b90508060011415611c9d57600684901b94909417821793611caa565b600683901b949094178317935b80600114611cb9576000611cbc565b60805b60ff16611cca83600c61552b565b611cd4919061554a565b85901b9450848817975050505050508080611cee9061558d565b915050611c3e565b600080611d036006610920565b6080840151603f1c169150611d186006610920565b60458460800151901c169050915091565b60606000611d38856001611737565b600114611d5a57611d4a856010611737565b611d5590600161554a565b611d70565b611d65856008611737565b611d7090600161554a565b90506040611d7e848661552b565b611d889190615579565b611d9390600161554a565b6001600160401b03811115611daa57611daa61468b565b604051908082528060200260200182016040528015611dd3578160200160208202803683370190505b5091506000805b82811015611eb4576000611def886002611737565b611dfa90600161554a565b90508060041415611e1e57611e10886004611737565b611e1b90600461554a565b90505b6000611e2b896004611737565b905060005b82811015611e9e57611e43604086615661565b611e4e90600461552b565b82901b87611e5d604088615579565b81518110611e6d57611e6d614eca565b602090810291909101018051909117905284611e888161558d565b9550508080611e969061558d565b915050611e30565b5050508080611eac9061558d565b915050611dda565b5050509392505050565b611ec6614539565b611ed160028461514c565b60ff166001148015611ef05750611ee960028361514c565b60ff166001145b611f255760405162461bcd60e51b815260206004820152600660248201526504d4c3a433a360d41b6044820152606401610440565b611f3681604001518460ff16612e57565b60408101516107dd9060ff808616908516612ec5565b600080825111611f8b5760405162461bcd60e51b815260206004820152600a602482015269043414c433a5056493a360b41b6044820152606401610440565b815160011415611f9d575060006107dd565b600060018351611fad9190615675565b90506000611fbb6003610920565b604b85600081518110611fd057611fd0614eca565b602002602001015160800151901c1690505b60ff8216156120e1576000611ff76018610920565b601b868560ff168151811061200e5761200e614eca565b602002602001015160800151901c16905060006040518060a0016040528060011515815260200161203f6006610920565b601285901c1660ff1681526020016120576006610920565b600c85901c1660ff16815260200161206f6006610920565b600685901c1660ff1681526020016120876006610920565b841660ff1681525090506120bc81886020015185815181106120ab576120ab614eca565b602002602001015160000151612f7c565b156120cd57839450505050506107dd565b6120d8600185615675565b93505050611fe2565b506000949350505050565b60006120f86018610920565b601b848460ff168151811061210f5761210f614eca565b602002602001015160800151901c169050600061212c6018610920565b6003858560ff168151811061214357612143614eca565b602002602001015160800151901c16905060008061217c868660ff168151811061216f5761216f614eca565b6020026020010151612fdf565b9150915060008061219b888860ff1681518110610e9057610e90614eca565b6020808c01805160ff80861690915290519083169101526040805160e08101825260019181019182529294509092508190606082016121da6006610920565b60128b901c1660ff1681526020016121f26006610920565b600c8b901c1660ff16815260200161220a6006610920565b60068b901c1660ff1681526020016122226006610920565b60008b901c1660ff16815250815260200160405180606001604052808760ff1681526020018660ff168152602001600115158152508152508960200151604001819052506040518060a001604052806001151581526020016122846006610920565b601288901c1660ff16815260200161229c6006610920565b600c88901c1660ff1681526020016122b46006610920565b600688901c1660ff1681526020016122cc6006610920565b60ff90881616905260208a015160a00152604080516008808252610120820190925290816020015b6122fc6145bf565b8152602001906001900390816122f45790505060208a015160600152604080516008808252610120820190925290816020015b6123376145bf565b81526020019060019003908161232f57505060208a01516080015260005b600881101561244457600080600061238b8c8c60ff168151811061237b5761237b614eca565b6020026020010151856000613012565b925092509250801561242e57828d602001516080015185815181106123b2576123b2614eca565b60200260200101516000019060ff16908160ff1681525050818d602001516080015185815181106123e5576123e5614eca565b60200260200101516020019060ff16908160ff168152505060018d6020015160800151858151811061241957612419614eca565b60209081029190910101519015156040909101525b505050808061243c9061558d565b915050612355565b5060005b600881101561253757600080600061247e8c8c60ff168151811061246e5761246e614eca565b6020026020010151856001613012565b925092509250801561252157828d602001516060015185815181106124a5576124a5614eca565b60200260200101516000019060ff16908160ff1681525050818d602001516060015185815181106124d8576124d8614eca565b60200260200101516020019060ff16908160ff168152505060018d6020015160600151858151811061250c5761250c614eca565b60209081029190910101519015156040909101525b505050808061252f9061558d565b915050612448565b50600060a08a0181905260808a01526060890151516001600160401b038111156125635761256361468b565b60405190808252806020026020018201604052801561259c57816020015b61258961459a565b8152602001906001900390816125815790505b5060608a01526125ac6003610920565b604b898960ff16815181106125c3576125c3614eca565b602002602001015160800151901c16896000019060ff16908160ff168152505061261a888860ff16815181106125fb576125fb614eca565b602002602001015183838c60400151613081909392919063ffffffff16565b505050505050505050565b60008260200151826000015160ff168151811061264457612644614eca565b6020026020010151905060008260200151604001519050826020015160a001516040015160ff16600014158015612682575080516040015160ff1615155b80156126a4575081600001516040015160ff1681600001516040015160ff1611155b156127425780516040908101518351909101516000916126c391615675565b90506126ed6001856020015160a00151604001516126e19190615675565b60408601519083613121565b8082602001516000018181516127039190615506565b60ff90811690915260208087015160a001510151161590506127405780846020015160a001516020018181516127399190615506565b60ff169052505b505b60208084015160a00151015160ff1615801590612766575080516020015160ff1615155b8015612788575081600001516020015160ff1681600001516020015160ff1611155b156127cd576127cd6001846020015160a00151602001516127a99190615675565b82516020908101518551909101516127c19190615675565b60408601519190613121565b602083015160a001516080015160ff16158015906127f2575080516080015160ff1615155b8015612814575081600001516080015160ff1681600001516080015160ff1611155b156128a957805160809081015183519091015160009161283391615675565b602085015160a0015160800151604086015191925061285391908361321d565b8082602001516020018181516128699190615506565b60ff908116909152602086015160a0015160600151161590506128a75780846020015160a001516060018181516128a09190615506565b60ff169052505b505b602083015160a001516060015160ff16158015906128ce575080516060015160ff1615155b80156128f0575081600001516060015160ff1681600001516060015160ff1611155b1561292857602083015160a0015160609081015182518201518451909201516129289261291c91615675565b6040860151919061321d565b50505050565b60008260200151826000015160ff168151811061294d5761294d614eca565b602002602001015190506000826020015160400151905080602001516000015160ff1682602001516000015160ff161161298857600061299e565b60208082015151908301515161299e9190615675565b60ff90811660a085015260208083015181015184820151909101519082169116116129ca5760006129e6565b8060200151602001518260200151602001516129e69190615675565b60ff166080840181905260a0840151604085015180516020909101518751612928949093929091613306565b8151612a1d9061334a565b8015612a315750612a31816040015161334a565b15612a96576000612a45836000015161335a565b90506000612a56836040015161335a565b90508015158015612a755750602382901c600f16602382901c600f1610155b15612a8f57612a8f612a878383613383565b8551906134c5565b5050612a12565b8151612aa1906134ee565b8151612aac90613513565b612ab98160400151613513565b5050565b612ac681613532565b50565b60005b8160600151518160ff161015612b8957600082606001518260ff1681518110612af757612af7614eca565b6020026020010151905080602001516040015115612b765760a083015160208201518051612b26908390615506565b60ff169052506080830151602080830151018051612b45908390615506565b60ff9081169091526020860151805184935090918516908110612b6a57612b6a614eca565b60200260200101819052505b5080612b81816155ca565b915050612acc565b505050565b606060ff8216612bc65760405162461bcd60e51b8152602060048201526003602482015262463a3160e81b6044820152606401610440565b81612bd08161516e565b6001600160a01b038616600090815260016020908152604080832060ff808a168552925290912054919450908116915083168111612c365760405162461bcd60e51b8152602060048201526003602482015262231d1960e91b6044820152606401610440565b6001600160a01b03851660009081526020818152604080832060ff88168452825280832080548251818502810185019093528083529192909190830182828015612ca957602002820191906000526020600020905b81546001600160a81b03168152600190910190602001808311612c8b575b50505050509050600080600080600090505b8451811015612d5757600060a0868381518110612cda57612cda614eca565b60200260200101516001600160a81b0316901c90508860ff168184612cff9190615506565b60ff161115612d3857858281518110612d1a57612d1a614eca565b602002602001015194508289612d309190615675565b935050612d57565b612d428184615506565b92505080612d4f8161558d565b915050612cbb565b506001600160a01b038316612d945760405162461bcd60e51b8152602060048201526003602482015262463a3360e81b6044820152606401610440565b612d9d8361370e565b806020019051810190612db09190615698565b8260ff1681518110612dc457612dc4614eca565b6020026020010151955050505050509392505050565b60006027612de78361372f565b60ff16901b176023612df88461373f565b60ff16901b17601b612e0985611488565b60ff16901b81179050600386901b81179050612e2f612e2786611488565b60ff1661374f565b1795945050505050565b60005b8251811015612b895780612e4f8161558d565b915050612e3c565b6006612e63828061552b565b612e6d9190615579565b612e7890600261554a565b6001600160401b03811115612e8f57612e8f61468b565b604051908082528060200260200182016040528015612eb8578160200160208202803683370190505b5082604001819052505050565b612ecf6006610920565b821115612f0c5760405162461bcd60e51b815260206004820152600b60248201526a0564552533a534554573a360ac1b6044820152606401610440565b612f166006610920565b811115612f535760405162461bcd60e51b815260206004820152600b60248201526a564552533a534554573a3160a81b6044820152606401610440565b612f5f600c603f61376f565b6080909301805160459290921b603f9390931b9190931617179052565b6000816020015160ff16836020015160ff1611158015612faa5750816040015160ff16836040015160ff1611155b8061035f5750816060015160ff16836060015160ff161115801561035f57505060809081015191015160ff9182169116111590565b600080612fec6006610920565b608084015160331c1691506130016006610920565b60398460800151901c169050915091565b60008060008084613024576000613027565b60805b60ff1661303587600c61552b565b61303f919061554a565b8760600151901c9050613052600c610920565b1661305d6006610920565b81169350600681901c92508315158061307557508215155b91505093509350939050565b60ff8116602085015260005b818110156131115760005b838110156130fe576130aa8685613788565b5060006130b8868385613822565b905080156130e05760006130cc87836138b9565b505090506130da88826134c5565b506130eb565b6130eb8760006134c5565b50806130f68161558d565b915050613098565b50806131098161558d565b91505061308d565b5060ff8216845261292884613513565b60005b835160ff168110156131ff57835160ff165b8360ff16811115613192578360ff1681101561315157613192565b61318061316160ff85168361554a565b604087015184906131739085836138fb565b604089015192919061399a565b8061318a81615562565b915050613136565b5060006131a0846001615506565b60ff1690505b6131b08385615506565b60ff1681116131ec576131da81836131738760ff16868a604001516138fb9092919063ffffffff16565b806131e48161558d565b9150506131a6565b50806131f78161558d565b915050613124565b5080836000018181516132129190615506565b60ff16905250505050565b60005b836020015160ff168110156132f357602084015160ff165b8360ff16811115613286578360ff1681101561325357613286565b6132748261326460ff86168461554a565b60408801516131739086866138fb565b8061327e81615562565b915050613238565b506000613294846001615506565b60ff1690505b6132a48385615506565b60ff1681116132e0576132ce8282613173858860ff168a604001516138fb9092919063ffffffff16565b806132d88161558d565b91505061329a565b50806132eb8161558d565b915050613220565b5080836020018181516132129190615506565b60ff80851660608701819052908416608087015260c08601526133298483615506565b60ff1685526133388382615506565b60ff1660209095019490945250505050565b60006107dd828360000151613788565b60006107dd826060015160ff16836080015160ff1684604001516138fb9092919063ffffffff16565b600061338e826139d3565b60ff14806133a257506133a0836139d3565b155b156133ae5750806107dd565b601360ff6133bb846139d3565b6133cc9060ff601387901c1661552b565b6133d5856139d3565b6133e09060ff614eb3565b6133f19060ff601389901c1661552b565b6133fb919061554a565b6134059190615579565b901b17600b60ff613415846139d3565b6134269060ff600b87901c1661552b565b61342f856139d3565b61343a9060ff614eb3565b61344b9060ff600b89901c1661552b565b613455919061554a565b61345f9190615579565b901b17600360ff61346f846139d3565b6134809060ff600387901c1661552b565b613489856139d3565b6134949060ff614eb3565b6134a59060ff600389901c1661552b565b6134af919061554a565b6134b99190615579565b901b1760071792915050565b612ab9826060015160ff16836080015160ff1683856040015161399a909392919063ffffffff16565b6000806134fe8360400151611cf6565b60ff9182168552166020909301929092525050565b6000606082018190526080820181905260c0820181905260a090910152565b606060008060005b846020015160800151518160ff161015613707576135566145bf565b8560200151608001518260ff168151811061357357613573614eca565b60200260200101516040015115613663578361358e816155ca565b9450508560200151608001518260ff16815181106135ae576135ae614eca565b60200260200101519050806020015186606001518360ff16815181106135d6576135d6614eca565b6020026020010151602001516000019060ff16908160ff1681525050806000015186606001518360ff168151811061361057613610614eca565b6020026020010151602001516020019060ff16908160ff1681525050600186606001518360ff168151811061364757613647614eca565b60209081029190910181015101519015156040909101526136f4565b8560200151606001518260ff168151811061368057613680614eca565b602002602001015160400151156136f4578261369b816155ca565b9350508451600014156136b8576136b586604001516139e1565b94505b6136e7868760200151606001518460ff16815181106136d9576136d9614eca565b602002602001015187613bfc565b90506136f4868284613d3d565b50806136ff816155ca565b91505061353a565b5050505050565b60606107dd82600161372a816001600160a01b0384163b614eb3565b613fa5565b6000600782111561149857600080fd5b6000600f82111561149857600080fd5b6000602461375c83611488565b61376691906155a8565b60ff1692915050565b60008160ff1661377e84610920565b901b199392505050565b60008260a00151156138115760608301516137a4906001615506565b60ff168260ff16116138015760808301516137c0906001615506565b60ff16836020015160ff1614156137d9575060006107dd565b60c083015160ff166060840152608083018051906137f6826155ca565b60ff16905250613819565b606083018051906137f6826155ca565b600160a08401525b50600192915050565b60008061382e85611cf6565b509050600061383d828561552b565b613847908661554a565b60208701515190915061385b604083615579565b1061386b5760009250505061035f565b613876604082615661565b61388190600461552b565b6020870151613891604084615579565b815181106138a1576138a1614eca565b6020026020010151901c600f16925050509392505050565b6000806000846000015184815181106138d4576138d4614eca565b602002602001015192506138e783613fca565b9150602383901c600f165b90509250925092565b60008061390785611cf6565b5090506000613916828561552b565b613920908661554a565b604087015151909150613934600683615579565b106139445760009250505061035f565b61394e602a610920565b613959600683615661565b61396490602a61552b565b6040880151613974600685615579565b8151811061398457613984614eca565b6020026020010151901c16925050509392505050565b60006139a585611cf6565b50905060006139b4828561552b565b6139be908661554a565b90506139cb868285613fe8565b505050505050565b60006107dd6007831661409d565b606060008060006139f1856140c9565b60408051600580825260c082019092529396509194509250816020015b613a166145bf565b815260200190600190039081613a0e5790505093508084600081518110613a3f57613a3f614eca565b60200260200101819052506040518060600160405280826000015160ff168152602001848360200151613a729190615675565b60ff1681526020016001151581525084600181518110613a9457613a94614eca565b602090810291909101015282613aab60028261514c565b60ff1615613ac15780613abd816155ca565b9150505b6040805160608101909152825160ff16815260208101613ae26002846155a8565b8460200151613af19190615675565b60ff1681526020016001151581525085600281518110613b1357613b13614eca565b602090810291909101015282613b2a60028261514c565b60ff1615613b405780613b3c816155ca565b9150505b6040805160608101909152835160ff16815260208101613b616002846155a8565b8560200151613b709190615506565b60ff1681526020016001151581525086600381518110613b9257613b92614eca565b60200260200101819052506040518060600160405280846000015160ff168152602001858560200151613bc59190615506565b60ff1681526020016001151581525086600481518110613be757613be7614eca565b60200260200101819052505050505050919050565b613c046145bf565b81836000015160ff1681518110613c1d57613c1d614eca565b60209081029190910101515160ff908116825283518351849291909116908110613c4957613c49614eca565b60209081029190910181015181015160ff908116838301526001604084015284820151161015613c945782602001518160200151613c879190615675565b60ff166020820152613cbd565b60208360200151613ca59190615675565b8160200151613cb49190615506565b60ff1660208201525b805160208201516040808701510151613cde92909160ff918216911661448b565b61035f57806020015160ff1682600081518110613cfd57613cfd614eca565b60200260200101516020015160ff161115613d2d5760208101805190613d22826155ca565b60ff16905250613cbd565b60208101805190613d228261516e565b613d456145df565b604084015151613d5790600190615675565b60ff16836000015160ff16108015613da45750613da481602001516001613d7e9190615506565b8451613d8a9190615506565b602085015160408088015101519160ff908116911661448b565b15613dc45760208101805190613db9826155ca565b60ff16905250613d45565b825160ff1615801590613df057506040810151613de2906001615506565b60ff16836000015160ff1610155b8015613e175750613e1781604001516001613e0b9190615506565b8451613d8a9190615675565b15613e375760408101805190613e2c826155ca565b60ff16905250613dc4565b602083015160ff1615801590613e6657506060810151613e58906001615506565b60ff16836020015160ff1610155b8015613ea8575082516060820151613ea89160ff1690613e87906001615506565b8560200151613e969190615675565b6040808801510151919060ff1661448b565b15613ec85760608101805190613ebd826155ca565b60ff16905250613e37565b6001846040015160200151613edd9190615675565b60ff16836020015160ff16108015613f19575082516080820151613f199160ff1690613f0a906001615506565b8560200151613e969190615506565b15613f395760808101805190613f2e826155ca565b60ff16905250613ec8565b83606001518260ff1681518110613f5257613f52614eca565b602002602001015160200151604001516129285760405180604001604052808281526020018481525084606001518360ff1681518110613f9457613f94614eca565b602002602001018190525050505050565b60408051603f83850101601f19168101909152818152818360208301863c9392505050565b6000613fd5826139d3565b600583901b63ffffff0016179050919050565b613ff3600683615579565b8360400151511115612b8957600061401f61400f600685615661565b61401a90602a61552b565b611488565b905061402c602a8261376f565b604085015161403c600686615579565b8151811061404c5761404c614eca565b6020908102919091010180519091169052604084015160ff821683901b90614075600686615579565b8151811061408557614085614eca565b60200260200101818151179150818152505050505050565b600081600714156140b0575060ff919050565b6140b98261372f565b613766906024615748565b919050565b6000806140d46145bf565b83516140e2906002906155a8565b60ff16815260208401516140f8906002906155a8565b60ff1660208201526001604082018190529250829150600080808480825b806143385782158015614127575083155b925082156141fd5761416b61413d836001615506565b88516141499190615675565b60ff168a896020015161415c9190615675565b60408d0151919060ff1661448b565b801561418c575061418c614180836001615506565b88516141499190615506565b80156141c057506141c06141a1836001615506565b88516141ad9190615675565b60ff1689896020015161415c9190615506565b80156141e157506141e16141d5836001615506565b88516141ad9190615506565b156141f857816141f0816155ca565b9250506141fd565b600193505b856142815760008988602001516142149190615675565b60ff1611801561424d5750865161424d90614230908490615675565b60ff1661423e8b6001615506565b896020015161415c9190615675565b80156142655750865161426590614230908490615506565b1561427c5788614274816155ca565b995050614281565b600195505b846143175760018a602001516142979190615675565b60ff168888602001516142aa9190615506565b60ff161080156142e3575086516142e3906142c6908490615675565b60ff166142d48a6001615506565b896020015161415c9190615506565b80156142fb575086516142fb906142c6908490615506565b15614312578761430a816155ca565b985050614317565b600194505b8480156143215750855b801561432a5750835b15614333575060015b614116565b8760ff168960ff161461447e576000614351898b615506565b61435c906001615506565b90506000600261436c818461514c565b60ff16156143845761437f836001615506565b614386565b825b61439091906155a8565b905060008b60018b60200151846143a79190615506565b6143b19190615675565b6143bb9190615675565b9050896020015160ff168160ff1611156144235760008a60200151826143e19190615675565b90506143ed818e615506565b9c508060ff168c60ff161161440e576144068c82615675565b9b508b61441c565b614418818d615675565b9b508b5b5050614473565b6000818b602001516144359190615675565b90508060ff168d60ff16116144565761444e8d82615675565b9c508c614464565b614460818e615675565b9c508c5b5061446f818d615506565b9b50505b60ff1660208a015250505b5050505050509193909250565b6000806144998585856138fb565b600716151595945050505050565b6040518061016001604052806000815260200160008152602001606081526020016060815260200160006001600160a01b031681526020016000815260200160008152602001606081526020016060815260200160608152602001606081525090565b6040518060a0016040528060608152602001606081526020016060815260200160008152602001600081525090565b6040805160e0810182526000808252602082015290810161455861450a565b8152600060208201819052604082018190526060820181905260809091015290565b604051806040016040528061458d614539565b8152602001606081525090565b60405180604001604052806145ad6145df565b81526020016145ba6145bf565b905290565b604080516060810182526000808252602082018190529181019190915290565b6040805160a08101825260008082526020820181905291810182905260608101829052608081019190915290565b6040518060c00160405280600060ff16815260200161462a614651565b8152602001614637614539565b815260606020820181905260006040830181905291015290565b6040805160e0810182526000808252602082015290810161467061459a565b8152602001606081526020016060815260200161458d6145df565b634e487b7160e01b600052604160045260246000fd5b60405161016081016001600160401b03811182821017156146c4576146c461468b565b60405290565b604051601f8201601f191681016001600160401b03811182821017156146f2576146f261468b565b604052919050565b60006001600160401b038211156147135761471361468b565b5060051b60200190565b600082601f83011261472e57600080fd5b8135602061474361473e836146fa565b6146ca565b82815260059290921b8401810191818101908684111561476257600080fd5b8286015b8481101561477d5780358352918301918301614766565b509695505050505050565b60006001600160401b038211156147a1576147a161468b565b50601f01601f191660200190565b600082601f8301126147c057600080fd5b81356147ce61473e82614788565b8181528460208386010111156147e357600080fd5b816020850160208301376000918101602001919091529392505050565b6001600160a01b0381168114612ac657600080fd5b80356140c481614800565b60ff81168114612ac657600080fd5b80356140c481614820565b600082601f83011261484b57600080fd5b8135602061485b61473e836146fa565b82815260059290921b8401810191818101908684111561487a57600080fd5b8286015b8481101561477d57803561489181614820565b835291830191830161487e565b600061016082840312156148b157600080fd5b6148b96146a1565b8235815260208084013590820152905060408201356001600160401b03808211156148e357600080fd5b6148ef858386016147af565b6040840152606084013591508082111561490857600080fd5b614914858386016147af565b606084015261492560808501614815565b608084015260a084013560a084015260c084013560c084015260e084013591508082111561495257600080fd5b61495e8583860161483a565b60e08401526101009150818401358181111561497957600080fd5b6149858682870161483a565b8385015250610120915081840135818111156149a057600080fd5b6149ac8682870161483a565b8385015250610140915081840135818111156149c757600080fd5b6149d38682870161483a565b8385015250505092915050565b6000806000606084860312156149f557600080fd5b83356001600160401b0380821115614a0c57600080fd5b614a188783880161471d565b94506020860135915080821115614a2e57600080fd5b50614a3b8682870161489e565b9250506040840135614a4c81614820565b809150509250925092565b60005b83811015614a72578181015183820152602001614a5a565b838111156129285750506000910152565b60008151808452614a9b816020860160208601614a57565b601f01601f19169290920160200192915050565b60208152600061035f6020830184614a83565b600080600080600060a08688031215614ada57600080fd5b8535614ae581614800565b9450602086013593506040860135614afc81614800565b92506060860135614b0c81614820565b91506080860135614b1c81614820565b809150509295509295909350565b600080600060608486031215614b3f57600080fd5b83356001600160401b0380821115614b5657600080fd5b818601915086601f830112614b6a57600080fd5b81356020614b7a61473e836146fa565b82815260059290921b8401810191818101908a841115614b9957600080fd5b8286015b84811015614bd157803586811115614bb55760008081fd5b614bc38d86838b010161471d565b845250918301918301614b9d565b5097505087013592505080821115614be857600080fd5b50614bf58682870161489e565b9250506138f26040850161482f565b600081518084526020808501945080840160005b83811015614c3457815187529582019590820190600101614c18565b509495945050505050565b60208152600061035f6020830184614c04565b600080600060608486031215614c6757600080fd5b8335614c7281614800565b9250602084013591506040840135614a4c81614820565b600081518084526020808501945080840160005b83811015614c3457815160ff1687529582019590820190600101614c9d565b600061016082518452602083015160208501526040830151816040860152614ce682860182614a83565b91505060608301518482036060860152614d008282614a83565b9150506080830151614d1d60808601826001600160a01b03169052565b5060a083015160a085015260c083015160c085015260e083015184820360e0860152614d498282614c89565b9150506101008084015185830382870152614d648382614c89565b925050506101208084015185830382870152614d808382614c89565b9250505061014080840151858303828701526104ec8382614c89565b604081526000614daf6040830185614c04565b8281036020840152614dc18185614cbc565b95945050505050565b60208152600061035f6020830184614cbc565b60008060408385031215614df057600080fd5b8235614dfb81614800565b91506020830135614e0b81614820565b809150509250929050565b600080600060408486031215614e2b57600080fd5b8335614e3681614820565b925060208401356001600160401b0380821115614e5257600080fd5b818601915086601f830112614e6657600080fd5b813581811115614e7557600080fd5b8760208260051b8501011115614e8a57600080fd5b6020830194508093505050509250925092565b634e487b7160e01b600052601160045260246000fd5b600082821015614ec557614ec5614e9d565b500390565b634e487b7160e01b600052603260045260246000fd5b60008151614ef2818560208601614a57565b9290920192915050565b683d913730b6b2911d1160b91b81528751600090614f21816009850160208d01614a57565b701116113232b9b1b934b83a34b7b7111d1160791b6009918401918201528851614f5281601a840160208d01614a57565b6c1116101134b6b0b3b2911d101160991b601a92909101918201528751614f80816027840160208c01614a57565b731116112237ba373ab3b3ab32b939b4b7b7111d1160611b602792909101918201528651614fb581603b840160208b01614a57565b6c1116113a37b5b2b724b2111d1160991b603b9290910191820152615034615026615020615009615003614fec604887018c614ee0565b6a111611383937b7b3111d1160a91b8152600b0190565b89614ee0565b6a11161137bbb732b9111d1160a91b8152600b0190565b86614ee0565b61227d60f01b815260020190565b9a9950505050505050505050565b60008351615054818460208801614a57565b835190830190615068818360208801614a57565b01949350505050565b6060815260006150846060830186614c04565b82810360208401526150968186614cbc565b91505060ff83166040830152949350505050565b60006150b861473e84614788565b90508281528383830111156150cc57600080fd5b61035f836020830184614a57565b600082601f8301126150eb57600080fd5b61035f838351602085016150aa565b60006020828403121561510c57600080fd5b81516001600160401b0381111561512257600080fd5b61512e848285016150da565b949350505050565b634e487b7160e01b600052601260045260246000fd5b600060ff83168061515f5761515f615136565b8060ff84160691505092915050565b600060ff82168061518157615181614e9d565b6000190192915050565b80516140c481614800565b600082601f8301126151a757600080fd5b815160206151b761473e836146fa565b82815260059290921b840181019181810190868411156151d657600080fd5b8286015b8481101561477d5780516151ed81614820565b83529183019183016151da565b60006020828403121561520c57600080fd5b81516001600160401b038082111561522357600080fd5b90830190610160828603121561523857600080fd5b6152406146a1565b825181526020830151602082015260408301518281111561526057600080fd5b61526c878286016150da565b60408301525060608301518281111561528457600080fd5b615290878286016150da565b6060830152506152a26080840161518b565b608082015260a083015160a082015260c083015160c082015260e0830151828111156152cd57600080fd5b6152d987828601615196565b60e08301525061010080840151838111156152f357600080fd5b6152ff88828701615196565b828401525050610120808401518381111561531957600080fd5b61532588828701615196565b828401525050610140808401518381111561533f57600080fd5b61534b88828701615196565b918301919091525095945050505050565b60006020828403121561536e57600080fd5b81516001600160401b0381111561538457600080fd5b8201601f8101841361539557600080fd5b61512e848251602084016150aa565b600082601f8301126153b557600080fd5b815160206153c561473e836146fa565b82815260059290921b840181019181810190868411156153e457600080fd5b8286015b8481101561477d57805183529183019183016153e8565b60006020828403121561541157600080fd5b81516001600160401b0381111561542757600080fd5b61512e848285016153a4565b81835260006001600160fb1b0383111561544c57600080fd5b8260051b8083602087013760009401602001938452509192915050565b6020808252818101839052600090600560408085019086831b86010187855b888110156154f857878303603f190184528135368b9003601e190181126154ae57600080fd5b8a0180356001600160401b038111156154c657600080fd5b80871b36038c13156154d757600080fd5b6154e485828a8501615433565b958801959450505090850190600101615488565b509098975050505050505050565b600060ff821660ff84168060ff0382111561552357615523614e9d565b019392505050565b600081600019048311821515161561554557615545614e9d565b500290565b6000821982111561555d5761555d614e9d565b500190565b60008161557157615571614e9d565b506000190190565b60008261558857615588615136565b500490565b60006000198214156155a1576155a1614e9d565b5060010190565b600060ff8316806155bb576155bb615136565b8060ff84160491505092915050565b600060ff821660ff8114156155e1576155e1614e9d565b60010192915050565b6000815260008251615603816001850160208701614a57565b9190910160010192915050565b606360f81b815260e083901b6001600160e01b03191660018201526880600e6000396000f360b81b6005820152815160009061565381600e850160208701614a57565b91909101600e019392505050565b60008261567057615670615136565b500690565b600060ff821660ff84168082101561568f5761568f614e9d565b90039392505050565b600060208083850312156156ab57600080fd5b82516001600160401b03808211156156c257600080fd5b818501915085601f8301126156d657600080fd5b81516156e461473e826146fa565b81815260059190911b8301840190848101908883111561570357600080fd5b8585015b8381101561573b5780518581111561571f5760008081fd5b61572d8b89838a01016153a4565b845250918601918601615707565b5098975050505050505050565b600060ff821660ff84168160ff048111821515161561576957615769614e9d565b02939250505056fe4142434445464748494a4b4c4d4e4f505152535455565758595a6162636465666768696a6b6c6d6e6f707172737475767778797a303132333435363738392b2fa26469706673582212206368183e2e28c96af569afc5421773cbf8768f09708beb21d135fdccc3146a7964736f6c63430008090033",
  "devdoc": {
    "author": "nugg.xyz - danny7even & dub6ix",
    "details": "hold my margarita",
    "kind": "dev",
    "methods": {},
    "title": "dotnugg Processor V1 - onchain encoder/decoder protocol for dotnugg files",
    "version": 1
  },
  "userdoc": {
    "kind": "user",
    "methods": {},
    "notice": "yoU CAN'T HaVe ImAgES oN THe BlOCkcHAIn",
    "version": 1
  },
  "storageLayout": {
    "storage": [
      {
        "astId": 4307,
        "contract": "src/DotnuggV1Processor.sol:DotnuggV1Processor",
        "label": "sstore2Pointers",
        "offset": 0,
        "slot": "0",
        "type": "t_mapping(t_address,t_mapping(t_uint8,t_array(t_uint168)dyn_storage))"
      },
      {
        "astId": 4313,
        "contract": "src/DotnuggV1Processor.sol:DotnuggV1Processor",
        "label": "featureLengths",
        "offset": 0,
        "slot": "1",
        "type": "t_mapping(t_address,t_mapping(t_uint8,t_uint8))"
      }
    ],
    "types": {
      "t_address": {
        "encoding": "inplace",
        "label": "address",
        "numberOfBytes": "20"
      },
      "t_array(t_uint168)dyn_storage": {
        "base": "t_uint168",
        "encoding": "dynamic_array",
        "label": "uint168[]",
        "numberOfBytes": "32"
      },
      "t_mapping(t_address,t_mapping(t_uint8,t_array(t_uint168)dyn_storage))": {
        "encoding": "mapping",
        "key": "t_address",
        "label": "mapping(address => mapping(uint8 => uint168[]))",
        "numberOfBytes": "32",
        "value": "t_mapping(t_uint8,t_array(t_uint168)dyn_storage)"
      },
      "t_mapping(t_address,t_mapping(t_uint8,t_uint8))": {
        "encoding": "mapping",
        "key": "t_address",
        "label": "mapping(address => mapping(uint8 => uint8))",
        "numberOfBytes": "32",
        "value": "t_mapping(t_uint8,t_uint8)"
      },
      "t_mapping(t_uint8,t_array(t_uint168)dyn_storage)": {
        "encoding": "mapping",
        "key": "t_uint8",
        "label": "mapping(uint8 => uint168[])",
        "numberOfBytes": "32",
        "value": "t_array(t_uint168)dyn_storage"
      },
      "t_mapping(t_uint8,t_uint8)": {
        "encoding": "mapping",
        "key": "t_uint8",
        "label": "mapping(uint8 => uint8)",
        "numberOfBytes": "32",
        "value": "t_uint8"
      },
      "t_uint168": {
        "encoding": "inplace",
        "label": "uint168",
        "numberOfBytes": "21"
      },
      "t_uint8": {
        "encoding": "inplace",
        "label": "uint8",
        "numberOfBytes": "1"
      }
    }
  }
}