{
  "address": "0xFF19E6E699b959C8Ed435D3FC1183afdc5484700",
  "abi": [
    {
      "inputs": [
        {
          "components": [
            {
              "internalType": "uint8",
              "name": "width",
              "type": "uint8"
            },
            {
              "internalType": "uint8",
              "name": "height",
              "type": "uint8"
            },
            {
              "components": [
                {
                  "internalType": "int8",
                  "name": "zindex",
                  "type": "int8"
                },
                {
                  "components": [
                    {
                      "internalType": "uint8",
                      "name": "r",
                      "type": "uint8"
                    },
                    {
                      "internalType": "uint8",
                      "name": "g",
                      "type": "uint8"
                    },
                    {
                      "internalType": "uint8",
                      "name": "b",
                      "type": "uint8"
                    },
                    {
                      "internalType": "uint8",
                      "name": "a",
                      "type": "uint8"
                    }
                  ],
                  "internalType": "struct IDotNugg.Rgba",
                  "name": "rgba",
                  "type": "tuple"
                },
                {
                  "internalType": "bool",
                  "name": "exists",
                  "type": "bool"
                }
              ],
              "internalType": "struct IDotNugg.Pixel[][]",
              "name": "data",
              "type": "tuple[][]"
            },
            {
              "internalType": "uint8",
              "name": "currentUnsetX",
              "type": "uint8"
            },
            {
              "internalType": "uint8",
              "name": "currentUnsetY",
              "type": "uint8"
            },
            {
              "internalType": "bool",
              "name": "init",
              "type": "bool"
            },
            {
              "internalType": "uint8",
              "name": "startX",
              "type": "uint8"
            }
          ],
          "internalType": "struct IDotNugg.Matrix",
          "name": "matrix",
          "type": "tuple"
        },
        {
          "internalType": "bytes",
          "name": "data",
          "type": "bytes"
        }
      ],
      "name": "resolveFile",
      "outputs": [
        {
          "internalType": "bytes",
          "name": "res",
          "type": "bytes"
        },
        {
          "internalType": "string",
          "name": "fileType",
          "type": "string"
        }
      ],
      "stateMutability": "view",
      "type": "function"
    },
    {
      "inputs": [
        {
          "internalType": "bytes4",
          "name": "interfaceId",
          "type": "bytes4"
        }
      ],
      "name": "supportsInterface",
      "outputs": [
        {
          "internalType": "bool",
          "name": "",
          "type": "bool"
        }
      ],
      "stateMutability": "view",
      "type": "function"
    }
  ],
  "transactionHash": "0x00eb968c84bd604e131e32cfc49cad5049ecb070aad4a8265b1c9d0c481b4e57",
  "args": [],
  "solcInputHash": "90f288ce3a0251461453e654dcf5b24f",
  "bytecode": "0x608060405234801561001057600080fd5b50611045806100206000396000f3fe608060405234801561001057600080fd5b50600436106100365760003560e01c806301ffc9a71461003b5780635236730614610063575b600080fd5b61004e610049366004610a0c565b610084565b60405190151581526020015b60405180910390f35b610076610071366004610a34565b6100bb565b60405161005a929190610dcc565b60006001600160e01b031982166353c9baa160e01b14806100b557506001600160e01b031982166301ffc9a760e01b145b92915050565b6060806000846000015160ff16600a6100d49190610f01565b905060006100e182610172565b6100ea83610172565b6100f384610172565b6100fc85610172565b60405160200161010f9493929190610cb1565b6040516020818303038152906040529050600061012d87600a610293565b90508181604051602001610142929190610b81565b60408051808303601f19018152828201909152600382526273766760e81b60208301529890975095505050505050565b6060816101965750506040805180820190915260018152600360fc1b602082015290565b8160005b81156101c057806101aa81610f7e565b91506101b99050600a83610eed565b915061019a565b6000816001600160401b038111156101e857634e487b7160e01b600052604160045260246000fd5b6040519080825280601f01601f191660200182016040528015610212576020820181803683370190505b5090505b841561028b57610227600183610f20565b9150610234600a86610fb9565b61023f906030610eb0565b60f81b81838151811061026257634e487b7160e01b600052603260045260246000fd5b60200101906001600160f81b031916908160001a905350610284600a86610eed565b9450610216565b949350505050565b6040805160808101825260008082526020820181905291810182905260608082018390529160015b6102c486610409565b156103c0576102e06102d587610419565b6020015184906104c3565b801561032557508560400151866080015160ff168151811061031257634e487b7160e01b600052603260045260246000fd5b602002602001015151866060015160ff16105b1561033c578061033481610f7e565b9150506102bb565b606083015160ff16156103a1578361037e8461035b8860ff8716610f01565b888a6080015160ff1661036e9190610f01565b896103798188610f01565b610523565b60405160200161038f929190610b52565b60405160208183030381529060405293505b6103aa86610419565b60200151925085606001519150600190506102bb565b836103de6103cd88610419565b6020015161035b8860ff8716610f01565b6040516020016103ef929190610b52565b604051602081830303815290604052935050505092915050565b60006100b58283600001516105a1565b61045b60408051606080820183526000808352835160808101855281815260208181018390529481018290529182015290918201908152600060209091015290565b8160400151826080015160ff168151811061048657634e487b7160e01b600052603260045260246000fd5b6020026020010151826060015160ff16815181106104b457634e487b7160e01b600052603260045260246000fd5b60200260200101519050919050565b6000816060015160ff16836060015160ff161480156104ea57508151835160ff9081169116145b80156105035750816020015160ff16836020015160ff16145b801561051c5750816040015160ff16836040015160ff16145b9392505050565b60608581015160ff166105455750604080516020810190915260008152610598565b61054e8661063b565b61055786610172565b61056086610172565b61056986610172565b61057286610172565b604051602001610586959493929190610bc1565b60405160208183030381529060405290505b95945050505050565b60008260a001511561062a5760608301516105bd906001610ec8565b60ff168260ff161161061a5760808301516105d9906001610ec8565b60ff16836020015160ff1614156105f2575060006100b5565b60c083015160ff1660608401526080830180519061060f82610f99565b60ff16905250610632565b6060830180519061060f82610f99565b600160a08401525b50600192915050565b805160208083015160408085015160608087015183516001600160f81b031960f898891b81169782019790975294871b8616602186015291861b85166022850152941b909216602382015281518082036004018152602490910190915261051c818360005b82518160ff16101561071c57816106e7848360ff16815181106106d357634e487b7160e01b600052603260045260246000fd5b01602001516001600160f81b031916610722565b6040516020016106f8929190610b52565b6040516020818303038152906040529150808061071490610f99565b9150506106a0565b50919050565b6040805160028082528183019092526060916000919060208201818036833701905050905060025b80156107f3576f181899199a1a9b1b9c1cb0b131b232b360811b600f60f886901c166020811061078a57634e487b7160e01b600052603260045260246000fd5b1a60f81b8261079a600184610f20565b815181106107b857634e487b7160e01b600052603260045260246000fd5b60200101906001600160f81b031916908160001a9053506004846001600160f81b031916901c935080806107eb90610f67565b91505061074a565b5092915050565b600082601f83011261080a578081fd5b8135602061081f61081a83610e8d565b610e5d565b80838252828201915082860187848660051b890101111561083e578586fd5b855b8581101561096f5781356001600160401b0381111561085d578788fd5b8801603f81018a1361086d578788fd5b8581013561087d61081a82610e8d565b808282528882019150604084018d604060c08602870101111561089e578b8cfd5b8b94505b8385101561095957808e0360c08112156108ba578c8dfd5b6108c2610df1565b8235808f0b81146108d1578e8ffd5b81526080601f19830112156108e4578d8efd5b6108ec610e19565b91506108f98c84016109fb565b8252610907604084016109fb565b8c830152610917606084016109fb565b6040830152610928608084016109fb565b6060830152818c82015261093e60a0840161097c565b6040820152845250600194909401939189019160c0016108a2565b5087525050509284019290840190600101610840565b5090979650505050505050565b8035801515811461098c57600080fd5b919050565b600082601f8301126109a1578081fd5b81356001600160401b038111156109ba576109ba610ff9565b6109cd601f8201601f1916602001610e5d565b8181528460208386010111156109e1578283fd5b816020850160208301379081016020019190915292915050565b803560ff8116811461098c57600080fd5b600060208284031215610a1d578081fd5b81356001600160e01b03198116811461051c578182fd5b60008060408385031215610a46578081fd5b82356001600160401b0380821115610a5c578283fd5b9084019060e08287031215610a6f578283fd5b610a77610e3b565b610a80836109fb565b8152610a8e602084016109fb565b6020820152604083013582811115610aa4578485fd5b610ab0888286016107fa565b604083015250610ac2606084016109fb565b6060820152610ad3608084016109fb565b6080820152610ae460a0840161097c565b60a0820152610af560c084016109fb565b60c082015293506020850135915080821115610b0f578283fd5b50610b1c85828601610991565b9150509250929050565b60008151808452610b3e816020860160208601610f37565b601f01601f19169290920160200192915050565b60008351610b64818460208801610f37565b835190830190610b78818360208801610f37565b01949350505050565b60008351610b93818460208801610f37565b835190830190610ba7818360208801610f37565b651e17b9bb339f60d11b9101908152600601949350505050565b6d093c726563742066696c6c3d272360901b81528551600090610beb81600e850160208b01610f37565b642720783d2760d81b600e918401918201528651610c10816013840160208b01610f37565b642720793d2760d81b601392909101918201528551610c36816018840160208a01610f37565b6927206865696768743d2760b01b601892909101918201528451610c61816022840160208901610f37565b68272077696474683d2760b81b602292909101918201528351610c8b81602b840160208801610f37565b610ca4602b828401016313979f0560e11b815260040190565b9998505050505050505050565b7101e39bb33903b34b2bba137bc1e93981018160751b815260008551610cde816012850160208a01610f37565b600160fd1b6012918401918201528551610cff816013840160208a01610f37565b68272077696474683d2760b81b601392909101918201528451610d2981601c840160208901610f37565b6927206865696768743d2760b01b601c92909101918201528351610d54816026840160208801610f37565b7f2720786d6c6e733d27687474703a2f2f7777772e77332e6f72672f323030302f602692909101918201527f7376672720786d6c6e733a786c696e6b3d27687474703a2f2f7777772e77332e60468201527037b93397989c9c9c97bc3634b735939f0560791b60668201526077019695505050505050565b604081526000610ddf6040830185610b26565b82810360208401526105988185610b26565b604051606081016001600160401b0381118282101715610e1357610e13610ff9565b60405290565b604051608081016001600160401b0381118282101715610e1357610e13610ff9565b60405160e081016001600160401b0381118282101715610e1357610e13610ff9565b604051601f8201601f191681016001600160401b0381118282101715610e8557610e85610ff9565b604052919050565b60006001600160401b03821115610ea657610ea6610ff9565b5060051b60200190565b60008219821115610ec357610ec3610fcd565b500190565b600060ff821660ff84168060ff03821115610ee557610ee5610fcd565b019392505050565b600082610efc57610efc610fe3565b500490565b6000816000190483118215151615610f1b57610f1b610fcd565b500290565b600082821015610f3257610f32610fcd565b500390565b60005b83811015610f52578181015183820152602001610f3a565b83811115610f61576000848401525b50505050565b600081610f7657610f76610fcd565b506000190190565b6000600019821415610f9257610f92610fcd565b5060010190565b600060ff821660ff811415610fb057610fb0610fcd565b60010192915050565b600082610fc857610fc8610fe3565b500690565b634e487b7160e01b600052601160045260246000fd5b634e487b7160e01b600052601260045260246000fd5b634e487b7160e01b600052604160045260246000fdfea26469706673582212200bfc75c2e65e56fc249f3e52975bcd03d60e773721b24e6a5f3bd8eb515ab57164736f6c63430008040033",
  "devdoc": {
    "kind": "dev",
    "methods": {
      "supportsInterface(bytes4)": {
        "details": "See {IERC165-supportsInterface}."
      }
    },
    "version": 1
  },
  "userdoc": {
    "kind": "user",
    "methods": {},
    "version": 1
  },
  "storageLayout": {
    "storage": [],
    "types": null
  }
}