{
  "address": "0xCEab72cb5BC8Fc1149AB63FA9986311f18E26573",
  "abi": [
    {
      "inputs": [],
      "stateMutability": "nonpayable",
      "type": "constructor"
    },
    {
      "inputs": [
        {
          "internalType": "address",
          "name": "implementer",
          "type": "address"
        },
        {
          "internalType": "uint256",
          "name": "artifactId",
          "type": "uint256"
        },
        {
          "internalType": "address",
          "name": "resolver",
          "type": "address"
        },
        {
          "internalType": "bytes",
          "name": "data",
          "type": "bytes"
        }
      ],
      "name": "comp",
      "outputs": [
        {
          "components": [
            {
              "internalType": "uint256[]",
              "name": "file",
              "type": "uint256[]"
            },
            {
              "components": [
                {
                  "internalType": "uint8[]",
                  "name": "ids",
                  "type": "uint8[]"
                },
                {
                  "internalType": "uint8[]",
                  "name": "xovers",
                  "type": "uint8[]"
                },
                {
                  "internalType": "uint8[]",
                  "name": "yovers",
                  "type": "uint8[]"
                },
                {
                  "internalType": "uint256",
                  "name": "version",
                  "type": "uint256"
                },
                {
                  "internalType": "address",
                  "name": "implementer",
                  "type": "address"
                },
                {
                  "internalType": "uint256",
                  "name": "artifactId",
                  "type": "uint256"
                },
                {
                  "internalType": "string[]",
                  "name": "labels",
                  "type": "string[]"
                },
                {
                  "internalType": "string[]",
                  "name": "styles",
                  "type": "string[]"
                },
                {
                  "internalType": "string",
                  "name": "background",
                  "type": "string"
                },
                {
                  "internalType": "bytes",
                  "name": "data",
                  "type": "bytes"
                }
              ],
              "internalType": "struct IDotnuggV1Metadata.Memory",
              "name": "metadata",
              "type": "tuple"
            }
          ],
          "internalType": "struct IDotnuggV1File.Compressed",
          "name": "res",
          "type": "tuple"
        }
      ],
      "stateMutability": "view",
      "type": "function"
    },
    {
      "inputs": [
        {
          "internalType": "address",
          "name": "implementer",
          "type": "address"
        },
        {
          "internalType": "uint256",
          "name": "artifactId",
          "type": "uint256"
        },
        {
          "internalType": "address",
          "name": "resolver",
          "type": "address"
        },
        {
          "internalType": "string",
          "name": "name",
          "type": "string"
        },
        {
          "internalType": "string",
          "name": "desc",
          "type": "string"
        },
        {
          "internalType": "bool",
          "name": "base64",
          "type": "bool"
        },
        {
          "internalType": "bytes",
          "name": "data",
          "type": "bytes"
        }
      ],
      "name": "dat",
      "outputs": [
        {
          "internalType": "string",
          "name": "res",
          "type": "string"
        }
      ],
      "stateMutability": "view",
      "type": "function"
    },
    {
      "inputs": [
        {
          "internalType": "address",
          "name": "implementer",
          "type": "address"
        },
        {
          "internalType": "uint256",
          "name": "artifactId",
          "type": "uint256"
        },
        {
          "internalType": "address",
          "name": "resolver",
          "type": "address"
        },
        {
          "internalType": "bool",
          "name": "rekt",
          "type": "bool"
        },
        {
          "internalType": "bool",
          "name": "back",
          "type": "bool"
        },
        {
          "internalType": "bool",
          "name": "stats",
          "type": "bool"
        },
        {
          "internalType": "bool",
          "name": "base64",
          "type": "bool"
        },
        {
          "internalType": "bytes",
          "name": "data",
          "type": "bytes"
        }
      ],
      "name": "img",
      "outputs": [
        {
          "internalType": "string",
          "name": "res",
          "type": "string"
        }
      ],
      "stateMutability": "view",
      "type": "function"
    },
    {
      "inputs": [],
      "name": "lib",
      "outputs": [
        {
          "internalType": "contract DotnuggV1Lib",
          "name": "",
          "type": "address"
        }
      ],
      "stateMutability": "view",
      "type": "function"
    },
    {
      "inputs": [
        {
          "internalType": "address",
          "name": "implementer",
          "type": "address"
        },
        {
          "internalType": "uint256",
          "name": "artifactId",
          "type": "uint256"
        },
        {
          "internalType": "address",
          "name": "resolver",
          "type": "address"
        },
        {
          "internalType": "bytes",
          "name": "data",
          "type": "bytes"
        }
      ],
      "name": "proc",
      "outputs": [
        {
          "components": [
            {
              "internalType": "uint256[]",
              "name": "file",
              "type": "uint256[]"
            },
            {
              "components": [
                {
                  "internalType": "uint8[]",
                  "name": "ids",
                  "type": "uint8[]"
                },
                {
                  "internalType": "uint8[]",
                  "name": "xovers",
                  "type": "uint8[]"
                },
                {
                  "internalType": "uint8[]",
                  "name": "yovers",
                  "type": "uint8[]"
                },
                {
                  "internalType": "uint256",
                  "name": "version",
                  "type": "uint256"
                },
                {
                  "internalType": "address",
                  "name": "implementer",
                  "type": "address"
                },
                {
                  "internalType": "uint256",
                  "name": "artifactId",
                  "type": "uint256"
                },
                {
                  "internalType": "string[]",
                  "name": "labels",
                  "type": "string[]"
                },
                {
                  "internalType": "string[]",
                  "name": "styles",
                  "type": "string[]"
                },
                {
                  "internalType": "string",
                  "name": "background",
                  "type": "string"
                },
                {
                  "internalType": "bytes",
                  "name": "data",
                  "type": "bytes"
                }
              ],
              "internalType": "struct IDotnuggV1Metadata.Memory",
              "name": "metadata",
              "type": "tuple"
            }
          ],
          "internalType": "struct IDotnuggV1File.Processed",
          "name": "res",
          "type": "tuple"
        }
      ],
      "stateMutability": "view",
      "type": "function"
    },
    {
      "inputs": [
        {
          "internalType": "address",
          "name": "implementer",
          "type": "address"
        }
      ],
      "name": "proxyOf",
      "outputs": [
        {
          "internalType": "contract IDotnuggV1StorageProxy",
          "name": "proxy",
          "type": "address"
        }
      ],
      "stateMutability": "view",
      "type": "function"
    },
    {
      "inputs": [
        {
          "internalType": "address",
          "name": "implementer",
          "type": "address"
        },
        {
          "internalType": "uint256",
          "name": "artifactId",
          "type": "uint256"
        },
        {
          "internalType": "address",
          "name": "resolver",
          "type": "address"
        },
        {
          "internalType": "bytes",
          "name": "data",
          "type": "bytes"
        }
      ],
      "name": "raw",
      "outputs": [
        {
          "components": [
            {
              "internalType": "uint256[][]",
              "name": "file",
              "type": "uint256[][]"
            },
            {
              "components": [
                {
                  "internalType": "uint8[]",
                  "name": "ids",
                  "type": "uint8[]"
                },
                {
                  "internalType": "uint8[]",
                  "name": "xovers",
                  "type": "uint8[]"
                },
                {
                  "internalType": "uint8[]",
                  "name": "yovers",
                  "type": "uint8[]"
                },
                {
                  "internalType": "uint256",
                  "name": "version",
                  "type": "uint256"
                },
                {
                  "internalType": "address",
                  "name": "implementer",
                  "type": "address"
                },
                {
                  "internalType": "uint256",
                  "name": "artifactId",
                  "type": "uint256"
                },
                {
                  "internalType": "string[]",
                  "name": "labels",
                  "type": "string[]"
                },
                {
                  "internalType": "string[]",
                  "name": "styles",
                  "type": "string[]"
                },
                {
                  "internalType": "string",
                  "name": "background",
                  "type": "string"
                },
                {
                  "internalType": "bytes",
                  "name": "data",
                  "type": "bytes"
                }
              ],
              "internalType": "struct IDotnuggV1Metadata.Memory",
              "name": "metadata",
              "type": "tuple"
            }
          ],
          "internalType": "struct IDotnuggV1File.Raw",
          "name": "res",
          "type": "tuple"
        }
      ],
      "stateMutability": "view",
      "type": "function"
    },
    {
      "inputs": [],
      "name": "register",
      "outputs": [
        {
          "internalType": "contract IDotnuggV1StorageProxy",
          "name": "proxy",
          "type": "address"
        }
      ],
      "stateMutability": "nonpayable",
      "type": "function"
    },
    {
      "inputs": [],
      "name": "template",
      "outputs": [
        {
          "internalType": "address",
          "name": "",
          "type": "address"
        }
      ],
      "stateMutability": "view",
      "type": "function"
    }
  ],
  "transactionHash": "0x41cbff231ddd44d5390f8aa2a0fff80eb81d67a92905fbec5f154a20344b04f4",
  "args": [],
  "solcInputHash": "fa8cabace77d7b6a2b328d8f2d5a29f7",
  "bytecode": "0x60806040523480156200001157600080fd5b506040516200002090620000b0565b604051809103906000f0801580156200003d573d6000803e3d6000fd5b50600080546001600160a01b0319166001600160a01b03929092169190911790556040516200006c90620000be565b604051809103906000f08015801562000089573d6000803e3d6000fd5b50600180546001600160a01b0319166001600160a01b0392909216919091179055620000cc565b615ca08062001c5783390190565b61163a80620078f783390190565b611b7b80620000dc6000396000f3fe608060405234801561001057600080fd5b50600436106100a35760003560e01c80635f6d703111610076578063928012301161005b578063928012301461016d578063b0ef3d771461018d578063c1a9a508146101a057600080fd5b80635f6d70311461012d5780636f2ddd931461014d57600080fd5b80631aa3a008146100a8578063276b99f5146100da578063290966aa146100fa578063448e347f1461011a575b600080fd5b6100b06101b3565b60405173ffffffffffffffffffffffffffffffffffffffff90911681526020015b60405180910390f35b6100ed6100e8366004611037565b6102a7565b6040516100d19190611160565b61010d610108366004611173565b6104be565b6040516100d191906113e5565b6100ed610128366004611445565b6107b3565b61014061013b366004611173565b610a6b565b6040516100d1919061153b565b6001546100b09073ffffffffffffffffffffffffffffffffffffffff1681565b6000546100b09073ffffffffffffffffffffffffffffffffffffffff1681565b61014061019b366004611173565b610b62565b6100b06101ae36600461154e565b610bda565b6001546040517fffffffffffffffffffffffffffffffffffffffff0000000000000000000000003360601b1660208201526000916102229173ffffffffffffffffffffffffffffffffffffffff9091169060340160405160208183030381529060405280519060200120610cd4565b6040517f19ab453c00000000000000000000000000000000000000000000000000000000815233600482015290915073ffffffffffffffffffffffffffffffffffffffff8216906319ab453c90602401600060405180830381600087803b15801561028c57600080fd5b505af11580156102a0573d6000803e3d6000fd5b5050505090565b606060006102b78a8a8a86610b62565b905073ffffffffffffffffffffffffffffffffffffffff8816156103d7576040517f72e9196700000000000000000000000000000000000000000000000000000000815273ffffffffffffffffffffffffffffffffffffffff8916906372e9196790610329908490879060040161156b565b60006040518083038186803b15801561034157600080fd5b505afa92505050801561039457506040513d6000823e601f3d9081017fffffffffffffffffffffffffffffffffffffffffffffffffffffffffffffffe016820160405261039191908101906115d5565b60015b6103ce573d8080156103c2576040519150601f19603f3d011682016040523d82523d6000602084013e6103c7565b606091505b50506103d7565b91506104b29050565b600054815160208301516040517fb9183b3100000000000000000000000000000000000000000000000000000000815273ffffffffffffffffffffffffffffffffffffffff9093169263b9183b319261043c9290918c908c908c908c9060040161160a565b60006040518083038186803b15801561045457600080fd5b505afa158015610468573d6000803e3d6000fd5b505050506040513d6000823e601f3d9081017fffffffffffffffffffffffffffffffffffffffffffffffffffffffffffffffe01682016040526104ae91908101906115d5565b9150505b98975050505050505050565b6104c6610e3b565b6040517f9b9173520000000000000000000000000000000000000000000000000000000081526004810185905273ffffffffffffffffffffffffffffffffffffffff861690639b9173529060240160006040518083038186803b15801561052c57600080fd5b505afa158015610540573d6000803e3d6000fd5b505050506040513d6000823e601f3d9081017fffffffffffffffffffffffffffffffffffffffffffffffffffffffffffffffe0168201604052610586919081019061177c565b6020820181815260a09091018590525173ffffffffffffffffffffffffffffffffffffffff86166080909101526105bc85610bda565b6020820151516040517f36aa589d00000000000000000000000000000000000000000000000000000000815273ffffffffffffffffffffffffffffffffffffffff92909216916336aa589d91610614916004016118ed565b60006040518083038186803b15801561062c57600080fd5b505afa158015610640573d6000803e3d6000fd5b505050506040513d6000823e601f3d9081017fffffffffffffffffffffffffffffffffffffffffffffffffffffffffffffffe0168201604052610686919081019061195b565b815273ffffffffffffffffffffffffffffffffffffffff8316156107ab5760208101516040517f39fed0c400000000000000000000000000000000000000000000000000000000815273ffffffffffffffffffffffffffffffffffffffff8516916339fed0c4916107009189918991908890600401611a0c565b60006040518083038186803b15801561071857600080fd5b505afa92505050801561076b57506040513d6000823e601f3d9081017fffffffffffffffffffffffffffffffffffffffffffffffffffffffffffffffe0168201604052610768919081019061177c565b60015b6107a5573d808015610799576040519150601f19603f3d011682016040523d82523d6000602084013e61079e565b606091505b50506107ab565b60208201525b949350505050565b606060006107c389898986610b62565b905073ffffffffffffffffffffffffffffffffffffffff8716156108e3576040517f8eba997800000000000000000000000000000000000000000000000000000000815273ffffffffffffffffffffffffffffffffffffffff881690638eba997890610835908490879060040161156b565b60006040518083038186803b15801561084d57600080fd5b505afa9250505080156108a057506040513d6000823e601f3d9081017fffffffffffffffffffffffffffffffffffffffffffffffffffffffffffffffe016820160405261089d91908101906115d5565b60015b6108da573d8080156108ce576040519150601f19603f3d011682016040523d82523d6000602084013e6108d3565b606091505b50506108e3565b9150610a609050565b60008054602083015183516040517fb9183b3100000000000000000000000000000000000000000000000000000000815273ffffffffffffffffffffffffffffffffffffffff9093169363f6e35446938b928b92879263b9183b31926109579290918891906001908290829060040161160a565b60006040518083038186803b15801561096f57600080fd5b505afa158015610983573d6000803e3d6000fd5b505050506040513d6000823e601f3d9081017fffffffffffffffffffffffffffffffffffffffffffffffffffffffffffffffe01682016040526109c991908101906115d5565b896040518663ffffffff1660e01b81526004016109ea959493929190611a53565b60006040518083038186803b158015610a0257600080fd5b505afa158015610a16573d6000803e3d6000fd5b505050506040513d6000823e601f3d9081017fffffffffffffffffffffffffffffffffffffffffffffffffffffffffffffffe0168201604052610a5c91908101906115d5565b9150505b979650505050505050565b610a73610e3b565b6000610a8186868686610b62565b6000805482516040517f5c60ee9200000000000000000000000000000000000000000000000000000000815293945073ffffffffffffffffffffffffffffffffffffffff90911692635c60ee9292610adc9291600401611ab5565b60006040518083038186803b158015610af457600080fd5b505afa158015610b08573d6000803e3d6000fd5b505050506040513d6000823e601f3d9081017fffffffffffffffffffffffffffffffffffffffffffffffffffffffffffffffe0168201604052610b4e9190810190611ad7565b825260209081015190820152949350505050565b610b6a610e3b565b6000610b78868686866104be565b600054815160208301516040517f4d67139300000000000000000000000000000000000000000000000000000000815293945073ffffffffffffffffffffffffffffffffffffffff90921692634d67139392610adc9291603f90600401611b0c565b6001546040517fffffffffffffffffffffffffffffffffffffffff000000000000000000000000606084901b166020820152600091610c4a9173ffffffffffffffffffffffffffffffffffffffff9091169060340160405160208183030381529060405280519060200120610db8565b905073ffffffffffffffffffffffffffffffffffffffff81163b610ccf576040517f08c379a000000000000000000000000000000000000000000000000000000000815260206004820152600360248201527f503a30000000000000000000000000000000000000000000000000000000000060448201526064015b60405180910390fd5b919050565b60006040517f3d602d80600a3d3981f3363d3d373d3d3d363d7300000000000000000000000081528360601b60148201527f5af43d82803e903d91602b57fd5bf300000000000000000000000000000000006028820152826037826000f591505073ffffffffffffffffffffffffffffffffffffffff8116610db2576040517f08c379a000000000000000000000000000000000000000000000000000000000815260206004820152601760248201527f455243313136373a2063726561746532206661696c65640000000000000000006044820152606401610cc6565b92915050565b6000610e348383306040517f3d602d80600a3d3981f3363d3d373d3d3d363d730000000000000000000000008152606093841b60148201527f5af43d82803e903d91602b57fd5bf3ff000000000000000000000000000000006028820152921b6038830152604c8201526037808220606c830152605591012090565b9392505050565b604051806040016040528060608152602001610eb960405180610140016040528060608152602001606081526020016060815260200160008152602001600073ffffffffffffffffffffffffffffffffffffffff16815260200160008152602001606081526020016060815260200160608152602001606081525090565b905290565b73ffffffffffffffffffffffffffffffffffffffff81168114610ee057600080fd5b50565b80358015158114610ccf57600080fd5b7f4e487b7100000000000000000000000000000000000000000000000000000000600052604160045260246000fd5b604051610140810167ffffffffffffffff81118282101715610f4657610f46610ef3565b60405290565b604051601f82017fffffffffffffffffffffffffffffffffffffffffffffffffffffffffffffffe016810167ffffffffffffffff81118282101715610f9357610f93610ef3565b604052919050565b600067ffffffffffffffff821115610fb557610fb5610ef3565b50601f017fffffffffffffffffffffffffffffffffffffffffffffffffffffffffffffffe01660200190565b600082601f830112610ff257600080fd5b813561100561100082610f9b565b610f4c565b81815284602083860101111561101a57600080fd5b816020850160208301376000918101602001919091529392505050565b600080600080600080600080610100898b03121561105457600080fd5b883561105f81610ebe565b975060208901359650604089013561107681610ebe565b955061108460608a01610ee3565b945061109260808a01610ee3565b93506110a060a08a01610ee3565b92506110ae60c08a01610ee3565b915060e089013567ffffffffffffffff8111156110ca57600080fd5b6110d68b828c01610fe1565b9150509295985092959890939650565b60005b838110156111015781810151838201526020016110e9565b83811115611110576000848401525b50505050565b6000815180845261112e8160208601602086016110e6565b601f017fffffffffffffffffffffffffffffffffffffffffffffffffffffffffffffffe0169290920160200192915050565b602081526000610e346020830184611116565b6000806000806080858703121561118957600080fd5b843561119481610ebe565b93506020850135925060408501356111ab81610ebe565b9150606085013567ffffffffffffffff8111156111c757600080fd5b6111d387828801610fe1565b91505092959194509250565b600081518084526020808501945080840160005b8381101561120f578151875295820195908201906001016111f3565b509495945050505050565b600081518084526020808501808196508360051b8101915082860160005b858110156112625782840389526112508483516111df565b98850198935090840190600101611238565b5091979650505050505050565b600081518084526020808501945080840160005b8381101561120f57815160ff1687529582019590820190600101611283565b600081518084526020808501808196508360051b8101915082860160005b858110156112625782840389526112d8848351611116565b988501989350908401906001016112c0565b600061014082518185526113008286018261126f565b9150506020830151848203602086015261131a828261126f565b91505060408301518482036040860152611334828261126f565b915050606083015160608501526080830151611368608086018273ffffffffffffffffffffffffffffffffffffffff169052565b5060a083015160a085015260c083015184820360c086015261138a82826112a2565b91505060e083015184820360e08601526113a482826112a2565b91505061010080840151858303828701526113bf8382611116565b9250505061012080840151858303828701526113db8382611116565b9695505050505050565b602081526000825160406020840152611401606084018261121a565b905060208401517fffffffffffffffffffffffffffffffffffffffffffffffffffffffffffffffe084830301604085015261143c82826112ea565b95945050505050565b600080600080600080600060e0888a03121561146057600080fd5b873561146b81610ebe565b965060208801359550604088013561148281610ebe565b9450606088013567ffffffffffffffff8082111561149f57600080fd5b6114ab8b838c01610fe1565b955060808a01359150808211156114c157600080fd5b6114cd8b838c01610fe1565b94506114db60a08b01610ee3565b935060c08a01359150808211156114f157600080fd5b506114fe8a828b01610fe1565b91505092959891949750929550565b600081516040845261152260408501826111df565b90506020830151848203602086015261143c82826112ea565b602081526000610e34602083018461150d565b60006020828403121561156057600080fd5b8135610e3481610ebe565b60408152600061157e604083018561150d565b828103602084015261143c8185611116565b600082601f8301126115a157600080fd5b81516115af61100082610f9b565b8181528460208386010111156115c457600080fd5b6107ab8260208301602087016110e6565b6000602082840312156115e757600080fd5b815167ffffffffffffffff8111156115fe57600080fd5b6107ab84828501611590565b60c08152600061161d60c08301896111df565b828103602084015261162f81896112ea565b9615156040840152505092151560608401529015156080830152151560a09091015292915050565b600067ffffffffffffffff82111561167157611671610ef3565b5060051b60200190565b600082601f83011261168c57600080fd5b8151602061169c61100083611657565b82815260059290921b840181019181810190868411156116bb57600080fd5b8286015b848110156116e657805160ff811681146116d95760008081fd5b83529183019183016116bf565b509695505050505050565b8051610ccf81610ebe565b600082601f83011261170d57600080fd5b8151602061171d61100083611657565b82815260059290921b8401810191818101908684111561173c57600080fd5b8286015b848110156116e657805167ffffffffffffffff8111156117605760008081fd5b61176e8986838b0101611590565b845250918301918301611740565b60006020828403121561178e57600080fd5b815167ffffffffffffffff808211156117a657600080fd5b9083019061014082860312156117bb57600080fd5b6117c3610f22565b8251828111156117d257600080fd5b6117de8782860161167b565b8252506020830151828111156117f357600080fd5b6117ff8782860161167b565b60208301525060408301518281111561181757600080fd5b6118238782860161167b565b6040830152506060830151606082015261183f608084016116f1565b608082015260a083015160a082015260c08301518281111561186057600080fd5b61186c878286016116fc565b60c08301525060e08301518281111561188457600080fd5b611890878286016116fc565b60e08301525061010080840151838111156118aa57600080fd5b6118b688828701611590565b82840152505061012080840151838111156118d057600080fd5b6118dc88828701611590565b918301919091525095945050505050565b602081526000610e34602083018461126f565b600082601f83011261191157600080fd5b8151602061192161100083611657565b82815260059290921b8401810191818101908684111561194057600080fd5b8286015b848110156116e65780518352918301918301611944565b6000602080838503121561196e57600080fd5b825167ffffffffffffffff8082111561198657600080fd5b818501915085601f83011261199a57600080fd5b81516119a861100082611657565b81815260059190911b830184019084810190888311156119c757600080fd5b8585015b838110156119ff578051858111156119e35760008081fd5b6119f18b89838a0101611900565b8452509186019186016119cb565b5098975050505050505050565b73ffffffffffffffffffffffffffffffffffffffff85168152836020820152608060408201526000611a4160808301856112ea565b8281036060840152610a608185611116565b60a081526000611a6660a08301886112ea565b8281036020840152611a788188611116565b90508281036040840152611a8c8187611116565b90508281036060840152611aa08186611116565b91505082151560808301529695505050505050565b604081526000611ac860408301856111df565b90508260208301529392505050565b600060208284031215611ae957600080fd5b815167ffffffffffffffff811115611b0057600080fd5b6107ab84828501611900565b606081526000611b1f606083018661121a565b8281036020840152611b3181866112ea565b91505060ff8316604083015294935050505056fea264697066735822122070abc9b32b834276e06a06f323fbf7bc750c3a4ef93cde054199f8ed6752e50364736f6c63430008090033608060405234801561001057600080fd5b50615c7f80620000216000396000f3fe608060405234801561001057600080fd5b50600436106100c95760003560e01c80637295e04611610081578063d8674cb71161005b578063d8674cb714610189578063daa68c21146101a9578063f6e35446146101bc57600080fd5b80637295e04614610150578063b9183b3114610163578063d7d9b57d1461017657600080fd5b80634d671393116100b25780634d6713931461010a578063577de07c1461012a5780635c60ee921461013d57600080fd5b806330375a35146100ce57806346eceb3a146100f7575b600080fd5b6100e16100dc36600461481e565b6101cf565b6040516100ee9190614887565b60405180910390f35b6100e161010536600461481e565b610237565b61011d610118366004614c50565b610278565b6040516100ee9190614cf6565b6100e161013836600461481e565b610324565b61011d61014b366004614d09565b610337565b61011d61015e366004614d4e565b61049d565b6100e1610171366004614d93565b6105fe565b6100e161018436600461481e565b6108df565b61019c610197366004614e38565b6108f2565b6040516100ee9190614ec0565b6100e16101b736600461481e565b610c7b565b6100e16101ca366004614ff3565b610c86565b60606040518060400160405280601d81526020017f646174613a6170706c69636174696f6e2f6a736f6e3b6261736536342c00000081525061021083610eee565b6040516020016102219291906150b1565b6040516020818303038152906040529050919050565b60606040518060400160405280601a81526020017f646174613a696d6167652f7376672b786d6c3b6261736536342c00000000000081525061021083610eee565b606082606001516001146102ed576040517f08c379a000000000000000000000000000000000000000000000000000000000815260206004820152600360248201527f563173000000000000000000000000000000000000000000000000000000000060448201526064015b60405180910390fd5b600061030285856020015186604001516108f2565b90506000610312600885846110c9565b60409081015101519695505050505050565b60608160405160200161022191906150e0565b606060008060005b8583815181106103515761035161514b565b602002602001015160001415610373578061036b816151a9565b9150506103fd565b600e8111156103b057600f600482901b17868361038f816151a9565b9450815181106103a1576103a161514b565b60209081029190910101525060005b8060048785815181106103c5576103c561514b565b6020026020010151901b178683806103dc906151a9565b9450815181106103ee576103ee61514b565b60209081029190910101525060005b8551610408846151a9565b9350831061033f57600e81111561044d57600f600482901b17868361042c816151a9565b94508151811061043e5761043e61514b565b60209081029190910101525060005b60f08651600161045d91906151e2565b600487901b8317911b178683610472816151a9565b9450815181106104845761048461514b565b6020908102919091010152508452508290505b92915050565b606060f082600184516104b091906151fa565b815181106104c0576104c061514b565b6020026020010151901c67ffffffffffffffff8111156104e2576104e26146e8565b60405190808252806020026020018201604052801561050b578160200160208202803683370190505b5090506000805b83518110156105f757600084828151811061052f5761052f61514b565b6020026020010151600f16905080600f14156105715760048583610552816151a9565b9450815181106105645761056461514b565b6020026020010151901c90505b60005b8181101561059c5783610586816151a9565b9450508080610594906151a9565b915050610574565b5060048583815181106105b1576105b161514b565b6020026020010151901c8484806105c7906151a9565b9550815181106105d9576105d961514b565b602090810291909101015250806105ef816151a9565b915050610512565b5050919050565b6060600061060c603f611405565b905060008182604051602001610623929190615211565b604051602081830303815290604052905085156106ae578060008961010001515111610684576040518060400160405280600481526020017f234646460000000000000000000000000000000000000000000000000000000081525061068b565b8861010001515b60405160200161069c929190615308565b60405160208183030381529060405290505b60006106ba8a89611410565b9050606060015b8251811015610749578281815181106106dc576106dc61514b565b602002602001015160200151600014156106f557610749565b818382815181106107085761070861514b565b60200260200101516000015160405160200161072592919061538a565b60405160208183030381529060405291508080610741906151a9565b9150506106c1565b50881561088b5760006040516020016107ab907f3c7374796c6520747970653d22746578742f63737322203e3c215b434441544181527f5b00000000000000000000000000000000000000000000000000000000000000602082015260210190565b604051602081830303815290604052905060005b600881101561086457808c60e00151511180156107fa57508b60e0015181815181106107ed576107ed61514b565b6020026020010151516000145b1561080457610852565b816108108260416151e2565b8d60e0015183815181106108265761082661514b565b6020026020010151604051602001610840939291906153e1565b60405160208183030381529060405291505b8061085c816151a9565b9150506107bf565b508082604051602001610878929190615441565b6040516020818303038152906040529150505b828160405160200161089e929190615499565b604051602081830303815290604052945085156108c5576108be85610237565b94506108d1565b6108ce85610324565b94505b505050509695505050505050565b606081604051602001610221919061551b565b6060835167ffffffffffffffff81111561090e5761090e6146e8565b60405190808252806020026020018201604052801561094157816020015b606081526020019060019003908161092c5790505b50905060005b8451811015610c73576000806109758784815181106109685761096861514b565b602002602001015161153c565b915091508115610986575050610c61565b610991816020611635565b6342069001146109fd576040517f08c379a000000000000000000000000000000000000000000000000000000000815260206004820152600860248201527f4445433a50493a3000000000000000000000000000000000000000000000000060448201526064016102e4565b6000610a0a826003611635565b90506000610a19836008611635565b90506000610a2884838561182f565b90506000610a37856002611635565b610a429060016151e2565b90508067ffffffffffffffff811115610a5d57610a5d6146e8565b604051908082528060200260200182016040528015610ac057816020015b610aad6040518060a0016040528060608152602001606081526020016060815260200160008152602001600081525090565b815260200190600190039081610a7b5790505b50888881518110610ad357610ad361514b565b602002602001018190525060005b81811015610c5957610af586868d8d611994565b898981518110610b0757610b0761514b565b60200260200101518281518110610b2057610b2061514b565b60200260200101516080018181525050610b3986611b15565b898981518110610b4b57610b4b61514b565b60200260200101518281518110610b6457610b6461514b565b60200260200101516060018181525050600080610bc38b8b81518110610b8c57610b8c61514b565b60200260200101518481518110610ba557610ba561514b565b602002602001015160800151603f81811c81169260459290921c1690565b91509150610bd2888383611bfa565b8b8b81518110610be457610be461514b565b60200260200101518481518110610bfd57610bfd61514b565b602002602001015160200181905250848b8b81518110610c1f57610c1f61514b565b60200260200101518481518110610c3857610c3861514b565b60209081029190910101515250819050610c51816151a9565b915050610ae1565b505050505050505b80610c6b816151a9565b915050610947565b509392505050565b606061049782610eee565b606060005b60088160ff161015610d9a5781610d658860c001518360ff1681518110610cb457610cb461514b565b602002602001015189600001518460ff1681518110610cd557610cd561514b565b602002602001015160ff16600014610d2157610d1c8a600001518560ff1681518110610d0357610d0361514b565b602002602001015160ff1660088660ff16901b17611405565b610d58565b6040518060400160405280600481526020017f6e756c6c000000000000000000000000000000000000000000000000000000008152505b8460ff1660071415611d90565b604051602001610d769291906150b1565b60405160208183030381529060405291508080610d9290615586565b915050610c8b565b50610ddc6040518060400160405280600481526020017f6e616d6500000000000000000000000000000000000000000000000000000000815250866001611d90565b610e1d6040518060400160405280600b81526020017f6465736372697074696f6e000000000000000000000000000000000000000000815250866001611d90565b610e5e6040518060400160405280600581526020017f696d616765000000000000000000000000000000000000000000000000000000815250866001611d90565b610e9f6040518060400160405280600a81526020017f70726f7065727469657300000000000000000000000000000000000000000000815250856000611e0f565b604051602001610eb294939291906155a6565b60405160208183030381529060405290508115610ed957610ed2816101cf565b9050610ee5565b610ee2816108df565b90505b95945050505050565b6060815160001415610f0e57505060408051602081019091526000815290565b6000604051806060016040528060408152602001615c0a6040913990506000600384516002610f3d91906151e2565b610f479190615688565b610f5290600461569c565b90506000610f618260206151e2565b67ffffffffffffffff811115610f7957610f796146e8565b6040519080825280601f01601f191660200182016040528015610fa3576020820181803683370190505b509050818152600183018586518101602084015b818310156110115760039283018051603f601282901c811687015160f890811b8552600c83901c8216880151811b6001860152600683901c8216880151811b60028601529116860151901b93820193909352600401610fb7565b60038951066001811461102b5760028114611075576110bb565b7f3d3d0000000000000000000000000000000000000000000000000000000000007ffffffffffffffffffffffffffffffffffffffffffffffffffffffffffffffffe8301526110bb565b7f3d000000000000000000000000000000000000000000000000000000000000007fffffffffffffffffffffffffffffffffffffffffffffffffffffffffffffffff8301525b509398975050505050505050565b6110d161455f565b6110d96145d2565b6110e38485611e76565b81528467ffffffffffffffff8111156110fe576110fe6146e8565b60405190808252806020026020018201604052801561118757816020015b6111746040805160e0810182526000918101828152606082018390526080820183905260a0820183905260c0820192909252908190815260408051606081018252600080825260208281018290529282015291015290565b81526020019060019003908161111c5790505b5060208201526040805160608101909152600090806111a76002886156d9565b6111b29060016156fb565b60ff1681526020016111c56002886156d9565b6111d09060016156fb565b60ff16815260016020918201526040805160a081018252600080825292810183905290810182905260608101829052608081018290529192505b878160ff1610156112615760405180604001604052808381526020018481525084602001518260ff16815181106112435761124361514b565b6020026020010181905250808061125990615586565b91505061120a565b50825160ff87169081905283516020015261127a6145f2565b6112848788611e76565b60408201528767ffffffffffffffff8111156112a2576112a26146e8565b60405190808252806020026020018201604052801561132b57816020015b6113186040805160e0810182526000918101828152606082018390526080820183905260a0820183905260c0820192909252908190815260408051606081018252600080825260208281018290529282015291015290565b8152602001906001900390816112c05790505b50606082015260005b86518160ff1610156113f5576000878260ff16815181106113575761135761514b565b60200260200101515111156113e3576113b282888360ff168151811061137f5761137f61514b565b60200260200101516113ad888b8660ff16815181106113a0576113a061514b565b6020026020010151611f35565b611fbd565b6113bc8583612561565b6113c6858361286a565b6113d08583612968565b6113d982612a4e565b6113e38583612a5a565b806113ed81615586565b915050611334565b50509151925050505b9392505050565b606061049782612b1f565b6060600061142284600080603f612c4f565b50604080518181526108208101825291925060019190816020015b60408051808201909152606081526000602082015281526020019060019003908161143d57905050925060005b603f8110156115335760008115611482576000611485565b60015b60ff1690505b603f8110156115015760006114a3888385603f612c4f565b5090506114af85612ce0565b6114b882612ce0565b14156114d157836114c8816151a9565b945050506114ef565b6114e886866114e087866151fa565b86888c612cfe565b9350600192505b806114f9816151a9565b91505061148b565b5061151a848461151285603f6151fa565b84868a612cfe565b600092508291508061152b816151a9565b91505061146a565b50505092915050565b600061156260405180606001604052806060815260200160008152602001600081525090565b82516115715760019150915091565b82815260026020820152825167ffffffffffffffff811115611595576115956146e8565b6040519080825280602002602001820160405280156115be578160200160208202803683370190505b50815282515b801561162f57838185516115d891906151fa565b815181106115e8576115e861514b565b6020026020010151826000015160018361160291906151fa565b815181106116125761161261514b565b60209081029190910101528061162781615720565b9150506115c4565b50915091565b60006001821b7fffffffffffffffffffffffffffffffffffffffffffffffffffffffffffffffff01835180516000906116705761167061514b565b60200260200101511690508160ff1683600001516000815181106116965761169661514b565b6020026020010151901c83600001516000815181106116b7576116b761514b565b6020026020010181815250508160ff16836040018181516116d891906151e2565b9052506040830151608011610497576000600284602001516116fa9190615688565b845151909150811015611828576080846040015161171891906151fa565b8451805160009061172b5761172b61514b565b60209081029190910101805190911b905260006fffffffffffffffffffffffffffffffff85518051849081106117635761176361514b565b60200260200101511690506080856000015183815181106117865761178661514b565b60200260200101818151901c91508181525050608081901b85600001516000815181106117b5576117b561514b565b602002602001018181511791508181525050608085604001516117d891906151fa565b855180516000906117eb576117eb61514b565b6020908102919091018101805190921c909152850180519061180c826151a9565b8152505060808560400181815161182391906151fa565b905250505b5092915050565b6060600061183e856004611635565b6118499060016151e2565b90506118568160016151e2565b67ffffffffffffffff81111561186e5761186e6146e8565b604051908082528060200260200182016040528015611897578160200160208202803683370190505b50915060005b8181101561198b5760006118b2876004611635565b90506000806118c2896001611635565b905080600114156118d65760009150611916565b60006118e38a6008611635565b905060006118f28b6008611635565b905060006119018c6008611635565b905080600883901b601085901b171794505050505b60006119238a6001611635565b60011461193a576119358a6008611635565b61193d565b60ff5b905061194c83828b878c612e25565b876119588760016151e2565b815181106119685761196861514b565b602002602001018181525050505050508080611983906151a9565b91505061189d565b50509392505050565b604b83901b60006119a6866006611635565b905060006119b5876006611635565b604581901b93909317603f83901b1792905060006119d4886006611635565b905060006119e3896006611635565b9050865160081480156119f7575085516008145b8015611a475750868881518110611a1057611a1061514b565b602002602001015160ff166000141580611a475750858881518110611a3757611a3761514b565b602002602001015160ff16600014155b15611a9b576039868981518110611a6057611a6061514b565b602002602001015160ff16901b851794506033878981518110611a8557611a8561514b565b602002602001015160ff16901b85179450611aae565b603382901b85179450603981901b851794505b601b611abb8a6001611635565b600114611ad257611acd8a6018611635565b611ad5565b60005b901b94909417936003611ae98a6001611635565b600114611b0057611afb8a6018611635565b611b03565b60005b901b8517945050505050949350505050565b600080611b23836001611635565b600114611b3a57611b35836004611635565b611b3d565b60015b905060005b818110156105f757600080611b58866006611635565b90506000611b67876006611635565b90506000611b76886003611635565b90506000611b85896001611635565b90508060011415611ba157600684901b94909417821793611bae565b600683901b949094178317935b80600114611bbd576000611bc0565b60805b60ff16611bce83600c61569c565b611bd891906151e2565b85901b9450848817975050505050508080611bf2906151a9565b915050611b42565b60606000611c09856001611635565b600114611c2b57611c1b856010611635565b611c269060016151e2565b611c41565b611c36856008611635565b611c419060016151e2565b90506040611c4f848661569c565b611c599190615688565b611c649060016151e2565b67ffffffffffffffff811115611c7c57611c7c6146e8565b604051908082528060200260200182016040528015611ca5578160200160208202803683370190505b5091506000805b82811015611d86576000611cc1886002611635565b611ccc9060016151e2565b90508060041415611cf057611ce2886004611635565b611ced9060046151e2565b90505b6000611cfd896004611635565b905060005b82811015611d7057611d15604086615755565b611d2090600461569c565b82901b87611d2f604088615688565b81518110611d3f57611d3f61514b565b602090810291909101018051909117905284611d5a816151a9565b9550508080611d68906151a9565b915050611d02565b5050508080611d7e906151a9565b915050611cac565b5050509392505050565b6060838383611dae5760405180602001604052806000815250611de5565b6040518060400160405280600181526020017f2c000000000000000000000000000000000000000000000000000000000000008152505b604051602001611df793929190615769565b60405160208183030381529060405290509392505050565b6060838383611e2d5760405180602001604052806000815250611e64565b6040518060400160405280600181526020017f2c000000000000000000000000000000000000000000000000000000000000008152505b604051602001611df793929190615809565b611e7e61455f565b611e896002846158bc565b60ff166001148015611ea85750611ea16002836158bc565b60ff166001145b611f0e576040517f08c379a000000000000000000000000000000000000000000000000000000000815260206004820152600660248201527f4d4c3a433a30000000000000000000000000000000000000000000000000000060448201526064016102e4565b611f1f81604001518460ff16612e84565b60408101516104979060ff808616908516612ef3565b60008151600114611fa2576040517f08c379a000000000000000000000000000000000000000000000000000000000815260206004820152600a60248201527f43414c433a5056493a300000000000000000000000000000000000000000000060448201526064016102e4565b815160011415611fb457506000610497565b50600092915050565b600062ffffff601b848460ff1681518110611fda57611fda61514b565b602090810291909101015160800151901c169050600062ffffff6003858560ff168151811061200b5761200b61514b565b602002602001015160800151901c169050600080612058868660ff16815181106120375761203761514b565b602002602001015160800151603381901c603f9081169260399290921c1690565b91509150600080612077888860ff1681518110610ba557610ba561514b565b60208b8101805160ff85811690915290519083169101526040805160e0810182526001918101918252929450909250819060608201603f60128b901c1660ff168152602001603f600c8b901c1660ff168152602001603f60068b901c1660ff168152602001603f60ff908b1681169091529082526040805160608101825288831681529187166020838101919091526001838301819052938101929092528c820151810193909352825160a081019093529082528101603f601288901c1660ff168152602001603f600c88901c1660ff168152602001603f600688901c1660ff168152602001603f60ff90881616905260208a015160a00152604080516008808252610120820190925290816020015b60408051606081018252600080825260208083018290529282015282527fffffffffffffffffffffffffffffffffffffffffffffffffffffffffffffffff9092019101816121875790505060208a015160600152604080516008808252610120820190925290816020015b60408051606081018252600080825260208083018290529282015282527fffffffffffffffffffffffffffffffffffffffffffffffffffffffffffffffff9092019101816121f257505060208a01516080015260005b600881101561233757600080600061227e8c8c60ff168151811061226e5761226e61514b565b6020026020010151856000613007565b925092509250801561232157828d602001516080015185815181106122a5576122a561514b565b60200260200101516000019060ff16908160ff1681525050818d602001516080015185815181106122d8576122d861514b565b60200260200101516020019060ff16908160ff168152505060018d6020015160800151858151811061230c5761230c61514b565b60209081029190910101519015156040909101525b505050808061232f906151a9565b915050612248565b5060005b600881101561242a5760008060006123718c8c60ff16815181106123615761236161514b565b6020026020010151856001613007565b925092509250801561241457828d602001516060015185815181106123985761239861514b565b60200260200101516000019060ff16908160ff1681525050818d602001516060015185815181106123cb576123cb61514b565b60200260200101516020019060ff16908160ff168152505060018d602001516060015185815181106123ff576123ff61514b565b60209081029190910101519015156040909101525b5050508080612422906151a9565b91505061233b565b50600060a08a0181905260808a015260608901515167ffffffffffffffff811115612457576124576146e8565b6040519080825280602002602001820160405280156124e057816020015b6124cd6040805160e0810182526000918101828152606082018390526080820183905260a0820183905260c0820192909252908190815260408051606081018252600080825260208281018290529282015291015290565b8152602001906001900390816124755790505b5060608a01526007604b898960ff16815181106124ff576124ff61514b565b602002602001015160800151901c16896000019060ff16908160ff1681525050612556888860ff16815181106125375761253761514b565b602002602001015183838c60400151613067909392919063ffffffff16565b505050505050505050565b60008260200151826000015160ff16815181106125805761258061514b565b6020026020010151905060008260200151604001519050826020015160a001516040015160ff166000141580156125be575080516040015160ff1615155b80156125e0575081600001516040015160ff1681600001516040015160ff1611155b1561267e5780516040908101518351909101516000916125ff916158de565b90506126296001856020015160a001516040015161261d91906158de565b6040860151908361311f565b80826020015160000181815161263f91906156fb565b60ff90811690915260208087015160a0015101511615905061267c5780846020015160a0015160200181815161267591906156fb565b60ff169052505b505b60208084015160a00151015160ff16158015906126a2575080516020015160ff1615155b80156126c4575081600001516020015160ff1681600001516020015160ff1611155b15612709576127096001846020015160a00151602001516126e591906158de565b82516020908101518551909101516126fd91906158de565b6040860151919061311f565b602083015160a001516080015160ff161580159061272e575080516080015160ff1615155b8015612750575081600001516080015160ff1681600001516080015160ff1611155b156127e557805160809081015183519091015160009161276f916158de565b602085015160a0015160800151604086015191925061278f91908361321b565b8082602001516020018181516127a591906156fb565b60ff908116909152602086015160a0015160600151161590506127e35780846020015160a001516060018181516127dc91906156fb565b60ff169052505b505b602083015160a001516060015160ff161580159061280a575080516060015160ff1615155b801561282c575081600001516060015160ff1681600001516060015160ff1611155b1561286457602083015160a00151606090810151825182015184519092015161286492612858916158de565b6040860151919061321b565b50505050565b60008260200151826000015160ff16815181106128895761288961514b565b602002602001015190506000826020015160400151905080602001516000015160ff1682602001516000015160ff16116128c45760006128da565b6020808201515190830151516128da91906158de565b60ff90811660a08501526020808301518101518482015190910151908216911611612906576000612922565b80602001516020015182602001516020015161292291906158de565b60ff16608084015260a0830180519061293a82615586565b60ff1690525060a0830151608084015160408501518051602090910151875161286494909390929091613304565b815161297390613348565b801561298757506129878160400151613348565b156129e357600061299b8360000151613358565b905060006129ac8360400151613358565b905080151580156129cb5750602382901c600f16602382901c600f1610155b156129dc576129dc81855190613381565b5050612968565b8151604081015160800151603f81811c8116835260459190911c1660209091015281516000606082018190526080820181905260c0820181905260a090910152612a4a81604001516000606082018190526080820181905260c0820181905260a090910152565b5050565b612a57816133aa565b50565b60005b8160600151518160ff161015612b1a57600082606001518260ff1681518110612a8857612a8861514b565b6020026020010151905080602001516040015115612b075760a083015160208201518051612ab79083906156fb565b60ff169052506080830151602080830151018051612ad69083906156fb565b60ff9081169091526020860151805184935090918516908110612afb57612afb61514b565b60200260200101819052505b5080612b1281615586565b915050612a5d565b505050565b606081612b5f57505060408051808201909152600181527f3000000000000000000000000000000000000000000000000000000000000000602082015290565b8160005b8115612b895780612b73816151a9565b9150612b829050600a83615688565b9150612b63565b8067ffffffffffffffff811115612ba257612ba26146e8565b6040519080825280601f01601f191660200182016040528015612bcc576020820181803683370190505b5092505b83156105f757612be16001826151fa565b9050612bee600a85615755565b612bf99060306151e2565b60f81b838281518110612c0e57612c0e61514b565b60200101907effffffffffffffffffffffffffffffffffffffffffffffffffffffffffffff1916908160001a905350612c48600a85615688565b9350612bd0565b60008080612c5d848661569c565b612c6790876151e2565b8751909150612c77600683615688565b10612c89576000809250925050612cd7565b612c94600682615755565b612c9f90602a61569c565b87612cab600684615688565b81518110612cbb57612cbb61514b565b6020908102919091010151901c91506503ffffffffff82169250505b94509492505050565b6000612ceb82613599565b600583901b63ffffff0016179050919050565b84612d0857612e1d565b6000612d158787846135a7565b9050868181518110612d2957612d2961514b565b602002602001015160000151612d3e86611405565b612d4786611405565b612d5086611405565b604051602001612d639493929190615901565b604051602081830303815290604052878281518110612d8457612d8461514b565b6020908102919091010151528115612e1b57868181518110612da857612da861514b565b602002602001015160000151612dbe6001611405565b612dc787611405565b612dda612dd58860016151e2565b611405565b604051602001612ded94939291906159d7565b604051602081830303815290604052878281518110612e0e57612e0e61514b565b6020908102919091010151525b505b505050505050565b60006027612e3283613746565b60ff16901b176023612e438461375a565b60ff16901b17601b612e548561376a565b60ff16901b81179050600386901b81179050612e7a612e728661376a565b60ff1661377a565b1795945050505050565b6006612e90828061569c565b612e9a9190615688565b612ea59060026151e2565b67ffffffffffffffff811115612ebd57612ebd6146e8565b604051908082528060200260200182016040528015612ee6578160200160208202803683370190505b5082604001819052505050565b603f821115612f5e576040517f08c379a000000000000000000000000000000000000000000000000000000000815260206004820152600b60248201527f564552533a534554573a3000000000000000000000000000000000000000000060448201526064016102e4565b603f811115612fc9576040517f08c379a000000000000000000000000000000000000000000000000000000000815260206004820152600b60248201527f564552533a534554573a3100000000000000000000000000000000000000000060448201526064016102e4565b7ffffffffffffffffffffffffffffffffffffffffffffff8007fffffffffffffff6080909301805160459290921b603f9390931b9190931617179052565b6000806000808461301957600061301c565b60805b60ff1661302a87600c61569c565b61303491906151e2565b6060880151901c9050610fff16603f81169350600681901c92508315158061305b57508215155b91505093509350939050565b60ff8116602085015260005b818110156130f75760005b838110156130e457613090868561379a565b50600061309e868385613834565b905080156130c65760006130b287836138c9565b505090506130c08882613381565b506130d1565b6130d1876000613381565b50806130dc816151a9565b91505061307e565b50806130ef816151a9565b915050613073565b5060ff821684526000606085018190526080850181905260c0850181905260a0850152612864565b60005b835160ff168110156131fd57835160ff165b8360ff16811115613190578360ff1681101561314f57613190565b61317e61315f60ff8516836151e2565b6040870151849061317190858361390b565b6040890151929190613935565b8061318881615720565b915050613134565b50600061319e8460016156fb565b60ff1690505b6131ae83856156fb565b60ff1681116131ea576131d881836131718760ff16868a6040015161390b9092919063ffffffff16565b806131e2816151a9565b9150506131a4565b50806131f5816151a9565b915050613122565b50808360000181815161321091906156fb565b60ff16905250505050565b60005b836020015160ff168110156132f157602084015160ff165b8360ff16811115613284578360ff1681101561325157613284565b6132728261326260ff8616846151e2565b604088015161317190868661390b565b8061327c81615720565b915050613236565b5060006132928460016156fb565b60ff1690505b6132a283856156fb565b60ff1681116132de576132cc8282613171858860ff168a6040015161390b9092919063ffffffff16565b806132d6816151a9565b915050613298565b50806132e9816151a9565b91505061321e565b50808360200181815161321091906156fb565b60ff80851660608701819052908416608087015260c086015261332784836156fb565b60ff16855261333683826156fb565b60ff1660209095019490945250505050565b600061049782836000015161379a565b6000610497826060015160ff16836080015160ff16846040015161390b9092919063ffffffff16565b612a4a826060015160ff16836080015160ff16838560400151613935909392919063ffffffff16565b606060008060005b846020015160800151518160ff161015613592576040805160608101825260008082526020808301829052928201529086015160800151805160ff84169081106133fe576133fe61514b565b602002602001015160400151156134ee578361341981615586565b9450508560200151608001518260ff16815181106134395761343961514b565b60200260200101519050806020015186606001518360ff16815181106134615761346161514b565b6020026020010151602001516000019060ff16908160ff1681525050806000015186606001518360ff168151811061349b5761349b61514b565b6020026020010151602001516020019060ff16908160ff1681525050600186606001518360ff16815181106134d2576134d261514b565b602090810291909101810151015190151560409091015261357f565b8560200151606001518260ff168151811061350b5761350b61514b565b6020026020010151604001511561357f578261352681615586565b935050845160001415613543576135408660400151613963565b94505b613572868760200151606001518460ff16815181106135645761356461514b565b602002602001015187613bae565b905061357f868284613d04565b508061358a81615586565b9150506133b2565b5050505050565b600061049760078316613f90565b60006135b283612ce0565b6135be575060006113fe565b806135c8816151a9565b9150505b835181101561363c578381815181106135e7576135e761514b565b602002602001015160200151600014156136005761363c565b828482815181106136135761361361514b565b602002602001015160200151141561362a576113fe565b80613634816151a9565b9150506135cc565b8284828151811061364f5761364f61514b565b60200260200101516020018181525050600061366a84613599565b60ff1461368a57613685600461367f86612ce0565b90613fbc565b6136a2565b6136a26003600861369a87612ce0565b901c90613fbc565b9050821561370057806136bd6007602787901c1660416151e2565b6040516020016136ce929190615a9f565b6040516020818303038152906040528583815181106136ef576136ef61514b565b602090810291909101015152610c73565b806040516020016137119190615b39565b6040516020818303038152906040528583815181106137325761373261514b565b602090810291909101015152509392505050565b6000600782111561375657600080fd5b5090565b6000600f82111561375657600080fd5b600060ff82111561375657600080fd5b600060246137878361376a565b61379191906156d9565b60ff1692915050565b60008260a00151156138235760608301516137b69060016156fb565b60ff168260ff16116138135760808301516137d29060016156fb565b60ff16836020015160ff1614156137eb57506000610497565b60c083015160ff1660608401526080830180519061380882615586565b60ff1690525061382b565b6060830180519061380882615586565b600160a08401525b50600192915050565b6080830151600090603f90811c168161384d828561569c565b61385790866151e2565b60208701515190915061386b604083615688565b1061387b576000925050506113fe565b613886604082615755565b61389190600461569c565b60208701516138a1604084615688565b815181106138b1576138b161514b565b6020026020010151901c600f16925050509392505050565b6000806000846000015184815181106138e4576138e461514b565b602002602001015192506138f783612ce0565b9150602383901c600f165b90509250925092565b60808301516040840151600091603f90811c169061392b90858584612c4f565b5095945050505050565b6080840151603f90811c16600061394c828561569c565b61395690866151e2565b9050612e1d8682856140b7565b606060008060006139738561416e565b60408051600580825260c082019092529396509194509250816020015b60408051606081018252600080825260208083018290529282015282527fffffffffffffffffffffffffffffffffffffffffffffffffffffffffffffffff90920191018161399057905050935080846000815181106139f1576139f161514b565b60200260200101819052506040518060600160405280826000015160ff168152602001848360200151613a2491906158de565b60ff1681526020016001151581525084600181518110613a4657613a4661514b565b602090810291909101015282613a5d6002826158bc565b60ff1615613a735780613a6f81615586565b9150505b6040805160608101909152825160ff16815260208101613a946002846156d9565b8460200151613aa391906158de565b60ff1681526020016001151581525085600281518110613ac557613ac561514b565b602090810291909101015282613adc6002826158bc565b60ff1615613af25780613aee81615586565b9150505b6040805160608101909152835160ff16815260208101613b136002846156d9565b8560200151613b2291906156fb565b60ff1681526020016001151581525086600381518110613b4457613b4461514b565b60200260200101819052506040518060600160405280846000015160ff168152602001858560200151613b7791906156fb565b60ff1681526020016001151581525086600481518110613b9957613b9961514b565b60200260200101819052505050505050919050565b604080516060810182526000808252602082018190529181019190915281836000015160ff1681518110613be457613be461514b565b60209081029190910101515160ff908116825283518351849291909116908110613c1057613c1061514b565b60209081029190910181015181015160ff908116838301526001604084015284820151161015613c5b5782602001518160200151613c4e91906158de565b60ff166020820152613c84565b60208360200151613c6c91906158de565b8160200151613c7b91906156fb565b60ff1660208201525b805160208201516040808701510151613ca592909160ff9182169116614543565b6113fe57806020015160ff1682600081518110613cc457613cc461514b565b60200260200101516020015160ff161115613cf45760208101805190613ce982615586565b60ff16905250613c84565b60208101805190613ce982615ba5565b6040805160a0810182526000808252602082018190529181018290526060810182905260808101919091525b604084015151613d42906001906158de565b60ff16836000015160ff16108015613d8f5750613d8f81602001516001613d6991906156fb565b8451613d7591906156fb565b602085015160408088015101519160ff9081169116614543565b15613daf5760208101805190613da482615586565b60ff16905250613d30565b825160ff1615801590613ddb57506040810151613dcd9060016156fb565b60ff16836000015160ff1610155b8015613e025750613e0281604001516001613df691906156fb565b8451613d7591906158de565b15613e225760408101805190613e1782615586565b60ff16905250613daf565b602083015160ff1615801590613e5157506060810151613e439060016156fb565b60ff16836020015160ff1610155b8015613e93575082516060820151613e939160ff1690613e729060016156fb565b8560200151613e8191906158de565b6040808801510151919060ff16614543565b15613eb35760608101805190613ea882615586565b60ff16905250613e22565b6001846040015160200151613ec891906158de565b60ff16836020015160ff16108015613f04575082516080820151613f049160ff1690613ef59060016156fb565b8560200151613e8191906156fb565b15613f245760808101805190613f1982615586565b60ff16905250613eb3565b83606001518260ff1681518110613f3d57613f3d61514b565b602002602001015160200151604001516128645760405180604001604052808281526020018481525084606001518360ff1681518110613f7f57613f7f61514b565b602002602001018190525050505050565b60008160071415613fa3575060ff919050565b613fac82613746565b613791906024615be0565b919050565b60606000613fcb83600261569c565b67ffffffffffffffff811115613fe357613fe36146e8565b6040519080825280601f01601f19166020018201604052801561400d576020820181803683370190505b5080519091505b8015610c73577f303132333435363738396162636465660000000000000000000000000000000085600f166010811061404f5761404f61514b565b1a60f81b8261405f6001846151fa565b8151811061406f5761406f61514b565b60200101907effffffffffffffffffffffffffffffffffffffffffffffffffffffffffffff1916908160001a90535060049490941c93806140af81615720565b915050614014565b6140c2600683615688565b8360400151511115612b1a5760006140ee6140de600685615755565b6140e990602a61569c565b61376a565b90506503ffffffffff60ff82161b19604085015161410d600686615688565b8151811061411d5761411d61514b565b6020908102919091010180519091169052604084015160ff821683901b90614146600686615688565b815181106141565761415661514b565b60200260200101818151179150818152505050505050565b604080516060810182526000808252602082018190529181018290528190835161419a906002906156d9565b60ff16815260208401516141b0906002906156d9565b60ff1660208201526001604082018190529250829150600080808480825b806143f057821580156141df575083155b925082156142b5576142236141f58360016156fb565b885161420191906158de565b60ff168a896020015161421491906158de565b60408d0151919060ff16614543565b801561424457506142446142388360016156fb565b885161420191906156fb565b801561427857506142786142598360016156fb565b885161426591906158de565b60ff1689896020015161421491906156fb565b8015614299575061429961428d8360016156fb565b885161426591906156fb565b156142b057816142a881615586565b9250506142b5565b600193505b856143395760008988602001516142cc91906158de565b60ff1611801561430557508651614305906142e89084906158de565b60ff166142f68b60016156fb565b896020015161421491906158de565b801561431d5750865161431d906142e89084906156fb565b15614334578861432c81615586565b995050614339565b600195505b846143cf5760018a6020015161434f91906158de565b60ff1688886020015161436291906156fb565b60ff1610801561439b5750865161439b9061437e9084906158de565b60ff1661438c8a60016156fb565b896020015161421491906156fb565b80156143b3575086516143b39061437e9084906156fb565b156143ca57876143c281615586565b9850506143cf565b600194505b8480156143d95750855b80156143e25750835b156143eb575060015b6141ce565b8760ff168960ff1614614536576000614409898b6156fb565b6144149060016156fb565b90506000600261442481846158bc565b60ff161561443c576144378360016156fb565b61443e565b825b61444891906156d9565b905060008b60018b602001518461445f91906156fb565b61446991906158de565b61447391906158de565b9050896020015160ff168160ff1611156144db5760008a602001518261449991906158de565b90506144a5818e6156fb565b9c508060ff168c60ff16116144c6576144be8c826158de565b9b508b6144d4565b6144d0818d6158de565b9b508b5b505061452b565b6000818b602001516144ed91906158de565b90508060ff168d60ff161161450e576145068d826158de565b9c508c61451c565b614518818e6158de565b9c508c5b50614527818d6156fb565b9b50505b60ff1660208a015250505b5050505050509193909250565b60008061455185858561390b565b600716151595945050505050565b6040518060e00160405280600060ff168152602001600060ff1681526020016145b06040518060a0016040528060608152602001606081526020016060815260200160008152602001600081525090565b8152600060208201819052604082018190526060820181905260809091015290565b60405180604001604052806145e561455f565b8152602001606081525090565b6040518060c00160405280600060ff16815260200161460f614636565b815260200161461c61455f565b815260606020820181905260006040830181905291015290565b6040805160e081018252600080825260208201529081016146a56040805160e0810182526000918101828152606082018390526080820183905260a0820183905260c0820192909252908190815260408051606081018252600080825260208281018290529282015291015290565b8152606060208083018290526040808401839052805160a081018252600080825292810183905290810182905280830182905260808101919091529101906145e5565b7f4e487b7100000000000000000000000000000000000000000000000000000000600052604160045260246000fd5b604051610140810167ffffffffffffffff8111828210171561473b5761473b6146e8565b60405290565b604051601f82017fffffffffffffffffffffffffffffffffffffffffffffffffffffffffffffffe016810167ffffffffffffffff81118282101715614788576147886146e8565b604052919050565b600082601f8301126147a157600080fd5b813567ffffffffffffffff8111156147bb576147bb6146e8565b6147ec60207fffffffffffffffffffffffffffffffffffffffffffffffffffffffffffffffe0601f84011601614741565b81815284602083860101111561480157600080fd5b816020850160208301376000918101602001919091529392505050565b60006020828403121561483057600080fd5b813567ffffffffffffffff81111561484757600080fd5b61485384828501614790565b949350505050565b60005b8381101561487657818101518382015260200161485e565b838111156128645750506000910152565b60208152600082518060208401526148a681604085016020870161485b565b601f017fffffffffffffffffffffffffffffffffffffffffffffffffffffffffffffffe0169190910160400192915050565b600067ffffffffffffffff8211156148f2576148f26146e8565b5060051b60200190565b600082601f83011261490d57600080fd5b8135602061492261491d836148d8565b614741565b82815260059290921b8401810191818101908684111561494157600080fd5b8286015b8481101561495c5780358352918301918301614945565b509695505050505050565b600082601f83011261497857600080fd5b8135602061498861491d836148d8565b82815260059290921b840181019181810190868411156149a757600080fd5b8286015b8481101561495c57803567ffffffffffffffff8111156149cb5760008081fd5b6149d98986838b01016148fc565b8452509183019183016149ab565b803560ff81168114613fb757600080fd5b600082601f830112614a0957600080fd5b81356020614a1961491d836148d8565b82815260059290921b84018101918181019086841115614a3857600080fd5b8286015b8481101561495c57614a4d816149e7565b8352918301918301614a3c565b803573ffffffffffffffffffffffffffffffffffffffff81168114613fb757600080fd5b600082601f830112614a8f57600080fd5b81356020614a9f61491d836148d8565b82815260059290921b84018101918181019086841115614abe57600080fd5b8286015b8481101561495c57803567ffffffffffffffff811115614ae25760008081fd5b614af08986838b0101614790565b845250918301918301614ac2565b60006101408284031215614b1157600080fd5b614b19614717565b9050813567ffffffffffffffff80821115614b3357600080fd5b614b3f858386016149f8565b83526020840135915080821115614b5557600080fd5b614b61858386016149f8565b60208401526040840135915080821115614b7a57600080fd5b614b86858386016149f8565b604084015260608401356060840152614ba160808501614a5a565b608084015260a084013560a084015260c0840135915080821115614bc457600080fd5b614bd085838601614a7e565b60c084015260e0840135915080821115614be957600080fd5b614bf585838601614a7e565b60e084015261010091508184013581811115614c1057600080fd5b614c1c86828701614790565b838501525061012091508184013581811115614c3757600080fd5b614c4386828701614790565b8385015250505092915050565b600080600060608486031215614c6557600080fd5b833567ffffffffffffffff80821115614c7d57600080fd5b614c8987838801614967565b94506020860135915080821115614c9f57600080fd5b50614cac86828701614afe565b925050613902604085016149e7565b600081518084526020808501945080840160005b83811015614ceb57815187529582019590820190600101614ccf565b509495945050505050565b6020815260006113fe6020830184614cbb565b60008060408385031215614d1c57600080fd5b823567ffffffffffffffff811115614d3357600080fd5b614d3f858286016148fc565b95602094909401359450505050565b600060208284031215614d6057600080fd5b813567ffffffffffffffff811115614d7757600080fd5b614853848285016148fc565b80358015158114613fb757600080fd5b60008060008060008060c08789031215614dac57600080fd5b863567ffffffffffffffff80821115614dc457600080fd5b614dd08a838b016148fc565b97506020890135915080821115614de657600080fd5b50614df389828a01614afe565b955050614e0260408801614d83565b9350614e1060608801614d83565b9250614e1e60808801614d83565b9150614e2c60a08801614d83565b90509295509295509295565b600080600060608486031215614e4d57600080fd5b833567ffffffffffffffff80821115614e6557600080fd5b614e7187838801614967565b94506020860135915080821115614e8757600080fd5b614e93878388016149f8565b93506040860135915080821115614ea957600080fd5b50614eb6868287016149f8565b9150509250925092565b60006020808301818452808551808352604092508286019150828160051b87010184880160005b83811015614fe5578883037fffffffffffffffffffffffffffffffffffffffffffffffffffffffffffffffc0018552815180518085529088019088850190600581901b86018a0160005b82811015614fcf577fffffffffffffffffffffffffffffffffffffffffffffffffffffffffffffffe0888303018452845160a08151818552614f7582860182614cbb565b9150508d8201518482038f860152614f8d8282614cbb565b9150508c8201518482038e860152614fa58282614cbb565b6060848101519087015260809384015193909501929092525050938b0193928b0192600101614f31565b50978a0197955050509187019150600101614ee7565b509098975050505050505050565b600080600080600060a0868803121561500b57600080fd5b853567ffffffffffffffff8082111561502357600080fd5b61502f89838a01614afe565b9650602088013591508082111561504557600080fd5b61505189838a01614790565b9550604088013591508082111561506757600080fd5b61507389838a01614790565b9450606088013591508082111561508957600080fd5b5061509688828901614790565b9250506150a560808701614d83565b90509295509295909350565b600083516150c381846020880161485b565b8351908301906150d781836020880161485b565b01949350505050565b7f646174613a696d6167652f7376672b786d6c3b636861727365743d5554462d3881527f2c0000000000000000000000000000000000000000000000000000000000000060208201526000825161513e81602185016020870161485b565b9190910160210192915050565b7f4e487b7100000000000000000000000000000000000000000000000000000000600052603260045260246000fd5b7f4e487b7100000000000000000000000000000000000000000000000000000000600052601160045260246000fd5b60007fffffffffffffffffffffffffffffffffffffffffffffffffffffffffffffffff8214156151db576151db61517a565b5060010190565b600082198211156151f5576151f561517a565b500190565b60008282101561520c5761520c61517a565b500390565b7f3c7376670000000000000000000000000000000000000000000000000000000081527f2076696577426f783d223020302000000000000000000000000000000000000060048201526000835161526f81601285016020880161485b565b7f200000000000000000000000000000000000000000000000000000000000000060129184019182015283516152ac81601384016020880161485b565b7f2220786d6c6e733d22687474703a2f2f7777772e77332e6f72672f323030302f601392909101918201527f73766722000000000000000000000000000000000000000000000000000000006033820152603701949350505050565b6000835161531a81846020880161485b565b7f207374796c653d226261636b67726f756e642d636f6c6f723a00000000000000908301908152835161535481601984016020880161485b565b7f220000000000000000000000000000000000000000000000000000000000000060199290910191820152601a01949350505050565b6000835161539c81846020880161485b565b8351908301906153b081836020880161485b565b7f222f3e00000000000000000000000000000000000000000000000000000000009101908152600301949350505050565b600084516153f381846020890161485b565b80830190507f2e000000000000000000000000000000000000000000000000000000000000008152846001820152835161543481602184016020880161485b565b0160210195945050505050565b6000835161545381846020880161485b565b7f5d5d3e3c2f7374796c653e000000000000000000000000000000000000000000908301908152835161548d81600b84016020880161485b565b01600b01949350505050565b600083516154ab81846020880161485b565b7f3e0000000000000000000000000000000000000000000000000000000000000090830190815283516154e581600184016020880161485b565b7f3c2f7376673e000000000000000000000000000000000000000000000000000060019290910191820152600701949350505050565b7f646174613a6170706c69636174696f6e2f6a736f6e3b636861727365743d555481527f462d382c0000000000000000000000000000000000000000000000000000000060208201526000825161557981602485016020870161485b565b9190910160240192915050565b600060ff821660ff81141561559d5761559d61517a565b60010192915050565b7f7b000000000000000000000000000000000000000000000000000000000000008152600085516155de816001850160208a0161485b565b8551908301906155f5816001840160208a0161485b565b855191019061560b81600184016020890161485b565b845191019061562181600184016020880161485b565b7f7d00000000000000000000000000000000000000000000000000000000000000600192909101918201526002019695505050505050565b7f4e487b7100000000000000000000000000000000000000000000000000000000600052601260045260246000fd5b60008261569757615697615659565b500490565b6000817fffffffffffffffffffffffffffffffffffffffffffffffffffffffffffffffff04831182151516156156d4576156d461517a565b500290565b600060ff8316806156ec576156ec615659565b8060ff84160491505092915050565b600060ff821660ff84168060ff038211156157185761571861517a565b019392505050565b60008161572f5761572f61517a565b507fffffffffffffffffffffffffffffffffffffffffffffffffffffffffffffffff0190565b60008261576457615764615659565b500690565b60007f220000000000000000000000000000000000000000000000000000000000000080835285516157a2816001860160208a0161485b565b7f223a22000000000000000000000000000000000000000000000000000000000060019185019182015285516157df816004840160208a0161485b565b0160048101919091528351906157fc82600583016020880161485b565b0160050195945050505050565b7f220000000000000000000000000000000000000000000000000000000000000081526000845161584181600185016020890161485b565b7f223a7b0000000000000000000000000000000000000000000000000000000000600191840191820152845161587e81600484016020890161485b565b7f7d000000000000000000000000000000000000000000000000000000000000006004929091019182015283516157fc81600584016020880161485b565b600060ff8316806158cf576158cf615659565b8060ff84160691505092915050565b600060ff821660ff8416808210156158f8576158f861517a565b90039392505050565b60008551615913818460208a0161485b565b7f4d00000000000000000000000000000000000000000000000000000000000000908301908152855161594d816001840160208a0161485b565b7f200000000000000000000000000000000000000000000000000000000000000060019290910191820152845161598b81600284016020890161485b565b7f68000000000000000000000000000000000000000000000000000000000000006002929091019182015283516159c981600384016020880161485b565b016003019695505050505050565b600085516159e9818460208a0161485b565b7f76000000000000000000000000000000000000000000000000000000000000009083019081528551615a23816001840160208a0161485b565b7f4c00000000000000000000000000000000000000000000000000000000000000600192909101918201528451615a6181600284016020890161485b565b7f20000000000000000000000000000000000000000000000000000000000000006002929091019182015283516159c981600384016020880161485b565b7f3c706174682066696c6c3d222300000000000000000000000000000000000000815260008351615ad781600d85016020880161485b565b7f2220636c6173733d220000000000000000000000000000000000000000000000600d93909101928301525060168101919091527f2220643d220000000000000000000000000000000000000000000000000000006036820152603b01919050565b7f3c70617468207374726f6b653d22230000000000000000000000000000000000815260008251615b7181600f85016020870161485b565b7f2220643d22000000000000000000000000000000000000000000000000000000600f939091019283015250601401919050565b600060ff821680615bb857615bb861517a565b7fffffffffffffffffffffffffffffffffffffffffffffffffffffffffffffffff0192915050565b600060ff821660ff84168160ff0481118215151615615c0157615c0161517a565b02939250505056fe4142434445464748494a4b4c4d4e4f505152535455565758595a6162636465666768696a6b6c6d6e6f707172737475767778797a303132333435363738392b2fa2646970667358221220324f8628754b61933f1c337e3c4aefb0240d1add204f90d4829a8262d7d21e2864736f6c6343000809003360a060405234801561001057600080fd5b50336080526080516116036100376000396000818161015c01526104d001526116036000f3fe608060405234801561001057600080fd5b50600436106100885760003560e01c8063645ace531161005b578063645ace53146101315780636aea29a31461015757806387ae70311461017e578063f9ec93d41461019157600080fd5b80630c67edb81461008d57806311c16aa3146100d757806319ab453c146100fc57806336aa589d14610111575b600080fd5b6000546100ad9073ffffffffffffffffffffffffffffffffffffffff1681565b60405173ffffffffffffffffffffffffffffffffffffffff90911681526020015b60405180910390f35b6100ea6100e5366004610e11565b6101b1565b60405160ff90911681526020016100ce565b61010f61010a366004610e64565b610497565b005b61012461011f366004610f43565b61059f565b6040516100ce9190610fe0565b6100ea61013f366004611088565b60ff9081166000908152600260205260409020541690565b6100ad7f000000000000000000000000000000000000000000000000000000000000000081565b61010f61018c3660046110a3565b6106bd565b6101a461019f3660046110e5565b610935565b6040516100ce9190611118565b600060088460ff1610610225576040517f08c379a000000000000000000000000000000000000000000000000000000000815260206004820152600360248201527f463a33000000000000000000000000000000000000000000000000000000000060448201526064015b60405180910390fd5b600061023083610bf6565b905060008160ff161161029f576040517f08c379a000000000000000000000000000000000000000000000000000000000815260206004820152600360248201527f463a300000000000000000000000000000000000000000000000000000000000604482015260640161021c565b60006102ab8585610c0a565b600080546040517f64d350bd00000000000000000000000000000000000000000000000000000000815233600482015260ff808b1660248301528616604482015273ffffffffffffffffffffffffffffffffffffffff8085166064830152939450919216906364d350bd90608401602060405180830381600087803b15801561033357600080fd5b505af1158015610347573d6000803e3d6000fd5b505050506040513d601f19601f8201168201806040525081019061036b919061115c565b9050806103d4576040517f08c379a000000000000000000000000000000000000000000000000000000000815260206004820152600360248201527f433a300000000000000000000000000000000000000000000000000000000000604482015260640161021c565b60ff808816600081815260016020818152604080842080549384018155845281842090920180547fffffffffffffffffffffff0000000000000000000000000000000000000000001673ffffffffffffffffffffffffffffffffffffffff891674ff000000000000000000000000000000000000000060a08c901b1617179055928252600290925290812080548693919291610472918591166111ad565b92506101000a81548160ff021916908360ff1602179055508293505050509392505050565b60005473ffffffffffffffffffffffffffffffffffffffff161580156104f257503373ffffffffffffffffffffffffffffffffffffffff7f000000000000000000000000000000000000000000000000000000000000000016145b610558576040517f08c379a000000000000000000000000000000000000000000000000000000000815260206004820152600360248201527f433a300000000000000000000000000000000000000000000000000000000000604482015260640161021c565b600080547fffffffffffffffffffffffff00000000000000000000000000000000000000001673ffffffffffffffffffffffffffffffffffffffff92909216919091179055565b6060815167ffffffffffffffff8111156105bb576105bb610ea1565b6040519080825280602002602001820160405280156105ee57816020015b60608152602001906001900390816105d95790505b50905060005b82518160ff1610156106b757828160ff1681518110610615576106156111d2565b602002602001015160ff166000141561065e576040805160008152602081019091528251839060ff841690811061064e5761064e6111d2565b60200260200101819052506106a5565b61068481848360ff1681518110610677576106776111d2565b6020026020010151610935565b828260ff1681518110610699576106996111d2565b60200260200101819052505b806106af81611201565b9150506105f4565b50919050565b60005b60088160ff1610156109305760006106ff84848460ff168181106106e6576106e66111d2565b90506020028101906106f89190611221565b9050610bf6565b905060ff81161561091d57600061073b85858560ff16818110610724576107246111d2565b90506020028101906107369190611221565b610c0a565b600080546040517f64d350bd00000000000000000000000000000000000000000000000000000000815233600482015260ff80881660248301528616604482015273ffffffffffffffffffffffffffffffffffffffff8085166064830152939450919216906364d350bd90608401602060405180830381600087803b1580156107c357600080fd5b505af11580156107d7573d6000803e3d6000fd5b505050506040513d601f19601f820116820180604052508101906107fb919061115c565b905080610864576040517f08c379a000000000000000000000000000000000000000000000000000000000815260206004820152600360248201527f433a300000000000000000000000000000000000000000000000000000000000604482015260640161021c565b60ff808516600081815260016020818152604080842080549384018155845281842090920180547fffffffffffffffffffffff0000000000000000000000000000000000000000001673ffffffffffffffffffffffffffffffffffffffff891674ff000000000000000000000000000000000000000060a08c901b1617179055928252600290925290812080548693919291610902918591166111ad565b92506101000a81548160ff021916908360ff16021790555050505b508061092881611201565b9150506106c0565b505050565b606060ff82166109a1576040517f08c379a000000000000000000000000000000000000000000000000000000000815260206004820152600360248201527f463a310000000000000000000000000000000000000000000000000000000000604482015260640161021c565b816109ab81611289565b60ff808616600090815260026020526040902054919450908116915083168111610a31576040517f08c379a000000000000000000000000000000000000000000000000000000000815260206004820152600360248201527f463a320000000000000000000000000000000000000000000000000000000000604482015260640161021c565b60ff8416600090815260016020908152604080832080548251818502810185019093528083529192909190830182828015610aa357602002820191906000526020600020905b815474ffffffffffffffffffffffffffffffffffffffffff168152600190910190602001808311610a77575b50505050509050600080600080600090505b8451811015610b5f57600060a0868381518110610ad457610ad46111d2565b602002602001015174ffffffffffffffffffffffffffffffffffffffffff16901c90508860ff168184610b0791906111ad565b60ff161115610b4057858281518110610b2257610b226111d2565b602002602001015194508289610b3891906112c4565b935050610b5f565b610b4a81846111ad565b92505080610b57816112e7565b915050610ab5565b5073ffffffffffffffffffffffffffffffffffffffff8316610bdd576040517f08c379a000000000000000000000000000000000000000000000000000000000815260206004820152600360248201527f463a330000000000000000000000000000000000000000000000000000000000604482015260640161021c565b610bea838360ff16610cfb565b98975050505050505050565b600060ff821115610c0657600080fd5b5090565b6000808383604051602001610c2092919061136f565b604080517fffffffffffffffffffffffffffffffffffffffffffffffffffffffffffffffe081840301815290829052610c5b91602001611448565b60405160208183030381529060405290508051602082016000f0915073ffffffffffffffffffffffffffffffffffffffff8216610cf4576040517f08c379a000000000000000000000000000000000000000000000000000000000815260206004820152601160248201527f4445504c4f594d454e545f4641494c4544000000000000000000000000000000604482015260640161021c565b5092915050565b6060610d0683610d3a565b806020019051810190610d1991906114af565b8281518110610d2a57610d2a6111d2565b6020026020010151905092915050565b6060610d68826001610d638173ffffffffffffffffffffffffffffffffffffffff84163b6115b6565b610d6e565b92915050565b60408051603f83017fffffffffffffffffffffffffffffffffffffffffffffffffffffffffffffffe0168101909152818152818360208301863c9392505050565b803560ff81168114610dc057600080fd5b919050565b60008083601f840112610dd757600080fd5b50813567ffffffffffffffff811115610def57600080fd5b6020830191508360208260051b8501011115610e0a57600080fd5b9250929050565b600080600060408486031215610e2657600080fd5b610e2f84610daf565b9250602084013567ffffffffffffffff811115610e4b57600080fd5b610e5786828701610dc5565b9497909650939450505050565b600060208284031215610e7657600080fd5b813573ffffffffffffffffffffffffffffffffffffffff81168114610e9a57600080fd5b9392505050565b7f4e487b7100000000000000000000000000000000000000000000000000000000600052604160045260246000fd5b604051601f82017fffffffffffffffffffffffffffffffffffffffffffffffffffffffffffffffe016810167ffffffffffffffff81118282101715610f1757610f17610ea1565b604052919050565b600067ffffffffffffffff821115610f3957610f39610ea1565b5060051b60200190565b60006020808385031215610f5657600080fd5b823567ffffffffffffffff811115610f6d57600080fd5b8301601f81018513610f7e57600080fd5b8035610f91610f8c82610f1f565b610ed0565b81815260059190911b82018301908381019087831115610fb057600080fd5b928401925b82841015610fd557610fc684610daf565b82529284019290840190610fb5565b979650505050505050565b6000602080830181845280855180835260408601915060408160051b87010192508387016000805b8381101561107a578886037fffffffffffffffffffffffffffffffffffffffffffffffffffffffffffffffc0018552825180518088529088019088880190845b818110156110645783518352928a0192918a0191600101611048565b5090975050509386019391860191600101611008565b509398975050505050505050565b60006020828403121561109a57600080fd5b610e9a82610daf565b600080602083850312156110b657600080fd5b823567ffffffffffffffff8111156110cd57600080fd5b6110d985828601610dc5565b90969095509350505050565b600080604083850312156110f857600080fd5b61110183610daf565b915061110f60208401610daf565b90509250929050565b6020808252825182820181905260009190848201906040850190845b8181101561115057835183529284019291840191600101611134565b50909695505050505050565b60006020828403121561116e57600080fd5b81518015158114610e9a57600080fd5b7f4e487b7100000000000000000000000000000000000000000000000000000000600052601160045260246000fd5b600060ff821660ff84168060ff038211156111ca576111ca61117e565b019392505050565b7f4e487b7100000000000000000000000000000000000000000000000000000000600052603260045260246000fd5b600060ff821660ff8114156112185761121861117e565b60010192915050565b60008083357fffffffffffffffffffffffffffffffffffffffffffffffffffffffffffffffe184360301811261125657600080fd5b83018035915067ffffffffffffffff82111561127157600080fd5b6020019150600581901b3603821315610e0a57600080fd5b600060ff82168061129c5761129c61117e565b7fffffffffffffffffffffffffffffffffffffffffffffffffffffffffffffffff0192915050565b600060ff821660ff8416808210156112de576112de61117e565b90039392505050565b60007fffffffffffffffffffffffffffffffffffffffffffffffffffffffffffffffff8214156113195761131961117e565b5060010190565b81835260007f07ffffffffffffffffffffffffffffffffffffffffffffffffffffffffffffff83111561135257600080fd5b8260051b8083602087013760009401602001938452509192915050565b6020808252818101839052600090600560408085019086831b86010187855b8881101561143a577fffffffffffffffffffffffffffffffffffffffffffffffffffffffffffffffc088840301845281357fffffffffffffffffffffffffffffffffffffffffffffffffffffffffffffffe18b36030181126113ef57600080fd5b8a01803567ffffffffffffffff81111561140857600080fd5b80871b36038c131561141957600080fd5b61142685828a8501611320565b95880195945050509085019060010161138e565b509098975050505050505050565b7f600b5981380380925939f300000000000000000000000000000000000000000081526000825160005b8181101561148f576020818601810151600c868401015201611472565b818111156114a1576000600c83860101525b5091909101600c0192915050565b600060208083850312156114c257600080fd5b825167ffffffffffffffff808211156114da57600080fd5b818501915085601f8301126114ee57600080fd5b81516114fc610f8c82610f1f565b818152600591821b840185019185820191908984111561151b57600080fd5b8686015b848110156115a7578051868111156115375760008081fd5b8701603f81018c136115495760008081fd5b88810151604061155b610f8c83610f1f565b82815291851b83018101918b8101908f8411156115785760008081fd5b938201935b838510156115965784518252938c0193908c019061157d565b88525050509388019350870161151f565b50909998505050505050505050565b6000828210156115c8576115c861117e565b50039056fea2646970667358221220becdda533cd439dd46c1ffb60e1c160c43feb6bde6e086b861d15c0083b2bb5b64736f6c63430008090033",
  "devdoc": {
    "author": "nugg.xyz - danny7even & dub6ix",
    "details": "hold my margarita",
    "kind": "dev",
    "methods": {},
    "title": "dotnugg V1 - onchain encoder/decoder protocol for dotnugg files",
    "version": 1
  },
  "userdoc": {
    "kind": "user",
    "methods": {},
    "notice": "yoU CAN'T HaVe ImAgES oN THe BlOCkcHAIn",
    "version": 1
  },
  "storageLayout": {
    "storage": [
      {
        "astId": 1706,
        "contract": "src/DotnuggV1.sol:DotnuggV1",
        "label": "lib",
        "offset": 0,
        "slot": "0",
        "type": "t_contract(DotnuggV1Lib)17141"
      },
      {
        "astId": 1708,
        "contract": "src/DotnuggV1.sol:DotnuggV1",
        "label": "template",
        "offset": 0,
        "slot": "1",
        "type": "t_address"
      }
    ],
    "types": {
      "t_address": {
        "encoding": "inplace",
        "label": "address",
        "numberOfBytes": "20"
      },
      "t_contract(DotnuggV1Lib)17141": {
        "encoding": "inplace",
        "label": "contract DotnuggV1Lib",
        "numberOfBytes": "20"
      }
    }
  }
}