{
  "address": "0x6adffE28e703be151A7157D425B680E74166bC15",
  "abi": [
    {
      "inputs": [],
      "stateMutability": "nonpayable",
      "type": "constructor"
    },
    {
      "inputs": [
        {
          "internalType": "address",
          "name": "implementer",
          "type": "address"
        },
        {
          "internalType": "uint256",
          "name": "artifactId",
          "type": "uint256"
        },
        {
          "internalType": "address",
          "name": "resolver",
          "type": "address"
        },
        {
          "internalType": "bytes",
          "name": "data",
          "type": "bytes"
        }
      ],
      "name": "comp",
      "outputs": [
        {
          "components": [
            {
              "internalType": "uint256[]",
              "name": "file",
              "type": "uint256[]"
            },
            {
              "components": [
                {
                  "internalType": "uint8[]",
                  "name": "ids",
                  "type": "uint8[]"
                },
                {
                  "internalType": "uint8[]",
                  "name": "xovers",
                  "type": "uint8[]"
                },
                {
                  "internalType": "uint8[]",
                  "name": "yovers",
                  "type": "uint8[]"
                },
                {
                  "internalType": "uint256",
                  "name": "version",
                  "type": "uint256"
                },
                {
                  "internalType": "address",
                  "name": "implementer",
                  "type": "address"
                },
                {
                  "internalType": "uint256",
                  "name": "artifactId",
                  "type": "uint256"
                },
                {
                  "internalType": "string[]",
                  "name": "labels",
                  "type": "string[]"
                },
                {
                  "internalType": "string[]",
                  "name": "styles",
                  "type": "string[]"
                },
                {
                  "internalType": "string",
                  "name": "background",
                  "type": "string"
                },
                {
                  "internalType": "bytes",
                  "name": "data",
                  "type": "bytes"
                }
              ],
              "internalType": "struct IDotnuggV1Metadata.Memory",
              "name": "metadata",
              "type": "tuple"
            }
          ],
          "internalType": "struct IDotnuggV1File.Compressed",
          "name": "res",
          "type": "tuple"
        }
      ],
      "stateMutability": "view",
      "type": "function"
    },
    {
      "inputs": [
        {
          "internalType": "address",
          "name": "implementer",
          "type": "address"
        },
        {
          "internalType": "uint256",
          "name": "artifactId",
          "type": "uint256"
        },
        {
          "internalType": "address",
          "name": "resolver",
          "type": "address"
        },
        {
          "internalType": "string",
          "name": "name",
          "type": "string"
        },
        {
          "internalType": "string",
          "name": "desc",
          "type": "string"
        },
        {
          "internalType": "bool",
          "name": "base64",
          "type": "bool"
        },
        {
          "internalType": "bytes",
          "name": "data",
          "type": "bytes"
        }
      ],
      "name": "dat",
      "outputs": [
        {
          "internalType": "string",
          "name": "res",
          "type": "string"
        }
      ],
      "stateMutability": "view",
      "type": "function"
    },
    {
      "inputs": [
        {
          "internalType": "address",
          "name": "implementer",
          "type": "address"
        },
        {
          "internalType": "uint256",
          "name": "artifactId",
          "type": "uint256"
        },
        {
          "internalType": "address",
          "name": "resolver",
          "type": "address"
        },
        {
          "internalType": "bool",
          "name": "rekt",
          "type": "bool"
        },
        {
          "internalType": "bool",
          "name": "back",
          "type": "bool"
        },
        {
          "internalType": "bool",
          "name": "stats",
          "type": "bool"
        },
        {
          "internalType": "bool",
          "name": "base64",
          "type": "bool"
        },
        {
          "internalType": "bytes",
          "name": "data",
          "type": "bytes"
        }
      ],
      "name": "img",
      "outputs": [
        {
          "internalType": "string",
          "name": "res",
          "type": "string"
        }
      ],
      "stateMutability": "view",
      "type": "function"
    },
    {
      "inputs": [],
      "name": "lib",
      "outputs": [
        {
          "internalType": "contract DotnuggV1Lib",
          "name": "",
          "type": "address"
        }
      ],
      "stateMutability": "view",
      "type": "function"
    },
    {
      "inputs": [
        {
          "internalType": "address",
          "name": "implementer",
          "type": "address"
        },
        {
          "internalType": "uint256",
          "name": "artifactId",
          "type": "uint256"
        },
        {
          "internalType": "address",
          "name": "resolver",
          "type": "address"
        },
        {
          "internalType": "bytes",
          "name": "data",
          "type": "bytes"
        }
      ],
      "name": "proc",
      "outputs": [
        {
          "components": [
            {
              "internalType": "uint256[]",
              "name": "file",
              "type": "uint256[]"
            },
            {
              "components": [
                {
                  "internalType": "uint8[]",
                  "name": "ids",
                  "type": "uint8[]"
                },
                {
                  "internalType": "uint8[]",
                  "name": "xovers",
                  "type": "uint8[]"
                },
                {
                  "internalType": "uint8[]",
                  "name": "yovers",
                  "type": "uint8[]"
                },
                {
                  "internalType": "uint256",
                  "name": "version",
                  "type": "uint256"
                },
                {
                  "internalType": "address",
                  "name": "implementer",
                  "type": "address"
                },
                {
                  "internalType": "uint256",
                  "name": "artifactId",
                  "type": "uint256"
                },
                {
                  "internalType": "string[]",
                  "name": "labels",
                  "type": "string[]"
                },
                {
                  "internalType": "string[]",
                  "name": "styles",
                  "type": "string[]"
                },
                {
                  "internalType": "string",
                  "name": "background",
                  "type": "string"
                },
                {
                  "internalType": "bytes",
                  "name": "data",
                  "type": "bytes"
                }
              ],
              "internalType": "struct IDotnuggV1Metadata.Memory",
              "name": "metadata",
              "type": "tuple"
            }
          ],
          "internalType": "struct IDotnuggV1File.Processed",
          "name": "res",
          "type": "tuple"
        }
      ],
      "stateMutability": "view",
      "type": "function"
    },
    {
      "inputs": [
        {
          "internalType": "address",
          "name": "implementer",
          "type": "address"
        }
      ],
      "name": "proxyOf",
      "outputs": [
        {
          "internalType": "contract IDotnuggV1StorageProxy",
          "name": "proxy",
          "type": "address"
        }
      ],
      "stateMutability": "view",
      "type": "function"
    },
    {
      "inputs": [
        {
          "internalType": "address",
          "name": "implementer",
          "type": "address"
        },
        {
          "internalType": "uint256",
          "name": "artifactId",
          "type": "uint256"
        },
        {
          "internalType": "address",
          "name": "resolver",
          "type": "address"
        },
        {
          "internalType": "bytes",
          "name": "data",
          "type": "bytes"
        }
      ],
      "name": "raw",
      "outputs": [
        {
          "components": [
            {
              "internalType": "uint256[][]",
              "name": "file",
              "type": "uint256[][]"
            },
            {
              "components": [
                {
                  "internalType": "uint8[]",
                  "name": "ids",
                  "type": "uint8[]"
                },
                {
                  "internalType": "uint8[]",
                  "name": "xovers",
                  "type": "uint8[]"
                },
                {
                  "internalType": "uint8[]",
                  "name": "yovers",
                  "type": "uint8[]"
                },
                {
                  "internalType": "uint256",
                  "name": "version",
                  "type": "uint256"
                },
                {
                  "internalType": "address",
                  "name": "implementer",
                  "type": "address"
                },
                {
                  "internalType": "uint256",
                  "name": "artifactId",
                  "type": "uint256"
                },
                {
                  "internalType": "string[]",
                  "name": "labels",
                  "type": "string[]"
                },
                {
                  "internalType": "string[]",
                  "name": "styles",
                  "type": "string[]"
                },
                {
                  "internalType": "string",
                  "name": "background",
                  "type": "string"
                },
                {
                  "internalType": "bytes",
                  "name": "data",
                  "type": "bytes"
                }
              ],
              "internalType": "struct IDotnuggV1Metadata.Memory",
              "name": "metadata",
              "type": "tuple"
            }
          ],
          "internalType": "struct IDotnuggV1File.Raw",
          "name": "res",
          "type": "tuple"
        }
      ],
      "stateMutability": "view",
      "type": "function"
    },
    {
      "inputs": [],
      "name": "register",
      "outputs": [
        {
          "internalType": "contract IDotnuggV1StorageProxy",
          "name": "proxy",
          "type": "address"
        }
      ],
      "stateMutability": "nonpayable",
      "type": "function"
    },
    {
      "inputs": [],
      "name": "template",
      "outputs": [
        {
          "internalType": "address",
          "name": "",
          "type": "address"
        }
      ],
      "stateMutability": "view",
      "type": "function"
    }
  ],
  "transactionHash": "0x23a6099a01e827fcc212c421ea115cbd7b30eb3c99e88419db9072ed2b722514",
  "args": [],
  "solcInputHash": "c90f09b49a870d1e2aac3d303fbc7c8d",
  "bytecode": "0x60806040523480156200001157600080fd5b506040516200002090620000b0565b604051809103906000f0801580156200003d573d6000803e3d6000fd5b50600080546001600160a01b0319166001600160a01b03929092169190911790556040516200006c90620000be565b604051809103906000f08015801562000089573d6000803e3d6000fd5b50600180546001600160a01b0319166001600160a01b0392909216919091179055620000cc565b615cef8062001c5783390190565b61150d806200794683390190565b611b7b80620000dc6000396000f3fe608060405234801561001057600080fd5b50600436106100a35760003560e01c80635f6d703111610076578063928012301161005b578063928012301461016d578063b0ef3d771461018d578063c1a9a508146101a057600080fd5b80635f6d70311461012d5780636f2ddd931461014d57600080fd5b80631aa3a008146100a8578063276b99f5146100da578063290966aa146100fa578063448e347f1461011a575b600080fd5b6100b06101b3565b60405173ffffffffffffffffffffffffffffffffffffffff90911681526020015b60405180910390f35b6100ed6100e8366004611037565b6102a7565b6040516100d19190611160565b61010d610108366004611173565b6104be565b6040516100d191906113e5565b6100ed610128366004611445565b6107b3565b61014061013b366004611173565b610a6b565b6040516100d1919061153b565b6001546100b09073ffffffffffffffffffffffffffffffffffffffff1681565b6000546100b09073ffffffffffffffffffffffffffffffffffffffff1681565b61014061019b366004611173565b610b62565b6100b06101ae36600461154e565b610bda565b6001546040517fffffffffffffffffffffffffffffffffffffffff0000000000000000000000003360601b1660208201526000916102229173ffffffffffffffffffffffffffffffffffffffff9091169060340160405160208183030381529060405280519060200120610cd4565b6040517f19ab453c00000000000000000000000000000000000000000000000000000000815233600482015290915073ffffffffffffffffffffffffffffffffffffffff8216906319ab453c90602401600060405180830381600087803b15801561028c57600080fd5b505af11580156102a0573d6000803e3d6000fd5b5050505090565b606060006102b78a8a8a86610b62565b905073ffffffffffffffffffffffffffffffffffffffff8816156103d7576040517f72e9196700000000000000000000000000000000000000000000000000000000815273ffffffffffffffffffffffffffffffffffffffff8916906372e9196790610329908490879060040161156b565b60006040518083038186803b15801561034157600080fd5b505afa92505050801561039457506040513d6000823e601f3d9081017fffffffffffffffffffffffffffffffffffffffffffffffffffffffffffffffe016820160405261039191908101906115d5565b60015b6103ce573d8080156103c2576040519150601f19603f3d011682016040523d82523d6000602084013e6103c7565b606091505b50506103d7565b91506104b29050565b600054815160208301516040517fb9183b3100000000000000000000000000000000000000000000000000000000815273ffffffffffffffffffffffffffffffffffffffff9093169263b9183b319261043c9290918c908c908c908c9060040161160a565b60006040518083038186803b15801561045457600080fd5b505afa158015610468573d6000803e3d6000fd5b505050506040513d6000823e601f3d9081017fffffffffffffffffffffffffffffffffffffffffffffffffffffffffffffffe01682016040526104ae91908101906115d5565b9150505b98975050505050505050565b6104c6610e3b565b6040517f9b9173520000000000000000000000000000000000000000000000000000000081526004810185905273ffffffffffffffffffffffffffffffffffffffff861690639b9173529060240160006040518083038186803b15801561052c57600080fd5b505afa158015610540573d6000803e3d6000fd5b505050506040513d6000823e601f3d9081017fffffffffffffffffffffffffffffffffffffffffffffffffffffffffffffffe0168201604052610586919081019061177c565b6020820181815260a09091018590525173ffffffffffffffffffffffffffffffffffffffff86166080909101526105bc85610bda565b6020820151516040517f36aa589d00000000000000000000000000000000000000000000000000000000815273ffffffffffffffffffffffffffffffffffffffff92909216916336aa589d91610614916004016118ed565b60006040518083038186803b15801561062c57600080fd5b505afa158015610640573d6000803e3d6000fd5b505050506040513d6000823e601f3d9081017fffffffffffffffffffffffffffffffffffffffffffffffffffffffffffffffe0168201604052610686919081019061195b565b815273ffffffffffffffffffffffffffffffffffffffff8316156107ab5760208101516040517f39fed0c400000000000000000000000000000000000000000000000000000000815273ffffffffffffffffffffffffffffffffffffffff8516916339fed0c4916107009189918991908890600401611a0c565b60006040518083038186803b15801561071857600080fd5b505afa92505050801561076b57506040513d6000823e601f3d9081017fffffffffffffffffffffffffffffffffffffffffffffffffffffffffffffffe0168201604052610768919081019061177c565b60015b6107a5573d808015610799576040519150601f19603f3d011682016040523d82523d6000602084013e61079e565b606091505b50506107ab565b60208201525b949350505050565b606060006107c389898986610b62565b905073ffffffffffffffffffffffffffffffffffffffff8716156108e3576040517f8eba997800000000000000000000000000000000000000000000000000000000815273ffffffffffffffffffffffffffffffffffffffff881690638eba997890610835908490879060040161156b565b60006040518083038186803b15801561084d57600080fd5b505afa9250505080156108a057506040513d6000823e601f3d9081017fffffffffffffffffffffffffffffffffffffffffffffffffffffffffffffffe016820160405261089d91908101906115d5565b60015b6108da573d8080156108ce576040519150601f19603f3d011682016040523d82523d6000602084013e6108d3565b606091505b50506108e3565b9150610a609050565b60008054602083015183516040517fb9183b3100000000000000000000000000000000000000000000000000000000815273ffffffffffffffffffffffffffffffffffffffff9093169363f6e35446938b928b92879263b9183b31926109579290918891906001908290829060040161160a565b60006040518083038186803b15801561096f57600080fd5b505afa158015610983573d6000803e3d6000fd5b505050506040513d6000823e601f3d9081017fffffffffffffffffffffffffffffffffffffffffffffffffffffffffffffffe01682016040526109c991908101906115d5565b896040518663ffffffff1660e01b81526004016109ea959493929190611a53565b60006040518083038186803b158015610a0257600080fd5b505afa158015610a16573d6000803e3d6000fd5b505050506040513d6000823e601f3d9081017fffffffffffffffffffffffffffffffffffffffffffffffffffffffffffffffe0168201604052610a5c91908101906115d5565b9150505b979650505050505050565b610a73610e3b565b6000610a8186868686610b62565b6000805482516040517f5c60ee9200000000000000000000000000000000000000000000000000000000815293945073ffffffffffffffffffffffffffffffffffffffff90911692635c60ee9292610adc9291600401611ab5565b60006040518083038186803b158015610af457600080fd5b505afa158015610b08573d6000803e3d6000fd5b505050506040513d6000823e601f3d9081017fffffffffffffffffffffffffffffffffffffffffffffffffffffffffffffffe0168201604052610b4e9190810190611ad7565b825260209081015190820152949350505050565b610b6a610e3b565b6000610b78868686866104be565b600054815160208301516040517f4d67139300000000000000000000000000000000000000000000000000000000815293945073ffffffffffffffffffffffffffffffffffffffff90921692634d67139392610adc9291603f90600401611b0c565b6001546040517fffffffffffffffffffffffffffffffffffffffff000000000000000000000000606084901b166020820152600091610c4a9173ffffffffffffffffffffffffffffffffffffffff9091169060340160405160208183030381529060405280519060200120610db8565b905073ffffffffffffffffffffffffffffffffffffffff81163b610ccf576040517f08c379a000000000000000000000000000000000000000000000000000000000815260206004820152600360248201527f503a30000000000000000000000000000000000000000000000000000000000060448201526064015b60405180910390fd5b919050565b60006040517f3d602d80600a3d3981f3363d3d373d3d3d363d7300000000000000000000000081528360601b60148201527f5af43d82803e903d91602b57fd5bf300000000000000000000000000000000006028820152826037826000f591505073ffffffffffffffffffffffffffffffffffffffff8116610db2576040517f08c379a000000000000000000000000000000000000000000000000000000000815260206004820152601760248201527f455243313136373a2063726561746532206661696c65640000000000000000006044820152606401610cc6565b92915050565b6000610e348383306040517f3d602d80600a3d3981f3363d3d373d3d3d363d730000000000000000000000008152606093841b60148201527f5af43d82803e903d91602b57fd5bf3ff000000000000000000000000000000006028820152921b6038830152604c8201526037808220606c830152605591012090565b9392505050565b604051806040016040528060608152602001610eb960405180610140016040528060608152602001606081526020016060815260200160008152602001600073ffffffffffffffffffffffffffffffffffffffff16815260200160008152602001606081526020016060815260200160608152602001606081525090565b905290565b73ffffffffffffffffffffffffffffffffffffffff81168114610ee057600080fd5b50565b80358015158114610ccf57600080fd5b7f4e487b7100000000000000000000000000000000000000000000000000000000600052604160045260246000fd5b604051610140810167ffffffffffffffff81118282101715610f4657610f46610ef3565b60405290565b604051601f82017fffffffffffffffffffffffffffffffffffffffffffffffffffffffffffffffe016810167ffffffffffffffff81118282101715610f9357610f93610ef3565b604052919050565b600067ffffffffffffffff821115610fb557610fb5610ef3565b50601f017fffffffffffffffffffffffffffffffffffffffffffffffffffffffffffffffe01660200190565b600082601f830112610ff257600080fd5b813561100561100082610f9b565b610f4c565b81815284602083860101111561101a57600080fd5b816020850160208301376000918101602001919091529392505050565b600080600080600080600080610100898b03121561105457600080fd5b883561105f81610ebe565b975060208901359650604089013561107681610ebe565b955061108460608a01610ee3565b945061109260808a01610ee3565b93506110a060a08a01610ee3565b92506110ae60c08a01610ee3565b915060e089013567ffffffffffffffff8111156110ca57600080fd5b6110d68b828c01610fe1565b9150509295985092959890939650565b60005b838110156111015781810151838201526020016110e9565b83811115611110576000848401525b50505050565b6000815180845261112e8160208601602086016110e6565b601f017fffffffffffffffffffffffffffffffffffffffffffffffffffffffffffffffe0169290920160200192915050565b602081526000610e346020830184611116565b6000806000806080858703121561118957600080fd5b843561119481610ebe565b93506020850135925060408501356111ab81610ebe565b9150606085013567ffffffffffffffff8111156111c757600080fd5b6111d387828801610fe1565b91505092959194509250565b600081518084526020808501945080840160005b8381101561120f578151875295820195908201906001016111f3565b509495945050505050565b600081518084526020808501808196508360051b8101915082860160005b858110156112625782840389526112508483516111df565b98850198935090840190600101611238565b5091979650505050505050565b600081518084526020808501945080840160005b8381101561120f57815160ff1687529582019590820190600101611283565b600081518084526020808501808196508360051b8101915082860160005b858110156112625782840389526112d8848351611116565b988501989350908401906001016112c0565b600061014082518185526113008286018261126f565b9150506020830151848203602086015261131a828261126f565b91505060408301518482036040860152611334828261126f565b915050606083015160608501526080830151611368608086018273ffffffffffffffffffffffffffffffffffffffff169052565b5060a083015160a085015260c083015184820360c086015261138a82826112a2565b91505060e083015184820360e08601526113a482826112a2565b91505061010080840151858303828701526113bf8382611116565b9250505061012080840151858303828701526113db8382611116565b9695505050505050565b602081526000825160406020840152611401606084018261121a565b905060208401517fffffffffffffffffffffffffffffffffffffffffffffffffffffffffffffffe084830301604085015261143c82826112ea565b95945050505050565b600080600080600080600060e0888a03121561146057600080fd5b873561146b81610ebe565b965060208801359550604088013561148281610ebe565b9450606088013567ffffffffffffffff8082111561149f57600080fd5b6114ab8b838c01610fe1565b955060808a01359150808211156114c157600080fd5b6114cd8b838c01610fe1565b94506114db60a08b01610ee3565b935060c08a01359150808211156114f157600080fd5b506114fe8a828b01610fe1565b91505092959891949750929550565b600081516040845261152260408501826111df565b90506020830151848203602086015261143c82826112ea565b602081526000610e34602083018461150d565b60006020828403121561156057600080fd5b8135610e3481610ebe565b60408152600061157e604083018561150d565b828103602084015261143c8185611116565b600082601f8301126115a157600080fd5b81516115af61100082610f9b565b8181528460208386010111156115c457600080fd5b6107ab8260208301602087016110e6565b6000602082840312156115e757600080fd5b815167ffffffffffffffff8111156115fe57600080fd5b6107ab84828501611590565b60c08152600061161d60c08301896111df565b828103602084015261162f81896112ea565b9615156040840152505092151560608401529015156080830152151560a09091015292915050565b600067ffffffffffffffff82111561167157611671610ef3565b5060051b60200190565b600082601f83011261168c57600080fd5b8151602061169c61100083611657565b82815260059290921b840181019181810190868411156116bb57600080fd5b8286015b848110156116e657805160ff811681146116d95760008081fd5b83529183019183016116bf565b509695505050505050565b8051610ccf81610ebe565b600082601f83011261170d57600080fd5b8151602061171d61100083611657565b82815260059290921b8401810191818101908684111561173c57600080fd5b8286015b848110156116e657805167ffffffffffffffff8111156117605760008081fd5b61176e8986838b0101611590565b845250918301918301611740565b60006020828403121561178e57600080fd5b815167ffffffffffffffff808211156117a657600080fd5b9083019061014082860312156117bb57600080fd5b6117c3610f22565b8251828111156117d257600080fd5b6117de8782860161167b565b8252506020830151828111156117f357600080fd5b6117ff8782860161167b565b60208301525060408301518281111561181757600080fd5b6118238782860161167b565b6040830152506060830151606082015261183f608084016116f1565b608082015260a083015160a082015260c08301518281111561186057600080fd5b61186c878286016116fc565b60c08301525060e08301518281111561188457600080fd5b611890878286016116fc565b60e08301525061010080840151838111156118aa57600080fd5b6118b688828701611590565b82840152505061012080840151838111156118d057600080fd5b6118dc88828701611590565b918301919091525095945050505050565b602081526000610e34602083018461126f565b600082601f83011261191157600080fd5b8151602061192161100083611657565b82815260059290921b8401810191818101908684111561194057600080fd5b8286015b848110156116e65780518352918301918301611944565b6000602080838503121561196e57600080fd5b825167ffffffffffffffff8082111561198657600080fd5b818501915085601f83011261199a57600080fd5b81516119a861100082611657565b81815260059190911b830184019084810190888311156119c757600080fd5b8585015b838110156119ff578051858111156119e35760008081fd5b6119f18b89838a0101611900565b8452509186019186016119cb565b5098975050505050505050565b73ffffffffffffffffffffffffffffffffffffffff85168152836020820152608060408201526000611a4160808301856112ea565b8281036060840152610a608185611116565b60a081526000611a6660a08301886112ea565b8281036020840152611a788188611116565b90508281036040840152611a8c8187611116565b90508281036060840152611aa08186611116565b91505082151560808301529695505050505050565b604081526000611ac860408301856111df565b90508260208301529392505050565b600060208284031215611ae957600080fd5b815167ffffffffffffffff811115611b0057600080fd5b6107ab84828501611900565b606081526000611b1f606083018661121a565b8281036020840152611b3181866112ea565b91505060ff8316604083015294935050505056fea264697066735822122034c3c84e5b18d25aea74eb07d11a2e2440307e94328fe71598be29cf2e74980864736f6c63430008090033608060405234801561001057600080fd5b50615cce80620000216000396000f3fe608060405234801561001057600080fd5b50600436106100c95760003560e01c80637295e04611610081578063d8674cb71161005b578063d8674cb714610189578063daa68c21146101a9578063f6e35446146101bc57600080fd5b80637295e04614610150578063b9183b3114610163578063d7d9b57d1461017657600080fd5b80634d671393116100b25780634d6713931461010a578063577de07c1461012a5780635c60ee921461013d57600080fd5b806330375a35146100ce57806346eceb3a146100f7575b600080fd5b6100e16100dc366004614821565b6101cf565b6040516100ee919061488a565b60405180910390f35b6100e1610105366004614821565b610237565b61011d610118366004614c53565b610278565b6040516100ee9190614cf9565b6100e1610138366004614821565b610324565b61011d61014b366004614d0c565b610337565b61011d61015e366004614d51565b61049d565b6100e1610171366004614d96565b6105fe565b6100e1610184366004614821565b6108e2565b61019c610197366004614e3b565b6108f5565b6040516100ee9190614ec3565b6100e16101b7366004614821565b610c7e565b6100e16101ca366004614ff6565b610c89565b60606040518060400160405280601d81526020017f646174613a6170706c69636174696f6e2f6a736f6e3b6261736536342c00000081525061021083610ef1565b6040516020016102219291906150b4565b6040516020818303038152906040529050919050565b60606040518060400160405280601a81526020017f646174613a696d6167652f7376672b786d6c3b6261736536342c00000000000081525061021083610ef1565b606082606001516001146102ed576040517f08c379a000000000000000000000000000000000000000000000000000000000815260206004820152600360248201527f563173000000000000000000000000000000000000000000000000000000000060448201526064015b60405180910390fd5b600061030285856020015186604001516108f5565b90506000610312600885846110cc565b60409081015101519695505050505050565b60608160405160200161022191906150e3565b606060008060005b8583815181106103515761035161514e565b602002602001015160001415610373578061036b816151ac565b9150506103fd565b600e8111156103b057600f600482901b17868361038f816151ac565b9450815181106103a1576103a161514e565b60209081029190910101525060005b8060048785815181106103c5576103c561514e565b6020026020010151901b178683806103dc906151ac565b9450815181106103ee576103ee61514e565b60209081029190910101525060005b8551610408846151ac565b9350831061033f57600e81111561044d57600f600482901b17868361042c816151ac565b94508151811061043e5761043e61514e565b60209081029190910101525060005b60f08651600161045d91906151e5565b600487901b8317911b178683610472816151ac565b9450815181106104845761048461514e565b6020908102919091010152508452508290505b92915050565b606060f082600184516104b091906151fd565b815181106104c0576104c061514e565b6020026020010151901c67ffffffffffffffff8111156104e2576104e26146eb565b60405190808252806020026020018201604052801561050b578160200160208202803683370190505b5090506000805b83518110156105f757600084828151811061052f5761052f61514e565b6020026020010151600f16905080600f14156105715760048583610552816151ac565b9450815181106105645761056461514e565b6020026020010151901c90505b60005b8181101561059c5783610586816151ac565b9450508080610594906151ac565b915050610574565b5060048583815181106105b1576105b161514e565b6020026020010151901c8484806105c7906151ac565b9550815181106105d9576105d961514e565b602090810291909101015250806105ef816151ac565b915050610512565b5050919050565b6060600061060c603f611408565b610616603f611408565b604051602001610627929190615214565b604051602081830303815290604052905084156106b2578060008861010001515111610688576040518060400160405280600481526020017f234646460000000000000000000000000000000000000000000000000000000081525061068f565b8761010001515b6040516020016106a0929190615357565b60405160208183030381529060405290505b60006106be8988611413565b9050606060015b825181101561074d578281815181106106e0576106e061514e565b602002602001015160200151600014156106f95761074d565b8183828151811061070c5761070c61514e565b6020026020010151600001516040516020016107299291906153d9565b60405160208183030381529060405291508080610745906151ac565b9150506106c5565b50871561088f5760006040516020016107af907f3c7374796c6520747970653d22746578742f63737322203e3c215b434441544181527f5b00000000000000000000000000000000000000000000000000000000000000602082015260210190565b604051602081830303815290604052905060005b600881101561086857808b60e00151511180156107fe57508a60e0015181815181106107f1576107f161514e565b6020026020010151516000145b1561080857610856565b816108148260416151e5565b8c60e00151838151811061082a5761082a61514e565b602002602001015160405160200161084493929190615430565b60405160208183030381529060405291505b80610860816151ac565b9150506107c3565b50808260405160200161087c929190615490565b6040516020818303038152906040529150505b82816040516020016108a29291906154e8565b604051602081830303815290604052935084156108c9576108c284610237565b93506108d5565b6108d284610324565b93505b5050509695505050505050565b606081604051602001610221919061556a565b6060835167ffffffffffffffff811115610911576109116146eb565b60405190808252806020026020018201604052801561094457816020015b606081526020019060019003908161092f5790505b50905060005b8451811015610c765760008061097887848151811061096b5761096b61514e565b602002602001015161153f565b915091508115610989575050610c64565b610994816020611638565b634206900114610a00576040517f08c379a000000000000000000000000000000000000000000000000000000000815260206004820152600860248201527f4445433a50493a3000000000000000000000000000000000000000000000000060448201526064016102e4565b6000610a0d826003611638565b90506000610a1c836008611638565b90506000610a2b848385611832565b90506000610a3a856002611638565b610a459060016151e5565b90508067ffffffffffffffff811115610a6057610a606146eb565b604051908082528060200260200182016040528015610ac357816020015b610ab06040518060a0016040528060608152602001606081526020016060815260200160008152602001600081525090565b815260200190600190039081610a7e5790505b50888881518110610ad657610ad661514e565b602002602001018190525060005b81811015610c5c57610af886868d8d611997565b898981518110610b0a57610b0a61514e565b60200260200101518281518110610b2357610b2361514e565b60200260200101516080018181525050610b3c86611b18565b898981518110610b4e57610b4e61514e565b60200260200101518281518110610b6757610b6761514e565b60200260200101516060018181525050600080610bc68b8b81518110610b8f57610b8f61514e565b60200260200101518481518110610ba857610ba861514e565b602002602001015160800151603f81811c81169260459290921c1690565b91509150610bd5888383611bfd565b8b8b81518110610be757610be761514e565b60200260200101518481518110610c0057610c0061514e565b602002602001015160200181905250848b8b81518110610c2257610c2261514e565b60200260200101518481518110610c3b57610c3b61514e565b60209081029190910101515250819050610c54816151ac565b915050610ae4565b505050505050505b80610c6e816151ac565b91505061094a565b509392505050565b606061049782610ef1565b606060005b60088160ff161015610d9d5781610d688860c001518360ff1681518110610cb757610cb761514e565b602002602001015189600001518460ff1681518110610cd857610cd861514e565b602002602001015160ff16600014610d2457610d1f8a600001518560ff1681518110610d0657610d0661514e565b602002602001015160ff1660088660ff16901b17611408565b610d5b565b6040518060400160405280600481526020017f6e756c6c000000000000000000000000000000000000000000000000000000008152505b8460ff1660071415611d93565b604051602001610d799291906150b4565b60405160208183030381529060405291508080610d95906155d5565b915050610c8e565b50610ddf6040518060400160405280600481526020017f6e616d6500000000000000000000000000000000000000000000000000000000815250866001611d93565b610e206040518060400160405280600b81526020017f6465736372697074696f6e000000000000000000000000000000000000000000815250866001611d93565b610e616040518060400160405280600581526020017f696d616765000000000000000000000000000000000000000000000000000000815250866001611d93565b610ea26040518060400160405280600a81526020017f70726f7065727469657300000000000000000000000000000000000000000000815250856000611e12565b604051602001610eb594939291906155f5565b60405160208183030381529060405290508115610edc57610ed5816101cf565b9050610ee8565b610ee5816108e2565b90505b95945050505050565b6060815160001415610f1157505060408051602081019091526000815290565b6000604051806060016040528060408152602001615c596040913990506000600384516002610f4091906151e5565b610f4a91906156d7565b610f559060046156eb565b90506000610f648260206151e5565b67ffffffffffffffff811115610f7c57610f7c6146eb565b6040519080825280601f01601f191660200182016040528015610fa6576020820181803683370190505b509050818152600183018586518101602084015b818310156110145760039283018051603f601282901c811687015160f890811b8552600c83901c8216880151811b6001860152600683901c8216880151811b60028601529116860151901b93820193909352600401610fba565b60038951066001811461102e5760028114611078576110be565b7f3d3d0000000000000000000000000000000000000000000000000000000000007ffffffffffffffffffffffffffffffffffffffffffffffffffffffffffffffffe8301526110be565b7f3d000000000000000000000000000000000000000000000000000000000000007fffffffffffffffffffffffffffffffffffffffffffffffffffffffffffffffff8301525b509398975050505050505050565b6110d4614562565b6110dc6145d5565b6110e68485611e79565b81528467ffffffffffffffff811115611101576111016146eb565b60405190808252806020026020018201604052801561118a57816020015b6111776040805160e0810182526000918101828152606082018390526080820183905260a0820183905260c0820192909252908190815260408051606081018252600080825260208281018290529282015291015290565b81526020019060019003908161111f5790505b5060208201526040805160608101909152600090806111aa600288615728565b6111b590600161574a565b60ff1681526020016111c8600288615728565b6111d390600161574a565b60ff16815260016020918201526040805160a081018252600080825292810183905290810182905260608101829052608081018290529192505b878160ff1610156112645760405180604001604052808381526020018481525084602001518260ff16815181106112465761124661514e565b6020026020010181905250808061125c906155d5565b91505061120d565b50825160ff87169081905283516020015261127d6145f5565b6112878788611e79565b60408201528767ffffffffffffffff8111156112a5576112a56146eb565b60405190808252806020026020018201604052801561132e57816020015b61131b6040805160e0810182526000918101828152606082018390526080820183905260a0820183905260c0820192909252908190815260408051606081018252600080825260208281018290529282015291015290565b8152602001906001900390816112c35790505b50606082015260005b86518160ff1610156113f8576000878260ff168151811061135a5761135a61514e565b60200260200101515111156113e6576113b582888360ff16815181106113825761138261514e565b60200260200101516113b0888b8660ff16815181106113a3576113a361514e565b6020026020010151611f38565b611fc0565b6113bf8583612564565b6113c9858361286d565b6113d3858361296b565b6113dc82612a51565b6113e68583612a5d565b806113f0816155d5565b915050611337565b50509151925050505b9392505050565b606061049782612b22565b6060600061142584600080603f612c52565b50604080518181526108208101825291925060019190816020015b60408051808201909152606081526000602082015281526020019060019003908161144057905050925060005b603f8110156115365760008115611485576000611488565b60015b60ff1690505b603f8110156115045760006114a6888385603f612c52565b5090506114b285612ce3565b6114bb82612ce3565b14156114d457836114cb816151ac565b945050506114f2565b6114eb86866114e387866151fd565b86888c612d01565b9350600192505b806114fc816151ac565b91505061148e565b5061151d848461151585603f6151fd565b84868a612d01565b600092508291508061152e816151ac565b91505061146d565b50505092915050565b600061156560405180606001604052806060815260200160008152602001600081525090565b82516115745760019150915091565b82815260026020820152825167ffffffffffffffff811115611598576115986146eb565b6040519080825280602002602001820160405280156115c1578160200160208202803683370190505b50815282515b801561163257838185516115db91906151fd565b815181106115eb576115eb61514e565b6020026020010151826000015160018361160591906151fd565b815181106116155761161561514e565b60209081029190910101528061162a8161576f565b9150506115c7565b50915091565b60006001821b7fffffffffffffffffffffffffffffffffffffffffffffffffffffffffffffffff01835180516000906116735761167361514e565b60200260200101511690508160ff1683600001516000815181106116995761169961514e565b6020026020010151901c83600001516000815181106116ba576116ba61514e565b6020026020010181815250508160ff16836040018181516116db91906151e5565b9052506040830151608011610497576000600284602001516116fd91906156d7565b84515190915081101561182b576080846040015161171b91906151fd565b8451805160009061172e5761172e61514e565b60209081029190910101805190911b905260006fffffffffffffffffffffffffffffffff85518051849081106117665761176661514e565b60200260200101511690506080856000015183815181106117895761178961514e565b60200260200101818151901c91508181525050608081901b85600001516000815181106117b8576117b861514e565b602002602001018181511791508181525050608085604001516117db91906151fd565b855180516000906117ee576117ee61514e565b6020908102919091018101805190921c909152850180519061180f826151ac565b8152505060808560400181815161182691906151fd565b905250505b5092915050565b60606000611841856004611638565b61184c9060016151e5565b90506118598160016151e5565b67ffffffffffffffff811115611871576118716146eb565b60405190808252806020026020018201604052801561189a578160200160208202803683370190505b50915060005b8181101561198e5760006118b5876004611638565b90506000806118c5896001611638565b905080600114156118d95760009150611919565b60006118e68a6008611638565b905060006118f58b6008611638565b905060006119048c6008611638565b905080600883901b601085901b171794505050505b60006119268a6001611638565b60011461193d576119388a6008611638565b611940565b60ff5b905061194f83828b878c612e28565b8761195b8760016151e5565b8151811061196b5761196b61514e565b602002602001018181525050505050508080611986906151ac565b9150506118a0565b50509392505050565b604b83901b60006119a9866006611638565b905060006119b8876006611638565b604581901b93909317603f83901b1792905060006119d7886006611638565b905060006119e6896006611638565b9050865160081480156119fa575085516008145b8015611a4a5750868881518110611a1357611a1361514e565b602002602001015160ff166000141580611a4a5750858881518110611a3a57611a3a61514e565b602002602001015160ff16600014155b15611a9e576039868981518110611a6357611a6361514e565b602002602001015160ff16901b851794506033878981518110611a8857611a8861514e565b602002602001015160ff16901b85179450611ab1565b603382901b85179450603981901b851794505b601b611abe8a6001611638565b600114611ad557611ad08a6018611638565b611ad8565b60005b901b94909417936003611aec8a6001611638565b600114611b0357611afe8a6018611638565b611b06565b60005b901b8517945050505050949350505050565b600080611b26836001611638565b600114611b3d57611b38836004611638565b611b40565b60015b905060005b818110156105f757600080611b5b866006611638565b90506000611b6a876006611638565b90506000611b79886003611638565b90506000611b88896001611638565b90508060011415611ba457600684901b94909417821793611bb1565b600683901b949094178317935b80600114611bc0576000611bc3565b60805b60ff16611bd183600c6156eb565b611bdb91906151e5565b85901b9450848817975050505050508080611bf5906151ac565b915050611b45565b60606000611c0c856001611638565b600114611c2e57611c1e856010611638565b611c299060016151e5565b611c44565b611c39856008611638565b611c449060016151e5565b90506040611c5284866156eb565b611c5c91906156d7565b611c679060016151e5565b67ffffffffffffffff811115611c7f57611c7f6146eb565b604051908082528060200260200182016040528015611ca8578160200160208202803683370190505b5091506000805b82811015611d89576000611cc4886002611638565b611ccf9060016151e5565b90508060041415611cf357611ce5886004611638565b611cf09060046151e5565b90505b6000611d00896004611638565b905060005b82811015611d7357611d186040866157a4565b611d239060046156eb565b82901b87611d326040886156d7565b81518110611d4257611d4261514e565b602090810291909101018051909117905284611d5d816151ac565b9550508080611d6b906151ac565b915050611d05565b5050508080611d81906151ac565b915050611caf565b5050509392505050565b6060838383611db15760405180602001604052806000815250611de8565b6040518060400160405280600181526020017f2c000000000000000000000000000000000000000000000000000000000000008152505b604051602001611dfa939291906157b8565b60405160208183030381529060405290509392505050565b6060838383611e305760405180602001604052806000815250611e67565b6040518060400160405280600181526020017f2c000000000000000000000000000000000000000000000000000000000000008152505b604051602001611dfa93929190615858565b611e81614562565b611e8c60028461590b565b60ff166001148015611eab5750611ea460028361590b565b60ff166001145b611f11576040517f08c379a000000000000000000000000000000000000000000000000000000000815260206004820152600660248201527f4d4c3a433a30000000000000000000000000000000000000000000000000000060448201526064016102e4565b611f2281604001518460ff16612e87565b60408101516104979060ff808616908516612ef6565b60008151600114611fa5576040517f08c379a000000000000000000000000000000000000000000000000000000000815260206004820152600a60248201527f43414c433a5056493a300000000000000000000000000000000000000000000060448201526064016102e4565b815160011415611fb757506000610497565b50600092915050565b600062ffffff601b848460ff1681518110611fdd57611fdd61514e565b602090810291909101015160800151901c169050600062ffffff6003858560ff168151811061200e5761200e61514e565b602002602001015160800151901c16905060008061205b868660ff168151811061203a5761203a61514e565b602002602001015160800151603381901c603f9081169260399290921c1690565b9150915060008061207a888860ff1681518110610ba857610ba861514e565b60208b8101805160ff85811690915290519083169101526040805160e0810182526001918101918252929450909250819060608201603f60128b901c1660ff168152602001603f600c8b901c1660ff168152602001603f60068b901c1660ff168152602001603f60ff908b1681169091529082526040805160608101825288831681529187166020838101919091526001838301819052938101929092528c820151810193909352825160a081019093529082528101603f601288901c1660ff168152602001603f600c88901c1660ff168152602001603f600688901c1660ff168152602001603f60ff90881616905260208a015160a00152604080516008808252610120820190925290816020015b60408051606081018252600080825260208083018290529282015282527fffffffffffffffffffffffffffffffffffffffffffffffffffffffffffffffff90920191018161218a5790505060208a015160600152604080516008808252610120820190925290816020015b60408051606081018252600080825260208083018290529282015282527fffffffffffffffffffffffffffffffffffffffffffffffffffffffffffffffff9092019101816121f557505060208a01516080015260005b600881101561233a5760008060006122818c8c60ff16815181106122715761227161514e565b602002602001015185600061300a565b925092509250801561232457828d602001516080015185815181106122a8576122a861514e565b60200260200101516000019060ff16908160ff1681525050818d602001516080015185815181106122db576122db61514e565b60200260200101516020019060ff16908160ff168152505060018d6020015160800151858151811061230f5761230f61514e565b60209081029190910101519015156040909101525b5050508080612332906151ac565b91505061224b565b5060005b600881101561242d5760008060006123748c8c60ff16815181106123645761236461514e565b602002602001015185600161300a565b925092509250801561241757828d6020015160600151858151811061239b5761239b61514e565b60200260200101516000019060ff16908160ff1681525050818d602001516060015185815181106123ce576123ce61514e565b60200260200101516020019060ff16908160ff168152505060018d602001516060015185815181106124025761240261514e565b60209081029190910101519015156040909101525b5050508080612425906151ac565b91505061233e565b50600060a08a0181905260808a015260608901515167ffffffffffffffff81111561245a5761245a6146eb565b6040519080825280602002602001820160405280156124e357816020015b6124d06040805160e0810182526000918101828152606082018390526080820183905260a0820183905260c0820192909252908190815260408051606081018252600080825260208281018290529282015291015290565b8152602001906001900390816124785790505b5060608a01526007604b898960ff16815181106125025761250261514e565b602002602001015160800151901c16896000019060ff16908160ff1681525050612559888860ff168151811061253a5761253a61514e565b602002602001015183838c6040015161306a909392919063ffffffff16565b505050505050505050565b60008260200151826000015160ff16815181106125835761258361514e565b6020026020010151905060008260200151604001519050826020015160a001516040015160ff166000141580156125c1575080516040015160ff1615155b80156125e3575081600001516040015160ff1681600001516040015160ff1611155b156126815780516040908101518351909101516000916126029161592d565b905061262c6001856020015160a0015160400151612620919061592d565b60408601519083613122565b808260200151600001818151612642919061574a565b60ff90811690915260208087015160a0015101511615905061267f5780846020015160a00151602001818151612678919061574a565b60ff169052505b505b60208084015160a00151015160ff16158015906126a5575080516020015160ff1615155b80156126c7575081600001516020015160ff1681600001516020015160ff1611155b1561270c5761270c6001846020015160a00151602001516126e8919061592d565b8251602090810151855190910151612700919061592d565b60408601519190613122565b602083015160a001516080015160ff1615801590612731575080516080015160ff1615155b8015612753575081600001516080015160ff1681600001516080015160ff1611155b156127e85780516080908101518351909101516000916127729161592d565b602085015160a0015160800151604086015191925061279291908361321e565b8082602001516020018181516127a8919061574a565b60ff908116909152602086015160a0015160600151161590506127e65780846020015160a001516060018181516127df919061574a565b60ff169052505b505b602083015160a001516060015160ff161580159061280d575080516060015160ff1615155b801561282f575081600001516060015160ff1681600001516060015160ff1611155b1561286757602083015160a0015160609081015182518201518451909201516128679261285b9161592d565b6040860151919061321e565b50505050565b60008260200151826000015160ff168151811061288c5761288c61514e565b602002602001015190506000826020015160400151905080602001516000015160ff1682602001516000015160ff16116128c75760006128dd565b6020808201515190830151516128dd919061592d565b60ff90811660a08501526020808301518101518482015190910151908216911611612909576000612925565b806020015160200151826020015160200151612925919061592d565b60ff16608084015260a0830180519061293d826155d5565b60ff1690525060a0830151608084015160408501518051602090910151875161286794909390929091613307565b81516129769061334b565b801561298a575061298a816040015161334b565b156129e657600061299e836000015161335b565b905060006129af836040015161335b565b905080151580156129ce5750602382901c600f16602382901c600f1610155b156129df576129df81855190613384565b505061296b565b8151604081015160800151603f81811c8116835260459190911c1660209091015281516000606082018190526080820181905260c0820181905260a090910152612a4d81604001516000606082018190526080820181905260c0820181905260a090910152565b5050565b612a5a816133ad565b50565b60005b8160600151518160ff161015612b1d57600082606001518260ff1681518110612a8b57612a8b61514e565b6020026020010151905080602001516040015115612b0a5760a083015160208201518051612aba90839061574a565b60ff169052506080830151602080830151018051612ad990839061574a565b60ff9081169091526020860151805184935090918516908110612afe57612afe61514e565b60200260200101819052505b5080612b15816155d5565b915050612a60565b505050565b606081612b6257505060408051808201909152600181527f3000000000000000000000000000000000000000000000000000000000000000602082015290565b8160005b8115612b8c5780612b76816151ac565b9150612b859050600a836156d7565b9150612b66565b8067ffffffffffffffff811115612ba557612ba56146eb565b6040519080825280601f01601f191660200182016040528015612bcf576020820181803683370190505b5092505b83156105f757612be46001826151fd565b9050612bf1600a856157a4565b612bfc9060306151e5565b60f81b838281518110612c1157612c1161514e565b60200101907effffffffffffffffffffffffffffffffffffffffffffffffffffffffffffff1916908160001a905350612c4b600a856156d7565b9350612bd3565b60008080612c6084866156eb565b612c6a90876151e5565b8751909150612c7a6006836156d7565b10612c8c576000809250925050612cda565b612c976006826157a4565b612ca290602a6156eb565b87612cae6006846156d7565b81518110612cbe57612cbe61514e565b6020908102919091010151901c91506503ffffffffff82169250505b94509492505050565b6000612cee8261359c565b600583901b63ffffff0016179050919050565b84612d0b57612e20565b6000612d188787846135aa565b9050868181518110612d2c57612d2c61514e565b602002602001015160000151612d4186611408565b612d4a86611408565b612d5386611408565b604051602001612d669493929190615950565b604051602081830303815290604052878281518110612d8757612d8761514e565b6020908102919091010151528115612e1e57868181518110612dab57612dab61514e565b602002602001015160000151612dc16001611408565b612dca87611408565b612ddd612dd88860016151e5565b611408565b604051602001612df09493929190615a26565b604051602081830303815290604052878281518110612e1157612e1161514e565b6020908102919091010151525b505b505050505050565b60006027612e3583613749565b60ff16901b176023612e468461375d565b60ff16901b17601b612e578561376d565b60ff16901b81179050600386901b81179050612e7d612e758661376d565b60ff1661377d565b1795945050505050565b6006612e9382806156eb565b612e9d91906156d7565b612ea89060026151e5565b67ffffffffffffffff811115612ec057612ec06146eb565b604051908082528060200260200182016040528015612ee9578160200160208202803683370190505b5082604001819052505050565b603f821115612f61576040517f08c379a000000000000000000000000000000000000000000000000000000000815260206004820152600b60248201527f564552533a534554573a3000000000000000000000000000000000000000000060448201526064016102e4565b603f811115612fcc576040517f08c379a000000000000000000000000000000000000000000000000000000000815260206004820152600b60248201527f564552533a534554573a3100000000000000000000000000000000000000000060448201526064016102e4565b7ffffffffffffffffffffffffffffffffffffffffffffff8007fffffffffffffff6080909301805160459290921b603f9390931b9190931617179052565b6000806000808461301c57600061301f565b60805b60ff1661302d87600c6156eb565b61303791906151e5565b6060880151901c9050610fff16603f81169350600681901c92508315158061305e57508215155b91505093509350939050565b60ff8116602085015260005b818110156130fa5760005b838110156130e757613093868561379d565b5060006130a1868385613837565b905080156130c95760006130b587836138cc565b505090506130c38882613384565b506130d4565b6130d4876000613384565b50806130df816151ac565b915050613081565b50806130f2816151ac565b915050613076565b5060ff821684526000606085018190526080850181905260c0850181905260a0850152612867565b60005b835160ff1681101561320057835160ff165b8360ff16811115613193578360ff1681101561315257613193565b61318161316260ff8516836151e5565b6040870151849061317490858361390e565b6040890151929190613938565b8061318b8161576f565b915050613137565b5060006131a184600161574a565b60ff1690505b6131b1838561574a565b60ff1681116131ed576131db81836131748760ff16868a6040015161390e9092919063ffffffff16565b806131e5816151ac565b9150506131a7565b50806131f8816151ac565b915050613125565b508083600001818151613213919061574a565b60ff16905250505050565b60005b836020015160ff168110156132f457602084015160ff165b8360ff16811115613287578360ff1681101561325457613287565b6132758261326560ff8616846151e5565b604088015161317490868661390e565b8061327f8161576f565b915050613239565b50600061329584600161574a565b60ff1690505b6132a5838561574a565b60ff1681116132e1576132cf8282613174858860ff168a6040015161390e9092919063ffffffff16565b806132d9816151ac565b91505061329b565b50806132ec816151ac565b915050613221565b508083602001818151613213919061574a565b60ff80851660608701819052908416608087015260c086015261332a848361574a565b60ff168552613339838261574a565b60ff1660209095019490945250505050565b600061049782836000015161379d565b6000610497826060015160ff16836080015160ff16846040015161390e9092919063ffffffff16565b612a4d826060015160ff16836080015160ff16838560400151613938909392919063ffffffff16565b606060008060005b846020015160800151518160ff161015613595576040805160608101825260008082526020808301829052928201529086015160800151805160ff84169081106134015761340161514e565b602002602001015160400151156134f1578361341c816155d5565b9450508560200151608001518260ff168151811061343c5761343c61514e565b60200260200101519050806020015186606001518360ff16815181106134645761346461514e565b6020026020010151602001516000019060ff16908160ff1681525050806000015186606001518360ff168151811061349e5761349e61514e565b6020026020010151602001516020019060ff16908160ff1681525050600186606001518360ff16815181106134d5576134d561514e565b6020908102919091018101510151901515604090910152613582565b8560200151606001518260ff168151811061350e5761350e61514e565b602002602001015160400151156135825782613529816155d5565b935050845160001415613546576135438660400151613966565b94505b613575868760200151606001518460ff16815181106135675761356761514e565b602002602001015187613bb1565b9050613582868284613d07565b508061358d816155d5565b9150506133b5565b5050505050565b600061049760078316613f93565b60006135b583612ce3565b6135c157506000611401565b806135cb816151ac565b9150505b835181101561363f578381815181106135ea576135ea61514e565b602002602001015160200151600014156136035761363f565b828482815181106136165761361661514e565b602002602001015160200151141561362d57611401565b80613637816151ac565b9150506135cf565b828482815181106136525761365261514e565b60200260200101516020018181525050600061366d8461359c565b60ff1461368d57613688600461368286612ce3565b90613fbf565b6136a5565b6136a56003600861369d87612ce3565b901c90613fbf565b9050821561370357806136c06007602787901c1660416151e5565b6040516020016136d1929190615aee565b6040516020818303038152906040528583815181106136f2576136f261514e565b602090810291909101015152610c76565b806040516020016137149190615b88565b6040516020818303038152906040528583815181106137355761373561514e565b602090810291909101015152509392505050565b6000600782111561375957600080fd5b5090565b6000600f82111561375957600080fd5b600060ff82111561375957600080fd5b6000602461378a8361376d565b6137949190615728565b60ff1692915050565b60008260a00151156138265760608301516137b990600161574a565b60ff168260ff16116138165760808301516137d590600161574a565b60ff16836020015160ff1614156137ee57506000610497565b60c083015160ff1660608401526080830180519061380b826155d5565b60ff1690525061382e565b6060830180519061380b826155d5565b600160a08401525b50600192915050565b6080830151600090603f90811c168161385082856156eb565b61385a90866151e5565b60208701515190915061386e6040836156d7565b1061387e57600092505050611401565b6138896040826157a4565b6138949060046156eb565b60208701516138a46040846156d7565b815181106138b4576138b461514e565b6020026020010151901c600f16925050509392505050565b6000806000846000015184815181106138e7576138e761514e565b602002602001015192506138fa83612ce3565b9150602383901c600f165b90509250925092565b60808301516040840151600091603f90811c169061392e90858584612c52565b5095945050505050565b6080840151603f90811c16600061394f82856156eb565b61395990866151e5565b9050612e208682856140ba565b6060600080600061397685614171565b60408051600580825260c082019092529396509194509250816020015b60408051606081018252600080825260208083018290529282015282527fffffffffffffffffffffffffffffffffffffffffffffffffffffffffffffffff90920191018161399357905050935080846000815181106139f4576139f461514e565b60200260200101819052506040518060600160405280826000015160ff168152602001848360200151613a27919061592d565b60ff1681526020016001151581525084600181518110613a4957613a4961514e565b602090810291909101015282613a6060028261590b565b60ff1615613a765780613a72816155d5565b9150505b6040805160608101909152825160ff16815260208101613a97600284615728565b8460200151613aa6919061592d565b60ff1681526020016001151581525085600281518110613ac857613ac861514e565b602090810291909101015282613adf60028261590b565b60ff1615613af55780613af1816155d5565b9150505b6040805160608101909152835160ff16815260208101613b16600284615728565b8560200151613b25919061574a565b60ff1681526020016001151581525086600381518110613b4757613b4761514e565b60200260200101819052506040518060600160405280846000015160ff168152602001858560200151613b7a919061574a565b60ff1681526020016001151581525086600481518110613b9c57613b9c61514e565b60200260200101819052505050505050919050565b604080516060810182526000808252602082018190529181019190915281836000015160ff1681518110613be757613be761514e565b60209081029190910101515160ff908116825283518351849291909116908110613c1357613c1361514e565b60209081029190910181015181015160ff908116838301526001604084015284820151161015613c5e5782602001518160200151613c51919061592d565b60ff166020820152613c87565b60208360200151613c6f919061592d565b8160200151613c7e919061574a565b60ff1660208201525b805160208201516040808701510151613ca892909160ff9182169116614546565b61140157806020015160ff1682600081518110613cc757613cc761514e565b60200260200101516020015160ff161115613cf75760208101805190613cec826155d5565b60ff16905250613c87565b60208101805190613cec82615bf4565b6040805160a0810182526000808252602082018190529181018290526060810182905260808101919091525b604084015151613d459060019061592d565b60ff16836000015160ff16108015613d925750613d9281602001516001613d6c919061574a565b8451613d78919061574a565b602085015160408088015101519160ff9081169116614546565b15613db25760208101805190613da7826155d5565b60ff16905250613d33565b825160ff1615801590613dde57506040810151613dd090600161574a565b60ff16836000015160ff1610155b8015613e055750613e0581604001516001613df9919061574a565b8451613d78919061592d565b15613e255760408101805190613e1a826155d5565b60ff16905250613db2565b602083015160ff1615801590613e5457506060810151613e4690600161574a565b60ff16836020015160ff1610155b8015613e96575082516060820151613e969160ff1690613e7590600161574a565b8560200151613e84919061592d565b6040808801510151919060ff16614546565b15613eb65760608101805190613eab826155d5565b60ff16905250613e25565b6001846040015160200151613ecb919061592d565b60ff16836020015160ff16108015613f07575082516080820151613f079160ff1690613ef890600161574a565b8560200151613e84919061574a565b15613f275760808101805190613f1c826155d5565b60ff16905250613eb6565b83606001518260ff1681518110613f4057613f4061514e565b602002602001015160200151604001516128675760405180604001604052808281526020018481525084606001518360ff1681518110613f8257613f8261514e565b602002602001018190525050505050565b60008160071415613fa6575060ff919050565b613faf82613749565b613794906024615c2f565b919050565b60606000613fce8360026156eb565b67ffffffffffffffff811115613fe657613fe66146eb565b6040519080825280601f01601f191660200182016040528015614010576020820181803683370190505b5080519091505b8015610c76577f303132333435363738396162636465660000000000000000000000000000000085600f16601081106140525761405261514e565b1a60f81b826140626001846151fd565b815181106140725761407261514e565b60200101907effffffffffffffffffffffffffffffffffffffffffffffffffffffffffffff1916908160001a90535060049490941c93806140b28161576f565b915050614017565b6140c56006836156d7565b8360400151511115612b1d5760006140f16140e16006856157a4565b6140ec90602a6156eb565b61376d565b90506503ffffffffff60ff82161b1960408501516141106006866156d7565b815181106141205761412061514e565b6020908102919091010180519091169052604084015160ff821683901b906141496006866156d7565b815181106141595761415961514e565b60200260200101818151179150818152505050505050565b604080516060810182526000808252602082018190529181018290528190835161419d90600290615728565b60ff16815260208401516141b390600290615728565b60ff1660208201526001604082018190529250829150600080808480825b806143f357821580156141e2575083155b925082156142b8576142266141f883600161574a565b8851614204919061592d565b60ff168a8960200151614217919061592d565b60408d0151919060ff16614546565b8015614247575061424761423b83600161574a565b8851614204919061574a565b801561427b575061427b61425c83600161574a565b8851614268919061592d565b60ff16898960200151614217919061574a565b801561429c575061429c61429083600161574a565b8851614268919061574a565b156142b357816142ab816155d5565b9250506142b8565b600193505b8561433c5760008988602001516142cf919061592d565b60ff1611801561430857508651614308906142eb90849061592d565b60ff166142f98b600161574a565b8960200151614217919061592d565b801561432057508651614320906142eb90849061574a565b15614337578861432f816155d5565b99505061433c565b600195505b846143d25760018a60200151614352919061592d565b60ff16888860200151614365919061574a565b60ff1610801561439e5750865161439e9061438190849061592d565b60ff1661438f8a600161574a565b8960200151614217919061574a565b80156143b6575086516143b69061438190849061574a565b156143cd57876143c5816155d5565b9850506143d2565b600194505b8480156143dc5750855b80156143e55750835b156143ee575060015b6141d1565b8760ff168960ff161461453957600061440c898b61574a565b61441790600161574a565b905060006002614427818461590b565b60ff161561443f5761443a83600161574a565b614441565b825b61444b9190615728565b905060008b60018b6020015184614462919061574a565b61446c919061592d565b614476919061592d565b9050896020015160ff168160ff1611156144de5760008a602001518261449c919061592d565b90506144a8818e61574a565b9c508060ff168c60ff16116144c9576144c18c8261592d565b9b508b6144d7565b6144d3818d61592d565b9b508b5b505061452e565b6000818b602001516144f0919061592d565b90508060ff168d60ff1611614511576145098d8261592d565b9c508c61451f565b61451b818e61592d565b9c508c5b5061452a818d61574a565b9b50505b60ff1660208a015250505b5050505050509193909250565b60008061455485858561390e565b600716151595945050505050565b6040518060e00160405280600060ff168152602001600060ff1681526020016145b36040518060a0016040528060608152602001606081526020016060815260200160008152602001600081525090565b8152600060208201819052604082018190526060820181905260809091015290565b60405180604001604052806145e8614562565b8152602001606081525090565b6040518060c00160405280600060ff168152602001614612614639565b815260200161461f614562565b815260606020820181905260006040830181905291015290565b6040805160e081018252600080825260208201529081016146a86040805160e0810182526000918101828152606082018390526080820183905260a0820183905260c0820192909252908190815260408051606081018252600080825260208281018290529282015291015290565b8152606060208083018290526040808401839052805160a081018252600080825292810183905290810182905280830182905260808101919091529101906145e8565b7f4e487b7100000000000000000000000000000000000000000000000000000000600052604160045260246000fd5b604051610140810167ffffffffffffffff8111828210171561473e5761473e6146eb565b60405290565b604051601f82017fffffffffffffffffffffffffffffffffffffffffffffffffffffffffffffffe016810167ffffffffffffffff8111828210171561478b5761478b6146eb565b604052919050565b600082601f8301126147a457600080fd5b813567ffffffffffffffff8111156147be576147be6146eb565b6147ef60207fffffffffffffffffffffffffffffffffffffffffffffffffffffffffffffffe0601f84011601614744565b81815284602083860101111561480457600080fd5b816020850160208301376000918101602001919091529392505050565b60006020828403121561483357600080fd5b813567ffffffffffffffff81111561484a57600080fd5b61485684828501614793565b949350505050565b60005b83811015614879578181015183820152602001614861565b838111156128675750506000910152565b60208152600082518060208401526148a981604085016020870161485e565b601f017fffffffffffffffffffffffffffffffffffffffffffffffffffffffffffffffe0169190910160400192915050565b600067ffffffffffffffff8211156148f5576148f56146eb565b5060051b60200190565b600082601f83011261491057600080fd5b81356020614925614920836148db565b614744565b82815260059290921b8401810191818101908684111561494457600080fd5b8286015b8481101561495f5780358352918301918301614948565b509695505050505050565b600082601f83011261497b57600080fd5b8135602061498b614920836148db565b82815260059290921b840181019181810190868411156149aa57600080fd5b8286015b8481101561495f57803567ffffffffffffffff8111156149ce5760008081fd5b6149dc8986838b01016148ff565b8452509183019183016149ae565b803560ff81168114613fba57600080fd5b600082601f830112614a0c57600080fd5b81356020614a1c614920836148db565b82815260059290921b84018101918181019086841115614a3b57600080fd5b8286015b8481101561495f57614a50816149ea565b8352918301918301614a3f565b803573ffffffffffffffffffffffffffffffffffffffff81168114613fba57600080fd5b600082601f830112614a9257600080fd5b81356020614aa2614920836148db565b82815260059290921b84018101918181019086841115614ac157600080fd5b8286015b8481101561495f57803567ffffffffffffffff811115614ae55760008081fd5b614af38986838b0101614793565b845250918301918301614ac5565b60006101408284031215614b1457600080fd5b614b1c61471a565b9050813567ffffffffffffffff80821115614b3657600080fd5b614b42858386016149fb565b83526020840135915080821115614b5857600080fd5b614b64858386016149fb565b60208401526040840135915080821115614b7d57600080fd5b614b89858386016149fb565b604084015260608401356060840152614ba460808501614a5d565b608084015260a084013560a084015260c0840135915080821115614bc757600080fd5b614bd385838601614a81565b60c084015260e0840135915080821115614bec57600080fd5b614bf885838601614a81565b60e084015261010091508184013581811115614c1357600080fd5b614c1f86828701614793565b838501525061012091508184013581811115614c3a57600080fd5b614c4686828701614793565b8385015250505092915050565b600080600060608486031215614c6857600080fd5b833567ffffffffffffffff80821115614c8057600080fd5b614c8c8783880161496a565b94506020860135915080821115614ca257600080fd5b50614caf86828701614b01565b925050613905604085016149ea565b600081518084526020808501945080840160005b83811015614cee57815187529582019590820190600101614cd2565b509495945050505050565b6020815260006114016020830184614cbe565b60008060408385031215614d1f57600080fd5b823567ffffffffffffffff811115614d3657600080fd5b614d42858286016148ff565b95602094909401359450505050565b600060208284031215614d6357600080fd5b813567ffffffffffffffff811115614d7a57600080fd5b614856848285016148ff565b80358015158114613fba57600080fd5b60008060008060008060c08789031215614daf57600080fd5b863567ffffffffffffffff80821115614dc757600080fd5b614dd38a838b016148ff565b97506020890135915080821115614de957600080fd5b50614df689828a01614b01565b955050614e0560408801614d86565b9350614e1360608801614d86565b9250614e2160808801614d86565b9150614e2f60a08801614d86565b90509295509295509295565b600080600060608486031215614e5057600080fd5b833567ffffffffffffffff80821115614e6857600080fd5b614e748783880161496a565b94506020860135915080821115614e8a57600080fd5b614e96878388016149fb565b93506040860135915080821115614eac57600080fd5b50614eb9868287016149fb565b9150509250925092565b60006020808301818452808551808352604092508286019150828160051b87010184880160005b83811015614fe8578883037fffffffffffffffffffffffffffffffffffffffffffffffffffffffffffffffc0018552815180518085529088019088850190600581901b86018a0160005b82811015614fd2577fffffffffffffffffffffffffffffffffffffffffffffffffffffffffffffffe0888303018452845160a08151818552614f7882860182614cbe565b9150508d8201518482038f860152614f908282614cbe565b9150508c8201518482038e860152614fa88282614cbe565b6060848101519087015260809384015193909501929092525050938b0193928b0192600101614f34565b50978a0197955050509187019150600101614eea565b509098975050505050505050565b600080600080600060a0868803121561500e57600080fd5b853567ffffffffffffffff8082111561502657600080fd5b61503289838a01614b01565b9650602088013591508082111561504857600080fd5b61505489838a01614793565b9550604088013591508082111561506a57600080fd5b61507689838a01614793565b9450606088013591508082111561508c57600080fd5b5061509988828901614793565b9250506150a860808701614d86565b90509295509295909350565b600083516150c681846020880161485e565b8351908301906150da81836020880161485e565b01949350505050565b7f646174613a696d6167652f7376672b786d6c3b636861727365743d5554462d3881527f2c0000000000000000000000000000000000000000000000000000000000000060208201526000825161514181602185016020870161485e565b9190910160210192915050565b7f4e487b7100000000000000000000000000000000000000000000000000000000600052603260045260246000fd5b7f4e487b7100000000000000000000000000000000000000000000000000000000600052601160045260246000fd5b60007fffffffffffffffffffffffffffffffffffffffffffffffffffffffffffffffff8214156151de576151de61517d565b5060010190565b600082198211156151f8576151f861517d565b500190565b60008282101561520f5761520f61517d565b500390565b7f3c7376670000000000000000000000000000000000000000000000000000000081527f2076696577626f783d223020302000000000000000000000000000000000000060048201526000835161527281601285016020880161485e565b7f200000000000000000000000000000000000000000000000000000000000000060129184019182015283516152af81601384016020880161485e565b7f222076657273696f6e3d22312e3222206261736550726f66696c653d2274696e601392909101918201527f792220786d6c6e733d22687474703a2f2f7777772e77332e6f72672f3230303060338201527f2f73766722206f766572666c6f773d2276697369626c652220786d6c3a73706160538201527f63653d22707265736572766522000000000000000000000000000000000000006073820152608001949350505050565b6000835161536981846020880161485e565b7f207374796c653d226261636b67726f756e642d636f6c6f723a0000000000000090830190815283516153a381601984016020880161485e565b7f220000000000000000000000000000000000000000000000000000000000000060199290910191820152601a01949350505050565b600083516153eb81846020880161485e565b8351908301906153ff81836020880161485e565b7f222f3e00000000000000000000000000000000000000000000000000000000009101908152600301949350505050565b6000845161544281846020890161485e565b80830190507f2e000000000000000000000000000000000000000000000000000000000000008152846001820152835161548381602184016020880161485e565b0160210195945050505050565b600083516154a281846020880161485e565b7f5d5d3e3c2f7374796c653e00000000000000000000000000000000000000000090830190815283516154dc81600b84016020880161485e565b01600b01949350505050565b600083516154fa81846020880161485e565b7f3e00000000000000000000000000000000000000000000000000000000000000908301908152835161553481600184016020880161485e565b7f3c2f7376673e000000000000000000000000000000000000000000000000000060019290910191820152600701949350505050565b7f646174613a6170706c69636174696f6e2f6a736f6e3b636861727365743d555481527f462d382c000000000000000000000000000000000000000000000000000000006020820152600082516155c881602485016020870161485e565b9190910160240192915050565b600060ff821660ff8114156155ec576155ec61517d565b60010192915050565b7f7b0000000000000000000000000000000000000000000000000000000000000081526000855161562d816001850160208a0161485e565b855190830190615644816001840160208a0161485e565b855191019061565a81600184016020890161485e565b845191019061567081600184016020880161485e565b7f7d00000000000000000000000000000000000000000000000000000000000000600192909101918201526002019695505050505050565b7f4e487b7100000000000000000000000000000000000000000000000000000000600052601260045260246000fd5b6000826156e6576156e66156a8565b500490565b6000817fffffffffffffffffffffffffffffffffffffffffffffffffffffffffffffffff04831182151516156157235761572361517d565b500290565b600060ff83168061573b5761573b6156a8565b8060ff84160491505092915050565b600060ff821660ff84168060ff038211156157675761576761517d565b019392505050565b60008161577e5761577e61517d565b507fffffffffffffffffffffffffffffffffffffffffffffffffffffffffffffffff0190565b6000826157b3576157b36156a8565b500690565b60007f220000000000000000000000000000000000000000000000000000000000000080835285516157f1816001860160208a0161485e565b7f223a220000000000000000000000000000000000000000000000000000000000600191850191820152855161582e816004840160208a0161485e565b01600481019190915283519061584b82600583016020880161485e565b0160050195945050505050565b7f220000000000000000000000000000000000000000000000000000000000000081526000845161589081600185016020890161485e565b7f223a7b000000000000000000000000000000000000000000000000000000000060019184019182015284516158cd81600484016020890161485e565b7f7d0000000000000000000000000000000000000000000000000000000000000060049290910191820152835161584b81600584016020880161485e565b600060ff83168061591e5761591e6156a8565b8060ff84160691505092915050565b600060ff821660ff8416808210156159475761594761517d565b90039392505050565b60008551615962818460208a0161485e565b7f4d00000000000000000000000000000000000000000000000000000000000000908301908152855161599c816001840160208a0161485e565b7f20000000000000000000000000000000000000000000000000000000000000006001929091019182015284516159da81600284016020890161485e565b7f6800000000000000000000000000000000000000000000000000000000000000600292909101918201528351615a1881600384016020880161485e565b016003019695505050505050565b60008551615a38818460208a0161485e565b7f76000000000000000000000000000000000000000000000000000000000000009083019081528551615a72816001840160208a0161485e565b7f4c00000000000000000000000000000000000000000000000000000000000000600192909101918201528451615ab081600284016020890161485e565b7f2000000000000000000000000000000000000000000000000000000000000000600292909101918201528351615a1881600384016020880161485e565b7f3c706174682066696c6c3d222300000000000000000000000000000000000000815260008351615b2681600d85016020880161485e565b7f2220636c6173733d220000000000000000000000000000000000000000000000600d93909101928301525060168101919091527f2220643d220000000000000000000000000000000000000000000000000000006036820152603b01919050565b7f3c70617468207374726f6b653d22230000000000000000000000000000000000815260008251615bc081600f85016020870161485e565b7f2220643d22000000000000000000000000000000000000000000000000000000600f939091019283015250601401919050565b600060ff821680615c0757615c0761517d565b7fffffffffffffffffffffffffffffffffffffffffffffffffffffffffffffffff0192915050565b600060ff821660ff84168160ff0481118215151615615c5057615c5061517d565b02939250505056fe4142434445464748494a4b4c4d4e4f505152535455565758595a6162636465666768696a6b6c6d6e6f707172737475767778797a303132333435363738392b2fa2646970667358221220f6ad3790113422474d7496b6cdaefd24e501732ca78f95fe407d5f25aa959bc064736f6c6343000809003360a060405234801561001057600080fd5b50336080526080516114d66100376000396000818161015c015261044301526114d66000f3fe608060405234801561001057600080fd5b50600436106100885760003560e01c8063645ace531161005b578063645ace53146101315780636aea29a31461015757806387ae70311461017e578063f9ec93d41461019157600080fd5b80630c67edb81461008d57806311c16aa3146100d757806319ab453c146100fc57806336aa589d14610111575b600080fd5b6000546100ad9073ffffffffffffffffffffffffffffffffffffffff1681565b60405173ffffffffffffffffffffffffffffffffffffffff90911681526020015b60405180910390f35b6100ea6100e5366004610ce4565b6101b1565b60405160ff90911681526020016100ce565b61010f61010a366004610d37565b61040a565b005b61012461011f366004610e16565b610512565b6040516100ce9190610eb3565b6100ea61013f366004610f5b565b60ff9081166000908152600260205260409020541690565b6100ad7f000000000000000000000000000000000000000000000000000000000000000081565b61010f61018c366004610f76565b610630565b6101a461019f366004610fb8565b610808565b6040516100ce9190610feb565b600080546040517fcfd856c700000000000000000000000000000000000000000000000000000000815233600482015273ffffffffffffffffffffffffffffffffffffffff9091169063cfd856c790602401602060405180830381600087803b15801561021d57600080fd5b505af1158015610231573d6000803e3d6000fd5b505050506040513d601f19601f82011682018060405250810190610255919061102f565b6102c0576040517f08c379a000000000000000000000000000000000000000000000000000000000815260206004820152600360248201527f433a30000000000000000000000000000000000000000000000000000000000060448201526064015b60405180910390fd5b60006102cb83610ac9565b905060008160ff161161033a576040517f08c379a000000000000000000000000000000000000000000000000000000000815260206004820152600360248201527f463a30000000000000000000000000000000000000000000000000000000000060448201526064016102b7565b60006103468585610add565b60ff808816600081815260016020818152604080842080549384018155845281842090920180547fffffffffffffffffffffff0000000000000000000000000000000000000000001673ffffffffffffffffffffffffffffffffffffffff881674ff000000000000000000000000000000000000000060a08c901b161717905592825260029092529081208054939450859390926103e691859116611080565b92506101000a81548160ff021916908360ff16021790555081925050509392505050565b60005473ffffffffffffffffffffffffffffffffffffffff1615801561046557503373ffffffffffffffffffffffffffffffffffffffff7f000000000000000000000000000000000000000000000000000000000000000016145b6104cb576040517f08c379a000000000000000000000000000000000000000000000000000000000815260206004820152600360248201527f433a30000000000000000000000000000000000000000000000000000000000060448201526064016102b7565b600080547fffffffffffffffffffffffff00000000000000000000000000000000000000001673ffffffffffffffffffffffffffffffffffffffff92909216919091179055565b6060815167ffffffffffffffff81111561052e5761052e610d74565b60405190808252806020026020018201604052801561056157816020015b606081526020019060019003908161054c5790505b50905060005b82518160ff16101561062a57828160ff1681518110610588576105886110a5565b602002602001015160ff16600014156105d1576040805160008152602081019091528251839060ff84169081106105c1576105c16110a5565b6020026020010181905250610618565b6105f781848360ff16815181106105ea576105ea6110a5565b6020026020010151610808565b828260ff168151811061060c5761060c6110a5565b60200260200101819052505b80610622816110d4565b915050610567565b50919050565b60005473ffffffffffffffffffffffffffffffffffffffff16331461065457600080fd5b60005b60088160ff16101561080357600061069684848460ff1681811061067d5761067d6110a5565b905060200281019061068f91906110f4565b9050610ac9565b905060008160ff1611610705576040517f08c379a000000000000000000000000000000000000000000000000000000000815260206004820152600360248201527f463a30000000000000000000000000000000000000000000000000000000000060448201526064016102b7565b600061073685858560ff1681811061071f5761071f6110a5565b905060200281019061073191906110f4565b610add565b60ff808516600081815260016020818152604080842080549384018155845281842090920180547fffffffffffffffffffffff0000000000000000000000000000000000000000001673ffffffffffffffffffffffffffffffffffffffff881674ff000000000000000000000000000000000000000060a08c901b161717905592825260029092529081208054939450859390926107d691859116611080565b92506101000a81548160ff021916908360ff160217905550505080806107fb906110d4565b915050610657565b505050565b606060ff8216610874576040517f08c379a000000000000000000000000000000000000000000000000000000000815260206004820152600360248201527f463a31000000000000000000000000000000000000000000000000000000000060448201526064016102b7565b8161087e8161115c565b60ff808616600090815260026020526040902054919450908116915083168111610904576040517f08c379a000000000000000000000000000000000000000000000000000000000815260206004820152600360248201527f463a32000000000000000000000000000000000000000000000000000000000060448201526064016102b7565b60ff841660009081526001602090815260408083208054825181850281018501909352808352919290919083018282801561097657602002820191906000526020600020905b815474ffffffffffffffffffffffffffffffffffffffffff16815260019091019060200180831161094a575b50505050509050600080600080600090505b8451811015610a3257600060a08683815181106109a7576109a76110a5565b602002602001015174ffffffffffffffffffffffffffffffffffffffffff16901c90508860ff1681846109da9190611080565b60ff161115610a13578582815181106109f5576109f56110a5565b602002602001015194508289610a0b9190611197565b935050610a32565b610a1d8184611080565b92505080610a2a816111ba565b915050610988565b5073ffffffffffffffffffffffffffffffffffffffff8316610ab0576040517f08c379a000000000000000000000000000000000000000000000000000000000815260206004820152600360248201527f463a33000000000000000000000000000000000000000000000000000000000060448201526064016102b7565b610abd838360ff16610bce565b98975050505050505050565b600060ff821115610ad957600080fd5b5090565b6000808383604051602001610af3929190611242565b604080517fffffffffffffffffffffffffffffffffffffffffffffffffffffffffffffffe081840301815290829052610b2e9160200161131b565b60405160208183030381529060405290508051602082016000f0915073ffffffffffffffffffffffffffffffffffffffff8216610bc7576040517f08c379a000000000000000000000000000000000000000000000000000000000815260206004820152601160248201527f4445504c4f594d454e545f4641494c454400000000000000000000000000000060448201526064016102b7565b5092915050565b6060610bd983610c0d565b806020019051810190610bec9190611382565b8281518110610bfd57610bfd6110a5565b6020026020010151905092915050565b6060610c3b826001610c368173ffffffffffffffffffffffffffffffffffffffff84163b611489565b610c41565b92915050565b60408051603f83017fffffffffffffffffffffffffffffffffffffffffffffffffffffffffffffffe0168101909152818152818360208301863c9392505050565b803560ff81168114610c9357600080fd5b919050565b60008083601f840112610caa57600080fd5b50813567ffffffffffffffff811115610cc257600080fd5b6020830191508360208260051b8501011115610cdd57600080fd5b9250929050565b600080600060408486031215610cf957600080fd5b610d0284610c82565b9250602084013567ffffffffffffffff811115610d1e57600080fd5b610d2a86828701610c98565b9497909650939450505050565b600060208284031215610d4957600080fd5b813573ffffffffffffffffffffffffffffffffffffffff81168114610d6d57600080fd5b9392505050565b7f4e487b7100000000000000000000000000000000000000000000000000000000600052604160045260246000fd5b604051601f82017fffffffffffffffffffffffffffffffffffffffffffffffffffffffffffffffe016810167ffffffffffffffff81118282101715610dea57610dea610d74565b604052919050565b600067ffffffffffffffff821115610e0c57610e0c610d74565b5060051b60200190565b60006020808385031215610e2957600080fd5b823567ffffffffffffffff811115610e4057600080fd5b8301601f81018513610e5157600080fd5b8035610e64610e5f82610df2565b610da3565b81815260059190911b82018301908381019087831115610e8357600080fd5b928401925b82841015610ea857610e9984610c82565b82529284019290840190610e88565b979650505050505050565b6000602080830181845280855180835260408601915060408160051b87010192508387016000805b83811015610f4d578886037fffffffffffffffffffffffffffffffffffffffffffffffffffffffffffffffc0018552825180518088529088019088880190845b81811015610f375783518352928a0192918a0191600101610f1b565b5090975050509386019391860191600101610edb565b509398975050505050505050565b600060208284031215610f6d57600080fd5b610d6d82610c82565b60008060208385031215610f8957600080fd5b823567ffffffffffffffff811115610fa057600080fd5b610fac85828601610c98565b90969095509350505050565b60008060408385031215610fcb57600080fd5b610fd483610c82565b9150610fe260208401610c82565b90509250929050565b6020808252825182820181905260009190848201906040850190845b8181101561102357835183529284019291840191600101611007565b50909695505050505050565b60006020828403121561104157600080fd5b81518015158114610d6d57600080fd5b7f4e487b7100000000000000000000000000000000000000000000000000000000600052601160045260246000fd5b600060ff821660ff84168060ff0382111561109d5761109d611051565b019392505050565b7f4e487b7100000000000000000000000000000000000000000000000000000000600052603260045260246000fd5b600060ff821660ff8114156110eb576110eb611051565b60010192915050565b60008083357fffffffffffffffffffffffffffffffffffffffffffffffffffffffffffffffe184360301811261112957600080fd5b83018035915067ffffffffffffffff82111561114457600080fd5b6020019150600581901b3603821315610cdd57600080fd5b600060ff82168061116f5761116f611051565b7fffffffffffffffffffffffffffffffffffffffffffffffffffffffffffffffff0192915050565b600060ff821660ff8416808210156111b1576111b1611051565b90039392505050565b60007fffffffffffffffffffffffffffffffffffffffffffffffffffffffffffffffff8214156111ec576111ec611051565b5060010190565b81835260007f07ffffffffffffffffffffffffffffffffffffffffffffffffffffffffffffff83111561122557600080fd5b8260051b8083602087013760009401602001938452509192915050565b6020808252818101839052600090600560408085019086831b86010187855b8881101561130d577fffffffffffffffffffffffffffffffffffffffffffffffffffffffffffffffc088840301845281357fffffffffffffffffffffffffffffffffffffffffffffffffffffffffffffffe18b36030181126112c257600080fd5b8a01803567ffffffffffffffff8111156112db57600080fd5b80871b36038c13156112ec57600080fd5b6112f985828a85016111f3565b958801959450505090850190600101611261565b509098975050505050505050565b7f600b5981380380925939f300000000000000000000000000000000000000000081526000825160005b81811015611362576020818601810151600c868401015201611345565b81811115611374576000600c83860101525b5091909101600c0192915050565b6000602080838503121561139557600080fd5b825167ffffffffffffffff808211156113ad57600080fd5b818501915085601f8301126113c157600080fd5b81516113cf610e5f82610df2565b818152600591821b84018501918582019190898411156113ee57600080fd5b8686015b8481101561147a5780518681111561140a5760008081fd5b8701603f81018c1361141c5760008081fd5b88810151604061142e610e5f83610df2565b82815291851b83018101918b8101908f84111561144b5760008081fd5b938201935b838510156114695784518252938c0193908c0190611450565b8852505050938801935087016113f2565b50909998505050505050505050565b60008282101561149b5761149b611051565b50039056fea264697066735822122062bc4649eab344b1a5a78f1d20620bc35bc045bbe1e4487ccc5cd13aabcfc59864736f6c63430008090033",
  "devdoc": {
    "author": "nugg.xyz - danny7even & dub6ix",
    "details": "hold my margarita",
    "kind": "dev",
    "methods": {},
    "title": "dotnugg V1 - onchain encoder/decoder protocol for dotnugg files",
    "version": 1
  },
  "userdoc": {
    "kind": "user",
    "methods": {},
    "notice": "yoU CAN'T HaVe ImAgES oN THe BlOCkcHAIn",
    "version": 1
  },
  "storageLayout": {
    "storage": [
      {
        "astId": 1706,
        "contract": "src/DotnuggV1.sol:DotnuggV1",
        "label": "lib",
        "offset": 0,
        "slot": "0",
        "type": "t_contract(DotnuggV1Lib)9052"
      },
      {
        "astId": 1708,
        "contract": "src/DotnuggV1.sol:DotnuggV1",
        "label": "template",
        "offset": 0,
        "slot": "1",
        "type": "t_address"
      }
    ],
    "types": {
      "t_address": {
        "encoding": "inplace",
        "label": "address",
        "numberOfBytes": "20"
      },
      "t_contract(DotnuggV1Lib)9052": {
        "encoding": "inplace",
        "label": "contract DotnuggV1Lib",
        "numberOfBytes": "20"
      }
    }
  }
}