{
    "address": "0x2D9b450E87253EA02072531A1422dec3cEBB0f6c",
    "abi": [
        {
            "inputs": [
                {
                    "components": [
                        {
                            "internalType": "uint8",
                            "name": "width",
                            "type": "uint8"
                        },
                        {
                            "internalType": "uint8",
                            "name": "height",
                            "type": "uint8"
                        },
                        {
                            "components": [
                                {
                                    "internalType": "int8",
                                    "name": "zindex",
                                    "type": "int8"
                                },
                                {
                                    "components": [
                                        {
                                            "internalType": "uint8",
                                            "name": "r",
                                            "type": "uint8"
                                        },
                                        {
                                            "internalType": "uint8",
                                            "name": "g",
                                            "type": "uint8"
                                        },
                                        {
                                            "internalType": "uint8",
                                            "name": "b",
                                            "type": "uint8"
                                        },
                                        {
                                            "internalType": "uint8",
                                            "name": "a",
                                            "type": "uint8"
                                        }
                                    ],
                                    "internalType": "struct IDotNugg.Rgba",
                                    "name": "rgba",
                                    "type": "tuple"
                                },
                                {
                                    "internalType": "bool",
                                    "name": "exists",
                                    "type": "bool"
                                }
                            ],
                            "internalType": "struct IDotNugg.Pixel[][]",
                            "name": "data",
                            "type": "tuple[][]"
                        },
                        {
                            "internalType": "uint8",
                            "name": "currentUnsetX",
                            "type": "uint8"
                        },
                        {
                            "internalType": "uint8",
                            "name": "currentUnsetY",
                            "type": "uint8"
                        },
                        {
                            "internalType": "bool",
                            "name": "init",
                            "type": "bool"
                        },
                        {
                            "internalType": "uint8",
                            "name": "startX",
                            "type": "uint8"
                        }
                    ],
                    "internalType": "struct IDotNugg.Matrix",
                    "name": "matrix",
                    "type": "tuple"
                },
                {
                    "internalType": "bytes",
                    "name": "",
                    "type": "bytes"
                }
            ],
            "name": "resolveFile",
            "outputs": [
                {
                    "internalType": "bytes",
                    "name": "res",
                    "type": "bytes"
                },
                {
                    "internalType": "string",
                    "name": "fileType",
                    "type": "string"
                }
            ],
            "stateMutability": "view",
            "type": "function"
        },
        {
            "inputs": [
                {
                    "internalType": "bytes4",
                    "name": "interfaceId",
                    "type": "bytes4"
                }
            ],
            "name": "supportsInterface",
            "outputs": [
                {
                    "internalType": "bool",
                    "name": "",
                    "type": "bool"
                }
            ],
            "stateMutability": "pure",
            "type": "function"
        }
    ],
    "transactionHash": "0x23f1b3d48f3551fb0451a6d18405b4c713dfbb4ae7ea6385d52d09dad8fd74a7",
    "args": [],
    "solcInputHash": "90f288ce3a0251461453e654dcf5b24f",
    "bytecode": "0x608060405234801561001057600080fd5b506113f3806100206000396000f3fe608060405234801561001057600080fd5b50600436106100365760003560e01c806301ffc9a71461003b5780635236730614610063575b600080fd5b61004e610049366004611065565b610084565b60405190151581526020015b60405180910390f35b61007661007136600461108d565b6100bb565b60405161005a9291906111ca565b60006001600160e01b031982166353c9baa160e01b14806100b557506001600160e01b031982166301ffc9a760e01b145b92915050565b60608060006100c9856100f5565b604080518082019091526007815266646f746e75676760c81b60208201529093509150505b9250929050565b60606100ff610e14565b6040805160328082526106608201909252600091816020015b610120610e14565b815260200190600190039081610118575050604080516103e88082526104208201909252919250600091906020820181803683375050604080516103e8808252610420820190925292935060009291506020820181803683370190505090506000806001805b61018f8a610b53565b156102ae576101b76101a08b610b63565b602001518960200151610bd390919063ffffffff16565b80156101c6575060108160ff16105b156101dd57806101d581611371565b915050610186565b6000806101ea898b610c33565b915091508061020157836101fd81611356565b9450505b8160f81b88878061021190611356565b98508151811061023157634e487b7160e01b600052603260045260246000fd5b60200101906001600160f81b031916908160001a905350610253600184611333565b60f81b878661026181611356565b97508151811061028157634e487b7160e01b600052603260045260246000fd5b60200101906001600160f81b031916908160001a9053506102a18c610b63565b9950600192505050610186565b6000806102bb898b610c33565b91509150806102d257836102ce81611356565b9450505b8160f81b8887806102e290611356565b98508151811061030257634e487b7160e01b600052603260045260246000fd5b60200101906001600160f81b031916908160001a905350610324600184611333565b60f81b878661033281611356565b97508151811061035257634e487b7160e01b600052603260045260246000fd5b60200101906001600160f81b031916908160001a9053506103746002866112f4565b61037f856004611314565b61038990886112b7565b61039391906112b7565b61039e90600c6112b7565b6103a99060016112b7565b6001600160401b038111156103ce57634e487b7160e01b600052604160045260246000fd5b6040519080825280601f01601f1916602001820160405280156103f8576020820181803683370190505b509a506000601960fa1b8c8261040d81611356565b93508151811061042d57634e487b7160e01b600052603260045260246000fd5b60200101906001600160f81b031916908160001a905350606f60f81b8c8261045481611356565b93508151811061047457634e487b7160e01b600052603260045260246000fd5b60200101906001600160f81b031916908160001a905350601d60fa1b8c8261049b81611356565b9350815181106104bb57634e487b7160e01b600052603260045260246000fd5b60200101906001600160f81b031916908160001a905350603760f91b8c826104e281611356565b93508151811061050257634e487b7160e01b600052603260045260246000fd5b60200101906001600160f81b031916908160001a905350607560f81b8c8261052981611356565b93508151811061054957634e487b7160e01b600052603260045260246000fd5b60200101906001600160f81b031916908160001a905350606760f81b8c8261057081611356565b93508151811061059057634e487b7160e01b600052603260045260246000fd5b60200101906001600160f81b031916908160001a905350606760f81b8c826105b781611356565b9350815181106105d757634e487b7160e01b600052603260045260246000fd5b60200101906001600160f81b031916908160001a90535060008c826105fb81611356565b93508151811061061b57634e487b7160e01b600052603260045260246000fd5b60200101906001600160f81b031916908160001a9053508c5160f81b8c8261064281611356565b93508151811061066257634e487b7160e01b600052603260045260246000fd5b60200101906001600160f81b031916908160001a90535060006106868660016112b7565b610691906004611314565b61069b90836112b7565b905060006106a989836112b7565b90506001600160f81b031960f083901b168e846106c581611356565b9550815181106106e557634e487b7160e01b600052603260045260246000fd5b60200101906001600160f81b031916908160001a9053508160ff1660f81b8e848061070f90611356565b95508151811061072f57634e487b7160e01b600052603260045260246000fd5b60200101906001600160f81b031916908160001a9053506001600160f81b031960f082901b168e8461076081611356565b95508151811061078057634e487b7160e01b600052603260045260246000fd5b60200101906001600160f81b031916908160001a9053508060ff1660f81b8e84806107aa90611356565b9550815181106107ca57634e487b7160e01b600052603260045260246000fd5b60200101906001600160f81b031916908160001a90535060005b878110156109d6578c818151811061080c57634e487b7160e01b600052603260045260246000fd5b6020026020010151602001516000015160f81b8f858061082b90611356565b96508151811061084b57634e487b7160e01b600052603260045260246000fd5b60200101906001600160f81b031916908160001a9053508c818151811061088257634e487b7160e01b600052603260045260246000fd5b6020026020010151602001516020015160f81b8f85806108a190611356565b9650815181106108c157634e487b7160e01b600052603260045260246000fd5b60200101906001600160f81b031916908160001a9053508c81815181106108f857634e487b7160e01b600052603260045260246000fd5b6020026020010151602001516040015160f81b8f858061091790611356565b96508151811061093757634e487b7160e01b600052603260045260246000fd5b60200101906001600160f81b031916908160001a9053508c818151811061096e57634e487b7160e01b600052603260045260246000fd5b6020026020010151602001516060015160f81b8f858061098d90611356565b9650815181106109ad57634e487b7160e01b600052603260045260246000fd5b60200101906001600160f81b031916908160001a905350806109ce81611356565b9150506107e4565b5060005b89811015610a65578b8181518110610a0257634e487b7160e01b600052603260045260246000fd5b01602001516001600160f81b0319168f85610a1c81611356565b965081518110610a3c57634e487b7160e01b600052603260045260246000fd5b60200101906001600160f81b031916908160001a90535080610a5d81611356565b9150506109da565b5060005b88811015610b4057610aec8b8281518110610a9457634e487b7160e01b600052603260045260246000fd5b01602001516001600160f81b0319168c610aaf8460016112b7565b81518110610acd57634e487b7160e01b600052603260045260246000fd5b01602001516001600160f81b03191660049190911b600f60fc1b161790565b8f85610af781611356565b965081518110610b1757634e487b7160e01b600052603260045260246000fd5b60200101906001600160f81b031916908160001a905350610b396002826112b7565b9050610a69565b5050505050505050505050505050919050565b60006100b5828360000151610d7a565b610b6b610e14565b8160400151826080015160ff1681518110610b9657634e487b7160e01b600052603260045260246000fd5b6020026020010151826060015160ff1681518110610bc457634e487b7160e01b600052603260045260246000fd5b60200260200101519050919050565b6000816060015160ff16836060015160ff16148015610bfa57508151835160ff9081169116145b8015610c135750816020015160ff16836020015160ff16145b8015610c2c5750816040015160ff16836040015160ff16145b9392505050565b60008082602001516060015160ff1660001415610c5657506000905060016100ee565b60015b84518160ff161015610d0757610caa8460200151868360ff1681518110610c9057634e487b7160e01b600052603260045260246000fd5b602002602001015160200151610bd390919063ffffffff16565b15610cba579150600190506100ee565b848160ff1681518110610cdd57634e487b7160e01b600052603260045260246000fd5b602002602001015160400151610cf557809250610d07565b80610cff81611371565b915050610c59565b5082848360ff1681518110610d2c57634e487b7160e01b600052603260045260246000fd5b60200260200101819052506001848360ff1681518110610d5c57634e487b7160e01b600052603260045260246000fd5b60209081029190910101519015156040909101525060009250929050565b60008260a0015115610e03576060830151610d969060016112cf565b60ff168260ff1611610df3576080830151610db29060016112cf565b60ff16836020015160ff161415610dcb575060006100b5565b60c083015160ff16606084015260808301805190610de882611371565b60ff16905250610e0b565b60608301805190610de882611371565b600160a08401525b50600192915050565b60408051606080820183526000808352835160808101855281815260208181018390529481018290529182015290918201908152600060209091015290565b600082601f830112610e63578081fd5b81356020610e78610e7383611294565b611264565b80838252828201915082860187848660051b8901011115610e97578586fd5b855b85811015610fc85781356001600160401b03811115610eb6578788fd5b8801603f81018a13610ec6578788fd5b85810135610ed6610e7382611294565b808282528882019150604084018d604060c086028701011115610ef7578b8cfd5b8b94505b83851015610fb257808e0360c0811215610f13578c8dfd5b610f1b6111f8565b8235808f0b8114610f2a578e8ffd5b81526080601f1983011215610f3d578d8efd5b610f45611220565b9150610f528c8401611054565b8252610f6060408401611054565b8c830152610f7060608401611054565b6040830152610f8160808401611054565b6060830152818c820152610f9760a08401610fd5565b6040820152845250600194909401939189019160c001610efb565b5087525050509284019290840190600101610e99565b5090979650505050505050565b80358015158114610fe557600080fd5b919050565b600082601f830112610ffa578081fd5b81356001600160401b03811115611013576110136113a7565b611026601f8201601f1916602001611264565b81815284602083860101111561103a578283fd5b816020850160208301379081016020019190915292915050565b803560ff81168114610fe557600080fd5b600060208284031215611076578081fd5b81356001600160e01b031981168114610c2c578182fd5b6000806040838503121561109f578081fd5b82356001600160401b03808211156110b5578283fd5b9084019060e082870312156110c8578283fd5b6110d0611242565b6110d983611054565b81526110e760208401611054565b60208201526040830135828111156110fd578485fd5b61110988828601610e53565b60408301525061111b60608401611054565b606082015261112c60808401611054565b608082015261113d60a08401610fd5565b60a082015261114e60c08401611054565b60c082015293506020850135915080821115611168578283fd5b5061117585828601610fea565b9150509250929050565b60008151808452815b818110156111a457602081850181015186830182015201611188565b818111156111b55782602083870101525b50601f01601f19169290920160200192915050565b6040815260006111dd604083018561117f565b82810360208401526111ef818561117f565b95945050505050565b604051606081016001600160401b038111828210171561121a5761121a6113a7565b60405290565b604051608081016001600160401b038111828210171561121a5761121a6113a7565b60405160e081016001600160401b038111828210171561121a5761121a6113a7565b604051601f8201601f191681016001600160401b038111828210171561128c5761128c6113a7565b604052919050565b60006001600160401b038211156112ad576112ad6113a7565b5060051b60200190565b600082198211156112ca576112ca611391565b500190565b600060ff821660ff84168060ff038211156112ec576112ec611391565b019392505050565b60008261130f57634e487b7160e01b81526012600452602481fd5b500490565b600081600019048311821515161561132e5761132e611391565b500290565b600060ff821660ff84168082101561134d5761134d611391565b90039392505050565b600060001982141561136a5761136a611391565b5060010190565b600060ff821660ff81141561138857611388611391565b60010192915050565b634e487b7160e01b600052601160045260246000fd5b634e487b7160e01b600052604160045260246000fdfea2646970667358221220cf3da767eb581215f26202c95b9933e8afb998f262d4cb00eedc85015f80ffab64736f6c63430008040033",
    "devdoc": {
        "kind": "dev",
        "methods": {
            "supportsInterface(bytes4)": {
                "details": "See {IERC165-supportsInterface}."
            }
        },
        "version": 1
    },
    "userdoc": {
        "kind": "user",
        "methods": {},
        "version": 1
    },
    "storageLayout": {
        "storage": [],
        "types": null
    }
}