{
  "address": "0xa8ee34981C89f83AABD2e5298621DB5F82E37648",
  "abi": [
    {
      "inputs": [],
      "stateMutability": "nonpayable",
      "type": "constructor"
    },
    {
      "inputs": [],
      "name": "dotnuggv1",
      "outputs": [
        {
          "internalType": "address",
          "name": "",
          "type": "address"
        }
      ],
      "stateMutability": "view",
      "type": "function"
    },
    {
      "inputs": [
        {
          "internalType": "uint8",
          "name": "feature",
          "type": "uint8"
        },
        {
          "internalType": "uint8",
          "name": "pos",
          "type": "uint8"
        }
      ],
      "name": "get",
      "outputs": [
        {
          "internalType": "uint256[]",
          "name": "data",
          "type": "uint256[]"
        }
      ],
      "stateMutability": "view",
      "type": "function"
    },
    {
      "inputs": [
        {
          "internalType": "uint8[]",
          "name": "ids",
          "type": "uint8[]"
        }
      ],
      "name": "getBatch",
      "outputs": [
        {
          "internalType": "uint256[][]",
          "name": "data",
          "type": "uint256[][]"
        }
      ],
      "stateMutability": "view",
      "type": "function"
    },
    {
      "inputs": [],
      "name": "implementer",
      "outputs": [
        {
          "internalType": "address",
          "name": "",
          "type": "address"
        }
      ],
      "stateMutability": "view",
      "type": "function"
    },
    {
      "inputs": [
        {
          "internalType": "address",
          "name": "_implementer",
          "type": "address"
        }
      ],
      "name": "init",
      "outputs": [],
      "stateMutability": "nonpayable",
      "type": "function"
    },
    {
      "inputs": [
        {
          "internalType": "uint8",
          "name": "feature",
          "type": "uint8"
        },
        {
          "internalType": "uint256[][]",
          "name": "data",
          "type": "uint256[][]"
        }
      ],
      "name": "store",
      "outputs": [
        {
          "internalType": "uint8",
          "name": "res",
          "type": "uint8"
        }
      ],
      "stateMutability": "nonpayable",
      "type": "function"
    },
    {
      "inputs": [
        {
          "internalType": "uint8",
          "name": "feature",
          "type": "uint8"
        }
      ],
      "name": "stored",
      "outputs": [
        {
          "internalType": "uint8",
          "name": "res",
          "type": "uint8"
        }
      ],
      "stateMutability": "view",
      "type": "function"
    },
    {
      "inputs": [
        {
          "internalType": "uint256[][][]",
          "name": "data",
          "type": "uint256[][][]"
        }
      ],
      "name": "unsafeBulkStore",
      "outputs": [],
      "stateMutability": "nonpayable",
      "type": "function"
    }
  ],
  "transactionHash": "0x1101cafae4e03b42550751c3c598d4a1b8bdf7c2c00349d7f74a5525e06c6b84",
  "args": [],
  "solcInputHash": "c90f09b49a870d1e2aac3d303fbc7c8d",
  "bytecode": "0x60a060405234801561001057600080fd5b50336080526080516114d66100376000396000818161015c015261044301526114d66000f3fe608060405234801561001057600080fd5b50600436106100885760003560e01c8063645ace531161005b578063645ace53146101315780636aea29a31461015757806387ae70311461017e578063f9ec93d41461019157600080fd5b80630c67edb81461008d57806311c16aa3146100d757806319ab453c146100fc57806336aa589d14610111575b600080fd5b6000546100ad9073ffffffffffffffffffffffffffffffffffffffff1681565b60405173ffffffffffffffffffffffffffffffffffffffff90911681526020015b60405180910390f35b6100ea6100e5366004610ce4565b6101b1565b60405160ff90911681526020016100ce565b61010f61010a366004610d37565b61040a565b005b61012461011f366004610e16565b610512565b6040516100ce9190610eb3565b6100ea61013f366004610f5b565b60ff9081166000908152600260205260409020541690565b6100ad7f000000000000000000000000000000000000000000000000000000000000000081565b61010f61018c366004610f76565b610630565b6101a461019f366004610fb8565b610808565b6040516100ce9190610feb565b600080546040517fcfd856c700000000000000000000000000000000000000000000000000000000815233600482015273ffffffffffffffffffffffffffffffffffffffff9091169063cfd856c790602401602060405180830381600087803b15801561021d57600080fd5b505af1158015610231573d6000803e3d6000fd5b505050506040513d601f19601f82011682018060405250810190610255919061102f565b6102c0576040517f08c379a000000000000000000000000000000000000000000000000000000000815260206004820152600360248201527f433a30000000000000000000000000000000000000000000000000000000000060448201526064015b60405180910390fd5b60006102cb83610ac9565b905060008160ff161161033a576040517f08c379a000000000000000000000000000000000000000000000000000000000815260206004820152600360248201527f463a30000000000000000000000000000000000000000000000000000000000060448201526064016102b7565b60006103468585610add565b60ff808816600081815260016020818152604080842080549384018155845281842090920180547fffffffffffffffffffffff0000000000000000000000000000000000000000001673ffffffffffffffffffffffffffffffffffffffff881674ff000000000000000000000000000000000000000060a08c901b161717905592825260029092529081208054939450859390926103e691859116611080565b92506101000a81548160ff021916908360ff16021790555081925050509392505050565b60005473ffffffffffffffffffffffffffffffffffffffff1615801561046557503373ffffffffffffffffffffffffffffffffffffffff7f000000000000000000000000000000000000000000000000000000000000000016145b6104cb576040517f08c379a000000000000000000000000000000000000000000000000000000000815260206004820152600360248201527f433a30000000000000000000000000000000000000000000000000000000000060448201526064016102b7565b600080547fffffffffffffffffffffffff00000000000000000000000000000000000000001673ffffffffffffffffffffffffffffffffffffffff92909216919091179055565b6060815167ffffffffffffffff81111561052e5761052e610d74565b60405190808252806020026020018201604052801561056157816020015b606081526020019060019003908161054c5790505b50905060005b82518160ff16101561062a57828160ff1681518110610588576105886110a5565b602002602001015160ff16600014156105d1576040805160008152602081019091528251839060ff84169081106105c1576105c16110a5565b6020026020010181905250610618565b6105f781848360ff16815181106105ea576105ea6110a5565b6020026020010151610808565b828260ff168151811061060c5761060c6110a5565b60200260200101819052505b80610622816110d4565b915050610567565b50919050565b60005473ffffffffffffffffffffffffffffffffffffffff16331461065457600080fd5b60005b60088160ff16101561080357600061069684848460ff1681811061067d5761067d6110a5565b905060200281019061068f91906110f4565b9050610ac9565b905060008160ff1611610705576040517f08c379a000000000000000000000000000000000000000000000000000000000815260206004820152600360248201527f463a30000000000000000000000000000000000000000000000000000000000060448201526064016102b7565b600061073685858560ff1681811061071f5761071f6110a5565b905060200281019061073191906110f4565b610add565b60ff808516600081815260016020818152604080842080549384018155845281842090920180547fffffffffffffffffffffff0000000000000000000000000000000000000000001673ffffffffffffffffffffffffffffffffffffffff881674ff000000000000000000000000000000000000000060a08c901b161717905592825260029092529081208054939450859390926107d691859116611080565b92506101000a81548160ff021916908360ff160217905550505080806107fb906110d4565b915050610657565b505050565b606060ff8216610874576040517f08c379a000000000000000000000000000000000000000000000000000000000815260206004820152600360248201527f463a31000000000000000000000000000000000000000000000000000000000060448201526064016102b7565b8161087e8161115c565b60ff808616600090815260026020526040902054919450908116915083168111610904576040517f08c379a000000000000000000000000000000000000000000000000000000000815260206004820152600360248201527f463a32000000000000000000000000000000000000000000000000000000000060448201526064016102b7565b60ff841660009081526001602090815260408083208054825181850281018501909352808352919290919083018282801561097657602002820191906000526020600020905b815474ffffffffffffffffffffffffffffffffffffffffff16815260019091019060200180831161094a575b50505050509050600080600080600090505b8451811015610a3257600060a08683815181106109a7576109a76110a5565b602002602001015174ffffffffffffffffffffffffffffffffffffffffff16901c90508860ff1681846109da9190611080565b60ff161115610a13578582815181106109f5576109f56110a5565b602002602001015194508289610a0b9190611197565b935050610a32565b610a1d8184611080565b92505080610a2a816111ba565b915050610988565b5073ffffffffffffffffffffffffffffffffffffffff8316610ab0576040517f08c379a000000000000000000000000000000000000000000000000000000000815260206004820152600360248201527f463a33000000000000000000000000000000000000000000000000000000000060448201526064016102b7565b610abd838360ff16610bce565b98975050505050505050565b600060ff821115610ad957600080fd5b5090565b6000808383604051602001610af3929190611242565b604080517fffffffffffffffffffffffffffffffffffffffffffffffffffffffffffffffe081840301815290829052610b2e9160200161131b565b60405160208183030381529060405290508051602082016000f0915073ffffffffffffffffffffffffffffffffffffffff8216610bc7576040517f08c379a000000000000000000000000000000000000000000000000000000000815260206004820152601160248201527f4445504c4f594d454e545f4641494c454400000000000000000000000000000060448201526064016102b7565b5092915050565b6060610bd983610c0d565b806020019051810190610bec9190611382565b8281518110610bfd57610bfd6110a5565b6020026020010151905092915050565b6060610c3b826001610c368173ffffffffffffffffffffffffffffffffffffffff84163b611489565b610c41565b92915050565b60408051603f83017fffffffffffffffffffffffffffffffffffffffffffffffffffffffffffffffe0168101909152818152818360208301863c9392505050565b803560ff81168114610c9357600080fd5b919050565b60008083601f840112610caa57600080fd5b50813567ffffffffffffffff811115610cc257600080fd5b6020830191508360208260051b8501011115610cdd57600080fd5b9250929050565b600080600060408486031215610cf957600080fd5b610d0284610c82565b9250602084013567ffffffffffffffff811115610d1e57600080fd5b610d2a86828701610c98565b9497909650939450505050565b600060208284031215610d4957600080fd5b813573ffffffffffffffffffffffffffffffffffffffff81168114610d6d57600080fd5b9392505050565b7f4e487b7100000000000000000000000000000000000000000000000000000000600052604160045260246000fd5b604051601f82017fffffffffffffffffffffffffffffffffffffffffffffffffffffffffffffffe016810167ffffffffffffffff81118282101715610dea57610dea610d74565b604052919050565b600067ffffffffffffffff821115610e0c57610e0c610d74565b5060051b60200190565b60006020808385031215610e2957600080fd5b823567ffffffffffffffff811115610e4057600080fd5b8301601f81018513610e5157600080fd5b8035610e64610e5f82610df2565b610da3565b81815260059190911b82018301908381019087831115610e8357600080fd5b928401925b82841015610ea857610e9984610c82565b82529284019290840190610e88565b979650505050505050565b6000602080830181845280855180835260408601915060408160051b87010192508387016000805b83811015610f4d578886037fffffffffffffffffffffffffffffffffffffffffffffffffffffffffffffffc0018552825180518088529088019088880190845b81811015610f375783518352928a0192918a0191600101610f1b565b5090975050509386019391860191600101610edb565b509398975050505050505050565b600060208284031215610f6d57600080fd5b610d6d82610c82565b60008060208385031215610f8957600080fd5b823567ffffffffffffffff811115610fa057600080fd5b610fac85828601610c98565b90969095509350505050565b60008060408385031215610fcb57600080fd5b610fd483610c82565b9150610fe260208401610c82565b90509250929050565b6020808252825182820181905260009190848201906040850190845b8181101561102357835183529284019291840191600101611007565b50909695505050505050565b60006020828403121561104157600080fd5b81518015158114610d6d57600080fd5b7f4e487b7100000000000000000000000000000000000000000000000000000000600052601160045260246000fd5b600060ff821660ff84168060ff0382111561109d5761109d611051565b019392505050565b7f4e487b7100000000000000000000000000000000000000000000000000000000600052603260045260246000fd5b600060ff821660ff8114156110eb576110eb611051565b60010192915050565b60008083357fffffffffffffffffffffffffffffffffffffffffffffffffffffffffffffffe184360301811261112957600080fd5b83018035915067ffffffffffffffff82111561114457600080fd5b6020019150600581901b3603821315610cdd57600080fd5b600060ff82168061116f5761116f611051565b7fffffffffffffffffffffffffffffffffffffffffffffffffffffffffffffffff0192915050565b600060ff821660ff8416808210156111b1576111b1611051565b90039392505050565b60007fffffffffffffffffffffffffffffffffffffffffffffffffffffffffffffffff8214156111ec576111ec611051565b5060010190565b81835260007f07ffffffffffffffffffffffffffffffffffffffffffffffffffffffffffffff83111561122557600080fd5b8260051b8083602087013760009401602001938452509192915050565b6020808252818101839052600090600560408085019086831b86010187855b8881101561130d577fffffffffffffffffffffffffffffffffffffffffffffffffffffffffffffffc088840301845281357fffffffffffffffffffffffffffffffffffffffffffffffffffffffffffffffe18b36030181126112c257600080fd5b8a01803567ffffffffffffffff8111156112db57600080fd5b80871b36038c13156112ec57600080fd5b6112f985828a85016111f3565b958801959450505090850190600101611261565b509098975050505050505050565b7f600b5981380380925939f300000000000000000000000000000000000000000081526000825160005b81811015611362576020818601810151600c868401015201611345565b81811115611374576000600c83860101525b5091909101600c0192915050565b6000602080838503121561139557600080fd5b825167ffffffffffffffff808211156113ad57600080fd5b818501915085601f8301126113c157600080fd5b81516113cf610e5f82610df2565b818152600591821b84018501918582019190898411156113ee57600080fd5b8686015b8481101561147a5780518681111561140a5760008081fd5b8701603f81018c1361141c5760008081fd5b88810151604061142e610e5f83610df2565b82815291851b83018101918b8101908f84111561144b5760008081fd5b938201935b838510156114695784518252938c0193908c0190611450565b8852505050938801935087016113f2565b50909998505050505050505050565b60008282101561149b5761149b611051565b50039056fea264697066735822122062bc4649eab344b1a5a78f1d20620bc35bc045bbe1e4487ccc5cd13aabcfc59864736f6c63430008090033",
  "devdoc": {
    "kind": "dev",
    "methods": {},
    "version": 1
  },
  "userdoc": {
    "kind": "user",
    "methods": {},
    "version": 1
  },
  "storageLayout": {
    "storage": [
      {
        "astId": 9075,
        "contract": "src/core/DotnuggV1StorageProxy.sol:DotnuggV1StorageProxy",
        "label": "implementer",
        "offset": 0,
        "slot": "0",
        "type": "t_address"
      },
      {
        "astId": 9129,
        "contract": "src/core/DotnuggV1StorageProxy.sol:DotnuggV1StorageProxy",
        "label": "sstore2Pointers",
        "offset": 0,
        "slot": "1",
        "type": "t_mapping(t_uint8,t_array(t_uint168)dyn_storage)"
      },
      {
        "astId": 9133,
        "contract": "src/core/DotnuggV1StorageProxy.sol:DotnuggV1StorageProxy",
        "label": "featureLengths",
        "offset": 0,
        "slot": "2",
        "type": "t_mapping(t_uint8,t_uint8)"
      }
    ],
    "types": {
      "t_address": {
        "encoding": "inplace",
        "label": "address",
        "numberOfBytes": "20"
      },
      "t_array(t_uint168)dyn_storage": {
        "base": "t_uint168",
        "encoding": "dynamic_array",
        "label": "uint168[]",
        "numberOfBytes": "32"
      },
      "t_mapping(t_uint8,t_array(t_uint168)dyn_storage)": {
        "encoding": "mapping",
        "key": "t_uint8",
        "label": "mapping(uint8 => uint168[])",
        "numberOfBytes": "32",
        "value": "t_array(t_uint168)dyn_storage"
      },
      "t_mapping(t_uint8,t_uint8)": {
        "encoding": "mapping",
        "key": "t_uint8",
        "label": "mapping(uint8 => uint8)",
        "numberOfBytes": "32",
        "value": "t_uint8"
      },
      "t_uint168": {
        "encoding": "inplace",
        "label": "uint168",
        "numberOfBytes": "21"
      },
      "t_uint8": {
        "encoding": "inplace",
        "label": "uint8",
        "numberOfBytes": "1"
      }
    }
  }
}